{
  "_format": "hh-sol-artifact-1",
  "contractName": "Action",
  "sourceName": "contracts/v2/satis_core/Action.sol",
  "abi": [
    {
      "inputs": [
        {
          "internalType": "address",
          "name": "_initialProxyAddress",
          "type": "address"
        }
      ],
      "stateMutability": "nonpayable",
      "type": "constructor"
    },
    {
      "anonymous": false,
      "inputs": [
        {
          "indexed": false,
          "internalType": "address",
          "name": "newOwner",
          "type": "address"
        }
      ],
      "name": "ChangeOwnership",
      "type": "event"
    },
    {
      "anonymous": false,
      "inputs": [
        {
          "indexed": false,
          "internalType": "address",
          "name": "newProxy",
          "type": "address"
        }
      ],
      "name": "ChangeProxy",
      "type": "event"
    },
    {
      "anonymous": false,
      "inputs": [
        {
          "indexed": false,
          "internalType": "string",
          "name": "ticketId",
          "type": "string"
        },
        {
          "indexed": false,
          "internalType": "address",
          "name": "clientAddress",
          "type": "address"
        },
        {
          "indexed": false,
          "internalType": "address",
          "name": "tokenAddress",
          "type": "address"
        },
        {
          "indexed": false,
          "internalType": "uint256",
          "name": "queueValue",
          "type": "uint256"
        }
      ],
      "name": "Queue",
      "type": "event"
    },
    {
      "anonymous": false,
      "inputs": [
        {
          "indexed": false,
          "internalType": "address",
          "name": "clientAddress",
          "type": "address"
        },
        {
          "indexed": false,
          "internalType": "address",
          "name": "tokenAddress",
          "type": "address"
        },
        {
          "indexed": false,
          "internalType": "uint256",
          "name": "transactionValue",
          "type": "uint256"
        },
        {
          "indexed": false,
          "internalType": "string",
          "name": "data",
          "type": "string"
        }
      ],
      "name": "TransferIn",
      "type": "event"
    },
    {
      "anonymous": false,
      "inputs": [
        {
          "indexed": false,
          "internalType": "string",
          "name": "ticketId",
          "type": "string"
        },
        {
          "indexed": false,
          "internalType": "address",
          "name": "clientAddress",
          "type": "address"
        },
        {
          "indexed": false,
          "internalType": "address",
          "name": "tokenAddress",
          "type": "address"
        },
        {
          "indexed": false,
          "internalType": "uint256",
          "name": "withdrawValue",
          "type": "uint256"
        }
      ],
      "name": "Withdraw",
      "type": "event"
    },
    {
      "inputs": [
        {
          "internalType": "address",
          "name": "_clientAddress",
          "type": "address"
        },
        {
          "internalType": "address",
          "name": "_tokenAddress",
          "type": "address"
        },
        {
          "internalType": "uint256",
          "name": "_tokenValue",
          "type": "uint256"
        },
        {
          "internalType": "string",
          "name": "_data",
          "type": "string"
        }
      ],
      "name": "addFundWithAction",
      "outputs": [
        {
          "internalType": "bool",
          "name": "_isDone",
          "type": "bool"
        }
      ],
      "stateMutability": "nonpayable",
      "type": "function"
    },
    {
      "inputs": [],
      "name": "owner",
      "outputs": [
        {
          "internalType": "address",
          "name": "",
          "type": "address"
        }
      ],
      "stateMutability": "view",
      "type": "function"
    },
    {
      "inputs": [],
      "name": "proxy",
      "outputs": [
        {
          "internalType": "address",
          "name": "",
          "type": "address"
        }
      ],
      "stateMutability": "view",
      "type": "function"
    },
    {
      "inputs": [
        {
          "internalType": "string",
          "name": "_ticketId",
          "type": "string"
        },
        {
          "internalType": "address",
          "name": "_clientAddress",
          "type": "address"
        },
        {
          "internalType": "address",
          "name": "_tokenAddress",
          "type": "address"
        },
        {
          "internalType": "uint256",
          "name": "_tokenValue",
          "type": "uint256"
        }
      ],
      "name": "queueWithdraw",
      "outputs": [
        {
          "internalType": "bool",
          "name": "_isDone",
          "type": "bool"
        }
      ],
      "stateMutability": "nonpayable",
      "type": "function"
    },
    {
      "inputs": [
        {
          "internalType": "address",
          "name": "_newOwner",
          "type": "address"
        }
      ],
      "name": "transferOwnership",
      "outputs": [],
      "stateMutability": "nonpayable",
      "type": "function"
    },
    {
      "inputs": [
        {
          "internalType": "address",
          "name": "_newProxyAddress",
          "type": "address"
        }
      ],
      "name": "updateProxyAddress",
      "outputs": [],
      "stateMutability": "nonpayable",
      "type": "function"
    },
    {
      "inputs": [
        {
          "internalType": "string",
          "name": "_ticketId",
          "type": "string"
        },
        {
          "internalType": "address",
          "name": "_clientAddress",
          "type": "address"
        },
        {
          "internalType": "address",
          "name": "_tokenAddress",
          "type": "address"
        },
        {
          "internalType": "uint256",
          "name": "_tokenValue",
          "type": "uint256"
        }
      ],
      "name": "withdrawFund",
      "outputs": [
        {
          "internalType": "bool",
          "name": "_isDone",
          "type": "bool"
        }
      ],
      "stateMutability": "nonpayable",
      "type": "function"
    }
  ],
  "bytecode": "0x608060405234801561001057600080fd5b5060405161087538038061087583398101604081905261002f916100bc565b6001600160a01b0381166100895760405162461bcd60e51b815260206004820152601660248201527f5a65726f206164647265737320666f722070726f787900000000000000000000604482015260640160405180910390fd5b60008054336001600160a01b031991821617909155600180549091166001600160a01b03929092169190911790556100ec565b6000602082840312156100ce57600080fd5b81516001600160a01b03811681146100e557600080fd5b9392505050565b61077a806100fb6000396000f3fe608060405234801561001057600080fd5b506004361061007d5760003560e01c8063d4041e591161005b578063d4041e59146100e8578063eac32a8e146100fb578063ec55688914610110578063f2fde38b1461012357600080fd5b80634dd946951461008257806384c839a9146100aa5780638da5cb5b146100bd575b600080fd5b6100956100903660046105be565b610136565b60405190151581526020015b60405180910390f35b6100956100b8366004610626565b6101e0565b6000546100d0906001600160a01b031681565b6040516001600160a01b0390911681526020016100a1565b6100956100f6366004610626565b610272565b61010e61010936600461068c565b610304565b005b6001546100d0906001600160a01b031681565b61010e61013136600461068c565b610405565b6001546000906001600160a01b031633146101985760405162461bcd60e51b815260206004820152601a60248201527f506c65617365207573652070726f787920636f6e74726163742e00000000000060448201526064015b60405180910390fd5b7fca56091464bda7fd3a1d84d6eedd04e592e9a44e37c5418220a48c79908b9f57858585856040516101cd94939291906106fb565b60405180910390a1506001949350505050565b6001546000906001600160a01b0316331461023d5760405162461bcd60e51b815260206004820152601a60248201527f506c65617365207573652070726f787920636f6e74726163742e000000000000604482015260640161018f565b7f99310eed5bb161586b62449f89ccaa4580f85f953cd64218092edfc2b1f5fce7858585856040516101cd9493929190610737565b6001546000906001600160a01b031633146102cf5760405162461bcd60e51b815260206004820152601a60248201527f506c65617365207573652070726f787920636f6e74726163742e000000000000604482015260640161018f565b7f8894c9bbfc333a61b582fb3d7fbd3032561454787995316844461edf6508ec9b858585856040516101cd9493929190610737565b6000546001600160a01b0316331461034d5760405162461bcd60e51b815260206004820152600c60248201526b2737ba1030b71030b236b4b760a11b604482015260640161018f565b6001600160a01b0381166103a35760405162461bcd60e51b815260206004820152601a60248201527f5a65726f206164647265737320666f72206e65772070726f7879000000000000604482015260640161018f565b6001805473ffffffffffffffffffffffffffffffffffffffff19166001600160a01b0383169081179091556040519081527fcf16493c33f7a5001593c6b3158b6613c39a56bed7e2fe27f83a7ee297b6e32a906020015b60405180910390a150565b6000546001600160a01b0316331461044e5760405162461bcd60e51b815260206004820152600c60248201526b2737ba1030b71030b236b4b760a11b604482015260640161018f565b6001600160a01b0381166104a45760405162461bcd60e51b815260206004820152601a60248201527f5a65726f206164647265737320666f72206e6577206f776e6572000000000000604482015260640161018f565b6000805473ffffffffffffffffffffffffffffffffffffffff19166001600160a01b0383169081179091556040519081527f244ded7a3b73e60f03281fc183df050e6134d393c50788e980dc090f06e72809906020016103fa565b80356001600160a01b038116811461051657600080fd5b919050565b634e487b7160e01b600052604160045260246000fd5b600082601f83011261054257600080fd5b813567ffffffffffffffff8082111561055d5761055d61051b565b604051601f8301601f19908116603f011681019082821181831017156105855761058561051b565b8160405283815286602085880101111561059e57600080fd5b836020870160208301376000602085830101528094505050505092915050565b600080600080608085870312156105d457600080fd5b6105dd856104ff565b93506105eb602086016104ff565b925060408501359150606085013567ffffffffffffffff81111561060e57600080fd5b61061a87828801610531565b91505092959194509250565b6000806000806080858703121561063c57600080fd5b843567ffffffffffffffff81111561065357600080fd5b61065f87828801610531565b94505061066e602086016104ff565b925061067c604086016104ff565b9396929550929360600135925050565b60006020828403121561069e57600080fd5b6106a7826104ff565b9392505050565b6000815180845260005b818110156106d4576020818501810151868301820152016106b8565b818111156106e6576000602083870101525b50601f01601f19169290920160200192915050565b60006001600160a01b0380871683528086166020840152508360408301526080606083015261072d60808301846106ae565b9695505050505050565b60808152600061074a60808301876106ae565b6001600160a01b039586166020840152939094166040820152606001529291505056fea164736f6c634300080c000a",
  "linkReferences": {},
  "deployedLinkReferences": {}
}