{
  "_format": "hh-sol-artifact-1",
  "contractName": "Action",
  "sourceName": "contracts/v2/satis_core/Action.sol",
  "abi": [
    {
      "inputs": [
        {
          "internalType": "address",
          "name": "_initialProxyAddress",
          "type": "address"
        }
      ],
      "stateMutability": "nonpayable",
      "type": "constructor"
    },
    {
      "anonymous": false,
      "inputs": [
        {
          "indexed": false,
          "internalType": "address",
          "name": "newOwner",
          "type": "address"
        }
      ],
      "name": "ChangeOwnership",
      "type": "event"
    },
    {
      "anonymous": false,
      "inputs": [
        {
          "indexed": false,
          "internalType": "address",
          "name": "newProxy",
          "type": "address"
        }
      ],
      "name": "ChangeProxy",
      "type": "event"
    },
    {
      "anonymous": false,
      "inputs": [
        {
          "indexed": false,
          "internalType": "string",
          "name": "ticketId",
          "type": "string"
        },
        {
          "indexed": false,
          "internalType": "address",
          "name": "clientAddress",
          "type": "address"
        },
        {
          "indexed": false,
          "internalType": "address",
          "name": "tokenAddress",
          "type": "address"
        },
        {
          "indexed": false,
          "internalType": "uint256",
          "name": "queueValue",
          "type": "uint256"
        }
      ],
      "name": "Queue",
      "type": "event"
    },
    {
      "anonymous": false,
      "inputs": [
        {
          "indexed": false,
          "internalType": "address",
          "name": "clientAddress",
          "type": "address"
        },
        {
          "indexed": false,
          "internalType": "address",
          "name": "tokenAddress",
          "type": "address"
        },
        {
          "indexed": false,
          "internalType": "uint256",
          "name": "transactionValue",
          "type": "uint256"
        },
        {
          "indexed": false,
          "internalType": "string",
          "name": "data",
          "type": "string"
        }
      ],
      "name": "TransferIn",
      "type": "event"
    },
    {
      "anonymous": false,
      "inputs": [
        {
          "indexed": false,
          "internalType": "string",
          "name": "ticketId",
          "type": "string"
        },
        {
          "indexed": false,
          "internalType": "address",
          "name": "clientAddress",
          "type": "address"
        },
        {
          "indexed": false,
          "internalType": "address",
          "name": "tokenAddress",
          "type": "address"
        },
        {
          "indexed": false,
          "internalType": "uint256",
          "name": "withdrawValue",
          "type": "uint256"
        },
        {
          "indexed": false,
          "internalType": "uint256",
          "name": "inDebtValue",
          "type": "uint256"
        }
      ],
      "name": "Withdraw",
      "type": "event"
    },
    {
      "inputs": [
        {
          "internalType": "address",
          "name": "_clientAddress",
          "type": "address"
        },
        {
          "internalType": "address",
          "name": "_tokenAddress",
          "type": "address"
        },
        {
          "internalType": "uint256",
          "name": "_tokenValue",
          "type": "uint256"
        },
        {
          "internalType": "string",
          "name": "_data",
          "type": "string"
        }
      ],
      "name": "addFundWithAction",
      "outputs": [
        {
          "internalType": "bool",
          "name": "_isDone",
          "type": "bool"
        }
      ],
      "stateMutability": "nonpayable",
      "type": "function"
    },
    {
      "inputs": [],
      "name": "owner",
      "outputs": [
        {
          "internalType": "address",
          "name": "",
          "type": "address"
        }
      ],
      "stateMutability": "view",
      "type": "function"
    },
    {
      "inputs": [],
      "name": "proxy",
      "outputs": [
        {
          "internalType": "address",
          "name": "",
          "type": "address"
        }
      ],
      "stateMutability": "view",
      "type": "function"
    },
    {
      "inputs": [
        {
          "internalType": "string",
          "name": "_ticketId",
          "type": "string"
        },
        {
          "internalType": "address",
          "name": "_clientAddress",
          "type": "address"
        },
        {
          "internalType": "address",
          "name": "_tokenAddress",
          "type": "address"
        },
        {
          "internalType": "uint256",
          "name": "_tokenValue",
          "type": "uint256"
        }
      ],
      "name": "queueWithdraw",
      "outputs": [
        {
          "internalType": "bool",
          "name": "_isDone",
          "type": "bool"
        }
      ],
      "stateMutability": "nonpayable",
      "type": "function"
    },
    {
      "inputs": [
        {
          "internalType": "address",
          "name": "_newOwner",
          "type": "address"
        }
      ],
      "name": "transferOwnership",
      "outputs": [],
      "stateMutability": "nonpayable",
      "type": "function"
    },
    {
      "inputs": [
        {
          "internalType": "address",
          "name": "_newProxyAddress",
          "type": "address"
        }
      ],
      "name": "updateProxyAddress",
      "outputs": [],
      "stateMutability": "nonpayable",
      "type": "function"
    },
    {
      "inputs": [
        {
          "internalType": "string",
          "name": "_ticketId",
          "type": "string"
        },
        {
          "internalType": "address",
          "name": "_clientAddress",
          "type": "address"
        },
        {
          "internalType": "address",
          "name": "_tokenAddress",
          "type": "address"
        },
        {
          "internalType": "uint256",
          "name": "_withdrawValue",
          "type": "uint256"
        },
        {
          "internalType": "uint256",
          "name": "_inDebtValue",
          "type": "uint256"
        }
      ],
      "name": "withdrawFund",
      "outputs": [
        {
          "internalType": "bool",
          "name": "_isDone",
          "type": "bool"
        }
      ],
      "stateMutability": "nonpayable",
      "type": "function"
    }
  ],
  "bytecode": "0x608060405234801561001057600080fd5b5060405161093b38038061093b83398101604081905261002f916100bc565b6001600160a01b0381166100895760405162461bcd60e51b815260206004820152601660248201527f5a65726f206164647265737320666f722070726f787900000000000000000000604482015260640160405180910390fd5b60008054336001600160a01b031991821617909155600180549091166001600160a01b03929092169190911790556100ec565b6000602082840312156100ce57600080fd5b81516001600160a01b03811681146100e557600080fd5b9392505050565b610840806100fb6000396000f3fe608060405234801561001057600080fd5b506004361061007d5760003560e01c8063e8475dfa1161005b578063e8475dfa146100e8578063eac32a8e146100fb578063ec55688914610110578063f2fde38b1461012357600080fd5b80634dd94695146100825780638da5cb5b146100aa578063d4041e59146100d5575b600080fd5b6100956100903660046105d4565b610136565b60405190151581526020015b60405180910390f35b6000546100bd906001600160a01b031681565b6040516001600160a01b0390911681526020016100a1565b6100956100e336600461063c565b6101e0565b6100956100f63660046106a2565b610272565b61010e610109366004610712565b61031a565b005b6001546100bd906001600160a01b031681565b61010e610131366004610712565b61041b565b6001546000906001600160a01b031633146101985760405162461bcd60e51b815260206004820152601a60248201527f506c65617365207573652070726f787920636f6e74726163742e00000000000060448201526064015b60405180910390fd5b7fca56091464bda7fd3a1d84d6eedd04e592e9a44e37c5418220a48c79908b9f57858585856040516101cd9493929190610781565b60405180910390a1506001949350505050565b6001546000906001600160a01b0316331461023d5760405162461bcd60e51b815260206004820152601a60248201527f506c65617365207573652070726f787920636f6e74726163742e000000000000604482015260640161018f565b7f8894c9bbfc333a61b582fb3d7fbd3032561454787995316844461edf6508ec9b858585856040516101cd94939291906107bd565b6001546000906001600160a01b031633146102cf5760405162461bcd60e51b815260206004820152601a60248201527f506c65617365207573652070726f787920636f6e74726163742e000000000000604482015260640161018f565b7fd64c21970d492e8c762aa7701b4f7192bfd2eccb0adfd5b7ebf2208a13f6630086868686866040516103069594939291906107f3565b60405180910390a150600195945050505050565b6000546001600160a01b031633146103635760405162461bcd60e51b815260206004820152600c60248201526b2737ba1030b71030b236b4b760a11b604482015260640161018f565b6001600160a01b0381166103b95760405162461bcd60e51b815260206004820152601a60248201527f5a65726f206164647265737320666f72206e65772070726f7879000000000000604482015260640161018f565b6001805473ffffffffffffffffffffffffffffffffffffffff19166001600160a01b0383169081179091556040519081527fcf16493c33f7a5001593c6b3158b6613c39a56bed7e2fe27f83a7ee297b6e32a906020015b60405180910390a150565b6000546001600160a01b031633146104645760405162461bcd60e51b815260206004820152600c60248201526b2737ba1030b71030b236b4b760a11b604482015260640161018f565b6001600160a01b0381166104ba5760405162461bcd60e51b815260206004820152601a60248201527f5a65726f206164647265737320666f72206e6577206f776e6572000000000000604482015260640161018f565b6000805473ffffffffffffffffffffffffffffffffffffffff19166001600160a01b0383169081179091556040519081527f244ded7a3b73e60f03281fc183df050e6134d393c50788e980dc090f06e7280990602001610410565b80356001600160a01b038116811461052c57600080fd5b919050565b634e487b7160e01b600052604160045260246000fd5b600082601f83011261055857600080fd5b813567ffffffffffffffff8082111561057357610573610531565b604051601f8301601f19908116603f0116810190828211818310171561059b5761059b610531565b816040528381528660208588010111156105b457600080fd5b836020870160208301376000602085830101528094505050505092915050565b600080600080608085870312156105ea57600080fd5b6105f385610515565b935061060160208601610515565b925060408501359150606085013567ffffffffffffffff81111561062457600080fd5b61063087828801610547565b91505092959194509250565b6000806000806080858703121561065257600080fd5b843567ffffffffffffffff81111561066957600080fd5b61067587828801610547565b94505061068460208601610515565b925061069260408601610515565b9396929550929360600135925050565b600080600080600060a086880312156106ba57600080fd5b853567ffffffffffffffff8111156106d157600080fd5b6106dd88828901610547565b9550506106ec60208701610515565b93506106fa60408701610515565b94979396509394606081013594506080013592915050565b60006020828403121561072457600080fd5b61072d82610515565b9392505050565b6000815180845260005b8181101561075a5760208185018101518683018201520161073e565b8181111561076c576000602083870101525b50601f01601f19169290920160200192915050565b60006001600160a01b038087168352808616602084015250836040830152608060608301526107b36080830184610734565b9695505050505050565b6080815260006107d06080830187610734565b6001600160a01b0395861660208401529390941660408201526060015292915050565b60a08152600061080660a0830188610734565b6001600160a01b03968716602084015294909516604082015260608101929092526080909101529291505056fea164736f6c634300080c000a",
  "linkReferences": {},
  "deployedLinkReferences": {}
}