{
  "_format": "hh-sol-artifact-1",
  "contractName": "SigmaAction",
  "sourceName": "contracts/v2/sigma_mining/SigmaAction.sol",
  "abi": [
    {
      "inputs": [
        {
          "internalType": "address",
          "name": "_initialProxyAddress",
          "type": "address"
        }
      ],
      "stateMutability": "nonpayable",
      "type": "constructor"
    },
    {
      "anonymous": false,
      "inputs": [
        {
          "indexed": false,
          "internalType": "address",
          "name": "newOwner",
          "type": "address"
        }
      ],
      "name": "ChangeOwnership",
      "type": "event"
    },
    {
      "anonymous": false,
      "inputs": [
        {
          "indexed": false,
          "internalType": "address",
          "name": "newSigmaProxy",
          "type": "address"
        }
      ],
      "name": "ChangeSigmaProxy",
      "type": "event"
    },
    {
      "anonymous": false,
      "inputs": [
        {
          "indexed": false,
          "internalType": "string",
          "name": "ticketId",
          "type": "string"
        },
        {
          "indexed": false,
          "internalType": "address",
          "name": "clientAddress",
          "type": "address"
        },
        {
          "indexed": false,
          "internalType": "address",
          "name": "tokenAddress",
          "type": "address"
        },
        {
          "indexed": false,
          "internalType": "uint256",
          "name": "queueValue",
          "type": "uint256"
        }
      ],
      "name": "Queue",
      "type": "event"
    },
    {
      "anonymous": false,
      "inputs": [
        {
          "indexed": false,
          "internalType": "string",
          "name": "ticketId",
          "type": "string"
        },
        {
          "indexed": false,
          "internalType": "address",
          "name": "clientAddress",
          "type": "address"
        },
        {
          "indexed": false,
          "internalType": "address",
          "name": "tokenAddress",
          "type": "address"
        },
        {
          "indexed": false,
          "internalType": "uint256",
          "name": "transactionValue",
          "type": "uint256"
        }
      ],
      "name": "RedeemToken",
      "type": "event"
    },
    {
      "anonymous": false,
      "inputs": [
        {
          "indexed": false,
          "internalType": "address",
          "name": "clientAddress",
          "type": "address"
        },
        {
          "indexed": false,
          "internalType": "address",
          "name": "tokenAddress",
          "type": "address"
        },
        {
          "indexed": false,
          "internalType": "uint256",
          "name": "transactionValue",
          "type": "uint256"
        },
        {
          "indexed": false,
          "internalType": "string",
          "name": "data",
          "type": "string"
        }
      ],
      "name": "TransferIn",
      "type": "event"
    },
    {
      "anonymous": false,
      "inputs": [
        {
          "indexed": false,
          "internalType": "string",
          "name": "ticketId",
          "type": "string"
        },
        {
          "indexed": false,
          "internalType": "address",
          "name": "clientAddress",
          "type": "address"
        },
        {
          "indexed": false,
          "internalType": "address",
          "name": "tokenAddress",
          "type": "address"
        },
        {
          "indexed": false,
          "internalType": "uint256",
          "name": "withdrawValue",
          "type": "uint256"
        }
      ],
      "name": "Withdraw",
      "type": "event"
    },
    {
      "inputs": [],
      "name": "owner",
      "outputs": [
        {
          "internalType": "address",
          "name": "",
          "type": "address"
        }
      ],
      "stateMutability": "view",
      "type": "function"
    },
    {
      "inputs": [],
      "name": "proxy",
      "outputs": [
        {
          "internalType": "address",
          "name": "",
          "type": "address"
        }
      ],
      "stateMutability": "view",
      "type": "function"
    },
    {
      "inputs": [
        {
          "internalType": "address",
          "name": "_clientAddress",
          "type": "address"
        },
        {
          "internalType": "address",
          "name": "_tokenAddress",
          "type": "address"
        },
        {
          "internalType": "uint256",
          "name": "_tokenValue",
          "type": "uint256"
        },
        {
          "internalType": "string",
          "name": "_data",
          "type": "string"
        }
      ],
      "name": "sigmaAddFundWithAction",
      "outputs": [
        {
          "internalType": "bool",
          "name": "_isDone",
          "type": "bool"
        }
      ],
      "stateMutability": "nonpayable",
      "type": "function"
    },
    {
      "inputs": [
        {
          "internalType": "string",
          "name": "_ticketId",
          "type": "string"
        },
        {
          "internalType": "address",
          "name": "_clientAddress",
          "type": "address"
        },
        {
          "internalType": "address",
          "name": "_tokenAddress",
          "type": "address"
        },
        {
          "internalType": "uint256",
          "name": "_tokenValue",
          "type": "uint256"
        }
      ],
      "name": "sigmaQueueWithdraw",
      "outputs": [
        {
          "internalType": "bool",
          "name": "_isDone",
          "type": "bool"
        }
      ],
      "stateMutability": "nonpayable",
      "type": "function"
    },
    {
      "inputs": [
        {
          "internalType": "string",
          "name": "_ticketId",
          "type": "string"
        },
        {
          "internalType": "address",
          "name": "_clientAddress",
          "type": "address"
        },
        {
          "internalType": "address",
          "name": "_tokenAddress",
          "type": "address"
        },
        {
          "internalType": "uint256",
          "name": "_redeemValue",
          "type": "uint256"
        }
      ],
      "name": "sigmaVerifyAndRedeemToken",
      "outputs": [
        {
          "internalType": "bool",
          "name": "_isDone",
          "type": "bool"
        }
      ],
      "stateMutability": "nonpayable",
      "type": "function"
    },
    {
      "inputs": [
        {
          "internalType": "string",
          "name": "_ticketId",
          "type": "string"
        },
        {
          "internalType": "address",
          "name": "_clientAddress",
          "type": "address"
        },
        {
          "internalType": "address",
          "name": "_tokenAddress",
          "type": "address"
        },
        {
          "internalType": "uint256",
          "name": "_tokenValue",
          "type": "uint256"
        }
      ],
      "name": "sigmaWithdrawFund",
      "outputs": [
        {
          "internalType": "bool",
          "name": "_isDone",
          "type": "bool"
        }
      ],
      "stateMutability": "nonpayable",
      "type": "function"
    },
    {
      "inputs": [
        {
          "internalType": "address",
          "name": "_newOwner",
          "type": "address"
        }
      ],
      "name": "transferOwnership",
      "outputs": [],
      "stateMutability": "nonpayable",
      "type": "function"
    },
    {
      "inputs": [
        {
          "internalType": "address",
          "name": "_newProxyAddress",
          "type": "address"
        }
      ],
      "name": "updateProxyAddress",
      "outputs": [],
      "stateMutability": "nonpayable",
      "type": "function"
    }
  ],
  "bytecode": "0x608060405234801561001057600080fd5b5060405161094b38038061094b83398101604081905261002f916100bc565b6001600160a01b0381166100895760405162461bcd60e51b815260206004820152601c60248201527f5a65726f206164647265737320666f72207369676d612070726f787900000000604482015260640160405180910390fd5b60008054336001600160a01b031991821617909155600180549091166001600160a01b03929092169190911790556100ec565b6000602082840312156100ce57600080fd5b81516001600160a01b03811681146100e557600080fd5b9392505050565b610850806100fb6000396000f3fe608060405234801561001057600080fd5b50600436106100885760003560e01c8063eac32a8e1161005b578063eac32a8e14610106578063ec5568891461011b578063f2fde38b1461012e578063fae216731461014157600080fd5b80633b8f59841461008d5780634bcf6823146100b557806366e391f1146100c85780638da5cb5b146100db575b600080fd5b6100a061009b366004610694565b610154565b60405190151581526020015b60405180910390f35b6100a06100c3366004610694565b6101fe565b6100a06100d63660046106fa565b610290565b6000546100ee906001600160a01b031681565b6040516001600160a01b0390911681526020016100ac565b610119610114366004610762565b610322565b005b6001546100ee906001600160a01b031681565b61011961013c366004610762565b610423565b6100a061014f366004610694565b610543565b6001546000906001600160a01b031633146101b65760405162461bcd60e51b815260206004820152601a60248201527f506c65617365207573652070726f787920636f6e74726163742e00000000000060448201526064015b60405180910390fd5b7f8894c9bbfc333a61b582fb3d7fbd3032561454787995316844461edf6508ec9b858585856040516101eb94939291906107d1565b60405180910390a1506001949350505050565b6001546000906001600160a01b0316331461025b5760405162461bcd60e51b815260206004820152601a60248201527f506c65617365207573652070726f787920636f6e74726163742e00000000000060448201526064016101ad565b7f99310eed5bb161586b62449f89ccaa4580f85f953cd64218092edfc2b1f5fce7858585856040516101eb94939291906107d1565b6001546000906001600160a01b031633146102ed5760405162461bcd60e51b815260206004820152601a60248201527f506c65617365207573652070726f787920636f6e74726163742e00000000000060448201526064016101ad565b7fca56091464bda7fd3a1d84d6eedd04e592e9a44e37c5418220a48c79908b9f57858585856040516101eb9493929190610807565b6000546001600160a01b0316331461036b5760405162461bcd60e51b815260206004820152600c60248201526b2737ba1030b71030b236b4b760a11b60448201526064016101ad565b6001600160a01b0381166103c15760405162461bcd60e51b815260206004820181905260248201527f5a65726f206164647265737320666f72206e6577207369676d612070726f787960448201526064016101ad565b6001805473ffffffffffffffffffffffffffffffffffffffff19166001600160a01b0383169081179091556040519081527fecf3a480426d45df3182212195e583631b547e451781f28d0e3c0df9d02921ec906020015b60405180910390a150565b6000546001600160a01b0316331461046c5760405162461bcd60e51b815260206004820152600c60248201526b2737ba1030b71030b236b4b760a11b60448201526064016101ad565b6001600160a01b0381166104e85760405162461bcd60e51b815260206004820152602760248201527f5a65726f206164647265737320666f72206e6577207369676d6120616374696f60448201527f6e206f776e65720000000000000000000000000000000000000000000000000060648201526084016101ad565b6000805473ffffffffffffffffffffffffffffffffffffffff19166001600160a01b0383169081179091556040519081527f244ded7a3b73e60f03281fc183df050e6134d393c50788e980dc090f06e7280990602001610418565b6001546000906001600160a01b031633146105a05760405162461bcd60e51b815260206004820152601a60248201527f506c65617365207573652070726f787920636f6e74726163742e00000000000060448201526064016101ad565b7f50675251fb9ff9b54c3fecedee63c3706c5838cb39a4f096a3cd580bacd78091858585856040516101eb94939291906107d1565b634e487b7160e01b600052604160045260246000fd5b600082601f8301126105fc57600080fd5b813567ffffffffffffffff80821115610617576106176105d5565b604051601f8301601f19908116603f0116810190828211818310171561063f5761063f6105d5565b8160405283815286602085880101111561065857600080fd5b836020870160208301376000602085830101528094505050505092915050565b80356001600160a01b038116811461068f57600080fd5b919050565b600080600080608085870312156106aa57600080fd5b843567ffffffffffffffff8111156106c157600080fd5b6106cd878288016105eb565b9450506106dc60208601610678565b92506106ea60408601610678565b9396929550929360600135925050565b6000806000806080858703121561071057600080fd5b61071985610678565b935061072760208601610678565b925060408501359150606085013567ffffffffffffffff81111561074a57600080fd5b610756878288016105eb565b91505092959194509250565b60006020828403121561077457600080fd5b61077d82610678565b9392505050565b6000815180845260005b818110156107aa5760208185018101518683018201520161078e565b818111156107bc576000602083870101525b50601f01601f19169290920160200192915050565b6080815260006107e46080830187610784565b6001600160a01b0395861660208401529390941660408201526060015292915050565b60006001600160a01b038087168352808616602084015250836040830152608060608301526108396080830184610784565b969550505050505056fea164736f6c634300080c000a",
  "linkReferences": {},
  "deployedLinkReferences": {}
}