{
  "_format": "hh-sol-artifact-1",
  "contractName": "MoneyPoolV2",
  "sourceName": "contracts/v2/satis_core/MoneyPoolProxy.sol",
  "abi": [
    {
      "inputs": [
        {
          "internalType": "string[]",
          "name": "_poolNameList",
          "type": "string[]"
        },
        {
          "internalType": "address[]",
          "name": "_poolAddressList",
          "type": "address[]"
        },
        {
          "internalType": "address",
          "name": "_actionContractAddress",
          "type": "address"
        }
      ],
      "stateMutability": "nonpayable",
      "type": "constructor"
    },
    {
      "anonymous": false,
      "inputs": [
        {
          "indexed": false,
          "internalType": "address[]",
          "name": "addWorkerList",
          "type": "address[]"
        }
      ],
      "name": "AddWorkers",
      "type": "event"
    },
    {
      "anonymous": false,
      "inputs": [
        {
          "indexed": false,
          "internalType": "address",
          "name": "newAdminAddress",
          "type": "address"
        }
      ],
      "name": "ChangeOwnership",
      "type": "event"
    },
    {
      "anonymous": false,
      "inputs": [
        {
          "indexed": false,
          "internalType": "address[]",
          "name": "newlyAddedPoolAddressList",
          "type": "address[]"
        }
      ],
      "name": "ChangePoolAddress",
      "type": "event"
    },
    {
      "anonymous": false,
      "inputs": [
        {
          "indexed": false,
          "internalType": "address[]",
          "name": "removeWorkerList",
          "type": "address[]"
        }
      ],
      "name": "RemoveWorkers",
      "type": "event"
    },
    {
      "inputs": [],
      "name": "actionContractAddress",
      "outputs": [
        {
          "internalType": "address",
          "name": "",
          "type": "address"
        }
      ],
      "stateMutability": "view",
      "type": "function"
    },
    {
      "inputs": [
        {
          "internalType": "address",
          "name": "_tokenAddress",
          "type": "address"
        },
        {
          "internalType": "uint256",
          "name": "_tokenValue",
          "type": "uint256"
        },
        {
          "internalType": "string",
          "name": "_data",
          "type": "string"
        },
        {
          "internalType": "string",
          "name": "_poolName",
          "type": "string"
        }
      ],
      "name": "addFundWithAction",
      "outputs": [
        {
          "internalType": "bool",
          "name": "_isDone",
          "type": "bool"
        }
      ],
      "stateMutability": "nonpayable",
      "type": "function"
    },
    {
      "inputs": [
        {
          "internalType": "address[]",
          "name": "_addWorkerList",
          "type": "address[]"
        }
      ],
      "name": "addWorkers",
      "outputs": [],
      "stateMutability": "nonpayable",
      "type": "function"
    },
    {
      "inputs": [
        {
          "internalType": "address",
          "name": "_newActionContractAddress",
          "type": "address"
        }
      ],
      "name": "changeActionContract",
      "outputs": [],
      "stateMutability": "nonpayable",
      "type": "function"
    },
    {
      "inputs": [
        {
          "internalType": "string[]",
          "name": "_newPoolNameList",
          "type": "string[]"
        },
        {
          "internalType": "address[]",
          "name": "_newPoolAddressList",
          "type": "address[]"
        }
      ],
      "name": "changePool",
      "outputs": [],
      "stateMutability": "nonpayable",
      "type": "function"
    },
    {
      "inputs": [
        {
          "internalType": "address",
          "name": "_clientAddress",
          "type": "address"
        },
        {
          "internalType": "address",
          "name": "_tokenAddress",
          "type": "address"
        },
        {
          "internalType": "string",
          "name": "_poolName",
          "type": "string"
        }
      ],
      "name": "getClientDepositRecord",
      "outputs": [
        {
          "internalType": "uint256",
          "name": "clientDepositRecord",
          "type": "uint256"
        }
      ],
      "stateMutability": "view",
      "type": "function"
    },
    {
      "inputs": [
        {
          "internalType": "address",
          "name": "_clientAddress",
          "type": "address"
        },
        {
          "internalType": "string",
          "name": "_poolName",
          "type": "string"
        }
      ],
      "name": "getClientNonce",
      "outputs": [
        {
          "internalType": "uint256",
          "name": "clientNonce",
          "type": "uint256"
        }
      ],
      "stateMutability": "view",
      "type": "function"
    },
    {
      "inputs": [
        {
          "internalType": "address",
          "name": "_tokenAddress",
          "type": "address"
        },
        {
          "internalType": "string",
          "name": "_poolName",
          "type": "string"
        }
      ],
      "name": "getLiquidityAmountInPool",
      "outputs": [
        {
          "internalType": "uint256",
          "name": "liquidityInPool",
          "type": "uint256"
        }
      ],
      "stateMutability": "view",
      "type": "function"
    },
    {
      "inputs": [
        {
          "internalType": "string",
          "name": "_poolName",
          "type": "string"
        }
      ],
      "name": "getPoolAddress",
      "outputs": [
        {
          "internalType": "address",
          "name": "_poolAddress",
          "type": "address"
        }
      ],
      "stateMutability": "view",
      "type": "function"
    },
    {
      "inputs": [
        {
          "internalType": "string",
          "name": "_poolName",
          "type": "string"
        }
      ],
      "name": "getPoolOwner",
      "outputs": [
        {
          "internalType": "address",
          "name": "poolOwner",
          "type": "address"
        }
      ],
      "stateMutability": "view",
      "type": "function"
    },
    {
      "inputs": [],
      "name": "owner",
      "outputs": [
        {
          "internalType": "address",
          "name": "",
          "type": "address"
        }
      ],
      "stateMutability": "view",
      "type": "function"
    },
    {
      "inputs": [
        {
          "internalType": "string",
          "name": "",
          "type": "string"
        }
      ],
      "name": "poolAddressList",
      "outputs": [
        {
          "internalType": "address",
          "name": "",
          "type": "address"
        }
      ],
      "stateMutability": "view",
      "type": "function"
    },
    {
      "inputs": [
        {
          "internalType": "address[]",
          "name": "_removeWorkerList",
          "type": "address[]"
        }
      ],
      "name": "removeWorkers",
      "outputs": [],
      "stateMutability": "nonpayable",
      "type": "function"
    },
    {
      "inputs": [
        {
          "internalType": "address",
          "name": "_newOwner",
          "type": "address"
        }
      ],
      "name": "transferOwnershipMoneyPoolProxy",
      "outputs": [],
      "stateMutability": "nonpayable",
      "type": "function"
    },
    {
      "inputs": [
        {
          "internalType": "bytes",
          "name": "_targetSignature",
          "type": "bytes"
        },
        {
          "internalType": "address",
          "name": "_tokenAddress",
          "type": "address"
        },
        {
          "internalType": "uint256",
          "name": "_partialWithdrawValue",
          "type": "uint256"
        },
        {
          "internalType": "uint256",
          "name": "_tier",
          "type": "uint256"
        },
        {
          "internalType": "uint256",
          "name": "_chainId",
          "type": "uint256"
        },
        {
          "internalType": "address",
          "name": "_poolAddress",
          "type": "address"
        },
        {
          "internalType": "uint256",
          "name": "_nonce",
          "type": "uint256"
        },
        {
          "internalType": "string",
          "name": "_poolName",
          "type": "string"
        }
      ],
      "name": "verifyAndPartialWithdrawFund",
      "outputs": [
        {
          "internalType": "bool",
          "name": "_isDone",
          "type": "bool"
        }
      ],
      "stateMutability": "nonpayable",
      "type": "function"
    },
    {
      "inputs": [
        {
          "internalType": "bytes",
          "name": "_targetSignature",
          "type": "bytes"
        },
        {
          "internalType": "address",
          "name": "_tokenAddress",
          "type": "address"
        },
        {
          "internalType": "uint256",
          "name": "_queueValue",
          "type": "uint256"
        },
        {
          "internalType": "uint256",
          "name": "_tier",
          "type": "uint256"
        },
        {
          "internalType": "uint256",
          "name": "_chainId",
          "type": "uint256"
        },
        {
          "internalType": "address",
          "name": "_poolAddress",
          "type": "address"
        },
        {
          "internalType": "uint256",
          "name": "_nonce",
          "type": "uint256"
        },
        {
          "internalType": "string",
          "name": "_poolName",
          "type": "string"
        }
      ],
      "name": "verifyAndQueue",
      "outputs": [
        {
          "internalType": "bool",
          "name": "_isDone",
          "type": "bool"
        }
      ],
      "stateMutability": "nonpayable",
      "type": "function"
    },
    {
      "inputs": [
        {
          "internalType": "bytes",
          "name": "_targetSignature",
          "type": "bytes"
        },
        {
          "internalType": "address",
          "name": "_tokenAddress",
          "type": "address"
        },
        {
          "internalType": "uint256",
          "name": "_withdrawValue",
          "type": "uint256"
        },
        {
          "internalType": "uint256",
          "name": "_tier",
          "type": "uint256"
        },
        {
          "internalType": "uint256",
          "name": "_chainId",
          "type": "uint256"
        },
        {
          "internalType": "address",
          "name": "_poolAddress",
          "type": "address"
        },
        {
          "internalType": "uint256",
          "name": "_nonce",
          "type": "uint256"
        },
        {
          "internalType": "string",
          "name": "_poolName",
          "type": "string"
        }
      ],
      "name": "verifyAndWithdrawFund",
      "outputs": [
        {
          "internalType": "bool",
          "name": "_isDone",
          "type": "bool"
        }
      ],
      "stateMutability": "nonpayable",
      "type": "function"
    },
    {
      "inputs": [
        {
          "internalType": "address",
          "name": "_workerAddress",
          "type": "address"
        }
      ],
      "name": "verifyWorker",
      "outputs": [
        {
          "internalType": "bool",
          "name": "_isWorker",
          "type": "bool"
        }
      ],
      "stateMutability": "view",
      "type": "function"
    },
    {
      "inputs": [
        {
          "internalType": "address",
          "name": "",
          "type": "address"
        }
      ],
      "name": "workerList",
      "outputs": [
        {
          "internalType": "bool",
          "name": "",
          "type": "bool"
        }
      ],
      "stateMutability": "view",
      "type": "function"
    }
  ],
  "bytecode": "0x60806040523480156200001157600080fd5b5060405162001de638038062001de683398101604081905262000034916200028b565b6001600160a01b038116620000905760405162461bcd60e51b815260206004820181905260248201527f5a65726f206164647265737320666f7220616374696f6e20636f6e747261637460448201526064015b60405180910390fd5b8151835114620000e35760405162461bcd60e51b815260206004820152601a60248201527f4c6973747327206c656e67746820697320646966666572656e74000000000000604482015260640162000087565b600080546001600160a01b03191633178082556001600160a01b03168152600360205260408120805460ff191660011790555b8251811015620001c7578281815181106200014157634e487b7160e01b600052603260045260246000fd5b602002602001015160028583815181106200016c57634e487b7160e01b600052603260045260246000fd5b6020026020010151604051620001839190620003b1565b90815260405190819003602001902080546001600160a01b03929092166001600160a01b031990921691909117905580620001be816200045b565b91505062000116565b50600180546001600160a01b0319166001600160a01b039290921691909117905550620004999050565b80516001600160a01b03811681146200020957600080fd5b919050565b600082601f8301126200021f578081fd5b8151602062000238620002328362000402565b620003cf565b828152818101908583018385028701840188101562000255578586fd5b855b858110156200027e576200026b82620001f1565b8452928401929084019060010162000257565b5090979650505050505050565b600080600060608486031215620002a0578283fd5b83516001600160401b0380821115620002b7578485fd5b818601915086601f830112620002cb578485fd5b81516020620002de620002328362000402565b82815281810190858301895b858110156200036d57815188018d603f82011262000306578b8cfd5b85810151888111156200031d576200031d62000483565b62000331601f8201601f19168801620003cf565b8181528f604083850101111562000346578d8efd5b62000358828983016040860162000428565b865250509284019290840190600101620002ea565b50509189015191975090935050508082111562000388578384fd5b5062000397868287016200020e565b925050620003a860408501620001f1565b90509250925092565b60008251620003c581846020870162000428565b9190910192915050565b604051601f8201601f191681016001600160401b0381118282101715620003fa57620003fa62000483565b604052919050565b60006001600160401b038211156200041e576200041e62000483565b5060209081020190565b60005b83811015620004455781810151838201526020016200042b565b8381111562000455576000848401525b50505050565b60006000198214156200047c57634e487b7160e01b81526011600452602481fd5b5060010190565b634e487b7160e01b600052604160045260246000fd5b61193d80620004a96000396000f3fe608060405234801561001057600080fd5b50600436106101515760003560e01c80634ce1054d116100cd5780638da5cb5b11610081578063d7e0c66611610066578063d7e0c666146102dc578063daa74181146102ff578063ea5ada461461031257610151565b80638da5cb5b146102b6578063a39c2355146102c957610151565b8063749a17ee116100b2578063749a17ee1461027d57806380e11b25146102905780638a791c45146102a357610151565b80634ce1054d14610257578063609677a11461026a57610151565b80632f84951c1161012457806337fc4c521161010957806337fc4c521461021e57806348a78a34146102315780634a45501d1461024457610151565b80632f84951c146101f857806332fa4a9e1461020b57610151565b80630111efb714610156578063093988e51461016b57806323dcad49146101915780632b30368c146101bc575b600080fd5b610169610164366004611528565b610346565b005b61017e61017936600461145d565b610445565b6040519081526020015b60405180910390f35b6101a461019f3660046116e0565b61055a565b6040516001600160a01b039091168152602001610188565b6101e86101ca3660046113c5565b6001600160a01b031660009081526003602052604090205460ff1690565b6040519015158152602001610188565b6101e8610206366004611621565b61066a565b6101696102193660046113c5565b6108a4565b6101e861022c3660046114ab565b6109ce565b61017e61023f3660046113fd565b610ba2565b61016961025236600461155b565b610cd8565b610169610265366004611528565b610e71565b61017e61027836600461145d565b610f60565b6101e861028b366004611621565b611021565b6001546101a4906001600160a01b031681565b6101e86102b1366004611621565b611152565b6000546101a4906001600160a01b031681565b6101696102d73660046113c5565b6111b4565b6101e86102ea3660046113c5565b60036020526000908152604090205460ff1681565b6101a461030d3660046116e0565b611298565b6101a46103203660046116e0565b80516020818301810180516002825292820191909301209152546001600160a01b031681565b6000546001600160a01b031633146103945760405162461bcd60e51b815260206004820152600c60248201526b2737ba1030b71030b236b4b760a11b60448201526064015b60405180910390fd5b60005b815181101561040a576001600360008484815181106103c657634e487b7160e01b600052603260045260246000fd5b6020908102919091018101516001600160a01b03168252810191909152604001600020805460ff191691151591909117905580610402816118db565b915050610397565b507f9e36e65aa003add44ff529b38d35a7fed088dd29f3ab43ee9ee17e449621ff988160405161043a91906117af565b60405180910390a150565b6000806001600160a01b03166002836040516104619190611757565b908152604051908190036020019020546001600160a01b031614156104b75760405162461bcd60e51b815260206004820152600c60248201526b139bc81cdd58da081c1bdbdb60a21b604482015260640161038b565b60006002836040516104c99190611757565b90815260405190819003602001812054631ff8171f60e11b82526001600160a01b0386811660048401521691508190633ff02e3e906024015b60206040518083038186803b15801561051a57600080fd5b505afa15801561052e573d6000803e3d6000fd5b505050506040513d601f19601f820116820180604052508101906105529190611713565b949350505050565b6000806001600160a01b03166002836040516105769190611757565b908152604051908190036020019020546001600160a01b031614156105cc5760405162461bcd60e51b815260206004820152600c60248201526b139bc81cdd58da081c1bdbdb60a21b604482015260640161038b565b60006002836040516105de9190611757565b9081526040805160209281900383018120546378c5353360e01b825291516001600160a01b03909216935083926378c5353392600480840193829003018186803b15801561062b57600080fd5b505afa15801561063f573d6000803e3d6000fd5b505050506040513d601f19601f8201168201806040525081019061066391906113e1565b9392505050565b6000856003146106cc5760405162461bcd60e51b815260206004820152602760248201527f57726f6e672066756e6374696f6e2063616c6c656420666f722077697468647260448201526630bb903a34b2b960c91b606482015260840161038b565b60006001600160a01b03166002836040516106e79190611757565b908152604051908190036020019020546001600160a01b0316141561073d5760405162461bcd60e51b815260206004820152600c60248201526b139bc81cdd58da081c1bdbdb60a21b604482015260640161038b565b600060028360405161074f9190611757565b9081526040519081900360200181205463fccb269d60e01b82526001600160a01b03169150600090829063fccb269d9061079b908e9033908f908f908f908f908f908f906004016117fc565b602060405180830381600087803b1580156107b557600080fd5b505af11580156107c9573d6000803e3d6000fd5b505050506040513d601f19601f820116820180604052508101906107ed9190611601565b600154604051634a553ebf60e01b81523360048201526001600160a01b038d81166024830152604482018d9052606482018c90529293509116906000908290634a553ebf90608401602060405180830381600087803b15801561084f57600080fd5b505af1158015610863573d6000803e3d6000fd5b505050506040513d601f19601f820116820180604052508101906108879190611601565b90508280156108935750805b9d9c50505050505050505050505050565b6000546001600160a01b031633146108ed5760405162461bcd60e51b815260206004820152600c60248201526b2737ba1030b71030b236b4b760a11b604482015260640161038b565b6001600160a01b0381166109435760405162461bcd60e51b815260206004820152601a60248201527f5a65726f206164647265737320666f72206e6577206f776e6572000000000000604482015260640161038b565b600080546001600160a01b039081168252600360209081526040808420805460ff19908116909155845473ffffffffffffffffffffffffffffffffffffffff1916868516178086558416855281852080549091166001179055925492519290911682527f244ded7a3b73e60f03281fc183df050e6134d393c50788e980dc090f06e72809910161043a565b6000806001600160a01b03166002836040516109ea9190611757565b908152604051908190036020019020546001600160a01b03161415610a405760405162461bcd60e51b815260206004820152600c60248201526b139bc81cdd58da081c1bdbdb60a21b604482015260640161038b565b60008415610af9576000600284604051610a5a9190611757565b90815260405190819003602001812054635dd72c0f60e01b82523360048301526001600160a01b038981166024840152604483018990521691508190635dd72c0f90606401602060405180830381600087803b158015610ab957600080fd5b505af1158015610acd573d6000803e3d6000fd5b505050506040513d601f19601f82011682018060405250810190610af19190611601565b915050610afd565b5060015b600154604051634dd9469560e01b81526001600160a01b03909116906000908290634dd9469590610b389033908c908c908c90600401611773565b602060405180830381600087803b158015610b5257600080fd5b505af1158015610b66573d6000803e3d6000fd5b505050506040513d601f19601f82011682018060405250810190610b8a9190611601565b9050828015610b965750805b98975050505050505050565b6000806001600160a01b0316600283604051610bbe9190611757565b908152604051908190036020019020546001600160a01b03161415610c145760405162461bcd60e51b815260206004820152600c60248201526b139bc81cdd58da081c1bdbdb60a21b604482015260640161038b565b6000600283604051610c269190611757565b908152604051908190036020018120547fffe7b76d0000000000000000000000000000000000000000000000000000000082526001600160a01b0387811660048401528681166024840152169150819063ffe7b76d9060440160206040518083038186803b158015610c9757600080fd5b505afa158015610cab573d6000803e3d6000fd5b505050506040513d601f19601f82011682018060405250810190610ccf9190611713565b95945050505050565b3360009081526003602052604090205460ff161515600114610d2b5760405162461bcd60e51b815260206004820152600c60248201526b2737ba1030903bb7b935b2b960a11b604482015260640161038b565b8051825114610d7c5760405162461bcd60e51b815260206004820152601a60248201527f4c6973747327206c656e67746820697320646966666572656e74000000000000604482015260640161038b565b60005b8151811015610e3557818181518110610da857634e487b7160e01b600052603260045260246000fd5b60200260200101516002848381518110610dd257634e487b7160e01b600052603260045260246000fd5b6020026020010151604051610de79190611757565b90815260405190819003602001902080546001600160a01b039290921673ffffffffffffffffffffffffffffffffffffffff1990921691909117905580610e2d816118db565b915050610d7f565b507f041572ba5a007337eb900b91bde4bf7a58838c66fe504a88a09c15d551891c8381604051610e6591906117af565b60405180910390a15050565b6000546001600160a01b03163314610eba5760405162461bcd60e51b815260206004820152600c60248201526b2737ba1030b71030b236b4b760a11b604482015260640161038b565b60005b8151811015610f3057600060036000848481518110610eec57634e487b7160e01b600052603260045260246000fd5b6020908102919091018101516001600160a01b03168252810191909152604001600020805460ff191691151591909117905580610f28816118db565b915050610ebd565b507f76fe8505b7c4b7ba022031c51ac725c7177670399af7d2ebca7026b7e25bf8938160405161043a91906117af565b6000806001600160a01b0316600283604051610f7c9190611757565b908152604051908190036020019020546001600160a01b03161415610fd25760405162461bcd60e51b815260206004820152600c60248201526b139bc81cdd58da081c1bdbdb60a21b604482015260640161038b565b6000600283604051610fe49190611757565b9081526040519081900360200181205463033023d160e61b82526001600160a01b038681166004840152169150819063cc08f44090602401610502565b6000856002146110835760405162461bcd60e51b815260206004820152602760248201527f57726f6e672066756e6374696f6e2063616c6c656420666f722077697468647260448201526630bb903a34b2b960c91b606482015260840161038b565b60006001600160a01b031660028360405161109e9190611757565b908152604051908190036020019020546001600160a01b031614156110f45760405162461bcd60e51b815260206004820152600c60248201526b139bc81cdd58da081c1bdbdb60a21b604482015260640161038b565b60006002836040516111069190611757565b908152604051908190036020018120546306bdb25160e41b82526001600160a01b031691506000908290636bdb25109061079b908e9033908f908f908f908f908f908f906004016117fc565b6000856001146106cc5760405162461bcd60e51b815260206004820152602760248201527f57726f6e672066756e6374696f6e2063616c6c656420666f722077697468647260448201526630bb903a34b2b960c91b606482015260840161038b565b3360009081526003602052604090205460ff1615156001146112075760405162461bcd60e51b815260206004820152600c60248201526b2737ba1030903bb7b935b2b960a11b604482015260640161038b565b6001600160a01b0381166112695760405162461bcd60e51b8152602060048201526024808201527f5a65726f206164647265737320666f72206e657720616374696f6e20636f6e746044820152631c9858dd60e21b606482015260840161038b565b6001805473ffffffffffffffffffffffffffffffffffffffff19166001600160a01b0392909216919091179055565b60006002826040516112aa9190611757565b908152604051908190036020019020546001600160a01b031692915050565b600067ffffffffffffffff8311156112e3576112e3611902565b6112f6601f8401601f1916602001611856565b905082815283838301111561130a57600080fd5b828260208301376000602084830101529392505050565b803561132c81611918565b919050565b600082601f830112611341578081fd5b8135602061135661135183611887565b611856565b8281528181019085830183850287018401881015611372578586fd5b855b8581101561139957813561138781611918565b84529284019290840190600101611374565b5090979650505050505050565b600082601f8301126113b6578081fd5b610663838335602085016112c9565b6000602082840312156113d6578081fd5b813561066381611918565b6000602082840312156113f2578081fd5b815161066381611918565b600080600060608486031215611411578182fd5b833561141c81611918565b9250602084013561142c81611918565b9150604084013567ffffffffffffffff811115611447578182fd5b611453868287016113a6565b9150509250925092565b6000806040838503121561146f578182fd5b823561147a81611918565b9150602083013567ffffffffffffffff811115611495578182fd5b6114a1858286016113a6565b9150509250929050565b600080600080608085870312156114c0578081fd5b84356114cb81611918565b935060208501359250604085013567ffffffffffffffff808211156114ee578283fd5b6114fa888389016113a6565b9350606087013591508082111561150f578283fd5b5061151c878288016113a6565b91505092959194509250565b600060208284031215611539578081fd5b813567ffffffffffffffff81111561154f578182fd5b61055284828501611331565b6000806040838503121561156d578182fd5b823567ffffffffffffffff80821115611584578384fd5b818501915085601f830112611597578384fd5b813560206115a761135183611887565b82815281810190858301885b858110156115dc576115ca8c8684358b01016113a6565b845292840192908401906001016115b3565b509097505050860135925050808211156115f4578283fd5b506114a185828601611331565b600060208284031215611612578081fd5b81518015158114610663578182fd5b600080600080600080600080610100898b03121561163d578384fd5b883567ffffffffffffffff80821115611654578586fd5b818b0191508b601f830112611667578586fd5b6116768c8335602085016112c9565b995061168460208c01611321565b985060408b0135975060608b0135965060808b013595506116a760a08c01611321565b945060c08b0135935060e08b01359150808211156116c3578283fd5b506116d08b828c016113a6565b9150509295985092959890939650565b6000602082840312156116f1578081fd5b813567ffffffffffffffff811115611707578182fd5b610552848285016113a6565b600060208284031215611724578081fd5b5051919050565b600081518084526117438160208601602086016118ab565b601f01601f19169290920160200192915050565b600082516117698184602087016118ab565b9190910192915050565b60006001600160a01b038087168352808616602084015250836040830152608060608301526117a5608083018461172b565b9695505050505050565b6020808252825182820181905260009190848201906040850190845b818110156117f05783516001600160a01b0316835292840192918401916001016117cb565b50909695505050505050565b60006101008083526118108184018c61172b565b6001600160a01b039a8b166020850152988a16604084015250506060810195909552608085019390935260a084019190915290931660c082015260e00191909152919050565b604051601f8201601f1916810167ffffffffffffffff8111828210171561187f5761187f611902565b604052919050565b600067ffffffffffffffff8211156118a1576118a1611902565b5060209081020190565b60005b838110156118c65781810151838201526020016118ae565b838111156118d5576000848401525b50505050565b60006000198214156118fb57634e487b7160e01b81526011600452602481fd5b5060010190565b634e487b7160e01b600052604160045260246000fd5b6001600160a01b038116811461192d57600080fd5b5056fea164736f6c6343000802000a",
  "linkReferences": {},
  "deployedLinkReferences": {}
}