{
  "_format": "hh-sol-artifact-1",
  "contractName": "MoneyPoolRaw",
  "sourceName": "contracts/v2/satis_core/MoneyPoolRaw.sol",
  "abi": [
    {
      "inputs": [
        {
          "internalType": "address",
          "name": "_initialProxyAddress",
          "type": "address"
        },
        {
          "internalType": "address",
          "name": "_initialSigmaProxyAddress",
          "type": "address"
        },
        {
          "internalType": "address",
          "name": "_signatureWorker",
          "type": "address"
        }
      ],
      "stateMutability": "nonpayable",
      "type": "constructor"
    },
    {
      "anonymous": false,
      "inputs": [
        {
          "indexed": false,
          "internalType": "address[]",
          "name": "modifyAddrList",
          "type": "address[]"
        },
        {
          "indexed": false,
          "internalType": "uint8",
          "name": "isAdd",
          "type": "uint8"
        }
      ],
      "name": "AddRemoveWorkers",
      "type": "event"
    },
    {
      "anonymous": false,
      "inputs": [
        {
          "indexed": false,
          "internalType": "address",
          "name": "newOwner",
          "type": "address"
        }
      ],
      "name": "ChangeOwnership",
      "type": "event"
    },
    {
      "anonymous": false,
      "inputs": [
        {
          "indexed": false,
          "internalType": "address",
          "name": "newProxy",
          "type": "address"
        }
      ],
      "name": "ChangeProxy",
      "type": "event"
    },
    {
      "anonymous": false,
      "inputs": [
        {
          "indexed": false,
          "internalType": "address",
          "name": "newSigmaProxy",
          "type": "address"
        }
      ],
      "name": "ChangeSigmaProxy",
      "type": "event"
    },
    {
      "anonymous": false,
      "inputs": [
        {
          "indexed": false,
          "internalType": "address",
          "name": "newSignatureWorker",
          "type": "address"
        }
      ],
      "name": "ChangeSignatureWorker",
      "type": "event"
    },
    {
      "anonymous": false,
      "inputs": [
        {
          "indexed": false,
          "internalType": "address",
          "name": "tokenAddress",
          "type": "address"
        },
        {
          "indexed": false,
          "internalType": "uint256",
          "name": "takeProfitValue",
          "type": "uint256"
        }
      ],
      "name": "OwnerTakeProfit",
      "type": "event"
    },
    {
      "anonymous": false,
      "inputs": [
        {
          "indexed": false,
          "internalType": "address",
          "name": "workerAddress",
          "type": "address"
        },
        {
          "indexed": false,
          "internalType": "address[]",
          "name": "clientAddressList",
          "type": "address[]"
        },
        {
          "indexed": false,
          "internalType": "address",
          "name": "tokenAddress",
          "type": "address"
        },
        {
          "indexed": false,
          "internalType": "uint256[]",
          "name": "dumpValueList",
          "type": "uint256[]"
        }
      ],
      "name": "WorkerDumpBridgedFund",
      "type": "event"
    },
    {
      "anonymous": false,
      "inputs": [
        {
          "indexed": false,
          "internalType": "address",
          "name": "workerAddress",
          "type": "address"
        },
        {
          "indexed": false,
          "internalType": "address[]",
          "name": "_clientAddressList",
          "type": "address[]"
        },
        {
          "indexed": false,
          "internalType": "address",
          "name": "_tokenAddress",
          "type": "address"
        },
        {
          "indexed": false,
          "internalType": "uint256[]",
          "name": "_instantWithdrawValueList",
          "type": "uint256[]"
        }
      ],
      "name": "WorkerDumpInstantWithdrawFund",
      "type": "event"
    },
    {
      "anonymous": false,
      "inputs": [
        {
          "indexed": false,
          "internalType": "address",
          "name": "workerAddress",
          "type": "address"
        },
        {
          "indexed": false,
          "internalType": "address",
          "name": "tokenAddress",
          "type": "address"
        },
        {
          "indexed": false,
          "internalType": "uint256",
          "name": "takeValue",
          "type": "uint256"
        }
      ],
      "name": "WorkerTakeLockedFund",
      "type": "event"
    },
    {
      "inputs": [
        {
          "internalType": "address",
          "name": "_clientAddress",
          "type": "address"
        },
        {
          "internalType": "address",
          "name": "_tokenAddress",
          "type": "address"
        },
        {
          "internalType": "uint256",
          "name": "_addValue",
          "type": "uint256"
        }
      ],
      "name": "addFundWithAction",
      "outputs": [
        {
          "internalType": "bool",
          "name": "_isDone",
          "type": "bool"
        }
      ],
      "stateMutability": "nonpayable",
      "type": "function"
    },
    {
      "inputs": [
        {
          "internalType": "address[]",
          "name": "_addWorkerList",
          "type": "address[]"
        }
      ],
      "name": "addWorkers",
      "outputs": [],
      "stateMutability": "nonpayable",
      "type": "function"
    },
    {
      "inputs": [
        {
          "internalType": "address",
          "name": "_newSignatureWorker",
          "type": "address"
        }
      ],
      "name": "changeSignatureWorker",
      "outputs": [],
      "stateMutability": "nonpayable",
      "type": "function"
    },
    {
      "inputs": [
        {
          "internalType": "address",
          "name": "",
          "type": "address"
        }
      ],
      "name": "clientNonce",
      "outputs": [
        {
          "internalType": "uint256",
          "name": "",
          "type": "uint256"
        }
      ],
      "stateMutability": "view",
      "type": "function"
    },
    {
      "inputs": [
        {
          "internalType": "address",
          "name": "_tokenAddress",
          "type": "address"
        },
        {
          "internalType": "uint256",
          "name": "_fundingValue",
          "type": "uint256"
        }
      ],
      "name": "fundSatisToken",
      "outputs": [
        {
          "internalType": "bool",
          "name": "_isDone",
          "type": "bool"
        }
      ],
      "stateMutability": "nonpayable",
      "type": "function"
    },
    {
      "inputs": [
        {
          "internalType": "string[]",
          "name": "_ticketIdList",
          "type": "string[]"
        },
        {
          "internalType": "address",
          "name": "_tokenAddress",
          "type": "address"
        }
      ],
      "name": "getInstantWithdrawReserve",
      "outputs": [
        {
          "internalType": "uint256[]",
          "name": "",
          "type": "uint256[]"
        }
      ],
      "stateMutability": "view",
      "type": "function"
    },
    {
      "inputs": [
        {
          "internalType": "string",
          "name": "",
          "type": "string"
        },
        {
          "internalType": "address",
          "name": "",
          "type": "address"
        }
      ],
      "name": "instantWithdrawReserve",
      "outputs": [
        {
          "internalType": "uint256",
          "name": "",
          "type": "uint256"
        }
      ],
      "stateMutability": "view",
      "type": "function"
    },
    {
      "inputs": [],
      "name": "owner",
      "outputs": [
        {
          "internalType": "address",
          "name": "",
          "type": "address"
        }
      ],
      "stateMutability": "view",
      "type": "function"
    },
    {
      "inputs": [
        {
          "internalType": "address",
          "name": "_tokenAddress",
          "type": "address"
        },
        {
          "internalType": "uint256",
          "name": "_takeProfitValue",
          "type": "uint256"
        }
      ],
      "name": "ownerTakeProfit",
      "outputs": [
        {
          "internalType": "bool",
          "name": "_isDone",
          "type": "bool"
        }
      ],
      "stateMutability": "nonpayable",
      "type": "function"
    },
    {
      "inputs": [],
      "name": "proxy",
      "outputs": [
        {
          "internalType": "address",
          "name": "",
          "type": "address"
        }
      ],
      "stateMutability": "view",
      "type": "function"
    },
    {
      "inputs": [
        {
          "internalType": "address[]",
          "name": "_removeWorkerList",
          "type": "address[]"
        }
      ],
      "name": "removeWorkers",
      "outputs": [],
      "stateMutability": "nonpayable",
      "type": "function"
    },
    {
      "inputs": [
        {
          "internalType": "address",
          "name": "",
          "type": "address"
        }
      ],
      "name": "satisTokenBalance",
      "outputs": [
        {
          "internalType": "uint256",
          "name": "",
          "type": "uint256"
        }
      ],
      "stateMutability": "view",
      "type": "function"
    },
    {
      "inputs": [],
      "name": "sigmaProxy",
      "outputs": [
        {
          "internalType": "address",
          "name": "",
          "type": "address"
        }
      ],
      "stateMutability": "view",
      "type": "function"
    },
    {
      "inputs": [],
      "name": "signatureWorker",
      "outputs": [
        {
          "internalType": "address",
          "name": "",
          "type": "address"
        }
      ],
      "stateMutability": "view",
      "type": "function"
    },
    {
      "inputs": [
        {
          "internalType": "address",
          "name": "",
          "type": "address"
        }
      ],
      "name": "totalLockedAssets",
      "outputs": [
        {
          "internalType": "uint256",
          "name": "",
          "type": "uint256"
        }
      ],
      "stateMutability": "view",
      "type": "function"
    },
    {
      "inputs": [
        {
          "internalType": "address",
          "name": "_newOwner",
          "type": "address"
        }
      ],
      "name": "transferOwnership",
      "outputs": [],
      "stateMutability": "nonpayable",
      "type": "function"
    },
    {
      "inputs": [
        {
          "internalType": "address",
          "name": "_newProxyAddress",
          "type": "address"
        }
      ],
      "name": "updateProxyAddress",
      "outputs": [],
      "stateMutability": "nonpayable",
      "type": "function"
    },
    {
      "inputs": [
        {
          "internalType": "address",
          "name": "_newSigmaProxyAddress",
          "type": "address"
        }
      ],
      "name": "updateSigmaProxyAddress",
      "outputs": [],
      "stateMutability": "nonpayable",
      "type": "function"
    },
    {
      "inputs": [
        {
          "internalType": "bytes",
          "name": "_targetSignature",
          "type": "bytes"
        },
        {
          "internalType": "address",
          "name": "_clientAddress",
          "type": "address"
        },
        {
          "internalType": "address",
          "name": "_tokenAddress",
          "type": "address"
        },
        {
          "internalType": "uint256",
          "name": "_redeemValue",
          "type": "uint256"
        },
        {
          "internalType": "uint256",
          "name": "_inDebtValue",
          "type": "uint256"
        },
        {
          "internalType": "uint256",
          "name": "_tier",
          "type": "uint256"
        },
        {
          "internalType": "uint256",
          "name": "_chainId",
          "type": "uint256"
        },
        {
          "internalType": "address",
          "name": "_poolAddress",
          "type": "address"
        },
        {
          "internalType": "uint256",
          "name": "_expBlockNo",
          "type": "uint256"
        },
        {
          "internalType": "string",
          "name": "_ticketId",
          "type": "string"
        },
        {
          "internalType": "uint256",
          "name": "_nonce",
          "type": "uint256"
        }
      ],
      "name": "verifyAndRedeemToken",
      "outputs": [
        {
          "internalType": "bool",
          "name": "_isDone",
          "type": "bool"
        }
      ],
      "stateMutability": "nonpayable",
      "type": "function"
    },
    {
      "inputs": [
        {
          "internalType": "bytes",
          "name": "_targetSignature",
          "type": "bytes"
        },
        {
          "internalType": "address",
          "name": "_clientAddress",
          "type": "address"
        },
        {
          "internalType": "address",
          "name": "_tokenAddress",
          "type": "address"
        },
        {
          "internalType": "uint256",
          "name": "_withdrawValue",
          "type": "uint256"
        },
        {
          "internalType": "uint256",
          "name": "_inDebtValue",
          "type": "uint256"
        },
        {
          "internalType": "uint256",
          "name": "_tier",
          "type": "uint256"
        },
        {
          "internalType": "uint256",
          "name": "_chainId",
          "type": "uint256"
        },
        {
          "internalType": "address",
          "name": "_poolAddress",
          "type": "address"
        },
        {
          "internalType": "uint256",
          "name": "_expBlockNo",
          "type": "uint256"
        },
        {
          "internalType": "string",
          "name": "_ticketId",
          "type": "string"
        },
        {
          "internalType": "uint256",
          "name": "_nonce",
          "type": "uint256"
        }
      ],
      "name": "verifyAndWithdrawFund",
      "outputs": [
        {
          "internalType": "bool",
          "name": "_isDone",
          "type": "bool"
        }
      ],
      "stateMutability": "nonpayable",
      "type": "function"
    },
    {
      "inputs": [
        {
          "internalType": "string[]",
          "name": "_ticketIdList",
          "type": "string[]"
        },
        {
          "internalType": "address[]",
          "name": "_clientAddressList",
          "type": "address[]"
        },
        {
          "internalType": "address",
          "name": "_tokenAddress",
          "type": "address"
        },
        {
          "internalType": "uint256[]",
          "name": "_instantWithdrawValueList",
          "type": "uint256[]"
        },
        {
          "internalType": "uint256",
          "name": "_totalDumpAmount",
          "type": "uint256"
        }
      ],
      "name": "workerDumpInstantWithdrawalFund",
      "outputs": [
        {
          "internalType": "bool",
          "name": "_isDone",
          "type": "bool"
        }
      ],
      "stateMutability": "nonpayable",
      "type": "function"
    },
    {
      "inputs": [
        {
          "internalType": "address",
          "name": "",
          "type": "address"
        }
      ],
      "name": "workerList",
      "outputs": [
        {
          "internalType": "bool",
          "name": "",
          "type": "bool"
        }
      ],
      "stateMutability": "view",
      "type": "function"
    },
    {
      "inputs": [
        {
          "internalType": "address",
          "name": "_tokenAddress",
          "type": "address"
        },
        {
          "internalType": "uint256",
          "name": "_takeValue",
          "type": "uint256"
        }
      ],
      "name": "workerTakeLockedFund",
      "outputs": [
        {
          "internalType": "bool",
          "name": "_isDone",
          "type": "bool"
        }
      ],
      "stateMutability": "nonpayable",
      "type": "function"
    },
    {
      "inputs": [
        {
          "internalType": "address",
          "name": "_tokenAddress",
          "type": "address"
        },
        {
          "internalType": "uint256",
          "name": "_takingValue",
          "type": "uint256"
        }
      ],
      "name": "workerTakeSatisToken",
      "outputs": [
        {
          "internalType": "bool",
          "name": "_isDone",
          "type": "bool"
        }
      ],
      "stateMutability": "nonpayable",
      "type": "function"
    },
    {
      "inputs": [
        {
          "internalType": "string[]",
          "name": "_ticketIdList",
          "type": "string[]"
        },
        {
          "internalType": "address",
          "name": "_tokenAddress",
          "type": "address"
        },
        {
          "internalType": "uint256[]",
          "name": "_unlockValueList",
          "type": "uint256[]"
        }
      ],
      "name": "workerUnlockFund",
      "outputs": [
        {
          "internalType": "bool",
          "name": "_isDone",
          "type": "bool"
        }
      ],
      "stateMutability": "nonpayable",
      "type": "function"
    }
  ],
  "bytecode": "0x60806040523480156200001157600080fd5b5060405162002a4138038062002a41833981016040819052620000349162000150565b6001600160a01b038316620000905760405162461bcd60e51b815260206004820152601660248201527f5a65726f206164647265737320666f722070726f78790000000000000000000060448201526064015b60405180910390fd5b6001600160a01b038216620000e85760405162461bcd60e51b815260206004820152601c60248201527f5a65726f206164647265737320666f72207369676d612070726f787900000000604482015260640162000087565b60058054336001600160a01b0319918216179091556006805482166001600160a01b03938416179055600780548216948316949094179093556008805490931691161790556200019a565b80516001600160a01b03811681146200014b57600080fd5b919050565b6000806000606084860312156200016657600080fd5b620001718462000133565b9250620001816020850162000133565b9150620001916040850162000133565b90509250925092565b61289780620001aa6000396000f3fe608060405234801561001057600080fd5b50600436106101a35760003560e01c8063837bb22b116100ee578063af427a8a11610097578063eac32a8e11610071578063eac32a8e146103e0578063ec556889146103f3578063f2fde38b14610406578063fcf7f0d81461041957600080fd5b8063af427a8a1461038a578063d7e0c6661461039d578063d99a9660146103c057600080fd5b80639178274a116100c85780639178274a1461034457806396163b20146103645780639e8b83141461037757600080fd5b8063837bb22b146102e65780638da5cb5b146103115780638e70331e1461032457600080fd5b80636579402b1161015057806373b5a9a91161012a57806373b5a9a9146102ad57806378811708146102c057806381c98350146102d357600080fd5b80636579402b146102675780636b4064f81461027a57806371b9952d1461028d57600080fd5b80634be5c4ea116101815780634be5c4ea1461022e5780634ce1054d146102415780635dd72c0f1461025457600080fd5b80630111efb7146101a857806302a2912e146101bd5780630a8fe995146101e5575b600080fd5b6101bb6101b6366004612174565b61042c565b005b6101d06101cb3660046121b1565b610520565b60405190151581526020015b60405180910390f35b6102206101f336600461224b565b81516020818401810180516001825292820194820194909420919093529091526000908152604090205481565b6040519081526020016101dc565b6101d061023c366004612299565b6105bf565b6101bb61024f366004612174565b610b14565b6101d061026236600461236d565b610bf8565b6101d0610275366004612299565b610cb8565b6101bb6102883660046123a9565b611091565b61022061029b3660046123a9565b60036020526000908152604090205481565b6101bb6102bb3660046123a9565b6111a4565b6101d06102ce3660046121b1565b611291565b6101d06102e136600461249f565b61140a565b6008546102f9906001600160a01b031681565b6040516001600160a01b0390911681526020016101dc565b6005546102f9906001600160a01b031681565b6102206103323660046123a9565b60006020819052908152604090205481565b6102206103523660046123a9565b60026020526000908152604090205481565b6101d06103723660046121b1565b61150f565b6006546102f9906001600160a01b031681565b6101d06103983660046121b1565b6115a0565b6101d06103ab3660046123a9565b60046020526000908152604090205460ff1681565b6103d36103ce366004612513565b6116d5565b6040516101dc9190612584565b6101bb6103ee3660046123a9565b6117bd565b6007546102f9906001600160a01b031681565b6101bb6104143660046123a9565b6118aa565b6101d0610427366004612597565b611997565b6005546001600160a01b0316331461047a5760405162461bcd60e51b815260206004820152600c60248201526b2737ba1030b71030b236b4b760a11b60448201526064015b60405180910390fd5b60005b81518110156104e25760016004600084848151811061049e5761049e612638565b6020908102919091018101516001600160a01b03168252810191909152604001600020805460ff1916911515919091179055806104da81612664565b91505061047d565b507fce47a335f11edcc85dd172fcb5376161f6b80193498647cd4b1db1f4d94a15f28160016040516105159291906126b8565b60405180910390a150565b3360009081526004602052604081205460ff1615156001146105735760405162461bcd60e51b815260206004820152600c60248201526b2737ba1030903bb7b935b2b960a11b6044820152606401610471565b826105886001600160a01b0382163385611d32565b6001600160a01b038416600090815260036020526040812080548592906105b09084906126dd565b90915550600195945050505050565b6007546000906001600160a01b03163314806105e557506008546001600160a01b031633145b6106315760405162461bcd60e51b815260206004820152601a60248201527f506c65617365207573652070726f787920636f6e74726163742e0000000000006044820152606401610471565b6001600160a01b038b1660009081526002602052604090205482146106985760405162461bcd60e51b815260206004820152601460248201527f57726f6e67207769746864726177206e6f6e63650000000000000000000000006044820152606401610471565b6001600160a01b038516301480156106af57504686145b6106fb5760405162461bcd60e51b815260206004820152601d60248201527f57726f6e6720636861696e202f2074617267657420636f6e74726163740000006044820152606401610471565b4384101561074b5760405162461bcd60e51b815260206004820152601160248201527f45787069726564207369676e61747572650000000000000000000000000000006044820152606401610471565b600073__$69987189fafd81b06474425565233fa135$__63ab4b3d3e600660009054906101000a90046001600160a01b03168f8f8f8f8f8f8f8f8f8f8f6040518d63ffffffff1660e01b81526004016107af9c9b9a9998979695949392919061274c565b602060405180830381865af41580156107cc573d6000803e3d6000fd5b505050506040513d601f19601f820116820180604052508101906107f091906127d8565b9050806108655760405162461bcd60e51b815260206004820152603360248201527f5369676e617475726520766572696669636174696f6e20666f7220696e73746160448201527f6e74207769746864726177616c206661696c73000000000000000000000000006064820152608401610471565b6108708360016127fa565b6001600160a01b03808e16600090815260026020908152604080832094909455918e1681529081905220548b908b11156108ec5760405162461bcd60e51b815260206004820152601660248201527f4e6174697665207769746864726177206661696c6564000000000000000000006044820152606401610471565b88600314156109b05789156109695760405162461bcd60e51b815260206004820152602c60248201527f4e6f20696e2d646562742076616c756520616c6c6f77656420666f722074696560448201527f72203320776974686472617700000000000000000000000000000000000000006064820152608401610471565b61097d6001600160a01b0382168e8d611d32565b6001600160a01b038c16600090815260208190526040812080548d92906109a59084906126dd565b90915550610b009050565b8860011415610ab85760008a11806109c8575060008b115b610a145760405162461bcd60e51b815260206004820152601a60248201527f546f74616c20776974686472617720616d6f756e7420697320300000000000006044820152606401610471565b8a15610a5c57610a2e6001600160a01b0382168e8d611d32565b6001600160a01b038c16600090815260208190526040812080548d9290610a569084906126dd565b90915550505b8915610ab35789600186604051610a739190612812565b908152602001604051809103902060008e6001600160a01b03166001600160a01b0316815260200190815260200160002060008282546109a591906127fa565b610b00565b60405162461bcd60e51b815260206004820152600c60248201527f496e76616c6964207469657200000000000000000000000000000000000000006044820152606401610471565b5060019d9c50505050505050505050505050565b6005546001600160a01b03163314610b5d5760405162461bcd60e51b815260206004820152600c60248201526b2737ba1030b71030b236b4b760a11b6044820152606401610471565b60005b8151811015610bc557600060046000848481518110610b8157610b81612638565b6020908102919091018101516001600160a01b03168252810191909152604001600020805460ff191691151591909117905580610bbd81612664565b915050610b60565b507fce47a335f11edcc85dd172fcb5376161f6b80193498647cd4b1db1f4d94a15f28160006040516105159291906126b8565b6007546000906001600160a01b0316331480610c1e57506008546001600160a01b031633145b610c6a5760405162461bcd60e51b815260206004820152601a60248201527f506c65617365207573652070726f787920636f6e74726163742e0000000000006044820152606401610471565b82610c806001600160a01b038216863086611dc7565b6001600160a01b03841660009081526020819052604081208054859290610ca89084906127fa565b9091555060019695505050505050565b6007546000906001600160a01b0316331480610cde57506008546001600160a01b031633145b610d2a5760405162461bcd60e51b815260206004820152601a60248201527f506c65617365207573652070726f787920636f6e74726163742e0000000000006044820152606401610471565b6001600160a01b038b166000908152600260205260409020548214610d915760405162461bcd60e51b815260206004820152601460248201527f57726f6e67207769746864726177206e6f6e63650000000000000000000000006044820152606401610471565b6001600160a01b03851630148015610da857504686145b610df45760405162461bcd60e51b815260206004820152601d60248201527f57726f6e6720636861696e202f2074617267657420636f6e74726163740000006044820152606401610471565b43841015610e445760405162461bcd60e51b815260206004820152601160248201527f45787069726564207369676e61747572650000000000000000000000000000006044820152606401610471565b8715610eb85760405162461bcd60e51b815260206004820152603260248201527f4e6f20696e2d646562742076616c756520616c6c6f77656420666f722072656460448201527f65656d696e6720534154495320746f6b656e00000000000000000000000000006064820152608401610471565b600073__$69987189fafd81b06474425565233fa135$__63ab4b3d3e600660009054906101000a90046001600160a01b03168f8f8f8f8f8f8f8f8f8f8f6040518d63ffffffff1660e01b8152600401610f1c9c9b9a9998979695949392919061274c565b602060405180830381865af4158015610f39573d6000803e3d6000fd5b505050506040513d601f19601f82011682018060405250810190610f5d91906127d8565b9050600181151514610fb15760405162461bcd60e51b815260206004820152601c60248201527f5369676e617475726520766572696669636174696f6e206661696c73000000006044820152606401610471565b6001600160a01b038b166000908152600360205260409020548a11156110195760405162461bcd60e51b815260206004820152601960248201527f496e73696666696369656e7420534154495320546f6b656e73000000000000006044820152606401610471565b6110248360016127fa565b6001600160a01b03808e166000908152600260205260409020919091558b906110509082168e8d611d32565b6001600160a01b038c16600090815260036020526040812080548d92906110789084906126dd565b9091555060019f9e505050505050505050505050505050565b6005546001600160a01b031633146110da5760405162461bcd60e51b815260206004820152600c60248201526b2737ba1030b71030b236b4b760a11b6044820152606401610471565b6001600160a01b0381166111565760405162461bcd60e51b815260206004820152602560248201527f5a65726f206164647265737320666f72206e6577207369676e6174757265207760448201527f6f726b65720000000000000000000000000000000000000000000000000000006064820152608401610471565b600680546001600160a01b0319166001600160a01b0383169081179091556040519081527f13fe41cfa48c597aa9a9d7a66fc4341292e3c65dfc7c7bab7a00f2bb86750aa290602001610515565b6005546001600160a01b031633146111ed5760405162461bcd60e51b815260206004820152600c60248201526b2737ba1030b71030b236b4b760a11b6044820152606401610471565b6001600160a01b0381166112435760405162461bcd60e51b815260206004820181905260248201527f5a65726f206164647265737320666f72206e6577207369676d612070726f78796044820152606401610471565b600880546001600160a01b0319166001600160a01b0383169081179091556040519081527fecf3a480426d45df3182212195e583631b547e451781f28d0e3c0df9d02921ec90602001610515565b3360009081526004602052604081205460ff1615156001146112e45760405162461bcd60e51b815260206004820152600c60248201526b2737ba1030903bb7b935b2b960a11b6044820152606401610471565b6001600160a01b0383166000908152602081905260409020548211156113725760405162461bcd60e51b815260206004820152602e60248201527f54616b696e67206d6f7265207468616e20746865206c6f636b6564206173736560448201527f747320696e20636f6e74726163740000000000000000000000000000000000006064820152608401610471565b6001600160a01b03831660009081526020819052604081208054859285929161139c9084906126dd565b909155506113b690506001600160a01b0382163385611d32565b604080513381526001600160a01b03861660208201529081018490527f9ba9e797375fa882aa9cf090f979bd40387648913471857d96fe30e4c3c16187906060015b60405180910390a15060019392505050565b3360009081526004602052604081205460ff16151560011461145d5760405162461bcd60e51b815260206004820152600c60248201526b2737ba1030903bb7b935b2b960a11b6044820152606401610471565b60005b84518110156115045782818151811061147b5761147b612638565b6020026020010151600186838151811061149757611497612638565b60200260200101516040516114ac9190612812565b90815260200160405180910390206000866001600160a01b03166001600160a01b0316815260200190815260200160002060008282546114ec91906126dd565b909155508190506114fc81612664565b915050611460565b506001949350505050565b3360009081526004602052604081205460ff1615156001146115625760405162461bcd60e51b815260206004820152600c60248201526b2737ba1030903bb7b935b2b960a11b6044820152606401610471565b826115786001600160a01b038216333086611dc7565b6001600160a01b038416600090815260036020526040812080548592906105b09084906127fa565b6005546000906001600160a01b031633146115ec5760405162461bcd60e51b815260206004820152600c60248201526b2737ba1030b71030b236b4b760a11b6044820152606401610471565b6001600160a01b0383166000908152602081905260409020548211156116545760405162461bcd60e51b815260206004820152601a60248201527f4e6f7420656e6f7567682062616c616e636520746f2074616b650000000000006044820152606401610471565b826116696001600160a01b0382163385611d32565b6001600160a01b038416600090815260208190526040812080548592906116919084906126dd565b9091555050604080516001600160a01b0386168152602081018590527f72d6f02251fe2edca9d1db10b7db097c619987829aa24dd834ce90d66319e2d591016113f8565b60606000835167ffffffffffffffff8111156116f3576116f361207b565b60405190808252806020026020018201604052801561171c578160200160208202803683370190505b50905060005b84518110156117b557600185828151811061173f5761173f612638565b60200260200101516040516117549190612812565b90815260200160405180910390206000856001600160a01b03166001600160a01b031681526020019081526020016000205482828151811061179857611798612638565b6020908102919091010152806117ad81612664565b915050611722565b509392505050565b6005546001600160a01b031633146118065760405162461bcd60e51b815260206004820152600c60248201526b2737ba1030b71030b236b4b760a11b6044820152606401610471565b6001600160a01b03811661185c5760405162461bcd60e51b815260206004820152601a60248201527f5a65726f206164647265737320666f72206e65772070726f78790000000000006044820152606401610471565b600780546001600160a01b0319166001600160a01b0383169081179091556040519081527fcf16493c33f7a5001593c6b3158b6613c39a56bed7e2fe27f83a7ee297b6e32a90602001610515565b6005546001600160a01b031633146118f35760405162461bcd60e51b815260206004820152600c60248201526b2737ba1030b71030b236b4b760a11b6044820152606401610471565b6001600160a01b0381166119495760405162461bcd60e51b815260206004820152601a60248201527f5a65726f206164647265737320666f72206e6577206f776e65720000000000006044820152606401610471565b600580546001600160a01b0319166001600160a01b0383169081179091556040519081527f244ded7a3b73e60f03281fc183df050e6134d393c50788e980dc090f06e7280990602001610515565b3360009081526004602052604081205460ff1615156001146119ea5760405162461bcd60e51b815260206004820152600c60248201526b2737ba1030903bb7b935b2b960a11b6044820152606401610471565b6001600160a01b0384166000908152602081905260409020548390839081151580611a16575060008351115b611a885760405162461bcd60e51b815260206004820152602a60248201527f5a65726f2064756d702076616c756520616e64207a65726f207175657565206c60448201527f697374206c656e677468000000000000000000000000000000000000000000006064820152608401610471565b6000805b8451811015611ace57848181518110611aa757611aa7612638565b602002602001015182611aba91906127fa565b915080611ac681612664565b915050611a8c565b50611ad983836127fa565b811115611b4e5760405162461bcd60e51b815260206004820152602a60248201527f44756d702076616c7565202b20706f6f6c20617373657473203c20717565756560448201527f2076616c75652073756d000000000000000000000000000000000000000000006064820152608401610471565b878615611b9857611b6a6001600160a01b03821633308a611dc7565b6001600160a01b03891660009081526020819052604081208054899290611b929084906127fa565b90915550505b60005b8a51811015611ce357611bf48b8281518110611bb957611bb9612638565b60200260200101518a8381518110611bd357611bd3612638565b6020026020010151846001600160a01b0316611d329092919063ffffffff16565b888181518110611c0657611c06612638565b60200260200101516000808c6001600160a01b03166001600160a01b031681526020019081526020016000206000828254611c4191906126dd565b92505081905550888181518110611c5a57611c5a612638565b602002602001015160018d8381518110611c7657611c76612638565b6020026020010151604051611c8b9190612812565b908152602001604051809103902060008c6001600160a01b03166001600160a01b031681526020019081526020016000206000828254611ccb91906126dd565b90915550819050611cdb81612664565b915050611b9b565b507fbfd6d077575843694efa473ca9a33dc8987287f7d2295309a78c73302b5693a0338b8b8b604051611d19949392919061282e565b60405180910390a15060019a9950505050505050505050565b6040516001600160a01b038316602482015260448101829052611dc290849063a9059cbb60e01b906064015b60408051601f198184030181529190526020810180517bffffffffffffffffffffffffffffffffffffffffffffffffffffffff167fffffffff0000000000000000000000000000000000000000000000000000000090931692909217909152611e05565b505050565b6040516001600160a01b0380851660248301528316604482015260648101829052611dff9085906323b872dd60e01b90608401611d5e565b50505050565b6000611e5a826040518060400160405280602081526020017f5361666545524332303a206c6f772d6c6576656c2063616c6c206661696c6564815250856001600160a01b0316611eea9092919063ffffffff16565b805190915015611dc25780806020019051810190611e7891906127d8565b611dc25760405162461bcd60e51b815260206004820152602a60248201527f5361666545524332303a204552433230206f7065726174696f6e20646964206e60448201527f6f742073756363656564000000000000000000000000000000000000000000006064820152608401610471565b6060611ef98484600085611f03565b90505b9392505050565b606082471015611f7b5760405162461bcd60e51b815260206004820152602660248201527f416464726573733a20696e73756666696369656e742062616c616e636520666f60448201527f722063616c6c00000000000000000000000000000000000000000000000000006064820152608401610471565b843b611fc95760405162461bcd60e51b815260206004820152601d60248201527f416464726573733a2063616c6c20746f206e6f6e2d636f6e74726163740000006044820152606401610471565b600080866001600160a01b03168587604051611fe59190612812565b60006040518083038185875af1925050503d8060008114612022576040519150601f19603f3d011682016040523d82523d6000602084013e612027565b606091505b5091509150612037828286612042565b979650505050505050565b60608315612051575081611efc565b8251156120615782518084602001fd5b8160405162461bcd60e51b81526004016104719190612877565b634e487b7160e01b600052604160045260246000fd5b604051601f8201601f1916810167ffffffffffffffff811182821017156120ba576120ba61207b565b604052919050565b600067ffffffffffffffff8211156120dc576120dc61207b565b5060051b60200190565b80356001600160a01b03811681146120fd57600080fd5b919050565b600082601f83011261211357600080fd5b81356020612128612123836120c2565b612091565b82815260059290921b8401810191818101908684111561214757600080fd5b8286015b848110156121695761215c816120e6565b835291830191830161214b565b509695505050505050565b60006020828403121561218657600080fd5b813567ffffffffffffffff81111561219d57600080fd5b6121a984828501612102565b949350505050565b600080604083850312156121c457600080fd5b6121cd836120e6565b946020939093013593505050565b600082601f8301126121ec57600080fd5b813567ffffffffffffffff8111156122065761220661207b565b612219601f8201601f1916602001612091565b81815284602083860101111561222e57600080fd5b816020850160208301376000918101602001919091529392505050565b6000806040838503121561225e57600080fd5b823567ffffffffffffffff81111561227557600080fd5b612281858286016121db565b925050612290602084016120e6565b90509250929050565b60008060008060008060008060008060006101608c8e0312156122bb57600080fd5b67ffffffffffffffff808d3511156122d257600080fd5b6122df8e8e358f016121db565b9b506122ed60208e016120e6565b9a506122fb60408e016120e6565b995060608d0135985060808d0135975060a08d0135965060c08d0135955061232560e08e016120e6565b94506101008d01359350806101208e0135111561234157600080fd5b506123538d6101208e01358e016121db565b91506101408c013590509295989b509295989b9093969950565b60008060006060848603121561238257600080fd5b61238b846120e6565b9250612399602085016120e6565b9150604084013590509250925092565b6000602082840312156123bb57600080fd5b611efc826120e6565b600082601f8301126123d557600080fd5b813560206123e5612123836120c2565b82815260059290921b8401810191818101908684111561240457600080fd5b8286015b8481101561216957803567ffffffffffffffff8111156124285760008081fd5b6124368986838b01016121db565b845250918301918301612408565b600082601f83011261245557600080fd5b81356020612465612123836120c2565b82815260059290921b8401810191818101908684111561248457600080fd5b8286015b848110156121695780358352918301918301612488565b6000806000606084860312156124b457600080fd5b833567ffffffffffffffff808211156124cc57600080fd5b6124d8878388016123c4565b94506124e6602087016120e6565b935060408601359150808211156124fc57600080fd5b5061250986828701612444565b9150509250925092565b6000806040838503121561252657600080fd5b823567ffffffffffffffff81111561253d57600080fd5b612281858286016123c4565b600081518084526020808501945080840160005b838110156125795781518752958201959082019060010161255d565b509495945050505050565b602081526000611efc6020830184612549565b600080600080600060a086880312156125af57600080fd5b853567ffffffffffffffff808211156125c757600080fd5b6125d389838a016123c4565b965060208801359150808211156125e957600080fd5b6125f589838a01612102565b9550612603604089016120e6565b9450606088013591508082111561261957600080fd5b5061262688828901612444565b95989497509295608001359392505050565b634e487b7160e01b600052603260045260246000fd5b634e487b7160e01b600052601160045260246000fd5b60006000198214156126785761267861264e565b5060010190565b600081518084526020808501945080840160005b838110156125795781516001600160a01b031687529582019590820190600101612693565b6040815260006126cb604083018561267f565b905060ff831660208301529392505050565b6000828210156126ef576126ef61264e565b500390565b60005b8381101561270f5781810151838201526020016126f7565b83811115611dff5750506000910152565b600081518084526127388160208601602086016126f4565b601f01601f19169290920160200192915050565b60006001600160a01b03808f168352610180602084015261277161018084018f612720565b818e166040850152818d1660608501528b60808501528a60a08501528960c08501528860e0850152818816610100850152866101208501528381036101408501526127bc8187612720565b92505050826101608301529d9c50505050505050505050505050565b6000602082840312156127ea57600080fd5b81518015158114611efc57600080fd5b6000821982111561280d5761280d61264e565b500190565b600082516128248184602087016126f4565b9190910192915050565b60006001600160a01b03808716835260806020840152612851608084018761267f565b8186166040850152838103606085015261286b8186612549565b98975050505050505050565b602081526000611efc602083018461272056fea164736f6c634300080c000a",
  "linkReferences": {
    "contracts/v2/satis_core/MoneyPoolRaw.sol": {
      "MultiSig": [
        {
          "length": 20,
          "start": 2297
        },
        {
          "length": 20,
          "start": 4198
        }
      ]
    }
  },
  "deployedLinkReferences": {
    "contracts/v2/satis_core/MoneyPoolRaw.sol": {
      "MultiSig": [
        {
          "length": 20,
          "start": 1871
        },
        {
          "length": 20,
          "start": 3772
        }
      ]
    }
  }
}