{
  "_format": "hh-sol-artifact-1",
  "contractName": "MoneyPoolRaw",
  "sourceName": "contracts/v2/satis_core/MoneyPoolRaw.sol",
  "abi": [
    {
      "inputs": [
        {
          "internalType": "address",
          "name": "_initialProxyAddress",
          "type": "address"
        },
        {
          "internalType": "address",
          "name": "_initialSigmaProxyAddress",
          "type": "address"
        }
      ],
      "stateMutability": "nonpayable",
      "type": "constructor"
    },
    {
      "anonymous": false,
      "inputs": [
        {
          "indexed": false,
          "internalType": "address[]",
          "name": "addWorkerList",
          "type": "address[]"
        }
      ],
      "name": "AddWorkers",
      "type": "event"
    },
    {
      "anonymous": false,
      "inputs": [
        {
          "indexed": false,
          "internalType": "address",
          "name": "newOwner",
          "type": "address"
        }
      ],
      "name": "ChangeOwnership",
      "type": "event"
    },
    {
      "anonymous": false,
      "inputs": [
        {
          "indexed": false,
          "internalType": "address",
          "name": "newProxy",
          "type": "address"
        }
      ],
      "name": "ChangeProxy",
      "type": "event"
    },
    {
      "anonymous": false,
      "inputs": [
        {
          "indexed": false,
          "internalType": "address",
          "name": "newSigmaProxy",
          "type": "address"
        }
      ],
      "name": "ChangeSigmaProxy",
      "type": "event"
    },
    {
      "anonymous": false,
      "inputs": [
        {
          "indexed": false,
          "internalType": "address",
          "name": "tokenAddress",
          "type": "address"
        },
        {
          "indexed": false,
          "internalType": "uint256",
          "name": "takeProfitValue",
          "type": "uint256"
        }
      ],
      "name": "OwnerTakeProfit",
      "type": "event"
    },
    {
      "anonymous": false,
      "inputs": [
        {
          "indexed": false,
          "internalType": "address[]",
          "name": "removeWorkerList",
          "type": "address[]"
        }
      ],
      "name": "RemoveWorkers",
      "type": "event"
    },
    {
      "anonymous": false,
      "inputs": [
        {
          "indexed": false,
          "internalType": "address",
          "name": "workerAddress",
          "type": "address"
        },
        {
          "indexed": false,
          "internalType": "address[]",
          "name": "clientAddressList",
          "type": "address[]"
        },
        {
          "indexed": false,
          "internalType": "address",
          "name": "tokenAddress",
          "type": "address"
        },
        {
          "indexed": false,
          "internalType": "uint256[]",
          "name": "dumpValueList",
          "type": "uint256[]"
        }
      ],
      "name": "WorkerDumpBridgedFund",
      "type": "event"
    },
    {
      "anonymous": false,
      "inputs": [
        {
          "indexed": false,
          "internalType": "address",
          "name": "workerAddress",
          "type": "address"
        },
        {
          "indexed": false,
          "internalType": "address[]",
          "name": "_clientAddressList",
          "type": "address[]"
        },
        {
          "indexed": false,
          "internalType": "address",
          "name": "_tokenAddress",
          "type": "address"
        },
        {
          "indexed": false,
          "internalType": "uint256[]",
          "name": "_instantWithdrawValueList",
          "type": "uint256[]"
        }
      ],
      "name": "WorkerDumpInstantWithdrawFund",
      "type": "event"
    },
    {
      "anonymous": false,
      "inputs": [
        {
          "indexed": false,
          "internalType": "address",
          "name": "workerAddress",
          "type": "address"
        },
        {
          "indexed": false,
          "internalType": "address",
          "name": "tokenAddress",
          "type": "address"
        },
        {
          "indexed": false,
          "internalType": "uint256",
          "name": "takeValue",
          "type": "uint256"
        }
      ],
      "name": "WorkerTakeLockedFund",
      "type": "event"
    },
    {
      "inputs": [
        {
          "internalType": "address",
          "name": "_clientAddress",
          "type": "address"
        },
        {
          "internalType": "address",
          "name": "_tokenAddress",
          "type": "address"
        },
        {
          "internalType": "uint256",
          "name": "_addValue",
          "type": "uint256"
        }
      ],
      "name": "addFundWithAction",
      "outputs": [
        {
          "internalType": "bool",
          "name": "_isDone",
          "type": "bool"
        }
      ],
      "stateMutability": "nonpayable",
      "type": "function"
    },
    {
      "inputs": [
        {
          "internalType": "address[]",
          "name": "_addWorkerList",
          "type": "address[]"
        }
      ],
      "name": "addWorkers",
      "outputs": [],
      "stateMutability": "nonpayable",
      "type": "function"
    },
    {
      "inputs": [
        {
          "internalType": "address",
          "name": "",
          "type": "address"
        }
      ],
      "name": "clientNonce",
      "outputs": [
        {
          "internalType": "uint256",
          "name": "",
          "type": "uint256"
        }
      ],
      "stateMutability": "view",
      "type": "function"
    },
    {
      "inputs": [
        {
          "internalType": "address",
          "name": "_tokenAddress",
          "type": "address"
        },
        {
          "internalType": "uint256",
          "name": "_fundingValue",
          "type": "uint256"
        }
      ],
      "name": "fundSatisToken",
      "outputs": [
        {
          "internalType": "bool",
          "name": "_isDone",
          "type": "bool"
        }
      ],
      "stateMutability": "nonpayable",
      "type": "function"
    },
    {
      "inputs": [
        {
          "internalType": "address[]",
          "name": "_clientAddressList",
          "type": "address[]"
        },
        {
          "internalType": "address",
          "name": "_tokenAddress",
          "type": "address"
        }
      ],
      "name": "getClientInstantWithdrawReserve",
      "outputs": [
        {
          "internalType": "uint256[]",
          "name": "",
          "type": "uint256[]"
        }
      ],
      "stateMutability": "view",
      "type": "function"
    },
    {
      "inputs": [
        {
          "internalType": "address[]",
          "name": "_clientAddressList",
          "type": "address[]"
        },
        {
          "internalType": "address",
          "name": "_tokenAddress",
          "type": "address"
        }
      ],
      "name": "getClientQueueValue",
      "outputs": [
        {
          "internalType": "uint256[]",
          "name": "",
          "type": "uint256[]"
        }
      ],
      "stateMutability": "view",
      "type": "function"
    },
    {
      "inputs": [
        {
          "internalType": "address",
          "name": "",
          "type": "address"
        },
        {
          "internalType": "address",
          "name": "",
          "type": "address"
        }
      ],
      "name": "instantWithdrawReserve",
      "outputs": [
        {
          "internalType": "uint256",
          "name": "",
          "type": "uint256"
        }
      ],
      "stateMutability": "view",
      "type": "function"
    },
    {
      "inputs": [],
      "name": "owner",
      "outputs": [
        {
          "internalType": "address",
          "name": "",
          "type": "address"
        }
      ],
      "stateMutability": "view",
      "type": "function"
    },
    {
      "inputs": [
        {
          "internalType": "address",
          "name": "_tokenAddress",
          "type": "address"
        },
        {
          "internalType": "uint256",
          "name": "_takeProfitValue",
          "type": "uint256"
        }
      ],
      "name": "ownerTakeProfit",
      "outputs": [
        {
          "internalType": "bool",
          "name": "_isDone",
          "type": "bool"
        }
      ],
      "stateMutability": "nonpayable",
      "type": "function"
    },
    {
      "inputs": [],
      "name": "proxy",
      "outputs": [
        {
          "internalType": "address",
          "name": "",
          "type": "address"
        }
      ],
      "stateMutability": "view",
      "type": "function"
    },
    {
      "inputs": [
        {
          "internalType": "address",
          "name": "",
          "type": "address"
        }
      ],
      "name": "queueCount",
      "outputs": [
        {
          "internalType": "uint256",
          "name": "",
          "type": "uint256"
        }
      ],
      "stateMutability": "view",
      "type": "function"
    },
    {
      "inputs": [
        {
          "internalType": "address[]",
          "name": "_removeWorkerList",
          "type": "address[]"
        }
      ],
      "name": "removeWorkers",
      "outputs": [],
      "stateMutability": "nonpayable",
      "type": "function"
    },
    {
      "inputs": [
        {
          "internalType": "address",
          "name": "",
          "type": "address"
        }
      ],
      "name": "satisTokenBalance",
      "outputs": [
        {
          "internalType": "uint256",
          "name": "",
          "type": "uint256"
        }
      ],
      "stateMutability": "view",
      "type": "function"
    },
    {
      "inputs": [],
      "name": "sigmaProxy",
      "outputs": [
        {
          "internalType": "address",
          "name": "",
          "type": "address"
        }
      ],
      "stateMutability": "view",
      "type": "function"
    },
    {
      "inputs": [
        {
          "internalType": "address",
          "name": "",
          "type": "address"
        }
      ],
      "name": "totalLockedAssets",
      "outputs": [
        {
          "internalType": "uint256",
          "name": "",
          "type": "uint256"
        }
      ],
      "stateMutability": "view",
      "type": "function"
    },
    {
      "inputs": [
        {
          "internalType": "address",
          "name": "_newOwner",
          "type": "address"
        }
      ],
      "name": "transferOwnership",
      "outputs": [],
      "stateMutability": "nonpayable",
      "type": "function"
    },
    {
      "inputs": [
        {
          "internalType": "address",
          "name": "_newProxyAddress",
          "type": "address"
        }
      ],
      "name": "updateProxyAddress",
      "outputs": [],
      "stateMutability": "nonpayable",
      "type": "function"
    },
    {
      "inputs": [
        {
          "internalType": "address",
          "name": "_newSigmaProxyAddress",
          "type": "address"
        }
      ],
      "name": "updateSigmaProxyAddress",
      "outputs": [],
      "stateMutability": "nonpayable",
      "type": "function"
    },
    {
      "inputs": [
        {
          "internalType": "bytes",
          "name": "_targetSignature",
          "type": "bytes"
        },
        {
          "internalType": "address",
          "name": "_clientAddress",
          "type": "address"
        },
        {
          "internalType": "address",
          "name": "_tokenAddress",
          "type": "address"
        },
        {
          "internalType": "uint256",
          "name": "_queueValue",
          "type": "uint256"
        },
        {
          "internalType": "uint256",
          "name": "_tier",
          "type": "uint256"
        },
        {
          "internalType": "uint256",
          "name": "_chainId",
          "type": "uint256"
        },
        {
          "internalType": "address",
          "name": "_poolAddress",
          "type": "address"
        },
        {
          "internalType": "uint256",
          "name": "_expBlockNo",
          "type": "uint256"
        },
        {
          "internalType": "uint256",
          "name": "_nonce",
          "type": "uint256"
        }
      ],
      "name": "verifyAndQueue",
      "outputs": [
        {
          "internalType": "bool",
          "name": "_isDone",
          "type": "bool"
        }
      ],
      "stateMutability": "nonpayable",
      "type": "function"
    },
    {
      "inputs": [
        {
          "internalType": "bytes",
          "name": "_targetSignature",
          "type": "bytes"
        },
        {
          "internalType": "address",
          "name": "_clientAddress",
          "type": "address"
        },
        {
          "internalType": "address",
          "name": "_tokenAddress",
          "type": "address"
        },
        {
          "internalType": "uint256",
          "name": "_redeemValue",
          "type": "uint256"
        },
        {
          "internalType": "uint256",
          "name": "_tier",
          "type": "uint256"
        },
        {
          "internalType": "uint256",
          "name": "_chainId",
          "type": "uint256"
        },
        {
          "internalType": "address",
          "name": "_poolAddress",
          "type": "address"
        },
        {
          "internalType": "uint256",
          "name": "_expBlockNo",
          "type": "uint256"
        },
        {
          "internalType": "uint256",
          "name": "_nonce",
          "type": "uint256"
        }
      ],
      "name": "verifyAndRedeemToken",
      "outputs": [
        {
          "internalType": "bool",
          "name": "_isDone",
          "type": "bool"
        }
      ],
      "stateMutability": "nonpayable",
      "type": "function"
    },
    {
      "inputs": [
        {
          "internalType": "bytes",
          "name": "_targetSignature",
          "type": "bytes"
        },
        {
          "internalType": "address",
          "name": "_clientAddress",
          "type": "address"
        },
        {
          "internalType": "address",
          "name": "_tokenAddress",
          "type": "address"
        },
        {
          "internalType": "uint256",
          "name": "_withdrawValue",
          "type": "uint256"
        },
        {
          "internalType": "uint256",
          "name": "_tier",
          "type": "uint256"
        },
        {
          "internalType": "uint256",
          "name": "_chainId",
          "type": "uint256"
        },
        {
          "internalType": "address",
          "name": "_poolAddress",
          "type": "address"
        },
        {
          "internalType": "uint256",
          "name": "_expBlockNo",
          "type": "uint256"
        },
        {
          "internalType": "uint256",
          "name": "_nonce",
          "type": "uint256"
        }
      ],
      "name": "verifyAndWithdrawFund",
      "outputs": [
        {
          "internalType": "bool",
          "name": "_isDone",
          "type": "bool"
        }
      ],
      "stateMutability": "nonpayable",
      "type": "function"
    },
    {
      "inputs": [
        {
          "internalType": "address",
          "name": "",
          "type": "address"
        },
        {
          "internalType": "address",
          "name": "",
          "type": "address"
        }
      ],
      "name": "withdrawalQueue",
      "outputs": [
        {
          "internalType": "uint256",
          "name": "",
          "type": "uint256"
        }
      ],
      "stateMutability": "view",
      "type": "function"
    },
    {
      "inputs": [
        {
          "internalType": "address[]",
          "name": "_clientAddressList",
          "type": "address[]"
        },
        {
          "internalType": "address",
          "name": "_tokenAddress",
          "type": "address"
        },
        {
          "internalType": "uint256[]",
          "name": "_instantWithdrawValueList",
          "type": "uint256[]"
        },
        {
          "internalType": "uint256",
          "name": "_totalDumpAmount",
          "type": "uint256"
        }
      ],
      "name": "workerDumpInstantWithdrawalFund",
      "outputs": [
        {
          "internalType": "bool",
          "name": "_isDone",
          "type": "bool"
        }
      ],
      "stateMutability": "nonpayable",
      "type": "function"
    },
    {
      "inputs": [
        {
          "internalType": "address[]",
          "name": "_clientAddressList",
          "type": "address[]"
        },
        {
          "internalType": "address",
          "name": "_tokenAddress",
          "type": "address"
        },
        {
          "internalType": "uint256[]",
          "name": "_queueValueList",
          "type": "uint256[]"
        },
        {
          "internalType": "uint256",
          "name": "_totalDumpAmount",
          "type": "uint256"
        }
      ],
      "name": "workerDumpRebalancedFund",
      "outputs": [
        {
          "internalType": "bool",
          "name": "_isDone",
          "type": "bool"
        }
      ],
      "stateMutability": "nonpayable",
      "type": "function"
    },
    {
      "inputs": [
        {
          "internalType": "address",
          "name": "",
          "type": "address"
        }
      ],
      "name": "workerList",
      "outputs": [
        {
          "internalType": "bool",
          "name": "",
          "type": "bool"
        }
      ],
      "stateMutability": "view",
      "type": "function"
    },
    {
      "inputs": [
        {
          "internalType": "address",
          "name": "_tokenAddress",
          "type": "address"
        },
        {
          "internalType": "uint256",
          "name": "_takeValue",
          "type": "uint256"
        }
      ],
      "name": "workerTakeLockedFund",
      "outputs": [
        {
          "internalType": "bool",
          "name": "_isDone",
          "type": "bool"
        }
      ],
      "stateMutability": "nonpayable",
      "type": "function"
    },
    {
      "inputs": [
        {
          "internalType": "address",
          "name": "_tokenAddress",
          "type": "address"
        },
        {
          "internalType": "uint256",
          "name": "_takingValue",
          "type": "uint256"
        }
      ],
      "name": "workerTakeSatisToken",
      "outputs": [
        {
          "internalType": "bool",
          "name": "_isDone",
          "type": "bool"
        }
      ],
      "stateMutability": "nonpayable",
      "type": "function"
    },
    {
      "inputs": [
        {
          "internalType": "address[]",
          "name": "_clientAddressList",
          "type": "address[]"
        },
        {
          "internalType": "address",
          "name": "_tokenAddress",
          "type": "address"
        },
        {
          "internalType": "uint256[]",
          "name": "_tokenValueList",
          "type": "uint256[]"
        },
        {
          "internalType": "uint256",
          "name": "_tier",
          "type": "uint256"
        }
      ],
      "name": "workerUnlockFund",
      "outputs": [
        {
          "internalType": "bool",
          "name": "_isDone",
          "type": "bool"
        }
      ],
      "stateMutability": "nonpayable",
      "type": "function"
    }
  ],
  "bytecode": "0x60806040523480156200001157600080fd5b5060405162002df738038062002df783398101604081905262000034916200015d565b6001600160a01b038216620000905760405162461bcd60e51b815260206004820152601660248201527f5a65726f206164647265737320666f722070726f78790000000000000000000060448201526064015b60405180910390fd5b6001600160a01b038116620000e85760405162461bcd60e51b815260206004820152601c60248201527f5a65726f206164647265737320666f72207369676d612070726f787900000000604482015260640162000087565b60078054336001600160a01b03199182168117909255600091825260066020526040909120805460ff191660011790556008805482166001600160a01b03948516179055600980549091169190921617905562000195565b80516001600160a01b03811681146200015857600080fd5b919050565b600080604083850312156200017157600080fd5b6200017c8362000140565b91506200018c6020840162000140565b90509250929050565b612c5280620001a56000396000f3fe608060405234801561001057600080fd5b50600436106101c45760003560e01c80639178274a116100f9578063bf7ab90c11610097578063d7e0c66611610071578063d7e0c6661461043f578063eac32a8e14610462578063ec55688914610475578063f2fde38b1461048857600080fd5b8063bf7ab90c146103ee578063bfeebfd214610401578063d6f64f401461041457600080fd5b8063989fb193116100d3578063989fb193146103955780639c7335b4146103a8578063a158b21f146103bb578063af427a8a146103db57600080fd5b80639178274a1461034f57806394b466601461036f57806396163b201461038257600080fd5b806371b9952d11610166578063837bb22b11610140578063837bb22b146102de5780638da5cb5b146103095780638e70331e1461031c578063917151701461033c57600080fd5b806371b9952d1461029857806373b5a9a9146102b857806378811708146102cb57600080fd5b80632b8e9d35116101a25780632b8e9d351461023f5780633c511a191461025f5780634ce1054d146102725780635dd72c0f1461028557600080fd5b80630111efb7146101c957806302a2912e146101de578063195c007b14610206575b600080fd5b6101dc6101d73660046126da565b61049b565b005b6101f16101ec366004612717565b61058c565b60405190151581526020015b60405180910390f35b610231610214366004612741565b600160209081526000928352604080842090915290825290205481565b6040519081526020016101fd565b61025261024d366004612774565b61062b565b6040516101fd91906127f4565b6101f161026d366004612807565b61071a565b6101dc6102803660046126da565b6108e5565b6101f16102933660046128d8565b6109c6565b6102316102a6366004612914565b60056020526000908152604090205481565b6101dc6102c6366004612914565b610a86565b6101f16102d9366004612717565b610b8a565b6009546102f1906001600160a01b031681565b6040516001600160a01b0390911681526020016101fd565b6007546102f1906001600160a01b031681565b61023161032a366004612914565b60006020819052908152604090205481565b61025261034a366004612774565b610d03565b61023161035d366004612914565b60046020526000908152604090205481565b6101f161037d36600461292f565b610dea565b6101f1610390366004612717565b6110d4565b6101f16103a3366004612807565b611165565b6101f16103b636600461292f565b6115a7565b6102316103c9366004612914565b60036020526000908152604090205481565b6101f16103e9366004612717565b6118ea565b6101f16103fc366004612807565b611a1f565b6101f161040f36600461292f565b611d5f565b610231610422366004612741565b600260209081526000928352604080842090915290825290205481565b6101f161044d366004612914565b60066020526000908152604090205460ff1681565b6101dc610470366004612914565b61206a565b6008546102f1906001600160a01b031681565b6101dc610496366004612914565b61216e565b6007546001600160a01b031633146104e95760405162461bcd60e51b815260206004820152600c60248201526b2737ba1030b71030b236b4b760a11b60448201526064015b60405180910390fd5b60005b81518110156105515760016006600084848151811061050d5761050d612a27565b6020908102919091018101516001600160a01b03168252810191909152604001600020805460ff19169115159190911790558061054981612a53565b9150506104ec565b507f9e36e65aa003add44ff529b38d35a7fed088dd29f3ab43ee9ee17e449621ff98816040516105819190612aa7565b60405180910390a150565b3360009081526006602052604081205460ff1615156001146105df5760405162461bcd60e51b815260206004820152600c60248201526b2737ba1030903bb7b935b2b960a11b60448201526064016104e0565b826105f46001600160a01b0382163385612298565b6001600160a01b0384166000908152600560205260408120805485929061061c908490612aba565b90915550600195945050505050565b60606000835167ffffffffffffffff811115610649576106496125e1565b604051908082528060200260200182016040528015610672578160200160208202803683370190505b50905060005b8451811015610712576001600086838151811061069757610697612a27565b60200260200101516001600160a01b03166001600160a01b031681526020019081526020016000206000856001600160a01b03166001600160a01b03168152602001908152602001600020548282815181106106f5576106f5612a27565b60209081029190910101528061070a81612a53565b915050610678565b509392505050565b3360009081526006602052604081205460ff16151560011461076d5760405162461bcd60e51b815260206004820152600c60248201526b2737ba1030903bb7b935b2b960a11b60448201526064016104e0565b816002141561082a5760005b85518110156108245783818151811061079457610794612a27565b6020026020010151600260008884815181106107b2576107b2612a27565b60200260200101516001600160a01b03166001600160a01b031681526020019081526020016000206000876001600160a01b03166001600160a01b03168152602001908152602001600020600082825461080c9190612aba565b9091555081905061081c81612a53565b915050610779565b506108da565b60005b85518110156108d85783818151811061084857610848612a27565b60200260200101516001600088848151811061086657610866612a27565b60200260200101516001600160a01b03166001600160a01b031681526020019081526020016000206000876001600160a01b03166001600160a01b0316815260200190815260200160002060008282546108c09190612aba565b909155508190506108d081612a53565b91505061082d565b505b506001949350505050565b6007546001600160a01b0316331461092e5760405162461bcd60e51b815260206004820152600c60248201526b2737ba1030b71030b236b4b760a11b60448201526064016104e0565b60005b81518110156109965760006006600084848151811061095257610952612a27565b6020908102919091018101516001600160a01b03168252810191909152604001600020805460ff19169115159190911790558061098e81612a53565b915050610931565b507f76fe8505b7c4b7ba022031c51ac725c7177670399af7d2ebca7026b7e25bf893816040516105819190612aa7565b6008546000906001600160a01b03163314806109ec57506009546001600160a01b031633145b610a385760405162461bcd60e51b815260206004820152601a60248201527f506c65617365207573652070726f787920636f6e74726163742e00000000000060448201526064016104e0565b82610a4e6001600160a01b03821686308661232d565b6001600160a01b03841660009081526020819052604081208054859290610a76908490612ad1565b9091555060019695505050505050565b3360009081526006602052604090205460ff161515600114610ad95760405162461bcd60e51b815260206004820152600c60248201526b2737ba1030903bb7b935b2b960a11b60448201526064016104e0565b6001600160a01b038116610b2f5760405162461bcd60e51b815260206004820181905260248201527f5a65726f206164647265737320666f72206e6577207369676d612070726f787960448201526064016104e0565b6009805473ffffffffffffffffffffffffffffffffffffffff19166001600160a01b0383169081179091556040519081527fecf3a480426d45df3182212195e583631b547e451781f28d0e3c0df9d02921ec90602001610581565b3360009081526006602052604081205460ff161515600114610bdd5760405162461bcd60e51b815260206004820152600c60248201526b2737ba1030903bb7b935b2b960a11b60448201526064016104e0565b6001600160a01b038316600090815260208190526040902054821115610c6b5760405162461bcd60e51b815260206004820152602e60248201527f54616b696e67206d6f7265207468616e20746865206c6f636b6564206173736560448201527f747320696e20636f6e747261637400000000000000000000000000000000000060648201526084016104e0565b6001600160a01b038316600090815260208190526040812080548592859291610c95908490612aba565b90915550610caf90506001600160a01b0382163385612298565b604080513381526001600160a01b03861660208201529081018490527f9ba9e797375fa882aa9cf090f979bd40387648913471857d96fe30e4c3c16187906060015b60405180910390a15060019392505050565b60606000835167ffffffffffffffff811115610d2157610d216125e1565b604051908082528060200260200182016040528015610d4a578160200160208202803683370190505b50905060005b84518110156107125760026000868381518110610d6f57610d6f612a27565b60200260200101516001600160a01b03166001600160a01b031681526020019081526020016000206000856001600160a01b03166001600160a01b0316815260200190815260200160002054828281518110610dcd57610dcd612a27565b602090810291909101015280610de281612a53565b915050610d50565b6008546000906001600160a01b0316331480610e1057506009546001600160a01b031633145b610e5c5760405162461bcd60e51b815260206004820152601a60248201527f506c65617365207573652070726f787920636f6e74726163742e00000000000060448201526064016104e0565b6001600160a01b0389166000908152600460205260409020548214610eba5760405162461bcd60e51b815260206004820152601460248201527357726f6e67207769746864726177206e6f6e636560601b60448201526064016104e0565b6001600160a01b03841630148015610ed157504685145b610f1d5760405162461bcd60e51b815260206004820152601d60248201527f57726f6e6720636861696e202f2074617267657420636f6e747261637400000060448201526064016104e0565b43831015610f615760405162461bcd60e51b815260206004820152601160248201527045787069726564207369676e617475726560781b60448201526064016104e0565b60075460405163cd4fc45560e01b815260009173__$69987189fafd81b06474425565233fa135$__9163cd4fc45591610fba916001600160a01b03909116908f908f908f908f908f908f908f908f908f90600401612b41565b602060405180830381865af4158015610fd7573d6000803e3d6000fd5b505050506040513d601f19601f82011682018060405250810190610ffb9190612bab565b9050806110705760405162461bcd60e51b815260206004820152603360248201527f5369676e617475726520766572696669636174696f6e20666f7220696e73746160448201527f6e74207769746864726177616c206661696c730000000000000000000000000060648201526084016104e0565b61107b836001612ad1565b6001600160a01b03808c1660009081526004602090815260408083209490945560018152838220928d1682529190915290812080548a92906110be908490612ad1565b9091555060019c9b505050505050505050505050565b3360009081526006602052604081205460ff1615156001146111275760405162461bcd60e51b815260206004820152600c60248201526b2737ba1030903bb7b935b2b960a11b60448201526064016104e0565b8261113d6001600160a01b03821633308661232d565b6001600160a01b0384166000908152600560205260408120805485929061061c908490612ad1565b3360009081526006602052604081205460ff1615156001146111b85760405162461bcd60e51b815260206004820152600c60248201526b2737ba1030903bb7b935b2b960a11b60448201526064016104e0565b6001600160a01b03841660009081526020819052604090205483908390811515806111e4575060008351115b6112435760405162461bcd60e51b815260206004820152602a60248201527f5a65726f2064756d702076616c756520616e64207a65726f207175657565206c6044820152690d2e6e840d8cadccee8d60b31b60648201526084016104e0565b6000805b84518110156112895784818151811061126257611262612a27565b6020026020010151826112759190612ad1565b91508061128181612a53565b915050611247565b506112948383612ad1565b8111156112f65760405162461bcd60e51b815260206004820152602a60248201527f44756d702076616c7565202b20706f6f6c20617373657473203c2071756575656044820152692076616c75652073756d60b01b60648201526084016104e0565b86518951146113475760405162461bcd60e51b815260206004820152601660248201527f4c69737473206c656e677468206e6f74206d617463680000000000000000000060448201526064016104e0565b878615611391576113636001600160a01b03821633308a61232d565b6001600160a01b0389166000908152602081905260408120805489929061138b908490612ad1565b90915550505b8951156115295760005b8a518110156114ea576113f48b82815181106113b9576113b9612a27565b60200260200101518a83815181106113d3576113d3612a27565b6020026020010151846001600160a01b03166122989092919063ffffffff16565b88818151811061140657611406612a27565b60200260200101516000808c6001600160a01b03166001600160a01b0316815260200190815260200160002060008282546114419190612aba565b9250508190555088818151811061145a5761145a612a27565b6020026020010151600260008d848151811061147857611478612a27565b60200260200101516001600160a01b03166001600160a01b0316815260200190815260200160002060008c6001600160a01b03166001600160a01b0316815260200190815260200160002060008282546114d29190612aba565b909155508190506114e281612a53565b91505061139b565b507fee4017fa461e4c1c3734069ff36425ce769fb10b77dfe81aaaebe639cfd08b7b338b8b8b6040516115209493929190612bcd565b60405180910390a15b6001600160a01b0389166000908152600360205260409020548a5110611567576001600160a01b038916600090815260036020526040812055611597565b89516001600160a01b038a1660009081526003602052604081208054909190611591908490612aba565b90915550505b5060019998505050505050505050565b6008546000906001600160a01b03163314806115cd57506009546001600160a01b031633145b6116195760405162461bcd60e51b815260206004820152601a60248201527f506c65617365207573652070726f787920636f6e74726163742e00000000000060448201526064016104e0565b6001600160a01b03891660009081526004602052604090205482146116775760405162461bcd60e51b815260206004820152601460248201527357726f6e67207769746864726177206e6f6e636560601b60448201526064016104e0565b6001600160a01b0384163014801561168e57504685145b6116da5760405162461bcd60e51b815260206004820152601d60248201527f57726f6e6720636861696e202f2074617267657420636f6e747261637400000060448201526064016104e0565b4383101561171e5760405162461bcd60e51b815260206004820152601160248201527045787069726564207369676e617475726560781b60448201526064016104e0565b60075460405163cd4fc45560e01b815260009173__$69987189fafd81b06474425565233fa135$__9163cd4fc45591611777916001600160a01b03909116908f908f908f908f908f908f908f908f908f90600401612b41565b602060405180830381865af4158015611794573d6000803e3d6000fd5b505050506040513d601f19601f820116820180604052508101906117b89190612bab565b905060018115151461180c5760405162461bcd60e51b815260206004820152601c60248201527f5369676e617475726520766572696669636174696f6e206661696c730000000060448201526064016104e0565b6001600160a01b0389166000908152600560205260409020548811156118745760405162461bcd60e51b815260206004820152601960248201527f496e73696666696369656e7420534154495320546f6b656e730000000000000060448201526064016104e0565b61187f836001612ad1565b6001600160a01b03808c1660009081526004602052604090209190915589906118ab9082168c8b612298565b6001600160a01b038a16600090815260056020526040812080548b92906118d3908490612aba565b9091555060019d9c50505050505050505050505050565b6007546000906001600160a01b031633146119365760405162461bcd60e51b815260206004820152600c60248201526b2737ba1030b71030b236b4b760a11b60448201526064016104e0565b6001600160a01b03831660009081526020819052604090205482111561199e5760405162461bcd60e51b815260206004820152601a60248201527f4e6f7420656e6f7567682062616c616e636520746f2074616b6500000000000060448201526064016104e0565b826119b36001600160a01b0382163385612298565b6001600160a01b038416600090815260208190526040812080548592906119db908490612aba565b9091555050604080516001600160a01b0386168152602081018590527f72d6f02251fe2edca9d1db10b7db097c619987829aa24dd834ce90d66319e2d59101610cf1565b3360009081526006602052604081205460ff161515600114611a725760405162461bcd60e51b815260206004820152600c60248201526b2737ba1030903bb7b935b2b960a11b60448201526064016104e0565b6001600160a01b0384166000908152602081905260409020548390839081151580611a9e575060008351115b611afd5760405162461bcd60e51b815260206004820152602a60248201527f5a65726f2064756d702076616c756520616e64207a65726f207175657565206c6044820152690d2e6e840d8cadccee8d60b31b60648201526084016104e0565b6000805b8451811015611b4357848181518110611b1c57611b1c612a27565b602002602001015182611b2f9190612ad1565b915080611b3b81612a53565b915050611b01565b50611b4e8383612ad1565b811115611bb05760405162461bcd60e51b815260206004820152602a60248201527f44756d702076616c7565202b20706f6f6c20617373657473203c2071756575656044820152692076616c75652073756d60b01b60648201526084016104e0565b878615611bfa57611bcc6001600160a01b03821633308a61232d565b6001600160a01b03891660009081526020819052604081208054899290611bf4908490612ad1565b90915550505b60005b8a51811015611d1157611c1b8b82815181106113b9576113b9612a27565b888181518110611c2d57611c2d612a27565b60200260200101516000808c6001600160a01b03166001600160a01b031681526020019081526020016000206000828254611c689190612aba565b92505081905550888181518110611c8157611c81612a27565b6020026020010151600160008d8481518110611c9f57611c9f612a27565b60200260200101516001600160a01b03166001600160a01b0316815260200190815260200160002060008c6001600160a01b03166001600160a01b031681526020019081526020016000206000828254611cf99190612aba565b90915550819050611d0981612a53565b915050611bfd565b507fbfd6d077575843694efa473ca9a33dc8987287f7d2295309a78c73302b5693a0338b8b8b604051611d479493929190612bcd565b60405180910390a15060019998505050505050505050565b6008546000906001600160a01b0316331480611d8557506009546001600160a01b031633145b611dd15760405162461bcd60e51b815260206004820152601a60248201527f506c65617365207573652070726f787920636f6e74726163742e00000000000060448201526064016104e0565b6001600160a01b0389166000908152600460205260409020548214611e2f5760405162461bcd60e51b815260206004820152601460248201527357726f6e67207769746864726177206e6f6e636560601b60448201526064016104e0565b6001600160a01b03841630148015611e4657504685145b611e925760405162461bcd60e51b815260206004820152601d60248201527f57726f6e6720636861696e202f2074617267657420636f6e747261637400000060448201526064016104e0565b43831015611ed65760405162461bcd60e51b815260206004820152601160248201527045787069726564207369676e617475726560781b60448201526064016104e0565b60075460405163cd4fc45560e01b815260009173__$69987189fafd81b06474425565233fa135$__9163cd4fc45591611f2f916001600160a01b03909116908f908f908f908f908f908f908f908f908f90600401612b41565b602060405180830381865af4158015611f4c573d6000803e3d6000fd5b505050506040513d601f19601f82011682018060405250810190611f709190612bab565b905080611fe55760405162461bcd60e51b815260206004820152602860248201527f5369676e617475726520766572696669636174696f6e20666f7220717565756960448201527f6e67206661696c7300000000000000000000000000000000000000000000000060648201526084016104e0565b611ff0836001612ad1565b6001600160a01b03808c16600090815260046020908152604080832094909455918c168152600390915290812080546001929061202e908490612ad1565b90915550506001600160a01b03808b166000908152600260209081526040808320938d16835292905290812080548a92906110be908490612ad1565b3360009081526006602052604090205460ff1615156001146120bd5760405162461bcd60e51b815260206004820152600c60248201526b2737ba1030903bb7b935b2b960a11b60448201526064016104e0565b6001600160a01b0381166121135760405162461bcd60e51b815260206004820152601a60248201527f5a65726f206164647265737320666f72206e65772070726f787900000000000060448201526064016104e0565b6008805473ffffffffffffffffffffffffffffffffffffffff19166001600160a01b0383169081179091556040519081527fcf16493c33f7a5001593c6b3158b6613c39a56bed7e2fe27f83a7ee297b6e32a90602001610581565b6007546001600160a01b031633146121b75760405162461bcd60e51b815260206004820152600c60248201526b2737ba1030b71030b236b4b760a11b60448201526064016104e0565b6001600160a01b03811661220d5760405162461bcd60e51b815260206004820152601a60248201527f5a65726f206164647265737320666f72206e6577206f776e657200000000000060448201526064016104e0565b600780546001600160a01b039081166000908152600660209081526040808320805460ff19908116909155855473ffffffffffffffffffffffffffffffffffffffff1916948716948517909555838352918290208054909416600117909355519081527f244ded7a3b73e60f03281fc183df050e6134d393c50788e980dc090f06e728099101610581565b6040516001600160a01b03831660248201526044810182905261232890849063a9059cbb60e01b906064015b60408051601f198184030181529190526020810180517bffffffffffffffffffffffffffffffffffffffffffffffffffffffff167fffffffff000000000000000000000000000000000000000000000000000000009093169290921790915261236b565b505050565b6040516001600160a01b03808516602483015283166044820152606481018290526123659085906323b872dd60e01b906084016122c4565b50505050565b60006123c0826040518060400160405280602081526020017f5361666545524332303a206c6f772d6c6576656c2063616c6c206661696c6564815250856001600160a01b03166124509092919063ffffffff16565b80519091501561232857808060200190518101906123de9190612bab565b6123285760405162461bcd60e51b815260206004820152602a60248201527f5361666545524332303a204552433230206f7065726174696f6e20646964206e60448201527f6f7420737563636565640000000000000000000000000000000000000000000060648201526084016104e0565b606061245f8484600085612469565b90505b9392505050565b6060824710156124e15760405162461bcd60e51b815260206004820152602660248201527f416464726573733a20696e73756666696369656e742062616c616e636520666f60448201527f722063616c6c000000000000000000000000000000000000000000000000000060648201526084016104e0565b843b61252f5760405162461bcd60e51b815260206004820152601d60248201527f416464726573733a2063616c6c20746f206e6f6e2d636f6e747261637400000060448201526064016104e0565b600080866001600160a01b0316858760405161254b9190612c16565b60006040518083038185875af1925050503d8060008114612588576040519150601f19603f3d011682016040523d82523d6000602084013e61258d565b606091505b509150915061259d8282866125a8565b979650505050505050565b606083156125b7575081612462565b8251156125c75782518084602001fd5b8160405162461bcd60e51b81526004016104e09190612c32565b634e487b7160e01b600052604160045260246000fd5b604051601f8201601f1916810167ffffffffffffffff81118282101715612620576126206125e1565b604052919050565b600067ffffffffffffffff821115612642576126426125e1565b5060051b60200190565b80356001600160a01b038116811461266357600080fd5b919050565b600082601f83011261267957600080fd5b8135602061268e61268983612628565b6125f7565b82815260059290921b840181019181810190868411156126ad57600080fd5b8286015b848110156126cf576126c28161264c565b83529183019183016126b1565b509695505050505050565b6000602082840312156126ec57600080fd5b813567ffffffffffffffff81111561270357600080fd5b61270f84828501612668565b949350505050565b6000806040838503121561272a57600080fd5b6127338361264c565b946020939093013593505050565b6000806040838503121561275457600080fd5b61275d8361264c565b915061276b6020840161264c565b90509250929050565b6000806040838503121561278757600080fd5b823567ffffffffffffffff81111561279e57600080fd5b6127aa85828601612668565b92505061276b6020840161264c565b600081518084526020808501945080840160005b838110156127e9578151875295820195908201906001016127cd565b509495945050505050565b60208152600061246260208301846127b9565b6000806000806080858703121561281d57600080fd5b843567ffffffffffffffff8082111561283557600080fd5b61284188838901612668565b95506020915061285282880161264c565b945060408701358181111561286657600080fd5b87019050601f8101881361287957600080fd5b803561288761268982612628565b81815260059190911b8201830190838101908a8311156128a657600080fd5b928401925b828410156128c4578335825292840192908401906128ab565b979a96995096976060013596505050505050565b6000806000606084860312156128ed57600080fd5b6128f68461264c565b92506129046020850161264c565b9150604084013590509250925092565b60006020828403121561292657600080fd5b6124628261264c565b60008060008060008060008060006101208a8c03121561294e57600080fd5b893567ffffffffffffffff8082111561296657600080fd5b818c0191508c601f83011261297a57600080fd5b813560208282111561298e5761298e6125e1565b6129a0601f8301601f191682016125f7565b92508183528e818386010111156129b657600080fd5b81818501828501376000818385010152829c506129d4818f0161264c565b9b50505050506129e660408b0161264c565b965060608a0135955060808a0135945060a08a01359350612a0960c08b0161264c565b925060e08a013591506101008a013590509295985092959850929598565b634e487b7160e01b600052603260045260246000fd5b634e487b7160e01b600052601160045260246000fd5b6000600019821415612a6757612a67612a3d565b5060010190565b600081518084526020808501945080840160005b838110156127e95781516001600160a01b031687529582019590820190600101612a82565b6020815260006124626020830184612a6e565b600082821015612acc57612acc612a3d565b500390565b60008219821115612ae457612ae4612a3d565b500190565b60005b83811015612b04578181015183820152602001612aec565b838111156123655750506000910152565b60008151808452612b2d816020860160208601612ae9565b601f01601f19169290920160200192915050565b60006101406001600160a01b03808e168452816020850152612b658285018e612b15565b9b81166040850152998a1660608401525050608081019690965260a086019490945260c085019290925290931660e0830152610100820192909252610120015292915050565b600060208284031215612bbd57600080fd5b8151801515811461246257600080fd5b60006001600160a01b03808716835260806020840152612bf06080840187612a6e565b81861660408501528381036060850152612c0a81866127b9565b98975050505050505050565b60008251612c28818460208701612ae9565b9190910192915050565b6020815260006124626020830184612b1556fea164736f6c634300080c000a",
  "linkReferences": {
    "contracts/v2/satis_core/MoneyPoolRaw.sol": {
      "MultiSig": [
        {
          "length": 20,
          "start": 4379
        },
        {
          "length": 20,
          "start": 6360
        },
        {
          "length": 20,
          "start": 8336
        }
      ]
    }
  },
  "deployedLinkReferences": {
    "contracts/v2/satis_core/MoneyPoolRaw.sol": {
      "MultiSig": [
        {
          "length": 20,
          "start": 3958
        },
        {
          "length": 20,
          "start": 5939
        },
        {
          "length": 20,
          "start": 7915
        }
      ]
    }
  }
}