{
  "_format": "hh-sol-artifact-1",
  "contractName": "MoneyPoolRaw",
  "sourceName": "contracts/v2/satis_core/MoneyPoolRaw.sol",
  "abi": [
    {
      "inputs": [
        {
          "internalType": "address",
          "name": "_initialProxyAddress",
          "type": "address"
        },
        {
          "internalType": "address",
          "name": "_initialSigmaProxyAddress",
          "type": "address"
        }
      ],
      "stateMutability": "nonpayable",
      "type": "constructor"
    },
    {
      "anonymous": false,
      "inputs": [
        {
          "indexed": false,
          "internalType": "address[]",
          "name": "addWorkerList",
          "type": "address[]"
        }
      ],
      "name": "AddWorkers",
      "type": "event"
    },
    {
      "anonymous": false,
      "inputs": [
        {
          "indexed": false,
          "internalType": "address",
          "name": "newOwner",
          "type": "address"
        }
      ],
      "name": "ChangeOwnership",
      "type": "event"
    },
    {
      "anonymous": false,
      "inputs": [
        {
          "indexed": false,
          "internalType": "address",
          "name": "newProxy",
          "type": "address"
        }
      ],
      "name": "ChangeProxy",
      "type": "event"
    },
    {
      "anonymous": false,
      "inputs": [
        {
          "indexed": false,
          "internalType": "address",
          "name": "newSigmaProxy",
          "type": "address"
        }
      ],
      "name": "ChangeSigmaProxy",
      "type": "event"
    },
    {
      "anonymous": false,
      "inputs": [
        {
          "indexed": false,
          "internalType": "address",
          "name": "tokenAddress",
          "type": "address"
        },
        {
          "indexed": false,
          "internalType": "uint256",
          "name": "takeProfitValue",
          "type": "uint256"
        }
      ],
      "name": "OwnerTakeProfit",
      "type": "event"
    },
    {
      "anonymous": false,
      "inputs": [
        {
          "indexed": false,
          "internalType": "address[]",
          "name": "removeWorkerList",
          "type": "address[]"
        }
      ],
      "name": "RemoveWorkers",
      "type": "event"
    },
    {
      "anonymous": false,
      "inputs": [
        {
          "indexed": false,
          "internalType": "address",
          "name": "workerAddress",
          "type": "address"
        },
        {
          "indexed": false,
          "internalType": "address[]",
          "name": "clientAddressList",
          "type": "address[]"
        },
        {
          "indexed": false,
          "internalType": "address",
          "name": "tokenAddress",
          "type": "address"
        },
        {
          "indexed": false,
          "internalType": "uint256[]",
          "name": "dumpValueList",
          "type": "uint256[]"
        }
      ],
      "name": "WorkerDumpBridgedFund",
      "type": "event"
    },
    {
      "anonymous": false,
      "inputs": [
        {
          "indexed": false,
          "internalType": "address",
          "name": "workerAddress",
          "type": "address"
        },
        {
          "indexed": false,
          "internalType": "address[]",
          "name": "_clientAddressList",
          "type": "address[]"
        },
        {
          "indexed": false,
          "internalType": "address",
          "name": "_tokenAddress",
          "type": "address"
        },
        {
          "indexed": false,
          "internalType": "uint256[]",
          "name": "_instantWithdrawValueList",
          "type": "uint256[]"
        }
      ],
      "name": "WorkerDumpInstantWithdrawFund",
      "type": "event"
    },
    {
      "anonymous": false,
      "inputs": [
        {
          "indexed": false,
          "internalType": "address",
          "name": "workerAddress",
          "type": "address"
        },
        {
          "indexed": false,
          "internalType": "address",
          "name": "tokenAddress",
          "type": "address"
        },
        {
          "indexed": false,
          "internalType": "uint256",
          "name": "takeValue",
          "type": "uint256"
        }
      ],
      "name": "WorkerTakeLockedFund",
      "type": "event"
    },
    {
      "inputs": [
        {
          "internalType": "address",
          "name": "_clientAddress",
          "type": "address"
        },
        {
          "internalType": "address",
          "name": "_tokenAddress",
          "type": "address"
        },
        {
          "internalType": "uint256",
          "name": "_addValue",
          "type": "uint256"
        }
      ],
      "name": "addFundWithAction",
      "outputs": [
        {
          "internalType": "bool",
          "name": "_isDone",
          "type": "bool"
        }
      ],
      "stateMutability": "nonpayable",
      "type": "function"
    },
    {
      "inputs": [
        {
          "internalType": "address[]",
          "name": "_addWorkerList",
          "type": "address[]"
        }
      ],
      "name": "addWorkers",
      "outputs": [],
      "stateMutability": "nonpayable",
      "type": "function"
    },
    {
      "inputs": [
        {
          "internalType": "address",
          "name": "",
          "type": "address"
        }
      ],
      "name": "clientNonce",
      "outputs": [
        {
          "internalType": "uint256",
          "name": "",
          "type": "uint256"
        }
      ],
      "stateMutability": "view",
      "type": "function"
    },
    {
      "inputs": [
        {
          "internalType": "address",
          "name": "_tokenAddress",
          "type": "address"
        },
        {
          "internalType": "uint256",
          "name": "_fundingValue",
          "type": "uint256"
        }
      ],
      "name": "fundSatisToken",
      "outputs": [
        {
          "internalType": "bool",
          "name": "_isDone",
          "type": "bool"
        }
      ],
      "stateMutability": "nonpayable",
      "type": "function"
    },
    {
      "inputs": [
        {
          "internalType": "string[]",
          "name": "_ticketIdList",
          "type": "string[]"
        },
        {
          "internalType": "address",
          "name": "_tokenAddress",
          "type": "address"
        }
      ],
      "name": "getInstantWithdrawReserve",
      "outputs": [
        {
          "internalType": "uint256[]",
          "name": "",
          "type": "uint256[]"
        }
      ],
      "stateMutability": "view",
      "type": "function"
    },
    {
      "inputs": [
        {
          "internalType": "string",
          "name": "",
          "type": "string"
        },
        {
          "internalType": "address",
          "name": "",
          "type": "address"
        }
      ],
      "name": "instantWithdrawReserve",
      "outputs": [
        {
          "internalType": "uint256",
          "name": "",
          "type": "uint256"
        }
      ],
      "stateMutability": "view",
      "type": "function"
    },
    {
      "inputs": [],
      "name": "owner",
      "outputs": [
        {
          "internalType": "address",
          "name": "",
          "type": "address"
        }
      ],
      "stateMutability": "view",
      "type": "function"
    },
    {
      "inputs": [
        {
          "internalType": "address",
          "name": "_tokenAddress",
          "type": "address"
        },
        {
          "internalType": "uint256",
          "name": "_takeProfitValue",
          "type": "uint256"
        }
      ],
      "name": "ownerTakeProfit",
      "outputs": [
        {
          "internalType": "bool",
          "name": "_isDone",
          "type": "bool"
        }
      ],
      "stateMutability": "nonpayable",
      "type": "function"
    },
    {
      "inputs": [],
      "name": "proxy",
      "outputs": [
        {
          "internalType": "address",
          "name": "",
          "type": "address"
        }
      ],
      "stateMutability": "view",
      "type": "function"
    },
    {
      "inputs": [
        {
          "internalType": "address[]",
          "name": "_removeWorkerList",
          "type": "address[]"
        }
      ],
      "name": "removeWorkers",
      "outputs": [],
      "stateMutability": "nonpayable",
      "type": "function"
    },
    {
      "inputs": [
        {
          "internalType": "address",
          "name": "",
          "type": "address"
        }
      ],
      "name": "satisTokenBalance",
      "outputs": [
        {
          "internalType": "uint256",
          "name": "",
          "type": "uint256"
        }
      ],
      "stateMutability": "view",
      "type": "function"
    },
    {
      "inputs": [],
      "name": "sigmaProxy",
      "outputs": [
        {
          "internalType": "address",
          "name": "",
          "type": "address"
        }
      ],
      "stateMutability": "view",
      "type": "function"
    },
    {
      "inputs": [
        {
          "internalType": "address",
          "name": "",
          "type": "address"
        }
      ],
      "name": "totalLockedAssets",
      "outputs": [
        {
          "internalType": "uint256",
          "name": "",
          "type": "uint256"
        }
      ],
      "stateMutability": "view",
      "type": "function"
    },
    {
      "inputs": [
        {
          "internalType": "address",
          "name": "_newOwner",
          "type": "address"
        }
      ],
      "name": "transferOwnership",
      "outputs": [],
      "stateMutability": "nonpayable",
      "type": "function"
    },
    {
      "inputs": [
        {
          "internalType": "address",
          "name": "_newProxyAddress",
          "type": "address"
        }
      ],
      "name": "updateProxyAddress",
      "outputs": [],
      "stateMutability": "nonpayable",
      "type": "function"
    },
    {
      "inputs": [
        {
          "internalType": "address",
          "name": "_newSigmaProxyAddress",
          "type": "address"
        }
      ],
      "name": "updateSigmaProxyAddress",
      "outputs": [],
      "stateMutability": "nonpayable",
      "type": "function"
    },
    {
      "inputs": [
        {
          "internalType": "bytes",
          "name": "_targetSignature",
          "type": "bytes"
        },
        {
          "internalType": "address",
          "name": "_clientAddress",
          "type": "address"
        },
        {
          "internalType": "address",
          "name": "_tokenAddress",
          "type": "address"
        },
        {
          "internalType": "uint256",
          "name": "_redeemValue",
          "type": "uint256"
        },
        {
          "internalType": "uint256",
          "name": "_inDebtValue",
          "type": "uint256"
        },
        {
          "internalType": "uint256",
          "name": "_tier",
          "type": "uint256"
        },
        {
          "internalType": "uint256",
          "name": "_chainId",
          "type": "uint256"
        },
        {
          "internalType": "address",
          "name": "_poolAddress",
          "type": "address"
        },
        {
          "internalType": "uint256",
          "name": "_expBlockNo",
          "type": "uint256"
        },
        {
          "internalType": "string",
          "name": "_ticketId",
          "type": "string"
        },
        {
          "internalType": "uint256",
          "name": "_nonce",
          "type": "uint256"
        }
      ],
      "name": "verifyAndRedeemToken",
      "outputs": [
        {
          "internalType": "bool",
          "name": "_isDone",
          "type": "bool"
        }
      ],
      "stateMutability": "nonpayable",
      "type": "function"
    },
    {
      "inputs": [
        {
          "internalType": "bytes",
          "name": "_targetSignature",
          "type": "bytes"
        },
        {
          "internalType": "address",
          "name": "_clientAddress",
          "type": "address"
        },
        {
          "internalType": "address",
          "name": "_tokenAddress",
          "type": "address"
        },
        {
          "internalType": "uint256",
          "name": "_withdrawValue",
          "type": "uint256"
        },
        {
          "internalType": "uint256",
          "name": "_inDebtValue",
          "type": "uint256"
        },
        {
          "internalType": "uint256",
          "name": "_tier",
          "type": "uint256"
        },
        {
          "internalType": "uint256",
          "name": "_chainId",
          "type": "uint256"
        },
        {
          "internalType": "address",
          "name": "_poolAddress",
          "type": "address"
        },
        {
          "internalType": "uint256",
          "name": "_expBlockNo",
          "type": "uint256"
        },
        {
          "internalType": "string",
          "name": "_ticketId",
          "type": "string"
        },
        {
          "internalType": "uint256",
          "name": "_nonce",
          "type": "uint256"
        }
      ],
      "name": "verifyAndWithdrawFund",
      "outputs": [
        {
          "internalType": "bool",
          "name": "_isDone",
          "type": "bool"
        }
      ],
      "stateMutability": "nonpayable",
      "type": "function"
    },
    {
      "inputs": [
        {
          "internalType": "string[]",
          "name": "_ticketIdList",
          "type": "string[]"
        },
        {
          "internalType": "address[]",
          "name": "_clientAddressList",
          "type": "address[]"
        },
        {
          "internalType": "address",
          "name": "_tokenAddress",
          "type": "address"
        },
        {
          "internalType": "uint256[]",
          "name": "_instantWithdrawValueList",
          "type": "uint256[]"
        },
        {
          "internalType": "uint256",
          "name": "_totalDumpAmount",
          "type": "uint256"
        }
      ],
      "name": "workerDumpInstantWithdrawalFund",
      "outputs": [
        {
          "internalType": "bool",
          "name": "_isDone",
          "type": "bool"
        }
      ],
      "stateMutability": "nonpayable",
      "type": "function"
    },
    {
      "inputs": [
        {
          "internalType": "address",
          "name": "",
          "type": "address"
        }
      ],
      "name": "workerList",
      "outputs": [
        {
          "internalType": "bool",
          "name": "",
          "type": "bool"
        }
      ],
      "stateMutability": "view",
      "type": "function"
    },
    {
      "inputs": [
        {
          "internalType": "address",
          "name": "_tokenAddress",
          "type": "address"
        },
        {
          "internalType": "uint256",
          "name": "_takeValue",
          "type": "uint256"
        }
      ],
      "name": "workerTakeLockedFund",
      "outputs": [
        {
          "internalType": "bool",
          "name": "_isDone",
          "type": "bool"
        }
      ],
      "stateMutability": "nonpayable",
      "type": "function"
    },
    {
      "inputs": [
        {
          "internalType": "address",
          "name": "_tokenAddress",
          "type": "address"
        },
        {
          "internalType": "uint256",
          "name": "_takingValue",
          "type": "uint256"
        }
      ],
      "name": "workerTakeSatisToken",
      "outputs": [
        {
          "internalType": "bool",
          "name": "_isDone",
          "type": "bool"
        }
      ],
      "stateMutability": "nonpayable",
      "type": "function"
    },
    {
      "inputs": [
        {
          "internalType": "string[]",
          "name": "_ticketIdList",
          "type": "string[]"
        },
        {
          "internalType": "address",
          "name": "_tokenAddress",
          "type": "address"
        },
        {
          "internalType": "uint256[]",
          "name": "_unlockValueList",
          "type": "uint256[]"
        }
      ],
      "name": "workerUnlockFund",
      "outputs": [
        {
          "internalType": "bool",
          "name": "_isDone",
          "type": "bool"
        }
      ],
      "stateMutability": "nonpayable",
      "type": "function"
    }
  ],
  "bytecode": "0x60806040523480156200001157600080fd5b50604051620029403803806200294083398101604081905262000034916200015d565b6001600160a01b038216620000905760405162461bcd60e51b815260206004820152601660248201527f5a65726f206164647265737320666f722070726f78790000000000000000000060448201526064015b60405180910390fd5b6001600160a01b038116620000e85760405162461bcd60e51b815260206004820152601c60248201527f5a65726f206164647265737320666f72207369676d612070726f787900000000604482015260640162000087565b60058054336001600160a01b03199182168117909255600091825260046020526040909120805460ff191660011790556006805482166001600160a01b03948516179055600780549091169190921617905562000195565b80516001600160a01b03811681146200015857600080fd5b919050565b600080604083850312156200017157600080fd5b6200017c8362000140565b91506200018c6020840162000140565b90509250929050565b61279b80620001a56000396000f3fe608060405234801561001057600080fd5b506004361061018d5760003560e01c8063837bb22b116100e3578063d7e0c6661161008c578063ec55688911610066578063ec556889146103b7578063f2fde38b146103ca578063fcf7f0d8146103dd57600080fd5b8063d7e0c66614610361578063d99a966014610384578063eac32a8e146103a457600080fd5b80639178274a116100bd5780639178274a1461031b57806396163b201461033b578063af427a8a1461034e57600080fd5b8063837bb22b146102bd5780638da5cb5b146102e85780638e70331e146102fb57600080fd5b80635dd72c0f1161014557806373b5a9a91161011f57806373b5a9a914610284578063788117081461029757806381c98350146102aa57600080fd5b80635dd72c0f1461023e5780636579402b1461025157806371b9952d1461026457600080fd5b80630a8fe995116101765780630a8fe995146101cf5780634be5c4ea146102185780634ce1054d1461022b57600080fd5b80630111efb71461019257806302a2912e146101a7575b600080fd5b6101a56101a036600461208a565b6103f0565b005b6101ba6101b53660046120c7565b6104e1565b60405190151581526020015b60405180910390f35b61020a6101dd366004612161565b81516020818401810180516001825292820194820194909420919093529091526000908152604090205481565b6040519081526020016101c6565b6101ba6102263660046121af565b610580565b6101a561023936600461208a565b610ad5565b6101ba61024c366004612283565b610bb6565b6101ba61025f3660046121af565b610c76565b61020a6102723660046122bf565b60036020526000908152604090205481565b6101a56102923660046122bf565b61104f565b6101ba6102a53660046120c7565b611153565b6101ba6102b83660046123b5565b6112cc565b6007546102d0906001600160a01b031681565b6040516001600160a01b0390911681526020016101c6565b6005546102d0906001600160a01b031681565b61020a6103093660046122bf565b60006020819052908152604090205481565b61020a6103293660046122bf565b60026020526000908152604090205481565b6101ba6103493660046120c7565b6113d1565b6101ba61035c3660046120c7565b611462565b6101ba61036f3660046122bf565b60046020526000908152604090205460ff1681565b610397610392366004612429565b611597565b6040516101c6919061249a565b6101a56103b23660046122bf565b61167f565b6006546102d0906001600160a01b031681565b6101a56103d83660046122bf565b611783565b6101ba6103eb3660046124ad565b6118ad565b6005546001600160a01b0316331461043e5760405162461bcd60e51b815260206004820152600c60248201526b2737ba1030b71030b236b4b760a11b60448201526064015b60405180910390fd5b60005b81518110156104a6576001600460008484815181106104625761046261254e565b6020908102919091018101516001600160a01b03168252810191909152604001600020805460ff19169115159190911790558061049e8161257a565b915050610441565b507f9e36e65aa003add44ff529b38d35a7fed088dd29f3ab43ee9ee17e449621ff98816040516104d691906125ce565b60405180910390a150565b3360009081526004602052604081205460ff1615156001146105345760405162461bcd60e51b815260206004820152600c60248201526b2737ba1030903bb7b935b2b960a11b6044820152606401610435565b826105496001600160a01b0382163385611c48565b6001600160a01b038416600090815260036020526040812080548592906105719084906125e1565b90915550600195945050505050565b6006546000906001600160a01b03163314806105a657506007546001600160a01b031633145b6105f25760405162461bcd60e51b815260206004820152601a60248201527f506c65617365207573652070726f787920636f6e74726163742e0000000000006044820152606401610435565b6001600160a01b038b1660009081526002602052604090205482146106595760405162461bcd60e51b815260206004820152601460248201527f57726f6e67207769746864726177206e6f6e63650000000000000000000000006044820152606401610435565b6001600160a01b0385163014801561067057504686145b6106bc5760405162461bcd60e51b815260206004820152601d60248201527f57726f6e6720636861696e202f2074617267657420636f6e74726163740000006044820152606401610435565b4384101561070c5760405162461bcd60e51b815260206004820152601160248201527f45787069726564207369676e61747572650000000000000000000000000000006044820152606401610435565b600073__$69987189fafd81b06474425565233fa135$__63ab4b3d3e600560009054906101000a90046001600160a01b03168f8f8f8f8f8f8f8f8f8f8f6040518d63ffffffff1660e01b81526004016107709c9b9a99989796959493929190612650565b602060405180830381865af415801561078d573d6000803e3d6000fd5b505050506040513d601f19601f820116820180604052508101906107b191906126dc565b9050806108265760405162461bcd60e51b815260206004820152603360248201527f5369676e617475726520766572696669636174696f6e20666f7220696e73746160448201527f6e74207769746864726177616c206661696c73000000000000000000000000006064820152608401610435565b6108318360016126fe565b6001600160a01b03808e16600090815260026020908152604080832094909455918e1681529081905220548b908b11156108ad5760405162461bcd60e51b815260206004820152601660248201527f4e6174697665207769746864726177206661696c6564000000000000000000006044820152606401610435565b886003141561097157891561092a5760405162461bcd60e51b815260206004820152602c60248201527f4e6f20696e2d646562742076616c756520616c6c6f77656420666f722074696560448201527f72203320776974686472617700000000000000000000000000000000000000006064820152608401610435565b61093e6001600160a01b0382168e8d611c48565b6001600160a01b038c16600090815260208190526040812080548d92906109669084906125e1565b90915550610ac19050565b8860011415610a795760008a1180610989575060008b115b6109d55760405162461bcd60e51b815260206004820152601a60248201527f546f74616c20776974686472617720616d6f756e7420697320300000000000006044820152606401610435565b8a15610a1d576109ef6001600160a01b0382168e8d611c48565b6001600160a01b038c16600090815260208190526040812080548d9290610a179084906125e1565b90915550505b8915610a745789600186604051610a349190612716565b908152602001604051809103902060008e6001600160a01b03166001600160a01b03168152602001908152602001600020600082825461096691906126fe565b610ac1565b60405162461bcd60e51b815260206004820152600c60248201527f496e76616c6964207469657200000000000000000000000000000000000000006044820152606401610435565b5060019d9c50505050505050505050505050565b6005546001600160a01b03163314610b1e5760405162461bcd60e51b815260206004820152600c60248201526b2737ba1030b71030b236b4b760a11b6044820152606401610435565b60005b8151811015610b8657600060046000848481518110610b4257610b4261254e565b6020908102919091018101516001600160a01b03168252810191909152604001600020805460ff191691151591909117905580610b7e8161257a565b915050610b21565b507f76fe8505b7c4b7ba022031c51ac725c7177670399af7d2ebca7026b7e25bf893816040516104d691906125ce565b6006546000906001600160a01b0316331480610bdc57506007546001600160a01b031633145b610c285760405162461bcd60e51b815260206004820152601a60248201527f506c65617365207573652070726f787920636f6e74726163742e0000000000006044820152606401610435565b82610c3e6001600160a01b038216863086611cdd565b6001600160a01b03841660009081526020819052604081208054859290610c669084906126fe565b9091555060019695505050505050565b6006546000906001600160a01b0316331480610c9c57506007546001600160a01b031633145b610ce85760405162461bcd60e51b815260206004820152601a60248201527f506c65617365207573652070726f787920636f6e74726163742e0000000000006044820152606401610435565b6001600160a01b038b166000908152600260205260409020548214610d4f5760405162461bcd60e51b815260206004820152601460248201527f57726f6e67207769746864726177206e6f6e63650000000000000000000000006044820152606401610435565b6001600160a01b03851630148015610d6657504686145b610db25760405162461bcd60e51b815260206004820152601d60248201527f57726f6e6720636861696e202f2074617267657420636f6e74726163740000006044820152606401610435565b43841015610e025760405162461bcd60e51b815260206004820152601160248201527f45787069726564207369676e61747572650000000000000000000000000000006044820152606401610435565b8715610e765760405162461bcd60e51b815260206004820152603260248201527f4e6f20696e2d646562742076616c756520616c6c6f77656420666f722072656460448201527f65656d696e6720534154495320746f6b656e00000000000000000000000000006064820152608401610435565b600073__$69987189fafd81b06474425565233fa135$__63ab4b3d3e600560009054906101000a90046001600160a01b03168f8f8f8f8f8f8f8f8f8f8f6040518d63ffffffff1660e01b8152600401610eda9c9b9a99989796959493929190612650565b602060405180830381865af4158015610ef7573d6000803e3d6000fd5b505050506040513d601f19601f82011682018060405250810190610f1b91906126dc565b9050600181151514610f6f5760405162461bcd60e51b815260206004820152601c60248201527f5369676e617475726520766572696669636174696f6e206661696c73000000006044820152606401610435565b6001600160a01b038b166000908152600360205260409020548a1115610fd75760405162461bcd60e51b815260206004820152601960248201527f496e73696666696369656e7420534154495320546f6b656e73000000000000006044820152606401610435565b610fe28360016126fe565b6001600160a01b03808e166000908152600260205260409020919091558b9061100e9082168e8d611c48565b6001600160a01b038c16600090815260036020526040812080548d92906110369084906125e1565b9091555060019f9e505050505050505050505050505050565b3360009081526004602052604090205460ff1615156001146110a25760405162461bcd60e51b815260206004820152600c60248201526b2737ba1030903bb7b935b2b960a11b6044820152606401610435565b6001600160a01b0381166110f85760405162461bcd60e51b815260206004820181905260248201527f5a65726f206164647265737320666f72206e6577207369676d612070726f78796044820152606401610435565b6007805473ffffffffffffffffffffffffffffffffffffffff19166001600160a01b0383169081179091556040519081527fecf3a480426d45df3182212195e583631b547e451781f28d0e3c0df9d02921ec906020016104d6565b3360009081526004602052604081205460ff1615156001146111a65760405162461bcd60e51b815260206004820152600c60248201526b2737ba1030903bb7b935b2b960a11b6044820152606401610435565b6001600160a01b0383166000908152602081905260409020548211156112345760405162461bcd60e51b815260206004820152602e60248201527f54616b696e67206d6f7265207468616e20746865206c6f636b6564206173736560448201527f747320696e20636f6e74726163740000000000000000000000000000000000006064820152608401610435565b6001600160a01b03831660009081526020819052604081208054859285929161125e9084906125e1565b9091555061127890506001600160a01b0382163385611c48565b604080513381526001600160a01b03861660208201529081018490527f9ba9e797375fa882aa9cf090f979bd40387648913471857d96fe30e4c3c16187906060015b60405180910390a15060019392505050565b3360009081526004602052604081205460ff16151560011461131f5760405162461bcd60e51b815260206004820152600c60248201526b2737ba1030903bb7b935b2b960a11b6044820152606401610435565b60005b84518110156113c65782818151811061133d5761133d61254e565b602002602001015160018683815181106113595761135961254e565b602002602001015160405161136e9190612716565b90815260200160405180910390206000866001600160a01b03166001600160a01b0316815260200190815260200160002060008282546113ae91906125e1565b909155508190506113be8161257a565b915050611322565b506001949350505050565b3360009081526004602052604081205460ff1615156001146114245760405162461bcd60e51b815260206004820152600c60248201526b2737ba1030903bb7b935b2b960a11b6044820152606401610435565b8261143a6001600160a01b038216333086611cdd565b6001600160a01b038416600090815260036020526040812080548592906105719084906126fe565b6005546000906001600160a01b031633146114ae5760405162461bcd60e51b815260206004820152600c60248201526b2737ba1030b71030b236b4b760a11b6044820152606401610435565b6001600160a01b0383166000908152602081905260409020548211156115165760405162461bcd60e51b815260206004820152601a60248201527f4e6f7420656e6f7567682062616c616e636520746f2074616b650000000000006044820152606401610435565b8261152b6001600160a01b0382163385611c48565b6001600160a01b038416600090815260208190526040812080548592906115539084906125e1565b9091555050604080516001600160a01b0386168152602081018590527f72d6f02251fe2edca9d1db10b7db097c619987829aa24dd834ce90d66319e2d591016112ba565b60606000835167ffffffffffffffff8111156115b5576115b5611f91565b6040519080825280602002602001820160405280156115de578160200160208202803683370190505b50905060005b84518110156116775760018582815181106116015761160161254e565b60200260200101516040516116169190612716565b90815260200160405180910390206000856001600160a01b03166001600160a01b031681526020019081526020016000205482828151811061165a5761165a61254e565b60209081029190910101528061166f8161257a565b9150506115e4565b509392505050565b3360009081526004602052604090205460ff1615156001146116d25760405162461bcd60e51b815260206004820152600c60248201526b2737ba1030903bb7b935b2b960a11b6044820152606401610435565b6001600160a01b0381166117285760405162461bcd60e51b815260206004820152601a60248201527f5a65726f206164647265737320666f72206e65772070726f78790000000000006044820152606401610435565b6006805473ffffffffffffffffffffffffffffffffffffffff19166001600160a01b0383169081179091556040519081527fcf16493c33f7a5001593c6b3158b6613c39a56bed7e2fe27f83a7ee297b6e32a906020016104d6565b6005546001600160a01b031633146117cc5760405162461bcd60e51b815260206004820152600c60248201526b2737ba1030b71030b236b4b760a11b6044820152606401610435565b6001600160a01b0381166118225760405162461bcd60e51b815260206004820152601a60248201527f5a65726f206164647265737320666f72206e6577206f776e65720000000000006044820152606401610435565b600580546001600160a01b039081166000908152600460209081526040808320805460ff19908116909155855473ffffffffffffffffffffffffffffffffffffffff1916948716948517909555838352918290208054909416600117909355519081527f244ded7a3b73e60f03281fc183df050e6134d393c50788e980dc090f06e7280991016104d6565b3360009081526004602052604081205460ff1615156001146119005760405162461bcd60e51b815260206004820152600c60248201526b2737ba1030903bb7b935b2b960a11b6044820152606401610435565b6001600160a01b038416600090815260208190526040902054839083908115158061192c575060008351115b61199e5760405162461bcd60e51b815260206004820152602a60248201527f5a65726f2064756d702076616c756520616e64207a65726f207175657565206c60448201527f697374206c656e677468000000000000000000000000000000000000000000006064820152608401610435565b6000805b84518110156119e4578481815181106119bd576119bd61254e565b6020026020010151826119d091906126fe565b9150806119dc8161257a565b9150506119a2565b506119ef83836126fe565b811115611a645760405162461bcd60e51b815260206004820152602a60248201527f44756d702076616c7565202b20706f6f6c20617373657473203c20717565756560448201527f2076616c75652073756d000000000000000000000000000000000000000000006064820152608401610435565b878615611aae57611a806001600160a01b03821633308a611cdd565b6001600160a01b03891660009081526020819052604081208054899290611aa89084906126fe565b90915550505b60005b8a51811015611bf957611b0a8b8281518110611acf57611acf61254e565b60200260200101518a8381518110611ae957611ae961254e565b6020026020010151846001600160a01b0316611c489092919063ffffffff16565b888181518110611b1c57611b1c61254e565b60200260200101516000808c6001600160a01b03166001600160a01b031681526020019081526020016000206000828254611b5791906125e1565b92505081905550888181518110611b7057611b7061254e565b602002602001015160018d8381518110611b8c57611b8c61254e565b6020026020010151604051611ba19190612716565b908152602001604051809103902060008c6001600160a01b03166001600160a01b031681526020019081526020016000206000828254611be191906125e1565b90915550819050611bf18161257a565b915050611ab1565b507fbfd6d077575843694efa473ca9a33dc8987287f7d2295309a78c73302b5693a0338b8b8b604051611c2f9493929190612732565b60405180910390a15060019a9950505050505050505050565b6040516001600160a01b038316602482015260448101829052611cd890849063a9059cbb60e01b906064015b60408051601f198184030181529190526020810180517bffffffffffffffffffffffffffffffffffffffffffffffffffffffff167fffffffff0000000000000000000000000000000000000000000000000000000090931692909217909152611d1b565b505050565b6040516001600160a01b0380851660248301528316604482015260648101829052611d159085906323b872dd60e01b90608401611c74565b50505050565b6000611d70826040518060400160405280602081526020017f5361666545524332303a206c6f772d6c6576656c2063616c6c206661696c6564815250856001600160a01b0316611e009092919063ffffffff16565b805190915015611cd85780806020019051810190611d8e91906126dc565b611cd85760405162461bcd60e51b815260206004820152602a60248201527f5361666545524332303a204552433230206f7065726174696f6e20646964206e60448201527f6f742073756363656564000000000000000000000000000000000000000000006064820152608401610435565b6060611e0f8484600085611e19565b90505b9392505050565b606082471015611e915760405162461bcd60e51b815260206004820152602660248201527f416464726573733a20696e73756666696369656e742062616c616e636520666f60448201527f722063616c6c00000000000000000000000000000000000000000000000000006064820152608401610435565b843b611edf5760405162461bcd60e51b815260206004820152601d60248201527f416464726573733a2063616c6c20746f206e6f6e2d636f6e74726163740000006044820152606401610435565b600080866001600160a01b03168587604051611efb9190612716565b60006040518083038185875af1925050503d8060008114611f38576040519150601f19603f3d011682016040523d82523d6000602084013e611f3d565b606091505b5091509150611f4d828286611f58565b979650505050505050565b60608315611f67575081611e12565b825115611f775782518084602001fd5b8160405162461bcd60e51b8152600401610435919061277b565b634e487b7160e01b600052604160045260246000fd5b604051601f8201601f1916810167ffffffffffffffff81118282101715611fd057611fd0611f91565b604052919050565b600067ffffffffffffffff821115611ff257611ff2611f91565b5060051b60200190565b80356001600160a01b038116811461201357600080fd5b919050565b600082601f83011261202957600080fd5b8135602061203e61203983611fd8565b611fa7565b82815260059290921b8401810191818101908684111561205d57600080fd5b8286015b8481101561207f5761207281611ffc565b8352918301918301612061565b509695505050505050565b60006020828403121561209c57600080fd5b813567ffffffffffffffff8111156120b357600080fd5b6120bf84828501612018565b949350505050565b600080604083850312156120da57600080fd5b6120e383611ffc565b946020939093013593505050565b600082601f83011261210257600080fd5b813567ffffffffffffffff81111561211c5761211c611f91565b61212f601f8201601f1916602001611fa7565b81815284602083860101111561214457600080fd5b816020850160208301376000918101602001919091529392505050565b6000806040838503121561217457600080fd5b823567ffffffffffffffff81111561218b57600080fd5b612197858286016120f1565b9250506121a660208401611ffc565b90509250929050565b60008060008060008060008060008060006101608c8e0312156121d157600080fd5b67ffffffffffffffff808d3511156121e857600080fd5b6121f58e8e358f016120f1565b9b5061220360208e01611ffc565b9a5061221160408e01611ffc565b995060608d0135985060808d0135975060a08d0135965060c08d0135955061223b60e08e01611ffc565b94506101008d01359350806101208e0135111561225757600080fd5b506122698d6101208e01358e016120f1565b91506101408c013590509295989b509295989b9093969950565b60008060006060848603121561229857600080fd5b6122a184611ffc565b92506122af60208501611ffc565b9150604084013590509250925092565b6000602082840312156122d157600080fd5b611e1282611ffc565b600082601f8301126122eb57600080fd5b813560206122fb61203983611fd8565b82815260059290921b8401810191818101908684111561231a57600080fd5b8286015b8481101561207f57803567ffffffffffffffff81111561233e5760008081fd5b61234c8986838b01016120f1565b84525091830191830161231e565b600082601f83011261236b57600080fd5b8135602061237b61203983611fd8565b82815260059290921b8401810191818101908684111561239a57600080fd5b8286015b8481101561207f578035835291830191830161239e565b6000806000606084860312156123ca57600080fd5b833567ffffffffffffffff808211156123e257600080fd5b6123ee878388016122da565b94506123fc60208701611ffc565b9350604086013591508082111561241257600080fd5b5061241f8682870161235a565b9150509250925092565b6000806040838503121561243c57600080fd5b823567ffffffffffffffff81111561245357600080fd5b612197858286016122da565b600081518084526020808501945080840160005b8381101561248f57815187529582019590820190600101612473565b509495945050505050565b602081526000611e12602083018461245f565b600080600080600060a086880312156124c557600080fd5b853567ffffffffffffffff808211156124dd57600080fd5b6124e989838a016122da565b965060208801359150808211156124ff57600080fd5b61250b89838a01612018565b955061251960408901611ffc565b9450606088013591508082111561252f57600080fd5b5061253c8882890161235a565b95989497509295608001359392505050565b634e487b7160e01b600052603260045260246000fd5b634e487b7160e01b600052601160045260246000fd5b600060001982141561258e5761258e612564565b5060010190565b600081518084526020808501945080840160005b8381101561248f5781516001600160a01b0316875295820195908201906001016125a9565b602081526000611e126020830184612595565b6000828210156125f3576125f3612564565b500390565b60005b838110156126135781810151838201526020016125fb565b83811115611d155750506000910152565b6000815180845261263c8160208601602086016125f8565b601f01601f19169290920160200192915050565b60006001600160a01b03808f168352610180602084015261267561018084018f612624565b818e166040850152818d1660608501528b60808501528a60a08501528960c08501528860e0850152818816610100850152866101208501528381036101408501526126c08187612624565b92505050826101608301529d9c50505050505050505050505050565b6000602082840312156126ee57600080fd5b81518015158114611e1257600080fd5b6000821982111561271157612711612564565b500190565b600082516127288184602087016125f8565b9190910192915050565b60006001600160a01b038087168352608060208401526127556080840187612595565b8186166040850152838103606085015261276f818661245f565b98975050505050505050565b602081526000611e12602083018461262456fea164736f6c634300080c000a",
  "linkReferences": {
    "contracts/v2/satis_core/MoneyPoolRaw.sol": {
      "MultiSig": [
        {
          "length": 20,
          "start": 2229
        },
        {
          "length": 20,
          "start": 4127
        }
      ]
    }
  },
  "deployedLinkReferences": {
    "contracts/v2/satis_core/MoneyPoolRaw.sol": {
      "MultiSig": [
        {
          "length": 20,
          "start": 1808
        },
        {
          "length": 20,
          "start": 3706
        }
      ]
    }
  }
}