{
  "_format": "hh-sol-artifact-1",
  "contractName": "MultiSig",
  "sourceName": "contracts/v2/satis_core/MoneyPoolRaw.sol",
  "abi": [
    {
      "anonymous": false,
      "inputs": [
        {
          "indexed": false,
          "internalType": "string",
          "name": "msg",
          "type": "string"
        }
      ],
      "name": "Debug",
      "type": "event"
    },
    {
      "inputs": [
        {
          "internalType": "address",
          "name": "_targetAddress",
          "type": "address"
        },
        {
          "internalType": "bytes",
          "name": "_targetSignature",
          "type": "bytes"
        },
        {
          "internalType": "address",
          "name": "_clientAddress",
          "type": "address"
        },
        {
          "internalType": "address",
          "name": "_tokenAddress",
          "type": "address"
        },
        {
          "internalType": "uint256",
          "name": "_withdrawValue",
          "type": "uint256"
        },
        {
          "internalType": "uint256",
          "name": "_tier",
          "type": "uint256"
        },
        {
          "internalType": "uint256",
          "name": "_chainId",
          "type": "uint256"
        },
        {
          "internalType": "address",
          "name": "_poolAddress",
          "type": "address"
        },
        {
          "internalType": "uint256",
          "name": "_expBlockNo",
          "type": "uint256"
        },
        {
          "internalType": "string",
          "name": "_ticketId",
          "type": "string"
        },
        {
          "internalType": "uint256",
          "name": "_nonce",
          "type": "uint256"
        }
      ],
      "name": "verifySignature",
      "outputs": [
        {
          "internalType": "bool",
          "name": "",
          "type": "bool"
        }
      ],
      "stateMutability": "pure",
      "type": "function"
    }
  ],
  "bytecode": "0x610b1c61003a600b82828239805160001a60731461002d57634e487b7160e01b600052600060045260246000fd5b30600052607381538281f3fe73000000000000000000000000000000000000000030146080604052600436106100355760003560e01c806301cf399a1461003a575b600080fd5b61004d610048366004610843565b610061565b604051901515815260200160405180910390f35b60008060006100b56040518061012001604052806060815260200160608152602001606081526020016060815260200160608152602001606081526020016060815260200160608152602001606081525090565b6100be8d610205565b81526100c98c610205565b60208201526100d78b61043a565b60408201526100e58a61043a565b60608201526100f38961043a565b608082015261010188610205565b60a082015261010f8761043a565b60c082015260e081018690526101248561043a565b610100820181905281516020808401516040808601516060870151608088015160a089015160c08a015160e08b015195516101c99a6101699a9099909897910161096e565b60408051601f1981840301815282825280516020918201207f19457468657265756d205369676e6564204d6573736167653a0a33320000000084830152603c8085019190915282518085039091018152605c909301909152815191012090565b92506101d5838f61055a565b73ffffffffffffffffffffffffffffffffffffffff9081169f169e909e149e9d5050505050505050505050505050565b604080518082018252601081527f303132333435363738396162636465660000000000000000000000000000000060208201528151602a808252606082810190945273ffffffffffffffffffffffffffffffffffffffff85169291600091602082018180368337019050509050600360fc1b8160008151811061028a5761028a610a33565b60200101906001600160f81b031916908160001a905350600f60fb1b816001815181106102b9576102b9610a33565b60200101906001600160f81b031916908160001a90535060005b601481101561043157826004856102eb84600c610a5f565b602081106102fb576102fb610a33565b1a60f81b6001600160f81b031916901c60f81c60ff168151811061032157610321610a33565b01602001517fff000000000000000000000000000000000000000000000000000000000000001682610354836002610a77565b61035f906002610a5f565b8151811061036f5761036f610a33565b60200101906001600160f81b031916908160001a905350828461039383600c610a5f565b602081106103a3576103a3610a33565b825191901a600f169081106103ba576103ba610a33565b01602001517fff0000000000000000000000000000000000000000000000000000000000000016826103ed836002610a77565b6103f8906003610a5f565b8151811061040857610408610a33565b60200101906001600160f81b031916908160001a9053508061042981610a96565b9150506102d3565b50949350505050565b60608161045e5750506040805180820190915260018152600360fc1b602082015290565b8160005b8115610488578061047281610a96565b91506104819050600a83610ab1565b9150610462565b60008167ffffffffffffffff8111156104a3576104a36107a0565b6040519080825280601f01601f1916602001820160405280156104cd576020820181803683370190505b509050815b8515610431576104e3600182610ad3565b905060006104f2600a88610ab1565b6104fd90600a610a77565b6105079088610ad3565b610512906030610aea565b905060008160f81b90508084848151811061052f5761052f610a33565b60200101906001600160f81b031916908160001a905350610551600a89610ab1565b975050506104d2565b600081516041146105d85760405162461bcd60e51b815260206004820152602d60248201527f496e636f7272656374207369676e6174757265206c656e6774682c206c656e6760448201527f7468206d7573742062652036350000000000000000000000000000000000000060648201526084015b60405180910390fd5b60208201516040830151604184015160ff168015806105fa57508060ff166001145b8061060857508060ff16601b145b8061061657508060ff16601c145b6106885760405162461bcd60e51b815260206004820152602660248201527f5265636f76657220762076616c75652069732066756e64616d656e74616c6c7960448201527f2077726f6e67000000000000000000000000000000000000000000000000000060648201526084016105cf565b601b8160ff1610156106a25761069f601b82610aea565b90505b8060ff16601b14806106b757508060ff16601c145b61070f5760405162461bcd60e51b815260206004820152602360248201527f5265636f76657220762076616c7565206572726f723a204e6f74203237206f7260448201526204064760eb1b60648201526084016105cf565b60408051600081526020810180835288905260ff831691810191909152606081018490526080810183905260019060a0016020604051602081039080840390855afa158015610762573d6000803e3d6000fd5b5050604051601f190151979650505050505050565b803573ffffffffffffffffffffffffffffffffffffffff8116811461079b57600080fd5b919050565b634e487b7160e01b600052604160045260246000fd5b600082601f8301126107c757600080fd5b813567ffffffffffffffff808211156107e2576107e26107a0565b604051601f8301601f19908116603f0116810190828211818310171561080a5761080a6107a0565b8160405283815286602085880101111561082357600080fd5b836020870160208301376000602085830101528094505050505092915050565b60008060008060008060008060008060006101608c8e03121561086557600080fd5b61086e8c610777565b9a5067ffffffffffffffff8060208e0135111561088a57600080fd5b61089a8e60208f01358f016107b6565b9a506108a860408e01610777565b99506108b660608e01610777565b985060808d0135975060a08d0135965060c08d013595506108d960e08e01610777565b94506101008d01359350806101208e013511156108f557600080fd5b506109078d6101208e01358e016107b6565b91506101408c013590509295989b509295989b9093969950565b6000815180845260005b818110156109475760208185018101518683018201520161092b565b81811115610959576000602083870101525b50601f01601f19169290920160200192915050565b60006101208083526109828184018d610921565b90508281036020840152610996818c610921565b905082810360408401526109aa818b610921565b905082810360608401526109be818a610921565b905082810360808401526109d28189610921565b905082810360a08401526109e68188610921565b905082810360c08401526109fa8187610921565b905082810360e0840152610a0e8186610921565b9050828103610100840152610a238185610921565b9c9b505050505050505050505050565b634e487b7160e01b600052603260045260246000fd5b634e487b7160e01b600052601160045260246000fd5b60008219821115610a7257610a72610a49565b500190565b6000816000190483118215151615610a9157610a91610a49565b500290565b6000600019821415610aaa57610aaa610a49565b5060010190565b600082610ace57634e487b7160e01b600052601260045260246000fd5b500490565b600082821015610ae557610ae5610a49565b500390565b600060ff821660ff84168060ff03821115610b0757610b07610a49565b01939250505056fea164736f6c634300080c000a",
  "linkReferences": {},
  "deployedLinkReferences": {}
}