{
  "_format": "hh-sol-artifact-1",
  "contractName": "MultiSig",
  "sourceName": "contracts/v2/satis_core/MoneyPoolRaw.sol",
  "abi": [
    {
      "anonymous": false,
      "inputs": [
        {
          "indexed": false,
          "internalType": "string",
          "name": "msg",
          "type": "string"
        }
      ],
      "name": "Debug",
      "type": "event"
    },
    {
      "inputs": [
        {
          "internalType": "address",
          "name": "_targetAddress",
          "type": "address"
        },
        {
          "internalType": "bytes",
          "name": "_targetSignature",
          "type": "bytes"
        },
        {
          "internalType": "address",
          "name": "_clientAddress",
          "type": "address"
        },
        {
          "internalType": "address",
          "name": "_tokenAddress",
          "type": "address"
        },
        {
          "internalType": "uint256",
          "name": "_withdrawValue",
          "type": "uint256"
        },
        {
          "internalType": "uint256",
          "name": "_inDebtValue",
          "type": "uint256"
        },
        {
          "internalType": "uint256",
          "name": "_tier",
          "type": "uint256"
        },
        {
          "internalType": "uint256",
          "name": "_chainId",
          "type": "uint256"
        },
        {
          "internalType": "address",
          "name": "_poolAddress",
          "type": "address"
        },
        {
          "internalType": "uint256",
          "name": "_expBlockNo",
          "type": "uint256"
        },
        {
          "internalType": "string",
          "name": "_ticketId",
          "type": "string"
        },
        {
          "internalType": "uint256",
          "name": "_nonce",
          "type": "uint256"
        }
      ],
      "name": "verifySignature",
      "outputs": [
        {
          "internalType": "bool",
          "name": "",
          "type": "bool"
        }
      ],
      "stateMutability": "pure",
      "type": "function"
    }
  ],
  "bytecode": "0x610b4161003a600b82828239805160001a60731461002d57634e487b7160e01b600052600060045260246000fd5b30600052607381538281f3fe73000000000000000000000000000000000000000030146080604052600436106100355760003560e01c8063ab4b3d3e1461003a575b600080fd5b61004d610048366004610843565b610061565b604051901515815260200160405180910390f35b60006100b9604051806101400160405280606081526020016060815260200160608152602001606081526020016060815260200160608152602001606081526020016060815260200160608152602001606081525090565b6100c28c61021f565b81526100cd8b61021f565b60208201526100db8a610447565b60408201526100e989610447565b60608201526100f788610447565b608082015261010587610447565b60a08201526101138661021f565b60c082015261012185610447565b60e0820152610100810184905261013783610447565b8161012001819052508d6001600160a01b03166102036101fd836101200151846000015185602001518660400151876060015188608001518960a001518a60c001518b60e001518c610100015160405160200161019d9a9998979695949392919061097d565b60408051601f1981840301815282825280516020918201207f19457468657265756d205369676e6564204d6573736167653a0a33320000000084830152603c8085019190915282518085039091018152605c909301909152815191012090565b8f610567565b6001600160a01b0316149e9d5050505050505050505050505050565b604080518082018252601081527f303132333435363738396162636465660000000000000000000000000000000060208201528151602a80825260608281019094526001600160a01b0385169291600091602082018180368337019050509050600360fc1b8160008151811061029757610297610a58565b60200101906001600160f81b031916908160001a905350600f60fb1b816001815181106102c6576102c6610a58565b60200101906001600160f81b031916908160001a90535060005b601481101561043e57826004856102f884600c610a84565b6020811061030857610308610a58565b1a60f81b6001600160f81b031916901c60f81c60ff168151811061032e5761032e610a58565b01602001517fff000000000000000000000000000000000000000000000000000000000000001682610361836002610a9c565b61036c906002610a84565b8151811061037c5761037c610a58565b60200101906001600160f81b031916908160001a90535082846103a083600c610a84565b602081106103b0576103b0610a58565b825191901a600f169081106103c7576103c7610a58565b01602001517fff0000000000000000000000000000000000000000000000000000000000000016826103fa836002610a9c565b610405906003610a84565b8151811061041557610415610a58565b60200101906001600160f81b031916908160001a9053508061043681610abb565b9150506102e0565b50949350505050565b60608161046b5750506040805180820190915260018152600360fc1b602082015290565b8160005b8115610495578061047f81610abb565b915061048e9050600a83610ad6565b915061046f565b60008167ffffffffffffffff8111156104b0576104b06107a0565b6040519080825280601f01601f1916602001820160405280156104da576020820181803683370190505b509050815b851561043e576104f0600182610af8565b905060006104ff600a88610ad6565b61050a90600a610a9c565b6105149088610af8565b61051f906030610b0f565b905060008160f81b90508084848151811061053c5761053c610a58565b60200101906001600160f81b031916908160001a90535061055e600a89610ad6565b975050506104df565b600081516041146105e55760405162461bcd60e51b815260206004820152602d60248201527f496e636f7272656374207369676e6174757265206c656e6774682c206c656e6760448201527f7468206d7573742062652036350000000000000000000000000000000000000060648201526084015b60405180910390fd5b60208201516040830151604184015160ff1680158061060757508060ff166001145b8061061557508060ff16601b145b8061062357508060ff16601c145b6106955760405162461bcd60e51b815260206004820152602660248201527f5265636f76657220762076616c75652069732066756e64616d656e74616c6c7960448201527f2077726f6e67000000000000000000000000000000000000000000000000000060648201526084016105dc565b601b8160ff1610156106af576106ac601b82610b0f565b90505b8060ff16601b14806106c457508060ff16601c145b61071c5760405162461bcd60e51b815260206004820152602360248201527f5265636f76657220762076616c7565206572726f723a204e6f74203237206f7260448201526204064760eb1b60648201526084016105dc565b60408051600081526020810180835288905260ff831691810191909152606081018490526080810183905260019060a0016020604051602081039080840390855afa15801561076f573d6000803e3d6000fd5b5050604051601f190151979650505050505050565b80356001600160a01b038116811461079b57600080fd5b919050565b634e487b7160e01b600052604160045260246000fd5b600082601f8301126107c757600080fd5b813567ffffffffffffffff808211156107e2576107e26107a0565b604051601f8301601f19908116603f0116810190828211818310171561080a5761080a6107a0565b8160405283815286602085880101111561082357600080fd5b836020870160208301376000602085830101528094505050505092915050565b6000806000806000806000806000806000806101808d8f03121561086657600080fd5b61086f8d610784565b9b5067ffffffffffffffff60208e0135111561088a57600080fd5b61089a8e60208f01358f016107b6565b9a506108a860408e01610784565b99506108b660608e01610784565b985060808d0135975060a08d0135965060c08d0135955060e08d013594506108e16101008e01610784565b93506101208d0135925067ffffffffffffffff6101408e0135111561090557600080fd5b6109168e6101408f01358f016107b6565b91506101608d013590509295989b509295989b509295989b565b6000815180845260005b818110156109565760208185018101518683018201520161093a565b81811115610968576000602083870101525b50601f01601f19169290920160200192915050565b60006101408083526109918184018e610930565b905082810360208401526109a5818d610930565b905082810360408401526109b9818c610930565b905082810360608401526109cd818b610930565b905082810360808401526109e1818a610930565b905082810360a08401526109f58189610930565b905082810360c0840152610a098188610930565b905082810360e0840152610a1d8187610930565b9050828103610100840152610a328186610930565b9050828103610120840152610a478185610930565b9d9c50505050505050505050505050565b634e487b7160e01b600052603260045260246000fd5b634e487b7160e01b600052601160045260246000fd5b60008219821115610a9757610a97610a6e565b500190565b6000816000190483118215151615610ab657610ab6610a6e565b500290565b6000600019821415610acf57610acf610a6e565b5060010190565b600082610af357634e487b7160e01b600052601260045260246000fd5b500490565b600082821015610b0a57610b0a610a6e565b500390565b600060ff821660ff84168060ff03821115610b2c57610b2c610a6e565b01939250505056fea164736f6c634300080c000a",
  "linkReferences": {},
  "deployedLinkReferences": {}
}