{
  "_format": "hh-sol-artifact-1",
  "contractName": "MultiSig",
  "sourceName": "contracts/v2/satis_core/MoneyPoolRaw.sol",
  "abi": [
    {
      "anonymous": false,
      "inputs": [
        {
          "indexed": false,
          "internalType": "string",
          "name": "msg",
          "type": "string"
        }
      ],
      "name": "Debug",
      "type": "event"
    },
    {
      "inputs": [
        {
          "internalType": "address",
          "name": "_targetAddress",
          "type": "address"
        },
        {
          "internalType": "bytes",
          "name": "_targetSignature",
          "type": "bytes"
        },
        {
          "internalType": "address",
          "name": "_clientAddress",
          "type": "address"
        },
        {
          "internalType": "address",
          "name": "_tokenAddress",
          "type": "address"
        },
        {
          "internalType": "uint256",
          "name": "_withdrawValue",
          "type": "uint256"
        },
        {
          "internalType": "uint256",
          "name": "_tier",
          "type": "uint256"
        },
        {
          "internalType": "uint256",
          "name": "_chainId",
          "type": "uint256"
        },
        {
          "internalType": "address",
          "name": "_poolAddress",
          "type": "address"
        },
        {
          "internalType": "uint256",
          "name": "_expBlockNo",
          "type": "uint256"
        },
        {
          "internalType": "uint256",
          "name": "_nonce",
          "type": "uint256"
        }
      ],
      "name": "verifySignature",
      "outputs": [
        {
          "internalType": "bool",
          "name": "",
          "type": "bool"
        }
      ],
      "stateMutability": "pure",
      "type": "function"
    }
  ],
  "bytecode": "0x610ab461003a600b82828239805160001a60731461002d57634e487b7160e01b600052600060045260246000fd5b30600052607381538281f3fe73000000000000000000000000000000000000000030146080604052600436106100355760003560e01c8063cd4fc4551461003a575b600080fd5b61004d6100483660046107a5565b610061565b604051901515815260200160405180910390f35b6000806000806100af60405180610100016040528060608152602001606081526020016060815260200160608152602001606081526020016060815260200160608152602001606081525090565b6100b88d6101f4565b81526100c38c6101f4565b60208201526100d18b610429565b60408201526100df8a610429565b60608201526100ed89610429565b60808201526100fb886101f4565b60a082015261010987610429565b60c082015261011786610429565b60e0820181905281516020808401516040808601516060870151608088015160a089015160c08a0151945161015699989794959394929391920161091c565b60408051601f1981840301815282825280516020918201207f19457468657265756d205369676e6564204d6573736167653a0a33320000000084830152603c80850182905283518086039091018152605c909401909252825192019190912090945092506101c4838f610549565b73ffffffffffffffffffffffffffffffffffffffff9081169f169e909e149e9d5050505050505050505050505050565b604080518082018252601081527f303132333435363738396162636465660000000000000000000000000000000060208201528151602a808252606082810190945273ffffffffffffffffffffffffffffffffffffffff85169291600091602082018180368337019050509050600360fc1b81600081518110610279576102796109cb565b60200101906001600160f81b031916908160001a905350600f60fb1b816001815181106102a8576102a86109cb565b60200101906001600160f81b031916908160001a90535060005b601481101561042057826004856102da84600c6109f7565b602081106102ea576102ea6109cb565b1a60f81b6001600160f81b031916901c60f81c60ff1681518110610310576103106109cb565b01602001517fff000000000000000000000000000000000000000000000000000000000000001682610343836002610a0f565b61034e9060026109f7565b8151811061035e5761035e6109cb565b60200101906001600160f81b031916908160001a905350828461038283600c6109f7565b60208110610392576103926109cb565b825191901a600f169081106103a9576103a96109cb565b01602001517fff0000000000000000000000000000000000000000000000000000000000000016826103dc836002610a0f565b6103e79060036109f7565b815181106103f7576103f76109cb565b60200101906001600160f81b031916908160001a9053508061041881610a2e565b9150506102c2565b50949350505050565b60608161044d5750506040805180820190915260018152600360fc1b602082015290565b8160005b8115610477578061046181610a2e565b91506104709050600a83610a49565b9150610451565b60008167ffffffffffffffff8111156104925761049261078f565b6040519080825280601f01601f1916602001820160405280156104bc576020820181803683370190505b509050815b8515610420576104d2600182610a6b565b905060006104e1600a88610a49565b6104ec90600a610a0f565b6104f69088610a6b565b610501906030610a82565b905060008160f81b90508084848151811061051e5761051e6109cb565b60200101906001600160f81b031916908160001a905350610540600a89610a49565b975050506104c1565b600081516041146105c75760405162461bcd60e51b815260206004820152602d60248201527f496e636f7272656374207369676e6174757265206c656e6774682c206c656e6760448201527f7468206d7573742062652036350000000000000000000000000000000000000060648201526084015b60405180910390fd5b60208201516040830151604184015160ff168015806105e957508060ff166001145b806105f757508060ff16601b145b8061060557508060ff16601c145b6106775760405162461bcd60e51b815260206004820152602660248201527f5265636f76657220762076616c75652069732066756e64616d656e74616c6c7960448201527f2077726f6e67000000000000000000000000000000000000000000000000000060648201526084016105be565b601b8160ff1610156106915761068e601b82610a82565b90505b8060ff16601b14806106a657508060ff16601c145b6106fe5760405162461bcd60e51b815260206004820152602360248201527f5265636f76657220762076616c7565206572726f723a204e6f74203237206f7260448201526204064760eb1b60648201526084016105be565b60408051600081526020810180835288905260ff831691810191909152606081018490526080810183905260019060a0016020604051602081039080840390855afa158015610751573d6000803e3d6000fd5b5050604051601f190151979650505050505050565b803573ffffffffffffffffffffffffffffffffffffffff8116811461078a57600080fd5b919050565b634e487b7160e01b600052604160045260246000fd5b6000806000806000806000806000806101408b8d0312156107c557600080fd5b6107ce8b610766565b995067ffffffffffffffff8060208d013511156107ea57600080fd5b60208c01358c018d601f82011261080057600080fd5b81813511156108115761081161078f565b6040518135601f01601f19908116603f0116810190838211818310171561083a5761083a61078f565b81604052823581528f60208435850101111561085557600080fd5b823560208401602083013760006020843583010152809c505050505061087d60408c01610766565b975061088b60608c01610766565b965060808b0135955060a08b0135945060c08b013593506108ae60e08c01610766565b92506101008b013591506101208b013590509295989b9194979a5092959850565b6000815180845260005b818110156108f5576020818501810151868301820152016108d9565b81811115610907576000602083870101525b50601f01601f19169290920160200192915050565b60006101008083526109308184018c6108cf565b90508281036020840152610944818b6108cf565b90508281036040840152610958818a6108cf565b9050828103606084015261096c81896108cf565b9050828103608084015261098081886108cf565b905082810360a084015261099481876108cf565b905082810360c08401526109a881866108cf565b905082810360e08401526109bc81856108cf565b9b9a5050505050505050505050565b634e487b7160e01b600052603260045260246000fd5b634e487b7160e01b600052601160045260246000fd5b60008219821115610a0a57610a0a6109e1565b500190565b6000816000190483118215151615610a2957610a296109e1565b500290565b6000600019821415610a4257610a426109e1565b5060010190565b600082610a6657634e487b7160e01b600052601260045260246000fd5b500490565b600082821015610a7d57610a7d6109e1565b500390565b600060ff821660ff84168060ff03821115610a9f57610a9f6109e1565b01939250505056fea164736f6c634300080c000a",
  "linkReferences": {},
  "deployedLinkReferences": {}
}