{
  "_format": "hh-sol-artifact-1",
  "contractName": "MoneyPoolV2",
  "sourceName": "contracts/v2/for_testing/moneyPoolV2.sol",
  "abi": [
    {
      "inputs": [
        {
          "internalType": "string[]",
          "name": "_poolNameList",
          "type": "string[]"
        },
        {
          "internalType": "address[]",
          "name": "_poolAddressList",
          "type": "address[]"
        }
      ],
      "stateMutability": "nonpayable",
      "type": "constructor"
    },
    {
      "anonymous": false,
      "inputs": [
        {
          "indexed": false,
          "internalType": "address",
          "name": "newAdminAddress",
          "type": "address"
        }
      ],
      "name": "ChangeOwnership",
      "type": "event"
    },
    {
      "anonymous": false,
      "inputs": [
        {
          "indexed": false,
          "internalType": "address[]",
          "name": "newlyAddedPoolAddressList",
          "type": "address[]"
        }
      ],
      "name": "ChangePoolAddress",
      "type": "event"
    },
    {
      "inputs": [
        {
          "internalType": "address",
          "name": "_tokenAddress",
          "type": "address"
        },
        {
          "internalType": "uint256",
          "name": "_tokenValue",
          "type": "uint256"
        },
        {
          "internalType": "string",
          "name": "_poolName",
          "type": "string"
        }
      ],
      "name": "addFund",
      "outputs": [
        {
          "internalType": "bool",
          "name": "_isDone",
          "type": "bool"
        }
      ],
      "stateMutability": "nonpayable",
      "type": "function"
    },
    {
      "inputs": [
        {
          "internalType": "address",
          "name": "_tokenAddress",
          "type": "address"
        },
        {
          "internalType": "uint256",
          "name": "_lockValue",
          "type": "uint256"
        },
        {
          "internalType": "uint256",
          "name": "_addValue",
          "type": "uint256"
        },
        {
          "internalType": "string",
          "name": "_data",
          "type": "string"
        },
        {
          "internalType": "string",
          "name": "_poolName",
          "type": "string"
        }
      ],
      "name": "addFundWithAction",
      "outputs": [
        {
          "internalType": "bool",
          "name": "_isDone",
          "type": "bool"
        }
      ],
      "stateMutability": "nonpayable",
      "type": "function"
    },
    {
      "inputs": [
        {
          "internalType": "string[]",
          "name": "_newPoolNameList",
          "type": "string[]"
        },
        {
          "internalType": "address[]",
          "name": "_newPoolAddressList",
          "type": "address[]"
        }
      ],
      "name": "changePool",
      "outputs": [],
      "stateMutability": "nonpayable",
      "type": "function"
    },
    {
      "inputs": [
        {
          "internalType": "address",
          "name": "_clientAddress",
          "type": "address"
        },
        {
          "internalType": "address",
          "name": "_tokenAddress",
          "type": "address"
        },
        {
          "internalType": "string",
          "name": "_poolName",
          "type": "string"
        }
      ],
      "name": "getClientBalance",
      "outputs": [
        {
          "internalType": "uint256",
          "name": "clientBalance",
          "type": "uint256"
        }
      ],
      "stateMutability": "view",
      "type": "function"
    },
    {
      "inputs": [
        {
          "internalType": "address",
          "name": "_clientAddress",
          "type": "address"
        },
        {
          "internalType": "address",
          "name": "_tokenAddress",
          "type": "address"
        },
        {
          "internalType": "string",
          "name": "_poolName",
          "type": "string"
        }
      ],
      "name": "getClientLockBalance",
      "outputs": [
        {
          "internalType": "uint256",
          "name": "clientLockBalance",
          "type": "uint256"
        }
      ],
      "stateMutability": "view",
      "type": "function"
    },
    {
      "inputs": [
        {
          "internalType": "address",
          "name": "_clientAddress",
          "type": "address"
        },
        {
          "internalType": "string",
          "name": "_poolName",
          "type": "string"
        }
      ],
      "name": "getClientNonce",
      "outputs": [
        {
          "internalType": "uint256",
          "name": "clientNonce",
          "type": "uint256"
        }
      ],
      "stateMutability": "view",
      "type": "function"
    },
    {
      "inputs": [
        {
          "internalType": "string",
          "name": "_poolName",
          "type": "string"
        }
      ],
      "name": "getPoolAddress",
      "outputs": [
        {
          "internalType": "address",
          "name": "_poolAddress",
          "type": "address"
        }
      ],
      "stateMutability": "view",
      "type": "function"
    },
    {
      "inputs": [
        {
          "internalType": "address",
          "name": "_tokenAddress",
          "type": "address"
        },
        {
          "internalType": "uint256",
          "name": "_tokenValue",
          "type": "uint256"
        },
        {
          "internalType": "string",
          "name": "_data",
          "type": "string"
        },
        {
          "internalType": "string",
          "name": "_poolName",
          "type": "string"
        }
      ],
      "name": "lockFundWithAction",
      "outputs": [
        {
          "internalType": "bool",
          "name": "_isDone",
          "type": "bool"
        }
      ],
      "stateMutability": "nonpayable",
      "type": "function"
    },
    {
      "inputs": [],
      "name": "owner",
      "outputs": [
        {
          "internalType": "address",
          "name": "",
          "type": "address"
        }
      ],
      "stateMutability": "view",
      "type": "function"
    },
    {
      "inputs": [
        {
          "internalType": "address",
          "name": "_clientAddress",
          "type": "address"
        },
        {
          "internalType": "address",
          "name": "_tokenAddress",
          "type": "address"
        },
        {
          "internalType": "uint256",
          "name": "_tokenValue",
          "type": "uint256"
        },
        {
          "internalType": "string",
          "name": "_poolName",
          "type": "string"
        }
      ],
      "name": "ownerTakeLockedFund",
      "outputs": [
        {
          "internalType": "bool",
          "name": "_isDone",
          "type": "bool"
        }
      ],
      "stateMutability": "nonpayable",
      "type": "function"
    },
    {
      "inputs": [
        {
          "internalType": "string",
          "name": "",
          "type": "string"
        }
      ],
      "name": "poolAddressList",
      "outputs": [
        {
          "internalType": "address",
          "name": "",
          "type": "address"
        }
      ],
      "stateMutability": "view",
      "type": "function"
    },
    {
      "inputs": [
        {
          "internalType": "address",
          "name": "_tokenAddress",
          "type": "address"
        },
        {
          "internalType": "uint256",
          "name": "_tokenValue",
          "type": "uint256"
        },
        {
          "internalType": "string",
          "name": "_poolName",
          "type": "string"
        }
      ],
      "name": "removeFund",
      "outputs": [
        {
          "internalType": "bool",
          "name": "_isDone",
          "type": "bool"
        }
      ],
      "stateMutability": "nonpayable",
      "type": "function"
    },
    {
      "inputs": [
        {
          "internalType": "address",
          "name": "_newOwner",
          "type": "address"
        }
      ],
      "name": "transferOwnership",
      "outputs": [],
      "stateMutability": "nonpayable",
      "type": "function"
    },
    {
      "inputs": [
        {
          "internalType": "address",
          "name": "_clientAddress",
          "type": "address"
        },
        {
          "internalType": "address",
          "name": "_tokenAddress",
          "type": "address"
        },
        {
          "internalType": "uint256",
          "name": "_tokenValue",
          "type": "uint256"
        },
        {
          "internalType": "string",
          "name": "_poolName",
          "type": "string"
        }
      ],
      "name": "unlockFund",
      "outputs": [
        {
          "internalType": "bool",
          "name": "_isDone",
          "type": "bool"
        }
      ],
      "stateMutability": "nonpayable",
      "type": "function"
    },
    {
      "inputs": [
        {
          "internalType": "bytes",
          "name": "_targetSignature",
          "type": "bytes"
        },
        {
          "internalType": "address",
          "name": "_tokenAddress",
          "type": "address"
        },
        {
          "internalType": "uint256",
          "name": "_unlockValue",
          "type": "uint256"
        },
        {
          "internalType": "uint256",
          "name": "_withdrawValue",
          "type": "uint256"
        },
        {
          "internalType": "uint256",
          "name": "_nonce",
          "type": "uint256"
        },
        {
          "internalType": "uint256",
          "name": "_newLockValue",
          "type": "uint256"
        },
        {
          "internalType": "string",
          "name": "_poolName",
          "type": "string"
        }
      ],
      "name": "verifyAndRemoveFund",
      "outputs": [
        {
          "internalType": "bool",
          "name": "_isDone",
          "type": "bool"
        }
      ],
      "stateMutability": "nonpayable",
      "type": "function"
    },
    {
      "inputs": [
        {
          "internalType": "bytes",
          "name": "_targetSignature",
          "type": "bytes"
        },
        {
          "internalType": "address",
          "name": "_tokenAddress",
          "type": "address"
        },
        {
          "internalType": "uint256",
          "name": "_unlockValue",
          "type": "uint256"
        },
        {
          "internalType": "uint256",
          "name": "_nonce",
          "type": "uint256"
        },
        {
          "internalType": "uint256",
          "name": "_newLockValue",
          "type": "uint256"
        },
        {
          "internalType": "string",
          "name": "_poolName",
          "type": "string"
        }
      ],
      "name": "verifyAndUnlockFund",
      "outputs": [
        {
          "internalType": "bool",
          "name": "_isDone",
          "type": "bool"
        }
      ],
      "stateMutability": "nonpayable",
      "type": "function"
    },
    {
      "inputs": [
        {
          "internalType": "address",
          "name": "_tokenAddress",
          "type": "address"
        },
        {
          "internalType": "string",
          "name": "_poolName",
          "type": "string"
        }
      ],
      "name": "viewFund",
      "outputs": [
        {
          "internalType": "uint256",
          "name": "_totalFund",
          "type": "uint256"
        },
        {
          "internalType": "uint256",
          "name": "_lockedFund",
          "type": "uint256"
        }
      ],
      "stateMutability": "view",
      "type": "function"
    }
  ],
  "bytecode": "0x60806040523480156200001157600080fd5b5060405162001fc538038062001fc58339810160408190526200003491620001e0565b80518251146200008a5760405162461bcd60e51b815260206004820152601a60248201527f4c6973747327206c656e67746820697320646966666572656e74000000000000604482015260640160405180910390fd5b600080546001600160a01b031916331781555b81518110156200014e57818181518110620000c857634e487b7160e01b600052603260045260246000fd5b60200260200101516001848381518110620000f357634e487b7160e01b600052603260045260246000fd5b60200260200101516040516200010a9190620002f4565b90815260405190819003602001902080546001600160a01b03929092166001600160a01b03199092169190911790558062000145816200039e565b9150506200009d565b505050620003dc565b600082601f83011262000168578081fd5b81516020620001816200017b8362000345565b62000312565b82815281810190858301838502870184018810156200019e578586fd5b855b85811015620001d35781516001600160a01b0381168114620001c0578788fd5b84529284019290840190600101620001a0565b5090979650505050505050565b6000806040808486031215620001f4578283fd5b83516001600160401b03808211156200020b578485fd5b818601915086601f8301126200021f578485fd5b81516020620002326200017b8362000345565b82815281810190858301895b85811015620002bf57815188018d603f8201126200025a578b8cfd5b8581015188811115620002715762000271620003c6565b62000285601f8201601f1916880162000312565b8181528f8c83850101111562000299578d8efd5b620002aa828983018e86016200036b565b8652505092840192908401906001016200023e565b505091890151919750909450505080831115620002da578384fd5b5050620002ea8582860162000157565b9150509250929050565b60008251620003088184602087016200036b565b9190910192915050565b604051601f8201601f191681016001600160401b03811182821017156200033d576200033d620003c6565b604052919050565b60006001600160401b03821115620003615762000361620003c6565b5060209081020190565b60005b83811015620003885781810151838201526020016200036e565b8381111562000398576000848401525b50505050565b6000600019821415620003bf57634e487b7160e01b81526011600452602481fd5b5060010190565b634e487b7160e01b600052604160045260246000fd5b611bd980620003ec6000396000f3fe608060405234801561001057600080fd5b506004361061011b5760003560e01c8063926a2ab6116100b2578063daa7418111610081578063f2fde38b11610066578063f2fde38b1461029d578063f3f7b314146102b0578063fae38350146102c35761011b565b8063daa7418114610256578063ea5ada46146102695761011b565b8063926a2ab61461020a578063963264ad1461021d578063cd935cbf14610230578063d2bfd7ae146102435761011b565b8063609677a1116100ee578063609677a1146101985780636b8e6a52146101b95780638ca58cc1146101cc5780638da5cb5b146101df5761011b565b80634a45501d1461012057806353b29b051461013557806356f21d0b1461016257806357833a2314610185575b600080fd5b61013361012e36600461174f565b6102d6565b005b6101486101433660046115c8565b610421565b604080519283526020830191909152015b60405180910390f35b6101756101703660046118a6565b61053a565b6040519015158152602001610159565b61017561019336600461155e565b610662565b6101ab6101a63660046115c8565b61086d565b604051908152602001610159565b6101756101c73660046116c8565b610981565b6101756101da36600461155e565b610b35565b6000546101f2906001600160a01b031681565b6040516001600160a01b039091168152602001610159565b610175610218366004611815565b610ce6565b61017561022b366004611616565b610e0b565b61017561023e366004611616565b610f2a565b6101ab6102513660046114fe565b610ff2565b6101f2610264366004611942565b611107565b6101f2610277366004611942565b80516020818301810180516001825292820191909301209152546001600160a01b031681565b6101336102ab3660046114bf565b611138565b6101756102be366004611657565b6111f7565b6101ab6102d13660046114fe565b611316565b805182511461032c5760405162461bcd60e51b815260206004820152601a60248201527f4c6973747327206c656e67746820697320646966666572656e7400000000000060448201526064015b60405180910390fd5b60005b81518110156103e55781818151811061035857634e487b7160e01b600052603260045260246000fd5b6020026020010151600184838151811061038257634e487b7160e01b600052603260045260246000fd5b602002602001015160405161039791906119dc565b90815260405190819003602001902080546001600160a01b039290921673ffffffffffffffffffffffffffffffffffffffff19909216919091179055806103dd81611b77565b91505061032f565b507f041572ba5a007337eb900b91bde4bf7a58838c66fe504a88a09c15d551891c83816040516104159190611a20565b60405180910390a15050565b60008060006001600160a01b031660018460405161043f91906119dc565b908152604051908190036020019020546001600160a01b031614156104955760405162461bcd60e51b815260206004820152600c60248201526b139bc81cdd58da081c1bdbdb60a21b6044820152606401610323565b60006001846040516104a791906119dc565b90815260405190819003602001812054632251cd0960e21b82526001600160a01b0387811660048401521691508190638947342490602401604080518083038186803b1580156104f657600080fd5b505afa15801561050a573d6000803e3d6000fd5b505050506040513d601f19601f8201168201806040525081019061052e919061198d565b90969095509350505050565b6000806001600160a01b031660018360405161055691906119dc565b908152604051908190036020019020546001600160a01b031614156105ac5760405162461bcd60e51b815260206004820152600c60248201526b139bc81cdd58da081c1bdbdb60a21b6044820152606401610323565b60006001836040516105be91906119dc565b908152604051908190036020018120546321cd518f60e11b82526001600160a01b03169150819063439aa31e90610603908c908c908c908c908c908c90600401611aad565b602060405180830381600087803b15801561061d57600080fd5b505af1158015610631573d6000803e3d6000fd5b505050506040513d601f19601f8201168201806040525081019061065591906117f5565b9998505050505050505050565b6000806001600160a01b031660018360405161067e91906119dc565b908152604051908190036020019020546001600160a01b031614156106d45760405162461bcd60e51b815260206004820152600c60248201526b139bc81cdd58da081c1bdbdb60a21b6044820152606401610323565b60006001836040516106e691906119dc565b908152602001604051809103902060009054906101000a90046001600160a01b031690506000816001600160a01b03166378c535336040518163ffffffff1660e01b815260040160206040518083038186803b15801561074557600080fd5b505afa158015610759573d6000803e3d6000fd5b505050506040513d601f19601f8201168201806040525081019061077d91906114e2565b9050336001600160a01b038216146107d75760405162461bcd60e51b815260206004820152601660248201527f596f7520617265206e6f7420706f6f6c206f776e6572000000000000000000006044820152606401610323565b604051637cccbf6d60e01b81526001600160a01b038881166004830152878116602483015260448201879052831690637cccbf6d906064015b602060405180830381600087803b15801561082a57600080fd5b505af115801561083e573d6000803e3d6000fd5b505050506040513d601f19601f8201168201806040525081019061086291906117f5565b979650505050505050565b6000806001600160a01b031660018360405161088991906119dc565b908152604051908190036020019020546001600160a01b031614156108df5760405162461bcd60e51b815260206004820152600c60248201526b139bc81cdd58da081c1bdbdb60a21b6044820152606401610323565b60006001836040516108f191906119dc565b9081526040519081900360200181205463033023d160e61b82526001600160a01b038681166004840152169150819063cc08f4409060240160206040518083038186803b15801561094157600080fd5b505afa158015610955573d6000803e3d6000fd5b505050506040513d601f19601f820116820180604052508101906109799190611975565b949350505050565b6000806001600160a01b031660018360405161099d91906119dc565b908152604051908190036020019020546001600160a01b031614156109f35760405162461bcd60e51b815260206004820152600c60248201526b139bc81cdd58da081c1bdbdb60a21b6044820152606401610323565b6000600183604051610a0591906119dc565b9081526040519081900360200181205463d512c06160e01b82526001600160a01b03898116600484015260248301889052169150600090829063d512c06190604401602060405180830381600087803b158015610a6157600080fd5b505af1158015610a75573d6000803e3d6000fd5b505050506040513d601f19601f82011682018060405250810190610a9991906117f5565b90506000826001600160a01b031663bd4f9b1f8a8a896040518463ffffffff1660e01b8152600401610acd939291906119f8565b602060405180830381600087803b158015610ae757600080fd5b505af1158015610afb573d6000803e3d6000fd5b505050506040513d601f19601f82011682018060405250810190610b1f91906117f5565b9050818015610655575098975050505050505050565b6000806001600160a01b0316600183604051610b5191906119dc565b908152604051908190036020019020546001600160a01b03161415610ba75760405162461bcd60e51b815260206004820152600c60248201526b139bc81cdd58da081c1bdbdb60a21b6044820152606401610323565b6000600183604051610bb991906119dc565b908152602001604051809103902060009054906101000a90046001600160a01b031690506000816001600160a01b03166378c535336040518163ffffffff1660e01b815260040160206040518083038186803b158015610c1857600080fd5b505afa158015610c2c573d6000803e3d6000fd5b505050506040513d601f19601f82011682018060405250810190610c5091906114e2565b9050336001600160a01b03821614610caa5760405162461bcd60e51b815260206004820152601660248201527f596f7520617265206e6f7420706f6f6c206f776e6572000000000000000000006044820152606401610323565b604051629ed11160e31b81526001600160a01b0388811660048301528781166024830152604482018790528316906304f6888890606401610810565b6000806001600160a01b0316600183604051610d0291906119dc565b908152604051908190036020019020546001600160a01b03161415610d585760405162461bcd60e51b815260206004820152600c60248201526b139bc81cdd58da081c1bdbdb60a21b6044820152606401610323565b6000600183604051610d6a91906119dc565b9081526040519081900360200181205463f49ca04b60e01b82526001600160a01b03169150819063f49ca04b90610dad908b908b908b908b908b90600401611a6d565b602060405180830381600087803b158015610dc757600080fd5b505af1158015610ddb573d6000803e3d6000fd5b505050506040513d601f19601f82011682018060405250810190610dff91906117f5565b98975050505050505050565b6000806001600160a01b0316600183604051610e2791906119dc565b908152604051908190036020019020546001600160a01b03161415610e7d5760405162461bcd60e51b815260206004820152600c60248201526b139bc81cdd58da081c1bdbdb60a21b6044820152606401610323565b6000600183604051610e8f91906119dc565b9081526040519081900360200181205463d512c06160e01b82526001600160a01b03878116600484015260248301879052169150819063d512c061906044015b602060405180830381600087803b158015610ee957600080fd5b505af1158015610efd573d6000803e3d6000fd5b505050506040513d601f19601f82011682018060405250810190610f2191906117f5565b95945050505050565b6000806001600160a01b0316600183604051610f4691906119dc565b908152604051908190036020019020546001600160a01b03161415610f9c5760405162461bcd60e51b815260206004820152600c60248201526b139bc81cdd58da081c1bdbdb60a21b6044820152606401610323565b6000600183604051610fae91906119dc565b90815260405190819003602001812054632767b4f360e21b82526001600160a01b038781166004840152602483018790521691508190639d9ed3cc90604401610ecf565b6000806001600160a01b031660018360405161100e91906119dc565b908152604051908190036020019020546001600160a01b031614156110645760405162461bcd60e51b815260206004820152600c60248201526b139bc81cdd58da081c1bdbdb60a21b6044820152606401610323565b600060018360405161107691906119dc565b90815260405190819003602001812054636b9f753760e01b82526001600160a01b03878116600484015286811660248401521691508190636b9f7537906044015b60206040518083038186803b1580156110cf57600080fd5b505afa1580156110e3573d6000803e3d6000fd5b505050506040513d601f19601f82011682018060405250810190610f219190611975565b600060018260405161111991906119dc565b908152604051908190036020019020546001600160a01b031692915050565b6000546001600160a01b031633146111925760405162461bcd60e51b815260206004820152600c60248201527f4e6f7420616e2061646d696e00000000000000000000000000000000000000006044820152606401610323565b6000805473ffffffffffffffffffffffffffffffffffffffff19166001600160a01b038381169190911791829055604051911681527f244ded7a3b73e60f03281fc183df050e6134d393c50788e980dc090f06e728099060200160405180910390a150565b6000806001600160a01b031660018360405161121391906119dc565b908152604051908190036020019020546001600160a01b031614156112695760405162461bcd60e51b815260206004820152600c60248201526b139bc81cdd58da081c1bdbdb60a21b6044820152606401610323565b600060018360405161127b91906119dc565b9081526040519081900360200181205463bd4f9b1f60e01b82526001600160a01b03169150819063bd4f9b1f906112ba908990899089906004016119f8565b602060405180830381600087803b1580156112d457600080fd5b505af11580156112e8573d6000803e3d6000fd5b505050506040513d601f19601f8201168201806040525081019061130c91906117f5565b9695505050505050565b6000806001600160a01b031660018360405161133291906119dc565b908152604051908190036020019020546001600160a01b031614156113885760405162461bcd60e51b815260206004820152600c60248201526b139bc81cdd58da081c1bdbdb60a21b6044820152606401610323565b600060018360405161139a91906119dc565b90815260405190819003602001812054633cda253f60e11b82526001600160a01b038781166004840152868116602484015216915081906379b44a7e906044016110b7565b600082601f8301126113ef578081fd5b813560206114046113ff83611b23565b611af2565b8281528181019085830183850287018401881015611420578586fd5b855b8581101561144757813561143581611bb4565b84529284019290840190600101611422565b5090979650505050505050565b600082601f830112611464578081fd5b813567ffffffffffffffff81111561147e5761147e611b9e565b611491601f8201601f1916602001611af2565b8181528460208386010111156114a5578283fd5b816020850160208301379081016020019190915292915050565b6000602082840312156114d0578081fd5b81356114db81611bb4565b9392505050565b6000602082840312156114f3578081fd5b81516114db81611bb4565b600080600060608486031215611512578182fd5b833561151d81611bb4565b9250602084013561152d81611bb4565b9150604084013567ffffffffffffffff811115611548578182fd5b61155486828701611454565b9150509250925092565b60008060008060808587031215611573578081fd5b843561157e81611bb4565b9350602085013561158e81611bb4565b925060408501359150606085013567ffffffffffffffff8111156115b0578182fd5b6115bc87828801611454565b91505092959194509250565b600080604083850312156115da578182fd5b82356115e581611bb4565b9150602083013567ffffffffffffffff811115611600578182fd5b61160c85828601611454565b9150509250929050565b60008060006060848603121561162a578283fd5b833561163581611bb4565b925060208401359150604084013567ffffffffffffffff811115611548578182fd5b6000806000806080858703121561166c578384fd5b843561167781611bb4565b935060208501359250604085013567ffffffffffffffff8082111561169a578384fd5b6116a688838901611454565b935060608701359150808211156116bb578283fd5b506115bc87828801611454565b600080600080600060a086880312156116df578081fd5b85356116ea81611bb4565b94506020860135935060408601359250606086013567ffffffffffffffff80821115611714578283fd5b61172089838a01611454565b93506080880135915080821115611735578283fd5b5061174288828901611454565b9150509295509295909350565b60008060408385031215611761578182fd5b823567ffffffffffffffff80821115611778578384fd5b818501915085601f83011261178b578384fd5b8135602061179b6113ff83611b23565b82815281810190858301885b858110156117d0576117be8c8684358b0101611454565b845292840192908401906001016117a7565b509097505050860135925050808211156117e8578283fd5b5061160c858286016113df565b600060208284031215611806578081fd5b815180151581146114db578182fd5b60008060008060008060c0878903121561182d578384fd5b863567ffffffffffffffff80821115611844578586fd5b6118508a838b01611454565b97506020890135915061186282611bb4565b90955060408801359450606088013593506080880135925060a0880135908082111561188c578283fd5b5061189989828a01611454565b9150509295509295509295565b600080600080600080600060e0888a0312156118c0578485fd5b873567ffffffffffffffff808211156118d7578687fd5b6118e38b838c01611454565b985060208a013591506118f582611bb4565b90965060408901359550606089013594506080890135935060a0890135925060c08901359080821115611926578283fd5b506119338a828b01611454565b91505092959891949750929550565b600060208284031215611953578081fd5b813567ffffffffffffffff811115611969578182fd5b61097984828501611454565b600060208284031215611986578081fd5b5051919050565b6000806040838503121561199f578182fd5b505080516020909101519092909150565b600081518084526119c8816020860160208601611b47565b601f01601f19169290920160200192915050565b600082516119ee818460208701611b47565b9190910192915050565b60006001600160a01b038516825283602083015260606040830152610f2160608301846119b0565b6020808252825182820181905260009190848201906040850190845b81811015611a615783516001600160a01b031683529284019291840191600101611a3c565b50909695505050505050565b600060a08252611a8060a08301886119b0565b90506001600160a01b03861660208301528460408301528360608301528260808301529695505050505050565b600060c08252611ac060c08301896119b0565b6001600160a01b039790971660208301525060408101949094526060840192909252608083015260a090910152919050565b604051601f8201601f1916810167ffffffffffffffff81118282101715611b1b57611b1b611b9e565b604052919050565b600067ffffffffffffffff821115611b3d57611b3d611b9e565b5060209081020190565b60005b83811015611b62578181015183820152602001611b4a565b83811115611b71576000848401525b50505050565b6000600019821415611b9757634e487b7160e01b81526011600452602481fd5b5060010190565b634e487b7160e01b600052604160045260246000fd5b6001600160a01b0381168114611bc957600080fd5b5056fea164736f6c6343000802000a",
  "linkReferences": {},
  "deployedLinkReferences": {}
}