{
  "_format": "hh-sol-artifact-1",
  "contractName": "MoneyPoolRaw",
  "sourceName": "contracts/v2/satis_core/MoneyPoolRaw.sol",
  "abi": [
    {
      "inputs": [
        {
          "internalType": "address",
          "name": "_initialProxyAddress",
          "type": "address"
        },
        {
          "internalType": "address",
          "name": "_initialSigmaProxyAddress",
          "type": "address"
        }
      ],
      "stateMutability": "nonpayable",
      "type": "constructor"
    },
    {
      "anonymous": false,
      "inputs": [
        {
          "indexed": false,
          "internalType": "address[]",
          "name": "addWorkerList",
          "type": "address[]"
        }
      ],
      "name": "AddWorkers",
      "type": "event"
    },
    {
      "anonymous": false,
      "inputs": [
        {
          "indexed": false,
          "internalType": "address",
          "name": "newOwner",
          "type": "address"
        }
      ],
      "name": "ChangeOwnership",
      "type": "event"
    },
    {
      "anonymous": false,
      "inputs": [
        {
          "indexed": false,
          "internalType": "address",
          "name": "newProxy",
          "type": "address"
        }
      ],
      "name": "ChangeProxy",
      "type": "event"
    },
    {
      "anonymous": false,
      "inputs": [
        {
          "indexed": false,
          "internalType": "address",
          "name": "newSigmaProxy",
          "type": "address"
        }
      ],
      "name": "ChangeSigmaProxy",
      "type": "event"
    },
    {
      "anonymous": false,
      "inputs": [
        {
          "indexed": false,
          "internalType": "address",
          "name": "tokenAddress",
          "type": "address"
        },
        {
          "indexed": false,
          "internalType": "uint256",
          "name": "takeProfitValue",
          "type": "uint256"
        }
      ],
      "name": "OwnerTakeProfit",
      "type": "event"
    },
    {
      "anonymous": false,
      "inputs": [
        {
          "indexed": false,
          "internalType": "address[]",
          "name": "removeWorkerList",
          "type": "address[]"
        }
      ],
      "name": "RemoveWorkers",
      "type": "event"
    },
    {
      "anonymous": false,
      "inputs": [
        {
          "indexed": false,
          "internalType": "address",
          "name": "workerAddress",
          "type": "address"
        },
        {
          "indexed": false,
          "internalType": "address[]",
          "name": "clientAddressList",
          "type": "address[]"
        },
        {
          "indexed": false,
          "internalType": "address",
          "name": "tokenAddress",
          "type": "address"
        },
        {
          "indexed": false,
          "internalType": "uint256[]",
          "name": "dumpValueList",
          "type": "uint256[]"
        }
      ],
      "name": "WorkerDumpBridgedFund",
      "type": "event"
    },
    {
      "anonymous": false,
      "inputs": [
        {
          "indexed": false,
          "internalType": "address",
          "name": "workerAddress",
          "type": "address"
        },
        {
          "indexed": false,
          "internalType": "address[]",
          "name": "_clientAddressList",
          "type": "address[]"
        },
        {
          "indexed": false,
          "internalType": "address",
          "name": "_tokenAddress",
          "type": "address"
        },
        {
          "indexed": false,
          "internalType": "uint256[]",
          "name": "_instantWithdrawValueList",
          "type": "uint256[]"
        }
      ],
      "name": "WorkerDumpInstantWithdrawFund",
      "type": "event"
    },
    {
      "anonymous": false,
      "inputs": [
        {
          "indexed": false,
          "internalType": "address",
          "name": "workerAddress",
          "type": "address"
        },
        {
          "indexed": false,
          "internalType": "address",
          "name": "tokenAddress",
          "type": "address"
        },
        {
          "indexed": false,
          "internalType": "uint256",
          "name": "takeValue",
          "type": "uint256"
        }
      ],
      "name": "WorkerTakeLockedFund",
      "type": "event"
    },
    {
      "inputs": [
        {
          "internalType": "address",
          "name": "_clientAddress",
          "type": "address"
        },
        {
          "internalType": "address",
          "name": "_tokenAddress",
          "type": "address"
        },
        {
          "internalType": "uint256",
          "name": "_addValue",
          "type": "uint256"
        }
      ],
      "name": "addFundWithAction",
      "outputs": [
        {
          "internalType": "bool",
          "name": "_isDone",
          "type": "bool"
        }
      ],
      "stateMutability": "nonpayable",
      "type": "function"
    },
    {
      "inputs": [
        {
          "internalType": "address[]",
          "name": "_addWorkerList",
          "type": "address[]"
        }
      ],
      "name": "addWorkers",
      "outputs": [],
      "stateMutability": "nonpayable",
      "type": "function"
    },
    {
      "inputs": [
        {
          "internalType": "address",
          "name": "",
          "type": "address"
        }
      ],
      "name": "clientNonce",
      "outputs": [
        {
          "internalType": "uint256",
          "name": "",
          "type": "uint256"
        }
      ],
      "stateMutability": "view",
      "type": "function"
    },
    {
      "inputs": [
        {
          "internalType": "address",
          "name": "_tokenAddress",
          "type": "address"
        },
        {
          "internalType": "uint256",
          "name": "_fundingValue",
          "type": "uint256"
        }
      ],
      "name": "fundSatisToken",
      "outputs": [
        {
          "internalType": "bool",
          "name": "_isDone",
          "type": "bool"
        }
      ],
      "stateMutability": "nonpayable",
      "type": "function"
    },
    {
      "inputs": [
        {
          "internalType": "address[]",
          "name": "_clientAddressList",
          "type": "address[]"
        },
        {
          "internalType": "address",
          "name": "_tokenAddress",
          "type": "address"
        }
      ],
      "name": "getClientInstantWithdrawReserve",
      "outputs": [
        {
          "internalType": "uint256[]",
          "name": "",
          "type": "uint256[]"
        }
      ],
      "stateMutability": "view",
      "type": "function"
    },
    {
      "inputs": [
        {
          "internalType": "address[]",
          "name": "_clientAddressList",
          "type": "address[]"
        },
        {
          "internalType": "address",
          "name": "_tokenAddress",
          "type": "address"
        }
      ],
      "name": "getClientQueueValue",
      "outputs": [
        {
          "internalType": "uint256[]",
          "name": "",
          "type": "uint256[]"
        }
      ],
      "stateMutability": "view",
      "type": "function"
    },
    {
      "inputs": [
        {
          "internalType": "address",
          "name": "",
          "type": "address"
        },
        {
          "internalType": "address",
          "name": "",
          "type": "address"
        }
      ],
      "name": "instantWithdrawReserve",
      "outputs": [
        {
          "internalType": "uint256",
          "name": "",
          "type": "uint256"
        }
      ],
      "stateMutability": "view",
      "type": "function"
    },
    {
      "inputs": [],
      "name": "owner",
      "outputs": [
        {
          "internalType": "address",
          "name": "",
          "type": "address"
        }
      ],
      "stateMutability": "view",
      "type": "function"
    },
    {
      "inputs": [
        {
          "internalType": "address",
          "name": "_tokenAddress",
          "type": "address"
        },
        {
          "internalType": "uint256",
          "name": "_takeProfitValue",
          "type": "uint256"
        }
      ],
      "name": "ownerTakeProfit",
      "outputs": [
        {
          "internalType": "bool",
          "name": "_isDone",
          "type": "bool"
        }
      ],
      "stateMutability": "nonpayable",
      "type": "function"
    },
    {
      "inputs": [],
      "name": "proxy",
      "outputs": [
        {
          "internalType": "address",
          "name": "",
          "type": "address"
        }
      ],
      "stateMutability": "view",
      "type": "function"
    },
    {
      "inputs": [
        {
          "internalType": "address",
          "name": "",
          "type": "address"
        }
      ],
      "name": "queueCount",
      "outputs": [
        {
          "internalType": "uint256",
          "name": "",
          "type": "uint256"
        }
      ],
      "stateMutability": "view",
      "type": "function"
    },
    {
      "inputs": [
        {
          "internalType": "address[]",
          "name": "_removeWorkerList",
          "type": "address[]"
        }
      ],
      "name": "removeWorkers",
      "outputs": [],
      "stateMutability": "nonpayable",
      "type": "function"
    },
    {
      "inputs": [
        {
          "internalType": "address",
          "name": "",
          "type": "address"
        }
      ],
      "name": "satisTokenBalance",
      "outputs": [
        {
          "internalType": "uint256",
          "name": "",
          "type": "uint256"
        }
      ],
      "stateMutability": "view",
      "type": "function"
    },
    {
      "inputs": [],
      "name": "sigmaProxy",
      "outputs": [
        {
          "internalType": "address",
          "name": "",
          "type": "address"
        }
      ],
      "stateMutability": "view",
      "type": "function"
    },
    {
      "inputs": [
        {
          "internalType": "address",
          "name": "",
          "type": "address"
        }
      ],
      "name": "totalLockedAssets",
      "outputs": [
        {
          "internalType": "uint256",
          "name": "",
          "type": "uint256"
        }
      ],
      "stateMutability": "view",
      "type": "function"
    },
    {
      "inputs": [
        {
          "internalType": "address",
          "name": "_newOwner",
          "type": "address"
        }
      ],
      "name": "transferOwnership",
      "outputs": [],
      "stateMutability": "nonpayable",
      "type": "function"
    },
    {
      "inputs": [
        {
          "internalType": "address",
          "name": "_newProxyAddress",
          "type": "address"
        }
      ],
      "name": "updateProxyAddress",
      "outputs": [],
      "stateMutability": "nonpayable",
      "type": "function"
    },
    {
      "inputs": [
        {
          "internalType": "address",
          "name": "_newSigmaProxyAddress",
          "type": "address"
        }
      ],
      "name": "updateSigmaProxyAddress",
      "outputs": [],
      "stateMutability": "nonpayable",
      "type": "function"
    },
    {
      "inputs": [
        {
          "internalType": "bytes",
          "name": "_targetSignature",
          "type": "bytes"
        },
        {
          "internalType": "address",
          "name": "_clientAddress",
          "type": "address"
        },
        {
          "internalType": "address",
          "name": "_tokenAddress",
          "type": "address"
        },
        {
          "internalType": "uint256",
          "name": "_queueValue",
          "type": "uint256"
        },
        {
          "internalType": "uint256",
          "name": "_tier",
          "type": "uint256"
        },
        {
          "internalType": "uint256",
          "name": "_chainId",
          "type": "uint256"
        },
        {
          "internalType": "address",
          "name": "_poolAddress",
          "type": "address"
        },
        {
          "internalType": "uint256",
          "name": "_nonce",
          "type": "uint256"
        }
      ],
      "name": "verifyAndQueue",
      "outputs": [
        {
          "internalType": "bool",
          "name": "_isDone",
          "type": "bool"
        }
      ],
      "stateMutability": "nonpayable",
      "type": "function"
    },
    {
      "inputs": [
        {
          "internalType": "bytes",
          "name": "_targetSignature",
          "type": "bytes"
        },
        {
          "internalType": "address",
          "name": "_clientAddress",
          "type": "address"
        },
        {
          "internalType": "address",
          "name": "_tokenAddress",
          "type": "address"
        },
        {
          "internalType": "uint256",
          "name": "_redeemValue",
          "type": "uint256"
        },
        {
          "internalType": "uint256",
          "name": "_tier",
          "type": "uint256"
        },
        {
          "internalType": "uint256",
          "name": "_chainId",
          "type": "uint256"
        },
        {
          "internalType": "address",
          "name": "_poolAddress",
          "type": "address"
        },
        {
          "internalType": "uint256",
          "name": "_nonce",
          "type": "uint256"
        }
      ],
      "name": "verifyAndRedeemToken",
      "outputs": [
        {
          "internalType": "bool",
          "name": "_isDone",
          "type": "bool"
        }
      ],
      "stateMutability": "nonpayable",
      "type": "function"
    },
    {
      "inputs": [
        {
          "internalType": "bytes",
          "name": "_targetSignature",
          "type": "bytes"
        },
        {
          "internalType": "address",
          "name": "_clientAddress",
          "type": "address"
        },
        {
          "internalType": "address",
          "name": "_tokenAddress",
          "type": "address"
        },
        {
          "internalType": "uint256",
          "name": "_withdrawValue",
          "type": "uint256"
        },
        {
          "internalType": "uint256",
          "name": "_tier",
          "type": "uint256"
        },
        {
          "internalType": "uint256",
          "name": "_chainId",
          "type": "uint256"
        },
        {
          "internalType": "address",
          "name": "_poolAddress",
          "type": "address"
        },
        {
          "internalType": "uint256",
          "name": "_nonce",
          "type": "uint256"
        }
      ],
      "name": "verifyAndWithdrawFund",
      "outputs": [
        {
          "internalType": "bool",
          "name": "_isDone",
          "type": "bool"
        }
      ],
      "stateMutability": "nonpayable",
      "type": "function"
    },
    {
      "inputs": [
        {
          "internalType": "address",
          "name": "",
          "type": "address"
        },
        {
          "internalType": "address",
          "name": "",
          "type": "address"
        }
      ],
      "name": "withdrawalQueue",
      "outputs": [
        {
          "internalType": "uint256",
          "name": "",
          "type": "uint256"
        }
      ],
      "stateMutability": "view",
      "type": "function"
    },
    {
      "inputs": [
        {
          "internalType": "address[]",
          "name": "_clientAddressList",
          "type": "address[]"
        },
        {
          "internalType": "address",
          "name": "_tokenAddress",
          "type": "address"
        },
        {
          "internalType": "uint256[]",
          "name": "_instantWithdrawValueList",
          "type": "uint256[]"
        },
        {
          "internalType": "uint256",
          "name": "_totalDumpAmount",
          "type": "uint256"
        }
      ],
      "name": "workerDumpInstantWithdrawalFund",
      "outputs": [
        {
          "internalType": "bool",
          "name": "_isDone",
          "type": "bool"
        }
      ],
      "stateMutability": "nonpayable",
      "type": "function"
    },
    {
      "inputs": [
        {
          "internalType": "address[]",
          "name": "_clientAddressList",
          "type": "address[]"
        },
        {
          "internalType": "address",
          "name": "_tokenAddress",
          "type": "address"
        },
        {
          "internalType": "uint256[]",
          "name": "_queueValueList",
          "type": "uint256[]"
        },
        {
          "internalType": "uint256",
          "name": "_totalDumpAmount",
          "type": "uint256"
        }
      ],
      "name": "workerDumpRebalancedFund",
      "outputs": [
        {
          "internalType": "bool",
          "name": "_isDone",
          "type": "bool"
        }
      ],
      "stateMutability": "nonpayable",
      "type": "function"
    },
    {
      "inputs": [
        {
          "internalType": "address",
          "name": "",
          "type": "address"
        }
      ],
      "name": "workerList",
      "outputs": [
        {
          "internalType": "bool",
          "name": "",
          "type": "bool"
        }
      ],
      "stateMutability": "view",
      "type": "function"
    },
    {
      "inputs": [
        {
          "internalType": "address",
          "name": "_tokenAddress",
          "type": "address"
        },
        {
          "internalType": "uint256",
          "name": "_takeValue",
          "type": "uint256"
        }
      ],
      "name": "workerTakeLockedFund",
      "outputs": [
        {
          "internalType": "bool",
          "name": "_isDone",
          "type": "bool"
        }
      ],
      "stateMutability": "nonpayable",
      "type": "function"
    },
    {
      "inputs": [
        {
          "internalType": "address",
          "name": "_tokenAddress",
          "type": "address"
        },
        {
          "internalType": "uint256",
          "name": "_takingValue",
          "type": "uint256"
        }
      ],
      "name": "workerTakeSatisToken",
      "outputs": [
        {
          "internalType": "bool",
          "name": "_isDone",
          "type": "bool"
        }
      ],
      "stateMutability": "nonpayable",
      "type": "function"
    },
    {
      "inputs": [
        {
          "internalType": "address[]",
          "name": "_clientAddressList",
          "type": "address[]"
        },
        {
          "internalType": "address",
          "name": "_tokenAddress",
          "type": "address"
        },
        {
          "internalType": "uint256[]",
          "name": "_tokenValueList",
          "type": "uint256[]"
        },
        {
          "internalType": "uint256",
          "name": "_tier",
          "type": "uint256"
        }
      ],
      "name": "workerUnlockFund",
      "outputs": [
        {
          "internalType": "bool",
          "name": "_isDone",
          "type": "bool"
        }
      ],
      "stateMutability": "nonpayable",
      "type": "function"
    }
  ],
  "bytecode": "0x60806040523480156200001157600080fd5b5060405162002bf638038062002bf683398101604081905262000034916200015d565b6001600160a01b038216620000905760405162461bcd60e51b815260206004820152601660248201527f5a65726f206164647265737320666f722070726f78790000000000000000000060448201526064015b60405180910390fd5b6001600160a01b038116620000e85760405162461bcd60e51b815260206004820152601c60248201527f5a65726f206164647265737320666f72207369676d612070726f787900000000604482015260640162000087565b60078054336001600160a01b03199182168117909255600091825260066020526040909120805460ff191660011790556008805482166001600160a01b03948516179055600980549091169190921617905562000195565b80516001600160a01b03811681146200015857600080fd5b919050565b600080604083850312156200017157600080fd5b6200017c8362000140565b91506200018c6020840162000140565b90509250929050565b612a5180620001a56000396000f3fe608060405234801561001057600080fd5b50600436106101c45760003560e01c80638e70331e116100f9578063bf7ab90c11610097578063eac32a8e11610071578063eac32a8e1461044f578063ec55688914610462578063f2fde38b14610475578063fccb269d1461048857600080fd5b8063bf7ab90c146103ee578063d6f64f4014610401578063d7e0c6661461042c57600080fd5b806396163b20116100d357806396163b2014610395578063989fb193146103a8578063a158b21f146103bb578063af427a8a146103db57600080fd5b80638e70331e1461034257806391715170146103625780639178274a1461037557600080fd5b80635dd72c0f1161016657806373b5a9a91161014057806373b5a9a9146102de57806378811708146102f1578063837bb22b146103045780638da5cb5b1461032f57600080fd5b80635dd72c0f146102985780636bdb2510146102ab57806371b9952d146102be57600080fd5b80632b8e9d35116101a25780632b8e9d351461023f5780633c511a191461025f5780634ce1054d146102725780635bd428f21461028557600080fd5b80630111efb7146101c957806302a2912e146101de578063195c007b14610206575b600080fd5b6101dc6101d73660046124ec565b61049b565b005b6101f16101ec366004612529565b61058c565b60405190151581526020015b60405180910390f35b610231610214366004612553565b600160209081526000928352604080842090915290825290205481565b6040519081526020016101fd565b61025261024d366004612586565b61062b565b6040516101fd9190612606565b6101f161026d366004612619565b61071a565b6101dc6102803660046124ec565b6108e5565b6101f16102933660046126ea565b6109c6565b6101f16102a63660046127d8565b610c64565b6101f16102b93660046126ea565b610d24565b6102316102cc366004612814565b60056020526000908152604090205481565b6101dc6102ec366004612814565b610fa0565b6101f16102ff366004612529565b6110a4565b600954610317906001600160a01b031681565b6040516001600160a01b0390911681526020016101fd565b600754610317906001600160a01b031681565b610231610350366004612814565b60006020819052908152604090205481565b610252610370366004612586565b61121d565b610231610383366004612814565b60046020526000908152604090205481565b6101f16103a3366004612529565b611304565b6101f16103b6366004612619565b611395565b6102316103c9366004612814565b60036020526000908152604090205481565b6101f16103e9366004612529565b6117d7565b6101f16103fc366004612619565b61190c565b61023161040f366004612553565b600260209081526000928352604080842090915290825290205481565b6101f161043a366004612814565b60066020526000908152604090205460ff1681565b6101dc61045d366004612814565b611c4c565b600854610317906001600160a01b031681565b6101dc610483366004612814565b611d50565b6101f16104963660046126ea565b611e7a565b6007546001600160a01b031633146104e95760405162461bcd60e51b815260206004820152600c60248201526b2737ba1030b71030b236b4b760a11b60448201526064015b60405180910390fd5b60005b81518110156105515760016006600084848151811061050d5761050d61282f565b6020908102919091018101516001600160a01b03168252810191909152604001600020805460ff1916911515919091179055806105498161285b565b9150506104ec565b507f9e36e65aa003add44ff529b38d35a7fed088dd29f3ab43ee9ee17e449621ff988160405161058191906128af565b60405180910390a150565b3360009081526006602052604081205460ff1615156001146105df5760405162461bcd60e51b815260206004820152600c60248201526b2737ba1030903bb7b935b2b960a11b60448201526064016104e0565b826105f46001600160a01b03821633856120aa565b6001600160a01b0384166000908152600560205260408120805485929061061c9084906128c2565b90915550600195945050505050565b60606000835167ffffffffffffffff811115610649576106496123f3565b604051908082528060200260200182016040528015610672578160200160208202803683370190505b50905060005b845181101561071257600160008683815181106106975761069761282f565b60200260200101516001600160a01b03166001600160a01b031681526020019081526020016000206000856001600160a01b03166001600160a01b03168152602001908152602001600020548282815181106106f5576106f561282f565b60209081029190910101528061070a8161285b565b915050610678565b509392505050565b3360009081526006602052604081205460ff16151560011461076d5760405162461bcd60e51b815260206004820152600c60248201526b2737ba1030903bb7b935b2b960a11b60448201526064016104e0565b816002141561082a5760005b8551811015610824578381815181106107945761079461282f565b6020026020010151600260008884815181106107b2576107b261282f565b60200260200101516001600160a01b03166001600160a01b031681526020019081526020016000206000876001600160a01b03166001600160a01b03168152602001908152602001600020600082825461080c91906128c2565b9091555081905061081c8161285b565b915050610779565b506108da565b60005b85518110156108d8578381815181106108485761084861282f565b6020026020010151600160008884815181106108665761086661282f565b60200260200101516001600160a01b03166001600160a01b031681526020019081526020016000206000876001600160a01b03166001600160a01b0316815260200190815260200160002060008282546108c091906128c2565b909155508190506108d08161285b565b91505061082d565b505b506001949350505050565b6007546001600160a01b0316331461092e5760405162461bcd60e51b815260206004820152600c60248201526b2737ba1030b71030b236b4b760a11b60448201526064016104e0565b60005b8151811015610996576000600660008484815181106109525761095261282f565b6020908102919091018101516001600160a01b03168252810191909152604001600020805460ff19169115159190911790558061098e8161285b565b915050610931565b507f76fe8505b7c4b7ba022031c51ac725c7177670399af7d2ebca7026b7e25bf8938160405161058191906128af565b6008546000906001600160a01b03163314806109ec57506009546001600160a01b031633145b610a385760405162461bcd60e51b815260206004820152601a60248201527f506c65617365207573652070726f787920636f6e74726163742e00000000000060448201526064016104e0565b6001600160a01b03831630148015610a4f57504684145b610a9b5760405162461bcd60e51b815260206004820152601d60248201527f57726f6e6720636861696e202f2074617267657420636f6e747261637400000060448201526064016104e0565b600754604051634771dd5360e01b815260009173__$69987189fafd81b06474425565233fa135$__91634771dd5391610af2916001600160a01b03909116908e908e908e908e908e908e908e908e90600401612931565b602060405180830381865af4158015610b0f573d6000803e3d6000fd5b505050506040513d601f19601f82011682018060405250810190610b339190612992565b9050600181151514610b875760405162461bcd60e51b815260206004820152601c60248201527f5369676e617475726520766572696669636174696f6e206661696c730000000060448201526064016104e0565b6001600160a01b038816600090815260056020526040902054871115610bef5760405162461bcd60e51b815260206004820152601960248201527f496e73696666696369656e7420534154495320546f6b656e730000000000000060448201526064016104e0565b610bfa8360016129b4565b6001600160a01b03808b166000908152600460205260409020919091558890610c269082168b8a6120aa565b6001600160a01b038916600090815260056020526040812080548a9290610c4e9084906128c2565b9091555060019c9b505050505050505050505050565b6008546000906001600160a01b0316331480610c8a57506009546001600160a01b031633145b610cd65760405162461bcd60e51b815260206004820152601a60248201527f506c65617365207573652070726f787920636f6e74726163742e00000000000060448201526064016104e0565b82610cec6001600160a01b03821686308661213f565b6001600160a01b03841660009081526020819052604081208054859290610d149084906129b4565b9091555060019695505050505050565b6008546000906001600160a01b0316331480610d4a57506009546001600160a01b031633145b610d965760405162461bcd60e51b815260206004820152601a60248201527f506c65617365207573652070726f787920636f6e74726163742e00000000000060448201526064016104e0565b6001600160a01b03831630148015610dad57504684145b610df95760405162461bcd60e51b815260206004820152601d60248201527f57726f6e6720636861696e202f2074617267657420636f6e747261637400000060448201526064016104e0565b600754604051634771dd5360e01b815260009173__$69987189fafd81b06474425565233fa135$__91634771dd5391610e50916001600160a01b03909116908e908e908e908e908e908e908e908e90600401612931565b602060405180830381865af4158015610e6d573d6000803e3d6000fd5b505050506040513d601f19601f82011682018060405250810190610e919190612992565b905080610f065760405162461bcd60e51b815260206004820152602860248201527f5369676e617475726520766572696669636174696f6e20666f7220717565756960448201527f6e67206661696c7300000000000000000000000000000000000000000000000060648201526084016104e0565b610f118360016129b4565b6001600160a01b03808b16600090815260046020908152604080832094909455918b1681526003909152908120805460019290610f4f9084906129b4565b90915550506001600160a01b03808a166000908152600260209081526040808320938c1683529290529081208054899290610f8b9084906129b4565b9091555060019b9a5050505050505050505050565b3360009081526006602052604090205460ff161515600114610ff35760405162461bcd60e51b815260206004820152600c60248201526b2737ba1030903bb7b935b2b960a11b60448201526064016104e0565b6001600160a01b0381166110495760405162461bcd60e51b815260206004820181905260248201527f5a65726f206164647265737320666f72206e6577207369676d612070726f787960448201526064016104e0565b6009805473ffffffffffffffffffffffffffffffffffffffff19166001600160a01b0383169081179091556040519081527fecf3a480426d45df3182212195e583631b547e451781f28d0e3c0df9d02921ec90602001610581565b3360009081526006602052604081205460ff1615156001146110f75760405162461bcd60e51b815260206004820152600c60248201526b2737ba1030903bb7b935b2b960a11b60448201526064016104e0565b6001600160a01b0383166000908152602081905260409020548211156111855760405162461bcd60e51b815260206004820152602e60248201527f54616b696e67206d6f7265207468616e20746865206c6f636b6564206173736560448201527f747320696e20636f6e747261637400000000000000000000000000000000000060648201526084016104e0565b6001600160a01b0383166000908152602081905260408120805485928592916111af9084906128c2565b909155506111c990506001600160a01b03821633856120aa565b604080513381526001600160a01b03861660208201529081018490527f9ba9e797375fa882aa9cf090f979bd40387648913471857d96fe30e4c3c16187906060015b60405180910390a15060019392505050565b60606000835167ffffffffffffffff81111561123b5761123b6123f3565b604051908082528060200260200182016040528015611264578160200160208202803683370190505b50905060005b845181101561071257600260008683815181106112895761128961282f565b60200260200101516001600160a01b03166001600160a01b031681526020019081526020016000206000856001600160a01b03166001600160a01b03168152602001908152602001600020548282815181106112e7576112e761282f565b6020908102919091010152806112fc8161285b565b91505061126a565b3360009081526006602052604081205460ff1615156001146113575760405162461bcd60e51b815260206004820152600c60248201526b2737ba1030903bb7b935b2b960a11b60448201526064016104e0565b8261136d6001600160a01b03821633308661213f565b6001600160a01b0384166000908152600560205260408120805485929061061c9084906129b4565b3360009081526006602052604081205460ff1615156001146113e85760405162461bcd60e51b815260206004820152600c60248201526b2737ba1030903bb7b935b2b960a11b60448201526064016104e0565b6001600160a01b0384166000908152602081905260409020548390839081151580611414575060008351115b6114735760405162461bcd60e51b815260206004820152602a60248201527f5a65726f2064756d702076616c756520616e64207a65726f207175657565206c6044820152690d2e6e840d8cadccee8d60b31b60648201526084016104e0565b6000805b84518110156114b9578481815181106114925761149261282f565b6020026020010151826114a591906129b4565b9150806114b18161285b565b915050611477565b506114c483836129b4565b8111156115265760405162461bcd60e51b815260206004820152602a60248201527f44756d702076616c7565202b20706f6f6c20617373657473203c2071756575656044820152692076616c75652073756d60b01b60648201526084016104e0565b86518951146115775760405162461bcd60e51b815260206004820152601660248201527f4c69737473206c656e677468206e6f74206d617463680000000000000000000060448201526064016104e0565b8786156115c1576115936001600160a01b03821633308a61213f565b6001600160a01b038916600090815260208190526040812080548992906115bb9084906129b4565b90915550505b8951156117595760005b8a5181101561171a576116248b82815181106115e9576115e961282f565b60200260200101518a83815181106116035761160361282f565b6020026020010151846001600160a01b03166120aa9092919063ffffffff16565b8881815181106116365761163661282f565b60200260200101516000808c6001600160a01b03166001600160a01b03168152602001908152602001600020600082825461167191906128c2565b9250508190555088818151811061168a5761168a61282f565b6020026020010151600260008d84815181106116a8576116a861282f565b60200260200101516001600160a01b03166001600160a01b0316815260200190815260200160002060008c6001600160a01b03166001600160a01b03168152602001908152602001600020600082825461170291906128c2565b909155508190506117128161285b565b9150506115cb565b507fee4017fa461e4c1c3734069ff36425ce769fb10b77dfe81aaaebe639cfd08b7b338b8b8b60405161175094939291906129cc565b60405180910390a15b6001600160a01b0389166000908152600360205260409020548a5110611797576001600160a01b0389166000908152600360205260408120556117c7565b89516001600160a01b038a16600090815260036020526040812080549091906117c19084906128c2565b90915550505b5060019998505050505050505050565b6007546000906001600160a01b031633146118235760405162461bcd60e51b815260206004820152600c60248201526b2737ba1030b71030b236b4b760a11b60448201526064016104e0565b6001600160a01b03831660009081526020819052604090205482111561188b5760405162461bcd60e51b815260206004820152601a60248201527f4e6f7420656e6f7567682062616c616e636520746f2074616b6500000000000060448201526064016104e0565b826118a06001600160a01b03821633856120aa565b6001600160a01b038416600090815260208190526040812080548592906118c89084906128c2565b9091555050604080516001600160a01b0386168152602081018590527f72d6f02251fe2edca9d1db10b7db097c619987829aa24dd834ce90d66319e2d5910161120b565b3360009081526006602052604081205460ff16151560011461195f5760405162461bcd60e51b815260206004820152600c60248201526b2737ba1030903bb7b935b2b960a11b60448201526064016104e0565b6001600160a01b038416600090815260208190526040902054839083908115158061198b575060008351115b6119ea5760405162461bcd60e51b815260206004820152602a60248201527f5a65726f2064756d702076616c756520616e64207a65726f207175657565206c6044820152690d2e6e840d8cadccee8d60b31b60648201526084016104e0565b6000805b8451811015611a3057848181518110611a0957611a0961282f565b602002602001015182611a1c91906129b4565b915080611a288161285b565b9150506119ee565b50611a3b83836129b4565b811115611a9d5760405162461bcd60e51b815260206004820152602a60248201527f44756d702076616c7565202b20706f6f6c20617373657473203c2071756575656044820152692076616c75652073756d60b01b60648201526084016104e0565b878615611ae757611ab96001600160a01b03821633308a61213f565b6001600160a01b03891660009081526020819052604081208054899290611ae19084906129b4565b90915550505b60005b8a51811015611bfe57611b088b82815181106115e9576115e961282f565b888181518110611b1a57611b1a61282f565b60200260200101516000808c6001600160a01b03166001600160a01b031681526020019081526020016000206000828254611b5591906128c2565b92505081905550888181518110611b6e57611b6e61282f565b6020026020010151600160008d8481518110611b8c57611b8c61282f565b60200260200101516001600160a01b03166001600160a01b0316815260200190815260200160002060008c6001600160a01b03166001600160a01b031681526020019081526020016000206000828254611be691906128c2565b90915550819050611bf68161285b565b915050611aea565b507fbfd6d077575843694efa473ca9a33dc8987287f7d2295309a78c73302b5693a0338b8b8b604051611c3494939291906129cc565b60405180910390a15060019998505050505050505050565b3360009081526006602052604090205460ff161515600114611c9f5760405162461bcd60e51b815260206004820152600c60248201526b2737ba1030903bb7b935b2b960a11b60448201526064016104e0565b6001600160a01b038116611cf55760405162461bcd60e51b815260206004820152601a60248201527f5a65726f206164647265737320666f72206e65772070726f787900000000000060448201526064016104e0565b6008805473ffffffffffffffffffffffffffffffffffffffff19166001600160a01b0383169081179091556040519081527fcf16493c33f7a5001593c6b3158b6613c39a56bed7e2fe27f83a7ee297b6e32a90602001610581565b6007546001600160a01b03163314611d995760405162461bcd60e51b815260206004820152600c60248201526b2737ba1030b71030b236b4b760a11b60448201526064016104e0565b6001600160a01b038116611def5760405162461bcd60e51b815260206004820152601a60248201527f5a65726f206164647265737320666f72206e6577206f776e657200000000000060448201526064016104e0565b600780546001600160a01b039081166000908152600660209081526040808320805460ff19908116909155855473ffffffffffffffffffffffffffffffffffffffff1916948716948517909555838352918290208054909416600117909355519081527f244ded7a3b73e60f03281fc183df050e6134d393c50788e980dc090f06e728099101610581565b6008546000906001600160a01b0316331480611ea057506009546001600160a01b031633145b611eec5760405162461bcd60e51b815260206004820152601a60248201527f506c65617365207573652070726f787920636f6e74726163742e00000000000060448201526064016104e0565b6001600160a01b03831630148015611f0357504684145b611f4f5760405162461bcd60e51b815260206004820152601d60248201527f57726f6e6720636861696e202f2074617267657420636f6e747261637400000060448201526064016104e0565b600754604051634771dd5360e01b815260009173__$69987189fafd81b06474425565233fa135$__91634771dd5391611fa6916001600160a01b03909116908e908e908e908e908e908e908e908e90600401612931565b602060405180830381865af4158015611fc3573d6000803e3d6000fd5b505050506040513d601f19601f82011682018060405250810190611fe79190612992565b90508061205c5760405162461bcd60e51b815260206004820152603360248201527f5369676e617475726520766572696669636174696f6e20666f7220696e73746160448201527f6e74207769746864726177616c206661696c730000000000000000000000000060648201526084016104e0565b6120678360016129b4565b6001600160a01b03808b1660009081526004602090815260408083209490945560018152838220928c168252919091529081208054899290610f8b9084906129b4565b6040516001600160a01b03831660248201526044810182905261213a90849063a9059cbb60e01b906064015b60408051601f198184030181529190526020810180517bffffffffffffffffffffffffffffffffffffffffffffffffffffffff167fffffffff000000000000000000000000000000000000000000000000000000009093169290921790915261217d565b505050565b6040516001600160a01b03808516602483015283166044820152606481018290526121779085906323b872dd60e01b906084016120d6565b50505050565b60006121d2826040518060400160405280602081526020017f5361666545524332303a206c6f772d6c6576656c2063616c6c206661696c6564815250856001600160a01b03166122629092919063ffffffff16565b80519091501561213a57808060200190518101906121f09190612992565b61213a5760405162461bcd60e51b815260206004820152602a60248201527f5361666545524332303a204552433230206f7065726174696f6e20646964206e60448201527f6f7420737563636565640000000000000000000000000000000000000000000060648201526084016104e0565b6060612271848460008561227b565b90505b9392505050565b6060824710156122f35760405162461bcd60e51b815260206004820152602660248201527f416464726573733a20696e73756666696369656e742062616c616e636520666f60448201527f722063616c6c000000000000000000000000000000000000000000000000000060648201526084016104e0565b843b6123415760405162461bcd60e51b815260206004820152601d60248201527f416464726573733a2063616c6c20746f206e6f6e2d636f6e747261637400000060448201526064016104e0565b600080866001600160a01b0316858760405161235d9190612a15565b60006040518083038185875af1925050503d806000811461239a576040519150601f19603f3d011682016040523d82523d6000602084013e61239f565b606091505b50915091506123af8282866123ba565b979650505050505050565b606083156123c9575081612274565b8251156123d95782518084602001fd5b8160405162461bcd60e51b81526004016104e09190612a31565b634e487b7160e01b600052604160045260246000fd5b604051601f8201601f1916810167ffffffffffffffff81118282101715612432576124326123f3565b604052919050565b600067ffffffffffffffff821115612454576124546123f3565b5060051b60200190565b80356001600160a01b038116811461247557600080fd5b919050565b600082601f83011261248b57600080fd5b813560206124a061249b8361243a565b612409565b82815260059290921b840181019181810190868411156124bf57600080fd5b8286015b848110156124e1576124d48161245e565b83529183019183016124c3565b509695505050505050565b6000602082840312156124fe57600080fd5b813567ffffffffffffffff81111561251557600080fd5b6125218482850161247a565b949350505050565b6000806040838503121561253c57600080fd5b6125458361245e565b946020939093013593505050565b6000806040838503121561256657600080fd5b61256f8361245e565b915061257d6020840161245e565b90509250929050565b6000806040838503121561259957600080fd5b823567ffffffffffffffff8111156125b057600080fd5b6125bc8582860161247a565b92505061257d6020840161245e565b600081518084526020808501945080840160005b838110156125fb578151875295820195908201906001016125df565b509495945050505050565b60208152600061227460208301846125cb565b6000806000806080858703121561262f57600080fd5b843567ffffffffffffffff8082111561264757600080fd5b6126538883890161247a565b95506020915061266482880161245e565b945060408701358181111561267857600080fd5b87019050601f8101881361268b57600080fd5b803561269961249b8261243a565b81815260059190911b8201830190838101908a8311156126b857600080fd5b928401925b828410156126d6578335825292840192908401906126bd565b979a96995096976060013596505050505050565b600080600080600080600080610100898b03121561270757600080fd5b883567ffffffffffffffff8082111561271f57600080fd5b818b0191508b601f83011261273357600080fd5b8135602082821115612747576127476123f3565b612759601f8301601f19168201612409565b92508183528d8183860101111561276f57600080fd5b81818501828501376000818385010152829b5061278d818e0161245e565b9a505050505061279f60408a0161245e565b9550606089013594506080890135935060a089013592506127c260c08a0161245e565b915060e089013590509295985092959890939650565b6000806000606084860312156127ed57600080fd5b6127f68461245e565b92506128046020850161245e565b9150604084013590509250925092565b60006020828403121561282657600080fd5b6122748261245e565b634e487b7160e01b600052603260045260246000fd5b634e487b7160e01b600052601160045260246000fd5b600060001982141561286f5761286f612845565b5060010190565b600081518084526020808501945080840160005b838110156125fb5781516001600160a01b03168752958201959082019060010161288a565b6020815260006122746020830184612876565b6000828210156128d4576128d4612845565b500390565b60005b838110156128f45781810151838201526020016128dc565b838111156121775750506000910152565b6000815180845261291d8160208601602086016128d9565b601f01601f19169290920160200192915050565b60006101206001600160a01b03808d1684528160208501526129558285018d612905565b9a8116604085015298891660608401525050608081019590955260a085019390935260c084019190915290921660e0820152610100015292915050565b6000602082840312156129a457600080fd5b8151801515811461227457600080fd5b600082198211156129c7576129c7612845565b500190565b60006001600160a01b038087168352608060208401526129ef6080840187612876565b81861660408501528381036060850152612a0981866125cb565b98975050505050505050565b60008251612a278184602087016128d9565b9190910192915050565b602081526000612274602083018461290556fea164736f6c634300080c000a",
  "linkReferences": {
    "contracts/v2/satis_core/MoneyPoolRaw.sol": {
      "MultiSig": [
        {
          "length": 20,
          "start": 3157
        },
        {
          "length": 20,
          "start": 4019
        },
        {
          "length": 20,
          "start": 8457
        }
      ]
    }
  },
  "deployedLinkReferences": {
    "contracts/v2/satis_core/MoneyPoolRaw.sol": {
      "MultiSig": [
        {
          "length": 20,
          "start": 2736
        },
        {
          "length": 20,
          "start": 3598
        },
        {
          "length": 20,
          "start": 8036
        }
      ]
    }
  }
}