{
  "_format": "hh-sol-artifact-1",
  "contractName": "MoneyPoolRaw",
  "sourceName": "contracts/v2/satis_core/MoneyPoolRaw.sol",
  "abi": [
    {
      "inputs": [
        {
          "internalType": "address",
          "name": "_initialProxyAddress",
          "type": "address"
        },
        {
          "internalType": "address",
          "name": "_initialSigmaProxyAddress",
          "type": "address"
        }
      ],
      "stateMutability": "nonpayable",
      "type": "constructor"
    },
    {
      "anonymous": false,
      "inputs": [
        {
          "indexed": false,
          "internalType": "address[]",
          "name": "addWorkerList",
          "type": "address[]"
        }
      ],
      "name": "AddWorkers",
      "type": "event"
    },
    {
      "anonymous": false,
      "inputs": [
        {
          "indexed": false,
          "internalType": "address",
          "name": "newOwner",
          "type": "address"
        }
      ],
      "name": "ChangeOwnership",
      "type": "event"
    },
    {
      "anonymous": false,
      "inputs": [
        {
          "indexed": false,
          "internalType": "address",
          "name": "newProxy",
          "type": "address"
        }
      ],
      "name": "ChangeProxy",
      "type": "event"
    },
    {
      "anonymous": false,
      "inputs": [
        {
          "indexed": false,
          "internalType": "address",
          "name": "newSigmaProxy",
          "type": "address"
        }
      ],
      "name": "ChangeSigmaProxy",
      "type": "event"
    },
    {
      "anonymous": false,
      "inputs": [
        {
          "indexed": false,
          "internalType": "address",
          "name": "tokenAddress",
          "type": "address"
        },
        {
          "indexed": false,
          "internalType": "uint256",
          "name": "takeProfitValue",
          "type": "uint256"
        }
      ],
      "name": "OwnerTakeProfit",
      "type": "event"
    },
    {
      "anonymous": false,
      "inputs": [
        {
          "indexed": false,
          "internalType": "address[]",
          "name": "removeWorkerList",
          "type": "address[]"
        }
      ],
      "name": "RemoveWorkers",
      "type": "event"
    },
    {
      "anonymous": false,
      "inputs": [
        {
          "indexed": false,
          "internalType": "address",
          "name": "workerAddress",
          "type": "address"
        },
        {
          "indexed": false,
          "internalType": "address[]",
          "name": "clientAddressList",
          "type": "address[]"
        },
        {
          "indexed": false,
          "internalType": "address",
          "name": "tokenAddress",
          "type": "address"
        },
        {
          "indexed": false,
          "internalType": "uint256[]",
          "name": "dumpValueList",
          "type": "uint256[]"
        }
      ],
      "name": "WorkerDumpBridgedFund",
      "type": "event"
    },
    {
      "anonymous": false,
      "inputs": [
        {
          "indexed": false,
          "internalType": "address",
          "name": "workerAddress",
          "type": "address"
        },
        {
          "indexed": false,
          "internalType": "address[]",
          "name": "_clientAddressList",
          "type": "address[]"
        },
        {
          "indexed": false,
          "internalType": "address",
          "name": "_tokenAddress",
          "type": "address"
        },
        {
          "indexed": false,
          "internalType": "uint256[]",
          "name": "_instantWithdrawValueList",
          "type": "uint256[]"
        }
      ],
      "name": "WorkerDumpInstantWithdrawFund",
      "type": "event"
    },
    {
      "anonymous": false,
      "inputs": [
        {
          "indexed": false,
          "internalType": "address",
          "name": "workerAddress",
          "type": "address"
        },
        {
          "indexed": false,
          "internalType": "address",
          "name": "tokenAddress",
          "type": "address"
        },
        {
          "indexed": false,
          "internalType": "uint256",
          "name": "takeValue",
          "type": "uint256"
        }
      ],
      "name": "WorkerTakeLockedFund",
      "type": "event"
    },
    {
      "inputs": [
        {
          "internalType": "address",
          "name": "_clientAddress",
          "type": "address"
        },
        {
          "internalType": "address",
          "name": "_tokenAddress",
          "type": "address"
        },
        {
          "internalType": "uint256",
          "name": "_addValue",
          "type": "uint256"
        }
      ],
      "name": "addFundWithAction",
      "outputs": [
        {
          "internalType": "bool",
          "name": "_isDone",
          "type": "bool"
        }
      ],
      "stateMutability": "nonpayable",
      "type": "function"
    },
    {
      "inputs": [
        {
          "internalType": "address[]",
          "name": "_addWorkerList",
          "type": "address[]"
        }
      ],
      "name": "addWorkers",
      "outputs": [],
      "stateMutability": "nonpayable",
      "type": "function"
    },
    {
      "inputs": [
        {
          "internalType": "address",
          "name": "",
          "type": "address"
        }
      ],
      "name": "clientNonce",
      "outputs": [
        {
          "internalType": "uint256",
          "name": "",
          "type": "uint256"
        }
      ],
      "stateMutability": "view",
      "type": "function"
    },
    {
      "inputs": [
        {
          "internalType": "address",
          "name": "_tokenAddress",
          "type": "address"
        },
        {
          "internalType": "uint256",
          "name": "_fundingValue",
          "type": "uint256"
        }
      ],
      "name": "fundSatisToken",
      "outputs": [
        {
          "internalType": "bool",
          "name": "_isDone",
          "type": "bool"
        }
      ],
      "stateMutability": "nonpayable",
      "type": "function"
    },
    {
      "inputs": [
        {
          "internalType": "address[]",
          "name": "_clientAddressList",
          "type": "address[]"
        },
        {
          "internalType": "address",
          "name": "_tokenAddress",
          "type": "address"
        }
      ],
      "name": "getClientInstantWithdrawReserve",
      "outputs": [
        {
          "internalType": "uint256[]",
          "name": "",
          "type": "uint256[]"
        }
      ],
      "stateMutability": "view",
      "type": "function"
    },
    {
      "inputs": [
        {
          "internalType": "address[]",
          "name": "_clientAddressList",
          "type": "address[]"
        },
        {
          "internalType": "address",
          "name": "_tokenAddress",
          "type": "address"
        }
      ],
      "name": "getClientQueueValue",
      "outputs": [
        {
          "internalType": "uint256[]",
          "name": "",
          "type": "uint256[]"
        }
      ],
      "stateMutability": "view",
      "type": "function"
    },
    {
      "inputs": [
        {
          "internalType": "address",
          "name": "",
          "type": "address"
        },
        {
          "internalType": "address",
          "name": "",
          "type": "address"
        }
      ],
      "name": "instantWithdrawReserve",
      "outputs": [
        {
          "internalType": "uint256",
          "name": "",
          "type": "uint256"
        }
      ],
      "stateMutability": "view",
      "type": "function"
    },
    {
      "inputs": [],
      "name": "owner",
      "outputs": [
        {
          "internalType": "address",
          "name": "",
          "type": "address"
        }
      ],
      "stateMutability": "view",
      "type": "function"
    },
    {
      "inputs": [
        {
          "internalType": "address",
          "name": "_tokenAddress",
          "type": "address"
        },
        {
          "internalType": "uint256",
          "name": "_takeProfitValue",
          "type": "uint256"
        }
      ],
      "name": "ownerTakeProfit",
      "outputs": [
        {
          "internalType": "bool",
          "name": "_isDone",
          "type": "bool"
        }
      ],
      "stateMutability": "nonpayable",
      "type": "function"
    },
    {
      "inputs": [],
      "name": "proxy",
      "outputs": [
        {
          "internalType": "address",
          "name": "",
          "type": "address"
        }
      ],
      "stateMutability": "view",
      "type": "function"
    },
    {
      "inputs": [
        {
          "internalType": "address",
          "name": "",
          "type": "address"
        }
      ],
      "name": "queueCount",
      "outputs": [
        {
          "internalType": "uint256",
          "name": "",
          "type": "uint256"
        }
      ],
      "stateMutability": "view",
      "type": "function"
    },
    {
      "inputs": [
        {
          "internalType": "address[]",
          "name": "_removeWorkerList",
          "type": "address[]"
        }
      ],
      "name": "removeWorkers",
      "outputs": [],
      "stateMutability": "nonpayable",
      "type": "function"
    },
    {
      "inputs": [
        {
          "internalType": "address",
          "name": "",
          "type": "address"
        }
      ],
      "name": "satisTokenBalance",
      "outputs": [
        {
          "internalType": "uint256",
          "name": "",
          "type": "uint256"
        }
      ],
      "stateMutability": "view",
      "type": "function"
    },
    {
      "inputs": [],
      "name": "sigmaProxy",
      "outputs": [
        {
          "internalType": "address",
          "name": "",
          "type": "address"
        }
      ],
      "stateMutability": "view",
      "type": "function"
    },
    {
      "inputs": [
        {
          "internalType": "address",
          "name": "",
          "type": "address"
        }
      ],
      "name": "totalLockedAssets",
      "outputs": [
        {
          "internalType": "uint256",
          "name": "",
          "type": "uint256"
        }
      ],
      "stateMutability": "view",
      "type": "function"
    },
    {
      "inputs": [
        {
          "internalType": "address",
          "name": "_newOwner",
          "type": "address"
        }
      ],
      "name": "transferOwnership",
      "outputs": [],
      "stateMutability": "nonpayable",
      "type": "function"
    },
    {
      "inputs": [
        {
          "internalType": "address",
          "name": "_newProxyAddress",
          "type": "address"
        }
      ],
      "name": "updateProxyAddress",
      "outputs": [],
      "stateMutability": "nonpayable",
      "type": "function"
    },
    {
      "inputs": [
        {
          "internalType": "address",
          "name": "_newSigmaProxyAddress",
          "type": "address"
        }
      ],
      "name": "updateSigmaProxyAddress",
      "outputs": [],
      "stateMutability": "nonpayable",
      "type": "function"
    },
    {
      "inputs": [
        {
          "internalType": "bytes",
          "name": "_targetSignature",
          "type": "bytes"
        },
        {
          "internalType": "address",
          "name": "_clientAddress",
          "type": "address"
        },
        {
          "internalType": "address",
          "name": "_tokenAddress",
          "type": "address"
        },
        {
          "internalType": "uint256",
          "name": "_queueValue",
          "type": "uint256"
        },
        {
          "internalType": "uint256",
          "name": "_tier",
          "type": "uint256"
        },
        {
          "internalType": "uint256",
          "name": "_chainId",
          "type": "uint256"
        },
        {
          "internalType": "address",
          "name": "_poolAddress",
          "type": "address"
        },
        {
          "internalType": "uint256",
          "name": "_nonce",
          "type": "uint256"
        }
      ],
      "name": "verifyAndQueue",
      "outputs": [
        {
          "internalType": "bool",
          "name": "_isDone",
          "type": "bool"
        }
      ],
      "stateMutability": "nonpayable",
      "type": "function"
    },
    {
      "inputs": [
        {
          "internalType": "bytes",
          "name": "_targetSignature",
          "type": "bytes"
        },
        {
          "internalType": "address",
          "name": "_clientAddress",
          "type": "address"
        },
        {
          "internalType": "address",
          "name": "_tokenAddress",
          "type": "address"
        },
        {
          "internalType": "uint256",
          "name": "_redeemValue",
          "type": "uint256"
        },
        {
          "internalType": "uint256",
          "name": "_tier",
          "type": "uint256"
        },
        {
          "internalType": "uint256",
          "name": "_chainId",
          "type": "uint256"
        },
        {
          "internalType": "address",
          "name": "_poolAddress",
          "type": "address"
        },
        {
          "internalType": "uint256",
          "name": "_nonce",
          "type": "uint256"
        }
      ],
      "name": "verifyAndRedeemToken",
      "outputs": [
        {
          "internalType": "bool",
          "name": "_isDone",
          "type": "bool"
        }
      ],
      "stateMutability": "nonpayable",
      "type": "function"
    },
    {
      "inputs": [
        {
          "internalType": "bytes",
          "name": "_targetSignature",
          "type": "bytes"
        },
        {
          "internalType": "address",
          "name": "_clientAddress",
          "type": "address"
        },
        {
          "internalType": "address",
          "name": "_tokenAddress",
          "type": "address"
        },
        {
          "internalType": "uint256",
          "name": "_withdrawValue",
          "type": "uint256"
        },
        {
          "internalType": "uint256",
          "name": "_tier",
          "type": "uint256"
        },
        {
          "internalType": "uint256",
          "name": "_chainId",
          "type": "uint256"
        },
        {
          "internalType": "address",
          "name": "_poolAddress",
          "type": "address"
        },
        {
          "internalType": "uint256",
          "name": "_nonce",
          "type": "uint256"
        }
      ],
      "name": "verifyAndWithdrawFund",
      "outputs": [
        {
          "internalType": "bool",
          "name": "_isDone",
          "type": "bool"
        }
      ],
      "stateMutability": "nonpayable",
      "type": "function"
    },
    {
      "inputs": [
        {
          "internalType": "address",
          "name": "",
          "type": "address"
        },
        {
          "internalType": "address",
          "name": "",
          "type": "address"
        }
      ],
      "name": "withdrawalQueue",
      "outputs": [
        {
          "internalType": "uint256",
          "name": "",
          "type": "uint256"
        }
      ],
      "stateMutability": "view",
      "type": "function"
    },
    {
      "inputs": [
        {
          "internalType": "address[]",
          "name": "_clientAddressList",
          "type": "address[]"
        },
        {
          "internalType": "address",
          "name": "_tokenAddress",
          "type": "address"
        },
        {
          "internalType": "uint256[]",
          "name": "_instantWithdrawValueList",
          "type": "uint256[]"
        },
        {
          "internalType": "uint256",
          "name": "_totalDumpAmount",
          "type": "uint256"
        }
      ],
      "name": "workerDumpInstantWithdrawalFund",
      "outputs": [
        {
          "internalType": "bool",
          "name": "_isDone",
          "type": "bool"
        }
      ],
      "stateMutability": "nonpayable",
      "type": "function"
    },
    {
      "inputs": [
        {
          "internalType": "address[]",
          "name": "_clientAddressList",
          "type": "address[]"
        },
        {
          "internalType": "address",
          "name": "_tokenAddress",
          "type": "address"
        },
        {
          "internalType": "uint256[]",
          "name": "_queueValueList",
          "type": "uint256[]"
        },
        {
          "internalType": "uint256",
          "name": "_totalDumpAmount",
          "type": "uint256"
        }
      ],
      "name": "workerDumpRebalancedFund",
      "outputs": [
        {
          "internalType": "bool",
          "name": "_isDone",
          "type": "bool"
        }
      ],
      "stateMutability": "nonpayable",
      "type": "function"
    },
    {
      "inputs": [
        {
          "internalType": "address",
          "name": "",
          "type": "address"
        }
      ],
      "name": "workerList",
      "outputs": [
        {
          "internalType": "bool",
          "name": "",
          "type": "bool"
        }
      ],
      "stateMutability": "view",
      "type": "function"
    },
    {
      "inputs": [
        {
          "internalType": "address",
          "name": "_tokenAddress",
          "type": "address"
        },
        {
          "internalType": "uint256",
          "name": "_takeValue",
          "type": "uint256"
        }
      ],
      "name": "workerTakeLockedFund",
      "outputs": [
        {
          "internalType": "bool",
          "name": "_isDone",
          "type": "bool"
        }
      ],
      "stateMutability": "nonpayable",
      "type": "function"
    },
    {
      "inputs": [
        {
          "internalType": "address",
          "name": "_tokenAddress",
          "type": "address"
        },
        {
          "internalType": "uint256",
          "name": "_takingValue",
          "type": "uint256"
        }
      ],
      "name": "workerTakeSatisToken",
      "outputs": [
        {
          "internalType": "bool",
          "name": "_isDone",
          "type": "bool"
        }
      ],
      "stateMutability": "nonpayable",
      "type": "function"
    },
    {
      "inputs": [
        {
          "internalType": "address[]",
          "name": "_clientAddressList",
          "type": "address[]"
        },
        {
          "internalType": "address",
          "name": "_tokenAddress",
          "type": "address"
        },
        {
          "internalType": "uint256[]",
          "name": "_tokenValueList",
          "type": "uint256[]"
        }
      ],
      "name": "workerUnlockFund",
      "outputs": [
        {
          "internalType": "bool",
          "name": "_isDone",
          "type": "bool"
        }
      ],
      "stateMutability": "nonpayable",
      "type": "function"
    }
  ],
  "bytecode": "0x60806040523480156200001157600080fd5b5060405162002bb138038062002bb183398101604081905262000034916200015d565b6001600160a01b038216620000905760405162461bcd60e51b815260206004820152601660248201527f5a65726f206164647265737320666f722070726f78790000000000000000000060448201526064015b60405180910390fd5b6001600160a01b038116620000e85760405162461bcd60e51b815260206004820152601c60248201527f5a65726f206164647265737320666f72207369676d612070726f787900000000604482015260640162000087565b60078054336001600160a01b03199182168117909255600091825260066020526040909120805460ff191660011790556008805482166001600160a01b03948516179055600980549091169190921617905562000195565b80516001600160a01b03811681146200015857600080fd5b919050565b600080604083850312156200017157600080fd5b6200017c8362000140565b91506200018c6020840162000140565b90509250929050565b612a0c80620001a56000396000f3fe608060405234801561001057600080fd5b50600436106101c45760003560e01c80638e70331e116100f9578063bf7ab90c11610097578063eac32a8e11610071578063eac32a8e1461044f578063ec55688914610462578063f2fde38b14610475578063fccb269d1461048857600080fd5b8063bf7ab90c146103ee578063d6f64f4014610401578063d7e0c6661461042c57600080fd5b806396163b20116100d357806396163b2014610395578063989fb193146103a8578063a158b21f146103bb578063af427a8a146103db57600080fd5b80638e70331e1461034257806391715170146103625780639178274a1461037557600080fd5b80636bdb251011610166578063788117081161014057806378811708146102de5780637e69ec03146102f1578063837bb22b146103045780638da5cb5b1461032f57600080fd5b80636bdb25101461029857806371b9952d146102ab57806373b5a9a9146102cb57600080fd5b80632b8e9d35116101a25780632b8e9d351461023f5780634ce1054d1461025f5780635bd428f2146102725780635dd72c0f1461028557600080fd5b80630111efb7146101c957806302a2912e146101de578063195c007b14610206575b600080fd5b6101dc6101d736600461242d565b61049b565b005b6101f16101ec36600461246a565b61058c565b60405190151581526020015b60405180910390f35b610231610214366004612494565b600160209081526000928352604080842090915290825290205481565b6040519081526020016101fd565b61025261024d3660046124c7565b61062b565b6040516101fd9190612547565b6101dc61026d36600461242d565b61071a565b6101f161028036600461255a565b6107fb565b6101f1610293366004612648565b610a99565b6101f16102a636600461255a565b610b59565b6102316102b9366004612684565b60056020526000908152604090205481565b6101dc6102d9366004612684565b610dd5565b6101f16102ec36600461246a565b610ed9565b6101f16102ff3660046126fa565b611052565b600954610317906001600160a01b031681565b6040516001600160a01b0390911681526020016101fd565b600754610317906001600160a01b031681565b610231610350366004612684565b60006020819052908152604090205481565b6102526103703660046124c7565b61115e565b610231610383366004612684565b60046020526000908152604090205481565b6101f16103a336600461246a565b611245565b6101f16103b636600461276e565b6112d6565b6102316103c9366004612684565b60036020526000908152604090205481565b6101f16103e936600461246a565b611718565b6101f16103fc36600461276e565b61184d565b61023161040f366004612494565b600260209081526000928352604080842090915290825290205481565b6101f161043a366004612684565b60066020526000908152604090205460ff1681565b6101dc61045d366004612684565b611b8d565b600854610317906001600160a01b031681565b6101dc610483366004612684565b611c91565b6101f161049636600461255a565b611dbb565b6007546001600160a01b031633146104e95760405162461bcd60e51b815260206004820152600c60248201526b2737ba1030b71030b236b4b760a11b60448201526064015b60405180910390fd5b60005b81518110156105515760016006600084848151811061050d5761050d6127ea565b6020908102919091018101516001600160a01b03168252810191909152604001600020805460ff19169115159190911790558061054981612816565b9150506104ec565b507f9e36e65aa003add44ff529b38d35a7fed088dd29f3ab43ee9ee17e449621ff9881604051610581919061286a565b60405180910390a150565b3360009081526006602052604081205460ff1615156001146105df5760405162461bcd60e51b815260206004820152600c60248201526b2737ba1030903bb7b935b2b960a11b60448201526064016104e0565b826105f46001600160a01b0382163385611feb565b6001600160a01b0384166000908152600560205260408120805485929061061c90849061287d565b90915550600195945050505050565b60606000835167ffffffffffffffff81111561064957610649612334565b604051908082528060200260200182016040528015610672578160200160208202803683370190505b50905060005b84518110156107125760016000868381518110610697576106976127ea565b60200260200101516001600160a01b03166001600160a01b031681526020019081526020016000206000856001600160a01b03166001600160a01b03168152602001908152602001600020548282815181106106f5576106f56127ea565b60209081029190910101528061070a81612816565b915050610678565b509392505050565b6007546001600160a01b031633146107635760405162461bcd60e51b815260206004820152600c60248201526b2737ba1030b71030b236b4b760a11b60448201526064016104e0565b60005b81518110156107cb57600060066000848481518110610787576107876127ea565b6020908102919091018101516001600160a01b03168252810191909152604001600020805460ff1916911515919091179055806107c381612816565b915050610766565b507f76fe8505b7c4b7ba022031c51ac725c7177670399af7d2ebca7026b7e25bf89381604051610581919061286a565b6008546000906001600160a01b031633148061082157506009546001600160a01b031633145b61086d5760405162461bcd60e51b815260206004820152601a60248201527f506c65617365207573652070726f787920636f6e74726163742e00000000000060448201526064016104e0565b6001600160a01b0383163014801561088457504684145b6108d05760405162461bcd60e51b815260206004820152601d60248201527f57726f6e6720636861696e202f2074617267657420636f6e747261637400000060448201526064016104e0565b600754604051634771dd5360e01b815260009173__$69987189fafd81b06474425565233fa135$__91634771dd5391610927916001600160a01b03909116908e908e908e908e908e908e908e908e906004016128ec565b602060405180830381865af4158015610944573d6000803e3d6000fd5b505050506040513d601f19601f82011682018060405250810190610968919061294d565b90506001811515146109bc5760405162461bcd60e51b815260206004820152601c60248201527f5369676e617475726520766572696669636174696f6e206661696c730000000060448201526064016104e0565b6001600160a01b038816600090815260056020526040902054871115610a245760405162461bcd60e51b815260206004820152601960248201527f496e73696666696369656e7420534154495320546f6b656e730000000000000060448201526064016104e0565b610a2f83600161296f565b6001600160a01b03808b166000908152600460205260409020919091558890610a5b9082168b8a611feb565b6001600160a01b038916600090815260056020526040812080548a9290610a8390849061287d565b9091555060019c9b505050505050505050505050565b6008546000906001600160a01b0316331480610abf57506009546001600160a01b031633145b610b0b5760405162461bcd60e51b815260206004820152601a60248201527f506c65617365207573652070726f787920636f6e74726163742e00000000000060448201526064016104e0565b82610b216001600160a01b038216863086612080565b6001600160a01b03841660009081526020819052604081208054859290610b4990849061296f565b9091555060019695505050505050565b6008546000906001600160a01b0316331480610b7f57506009546001600160a01b031633145b610bcb5760405162461bcd60e51b815260206004820152601a60248201527f506c65617365207573652070726f787920636f6e74726163742e00000000000060448201526064016104e0565b6001600160a01b03831630148015610be257504684145b610c2e5760405162461bcd60e51b815260206004820152601d60248201527f57726f6e6720636861696e202f2074617267657420636f6e747261637400000060448201526064016104e0565b600754604051634771dd5360e01b815260009173__$69987189fafd81b06474425565233fa135$__91634771dd5391610c85916001600160a01b03909116908e908e908e908e908e908e908e908e906004016128ec565b602060405180830381865af4158015610ca2573d6000803e3d6000fd5b505050506040513d601f19601f82011682018060405250810190610cc6919061294d565b905080610d3b5760405162461bcd60e51b815260206004820152602860248201527f5369676e617475726520766572696669636174696f6e20666f7220717565756960448201527f6e67206661696c7300000000000000000000000000000000000000000000000060648201526084016104e0565b610d4683600161296f565b6001600160a01b03808b16600090815260046020908152604080832094909455918b1681526003909152908120805460019290610d8490849061296f565b90915550506001600160a01b03808a166000908152600260209081526040808320938c1683529290529081208054899290610dc090849061296f565b9091555060019b9a5050505050505050505050565b3360009081526006602052604090205460ff161515600114610e285760405162461bcd60e51b815260206004820152600c60248201526b2737ba1030903bb7b935b2b960a11b60448201526064016104e0565b6001600160a01b038116610e7e5760405162461bcd60e51b815260206004820181905260248201527f5a65726f206164647265737320666f72206e6577207369676d612070726f787960448201526064016104e0565b6009805473ffffffffffffffffffffffffffffffffffffffff19166001600160a01b0383169081179091556040519081527fecf3a480426d45df3182212195e583631b547e451781f28d0e3c0df9d02921ec90602001610581565b3360009081526006602052604081205460ff161515600114610f2c5760405162461bcd60e51b815260206004820152600c60248201526b2737ba1030903bb7b935b2b960a11b60448201526064016104e0565b6001600160a01b038316600090815260208190526040902054821115610fba5760405162461bcd60e51b815260206004820152602e60248201527f54616b696e67206d6f7265207468616e20746865206c6f636b6564206173736560448201527f747320696e20636f6e747261637400000000000000000000000000000000000060648201526084016104e0565b6001600160a01b038316600090815260208190526040812080548592859291610fe490849061287d565b90915550610ffe90506001600160a01b0382163385611feb565b604080513381526001600160a01b03861660208201529081018490527f9ba9e797375fa882aa9cf090f979bd40387648913471857d96fe30e4c3c16187906060015b60405180910390a15060019392505050565b3360009081526006602052604081205460ff1615156001146110a55760405162461bcd60e51b815260206004820152600c60248201526b2737ba1030903bb7b935b2b960a11b60448201526064016104e0565b60005b8451811015611153578281815181106110c3576110c36127ea565b6020026020010151600160008784815181106110e1576110e16127ea565b60200260200101516001600160a01b03166001600160a01b031681526020019081526020016000206000866001600160a01b03166001600160a01b03168152602001908152602001600020600082825461113b919061296f565b9091555081905061114b81612816565b9150506110a8565b506001949350505050565b60606000835167ffffffffffffffff81111561117c5761117c612334565b6040519080825280602002602001820160405280156111a5578160200160208202803683370190505b50905060005b845181101561071257600260008683815181106111ca576111ca6127ea565b60200260200101516001600160a01b03166001600160a01b031681526020019081526020016000206000856001600160a01b03166001600160a01b0316815260200190815260200160002054828281518110611228576112286127ea565b60209081029190910101528061123d81612816565b9150506111ab565b3360009081526006602052604081205460ff1615156001146112985760405162461bcd60e51b815260206004820152600c60248201526b2737ba1030903bb7b935b2b960a11b60448201526064016104e0565b826112ae6001600160a01b038216333086612080565b6001600160a01b0384166000908152600560205260408120805485929061061c90849061296f565b3360009081526006602052604081205460ff1615156001146113295760405162461bcd60e51b815260206004820152600c60248201526b2737ba1030903bb7b935b2b960a11b60448201526064016104e0565b6001600160a01b0384166000908152602081905260409020548390839081151580611355575060008351115b6113b45760405162461bcd60e51b815260206004820152602a60248201527f5a65726f2064756d702076616c756520616e64207a65726f207175657565206c6044820152690d2e6e840d8cadccee8d60b31b60648201526084016104e0565b6000805b84518110156113fa578481815181106113d3576113d36127ea565b6020026020010151826113e6919061296f565b9150806113f281612816565b9150506113b8565b50611405838361296f565b8111156114675760405162461bcd60e51b815260206004820152602a60248201527f44756d702076616c7565202b20706f6f6c20617373657473203c2071756575656044820152692076616c75652073756d60b01b60648201526084016104e0565b86518951146114b85760405162461bcd60e51b815260206004820152601660248201527f4c69737473206c656e677468206e6f74206d617463680000000000000000000060448201526064016104e0565b878615611502576114d46001600160a01b03821633308a612080565b6001600160a01b038916600090815260208190526040812080548992906114fc90849061296f565b90915550505b89511561169a5760005b8a5181101561165b576115658b828151811061152a5761152a6127ea565b60200260200101518a8381518110611544576115446127ea565b6020026020010151846001600160a01b0316611feb9092919063ffffffff16565b888181518110611577576115776127ea565b60200260200101516000808c6001600160a01b03166001600160a01b0316815260200190815260200160002060008282546115b2919061287d565b925050819055508881815181106115cb576115cb6127ea565b6020026020010151600260008d84815181106115e9576115e96127ea565b60200260200101516001600160a01b03166001600160a01b0316815260200190815260200160002060008c6001600160a01b03166001600160a01b031681526020019081526020016000206000828254611643919061287d565b9091555081905061165381612816565b91505061150c565b507fee4017fa461e4c1c3734069ff36425ce769fb10b77dfe81aaaebe639cfd08b7b338b8b8b6040516116919493929190612987565b60405180910390a15b6001600160a01b0389166000908152600360205260409020548a51106116d8576001600160a01b038916600090815260036020526040812055611708565b89516001600160a01b038a166000908152600360205260408120805490919061170290849061287d565b90915550505b5060019998505050505050505050565b6007546000906001600160a01b031633146117645760405162461bcd60e51b815260206004820152600c60248201526b2737ba1030b71030b236b4b760a11b60448201526064016104e0565b6001600160a01b0383166000908152602081905260409020548211156117cc5760405162461bcd60e51b815260206004820152601a60248201527f4e6f7420656e6f7567682062616c616e636520746f2074616b6500000000000060448201526064016104e0565b826117e16001600160a01b0382163385611feb565b6001600160a01b0384166000908152602081905260408120805485929061180990849061287d565b9091555050604080516001600160a01b0386168152602081018590527f72d6f02251fe2edca9d1db10b7db097c619987829aa24dd834ce90d66319e2d59101611040565b3360009081526006602052604081205460ff1615156001146118a05760405162461bcd60e51b815260206004820152600c60248201526b2737ba1030903bb7b935b2b960a11b60448201526064016104e0565b6001600160a01b03841660009081526020819052604090205483908390811515806118cc575060008351115b61192b5760405162461bcd60e51b815260206004820152602a60248201527f5a65726f2064756d702076616c756520616e64207a65726f207175657565206c6044820152690d2e6e840d8cadccee8d60b31b60648201526084016104e0565b6000805b84518110156119715784818151811061194a5761194a6127ea565b60200260200101518261195d919061296f565b91508061196981612816565b91505061192f565b5061197c838361296f565b8111156119de5760405162461bcd60e51b815260206004820152602a60248201527f44756d702076616c7565202b20706f6f6c20617373657473203c2071756575656044820152692076616c75652073756d60b01b60648201526084016104e0565b878615611a28576119fa6001600160a01b03821633308a612080565b6001600160a01b03891660009081526020819052604081208054899290611a2290849061296f565b90915550505b60005b8a51811015611b3f57611a498b828151811061152a5761152a6127ea565b888181518110611a5b57611a5b6127ea565b60200260200101516000808c6001600160a01b03166001600160a01b031681526020019081526020016000206000828254611a96919061287d565b92505081905550888181518110611aaf57611aaf6127ea565b6020026020010151600160008d8481518110611acd57611acd6127ea565b60200260200101516001600160a01b03166001600160a01b0316815260200190815260200160002060008c6001600160a01b03166001600160a01b031681526020019081526020016000206000828254611b27919061287d565b90915550819050611b3781612816565b915050611a2b565b507fbfd6d077575843694efa473ca9a33dc8987287f7d2295309a78c73302b5693a0338b8b8b604051611b759493929190612987565b60405180910390a15060019998505050505050505050565b3360009081526006602052604090205460ff161515600114611be05760405162461bcd60e51b815260206004820152600c60248201526b2737ba1030903bb7b935b2b960a11b60448201526064016104e0565b6001600160a01b038116611c365760405162461bcd60e51b815260206004820152601a60248201527f5a65726f206164647265737320666f72206e65772070726f787900000000000060448201526064016104e0565b6008805473ffffffffffffffffffffffffffffffffffffffff19166001600160a01b0383169081179091556040519081527fcf16493c33f7a5001593c6b3158b6613c39a56bed7e2fe27f83a7ee297b6e32a90602001610581565b6007546001600160a01b03163314611cda5760405162461bcd60e51b815260206004820152600c60248201526b2737ba1030b71030b236b4b760a11b60448201526064016104e0565b6001600160a01b038116611d305760405162461bcd60e51b815260206004820152601a60248201527f5a65726f206164647265737320666f72206e6577206f776e657200000000000060448201526064016104e0565b600780546001600160a01b039081166000908152600660209081526040808320805460ff19908116909155855473ffffffffffffffffffffffffffffffffffffffff1916948716948517909555838352918290208054909416600117909355519081527f244ded7a3b73e60f03281fc183df050e6134d393c50788e980dc090f06e728099101610581565b6008546000906001600160a01b0316331480611de157506009546001600160a01b031633145b611e2d5760405162461bcd60e51b815260206004820152601a60248201527f506c65617365207573652070726f787920636f6e74726163742e00000000000060448201526064016104e0565b6001600160a01b03831630148015611e4457504684145b611e905760405162461bcd60e51b815260206004820152601d60248201527f57726f6e6720636861696e202f2074617267657420636f6e747261637400000060448201526064016104e0565b600754604051634771dd5360e01b815260009173__$69987189fafd81b06474425565233fa135$__91634771dd5391611ee7916001600160a01b03909116908e908e908e908e908e908e908e908e906004016128ec565b602060405180830381865af4158015611f04573d6000803e3d6000fd5b505050506040513d601f19601f82011682018060405250810190611f28919061294d565b905080611f9d5760405162461bcd60e51b815260206004820152603360248201527f5369676e617475726520766572696669636174696f6e20666f7220696e73746160448201527f6e74207769746864726177616c206661696c730000000000000000000000000060648201526084016104e0565b611fa883600161296f565b6001600160a01b03808b1660009081526004602090815260408083209490945560018152838220928c168252919091529081208054899290610dc090849061296f565b6040516001600160a01b03831660248201526044810182905261207b90849063a9059cbb60e01b906064015b60408051601f198184030181529190526020810180517bffffffffffffffffffffffffffffffffffffffffffffffffffffffff167fffffffff00000000000000000000000000000000000000000000000000000000909316929092179091526120be565b505050565b6040516001600160a01b03808516602483015283166044820152606481018290526120b89085906323b872dd60e01b90608401612017565b50505050565b6000612113826040518060400160405280602081526020017f5361666545524332303a206c6f772d6c6576656c2063616c6c206661696c6564815250856001600160a01b03166121a39092919063ffffffff16565b80519091501561207b5780806020019051810190612131919061294d565b61207b5760405162461bcd60e51b815260206004820152602a60248201527f5361666545524332303a204552433230206f7065726174696f6e20646964206e60448201527f6f7420737563636565640000000000000000000000000000000000000000000060648201526084016104e0565b60606121b284846000856121bc565b90505b9392505050565b6060824710156122345760405162461bcd60e51b815260206004820152602660248201527f416464726573733a20696e73756666696369656e742062616c616e636520666f60448201527f722063616c6c000000000000000000000000000000000000000000000000000060648201526084016104e0565b843b6122825760405162461bcd60e51b815260206004820152601d60248201527f416464726573733a2063616c6c20746f206e6f6e2d636f6e747261637400000060448201526064016104e0565b600080866001600160a01b0316858760405161229e91906129d0565b60006040518083038185875af1925050503d80600081146122db576040519150601f19603f3d011682016040523d82523d6000602084013e6122e0565b606091505b50915091506122f08282866122fb565b979650505050505050565b6060831561230a5750816121b5565b82511561231a5782518084602001fd5b8160405162461bcd60e51b81526004016104e091906129ec565b634e487b7160e01b600052604160045260246000fd5b604051601f8201601f1916810167ffffffffffffffff8111828210171561237357612373612334565b604052919050565b600067ffffffffffffffff82111561239557612395612334565b5060051b60200190565b80356001600160a01b03811681146123b657600080fd5b919050565b600082601f8301126123cc57600080fd5b813560206123e16123dc8361237b565b61234a565b82815260059290921b8401810191818101908684111561240057600080fd5b8286015b84811015612422576124158161239f565b8352918301918301612404565b509695505050505050565b60006020828403121561243f57600080fd5b813567ffffffffffffffff81111561245657600080fd5b612462848285016123bb565b949350505050565b6000806040838503121561247d57600080fd5b6124868361239f565b946020939093013593505050565b600080604083850312156124a757600080fd5b6124b08361239f565b91506124be6020840161239f565b90509250929050565b600080604083850312156124da57600080fd5b823567ffffffffffffffff8111156124f157600080fd5b6124fd858286016123bb565b9250506124be6020840161239f565b600081518084526020808501945080840160005b8381101561253c57815187529582019590820190600101612520565b509495945050505050565b6020815260006121b5602083018461250c565b600080600080600080600080610100898b03121561257757600080fd5b883567ffffffffffffffff8082111561258f57600080fd5b818b0191508b601f8301126125a357600080fd5b81356020828211156125b7576125b7612334565b6125c9601f8301601f1916820161234a565b92508183528d818386010111156125df57600080fd5b81818501828501376000818385010152829b506125fd818e0161239f565b9a505050505061260f60408a0161239f565b9550606089013594506080890135935060a0890135925061263260c08a0161239f565b915060e089013590509295985092959890939650565b60008060006060848603121561265d57600080fd5b6126668461239f565b92506126746020850161239f565b9150604084013590509250925092565b60006020828403121561269657600080fd5b6121b58261239f565b600082601f8301126126b057600080fd5b813560206126c06123dc8361237b565b82815260059290921b840181019181810190868411156126df57600080fd5b8286015b8481101561242257803583529183019183016126e3565b60008060006060848603121561270f57600080fd5b833567ffffffffffffffff8082111561272757600080fd5b612733878388016123bb565b94506127416020870161239f565b9350604086013591508082111561275757600080fd5b506127648682870161269f565b9150509250925092565b6000806000806080858703121561278457600080fd5b843567ffffffffffffffff8082111561279c57600080fd5b6127a8888389016123bb565b95506127b66020880161239f565b945060408701359150808211156127cc57600080fd5b506127d98782880161269f565b949793965093946060013593505050565b634e487b7160e01b600052603260045260246000fd5b634e487b7160e01b600052601160045260246000fd5b600060001982141561282a5761282a612800565b5060010190565b600081518084526020808501945080840160005b8381101561253c5781516001600160a01b031687529582019590820190600101612845565b6020815260006121b56020830184612831565b60008282101561288f5761288f612800565b500390565b60005b838110156128af578181015183820152602001612897565b838111156120b85750506000910152565b600081518084526128d8816020860160208601612894565b601f01601f19169290920160200192915050565b60006101206001600160a01b03808d1684528160208501526129108285018d6128c0565b9a8116604085015298891660608401525050608081019590955260a085019390935260c084019190915290921660e0820152610100015292915050565b60006020828403121561295f57600080fd5b815180151581146121b557600080fd5b6000821982111561298257612982612800565b500190565b60006001600160a01b038087168352608060208401526129aa6080840187612831565b818616604085015283810360608501526129c4818661250c565b98975050505050505050565b600082516129e2818460208701612894565b9190910192915050565b6020815260006121b560208301846128c056fea164736f6c634300080c000a",
  "linkReferences": {
    "contracts/v2/satis_core/MoneyPoolRaw.sol": {
      "MultiSig": [
        {
          "length": 20,
          "start": 2698
        },
        {
          "length": 20,
          "start": 3560
        },
        {
          "length": 20,
          "start": 8266
        }
      ]
    }
  },
  "deployedLinkReferences": {
    "contracts/v2/satis_core/MoneyPoolRaw.sol": {
      "MultiSig": [
        {
          "length": 20,
          "start": 2277
        },
        {
          "length": 20,
          "start": 3139
        },
        {
          "length": 20,
          "start": 7845
        }
      ]
    }
  }
}