{
  "_format": "hh-sol-artifact-1",
  "contractName": "Action",
  "sourceName": "contracts/v2/satis_core/Action.sol",
  "abi": [
    {
      "inputs": [
        {
          "internalType": "address",
          "name": "_initialProxyAddress",
          "type": "address"
        }
      ],
      "stateMutability": "nonpayable",
      "type": "constructor"
    },
    {
      "anonymous": false,
      "inputs": [
        {
          "indexed": false,
          "internalType": "address",
          "name": "newOwner",
          "type": "address"
        }
      ],
      "name": "ChangeOwnership",
      "type": "event"
    },
    {
      "anonymous": false,
      "inputs": [
        {
          "indexed": false,
          "internalType": "address",
          "name": "newProxy",
          "type": "address"
        }
      ],
      "name": "ChangeProxy",
      "type": "event"
    },
    {
      "anonymous": false,
      "inputs": [
        {
          "indexed": false,
          "internalType": "address",
          "name": "clientAddress",
          "type": "address"
        },
        {
          "indexed": false,
          "internalType": "address",
          "name": "tokenAddress",
          "type": "address"
        },
        {
          "indexed": false,
          "internalType": "uint256",
          "name": "queueValue",
          "type": "uint256"
        },
        {
          "indexed": false,
          "internalType": "uint256",
          "name": "tier",
          "type": "uint256"
        }
      ],
      "name": "Queue",
      "type": "event"
    },
    {
      "anonymous": false,
      "inputs": [
        {
          "indexed": false,
          "internalType": "address",
          "name": "clientAddress",
          "type": "address"
        },
        {
          "indexed": false,
          "internalType": "address",
          "name": "tokenAddress",
          "type": "address"
        },
        {
          "indexed": false,
          "internalType": "uint256",
          "name": "transactionValue",
          "type": "uint256"
        },
        {
          "indexed": false,
          "internalType": "string",
          "name": "data",
          "type": "string"
        }
      ],
      "name": "TransferIn",
      "type": "event"
    },
    {
      "inputs": [
        {
          "internalType": "address",
          "name": "_clientAddress",
          "type": "address"
        },
        {
          "internalType": "address",
          "name": "_tokenAddress",
          "type": "address"
        },
        {
          "internalType": "uint256",
          "name": "_tokenValue",
          "type": "uint256"
        },
        {
          "internalType": "string",
          "name": "_data",
          "type": "string"
        }
      ],
      "name": "addFundWithAction",
      "outputs": [
        {
          "internalType": "bool",
          "name": "_isDone",
          "type": "bool"
        }
      ],
      "stateMutability": "nonpayable",
      "type": "function"
    },
    {
      "inputs": [],
      "name": "owner",
      "outputs": [
        {
          "internalType": "address",
          "name": "",
          "type": "address"
        }
      ],
      "stateMutability": "view",
      "type": "function"
    },
    {
      "inputs": [],
      "name": "proxy",
      "outputs": [
        {
          "internalType": "address",
          "name": "",
          "type": "address"
        }
      ],
      "stateMutability": "view",
      "type": "function"
    },
    {
      "inputs": [
        {
          "internalType": "address",
          "name": "_clientAddress",
          "type": "address"
        },
        {
          "internalType": "address",
          "name": "_tokenAddress",
          "type": "address"
        },
        {
          "internalType": "uint256",
          "name": "_tokenValue",
          "type": "uint256"
        },
        {
          "internalType": "uint256",
          "name": "_tier",
          "type": "uint256"
        }
      ],
      "name": "queueWithdraw",
      "outputs": [
        {
          "internalType": "bool",
          "name": "_isDone",
          "type": "bool"
        }
      ],
      "stateMutability": "nonpayable",
      "type": "function"
    },
    {
      "inputs": [
        {
          "internalType": "address",
          "name": "_newOwner",
          "type": "address"
        }
      ],
      "name": "transferOwnership",
      "outputs": [],
      "stateMutability": "nonpayable",
      "type": "function"
    },
    {
      "inputs": [
        {
          "internalType": "address",
          "name": "_newProxyAddress",
          "type": "address"
        }
      ],
      "name": "updateProxyAddress",
      "outputs": [],
      "stateMutability": "nonpayable",
      "type": "function"
    }
  ],
  "bytecode": "0x608060405234801561001057600080fd5b5060405161074b38038061074b83398101604081905261002f916100bc565b6001600160a01b0381166100895760405162461bcd60e51b815260206004820152601660248201527f5a65726f206164647265737320666f722070726f787900000000000000000000604482015260640160405180910390fd5b60008054336001600160a01b031991821617909155600180549091166001600160a01b03929092169190911790556100ea565b6000602082840312156100cd578081fd5b81516001600160a01b03811681146100e3578182fd5b9392505050565b610652806100f96000396000f3fe608060405234801561001057600080fd5b50600436106100725760003560e01c8063eac32a8e11610050578063eac32a8e146100dd578063ec556889146100f2578063f2fde38b1461010557610072565b80634a553ebf146100775780634dd946951461009f5780638da5cb5b146100b2575b600080fd5b61008a610085366004610577565b610118565b60405190151581526020015b60405180910390f35b61008a6100ad3660046104a2565b6101d8565b6000546100c5906001600160a01b031681565b6040516001600160a01b039091168152602001610096565b6100f06100eb366004610481565b61026a565b005b6001546100c5906001600160a01b031681565b6100f0610113366004610481565b61036b565b6001546000906001600160a01b0316331461017a5760405162461bcd60e51b815260206004820152601a60248201527f506c65617365207573652070726f787920636f6e74726163742e00000000000060448201526064015b60405180910390fd5b604080516001600160a01b03808816825286166020820152908101849052606081018390527f1d7a52ff511841ef43b9d8e46cfe1b8c7d5d667eab6f397285547a7d847be5cf906080015b60405180910390a1506001949350505050565b6001546000906001600160a01b031633146102355760405162461bcd60e51b815260206004820152601a60248201527f506c65617365207573652070726f787920636f6e74726163742e0000000000006044820152606401610171565b7fca56091464bda7fd3a1d84d6eedd04e592e9a44e37c5418220a48c79908b9f57858585856040516101c594939291906105b8565b6000546001600160a01b031633146102b35760405162461bcd60e51b815260206004820152600c60248201526b2737ba1030b71030b236b4b760a11b6044820152606401610171565b6001600160a01b0381166103095760405162461bcd60e51b815260206004820152601a60248201527f5a65726f206164647265737320666f72206e65772070726f78790000000000006044820152606401610171565b6001805473ffffffffffffffffffffffffffffffffffffffff19166001600160a01b0383169081179091556040519081527fcf16493c33f7a5001593c6b3158b6613c39a56bed7e2fe27f83a7ee297b6e32a906020015b60405180910390a150565b6000546001600160a01b031633146103b45760405162461bcd60e51b815260206004820152600c60248201526b2737ba1030b71030b236b4b760a11b6044820152606401610171565b6001600160a01b03811661040a5760405162461bcd60e51b815260206004820152601a60248201527f5a65726f206164647265737320666f72206e6577206f776e65720000000000006044820152606401610171565b6000805473ffffffffffffffffffffffffffffffffffffffff19166001600160a01b0383169081179091556040519081527f244ded7a3b73e60f03281fc183df050e6134d393c50788e980dc090f06e7280990602001610360565b80356001600160a01b038116811461047c57600080fd5b919050565b600060208284031215610492578081fd5b61049b82610465565b9392505050565b600080600080608085870312156104b7578283fd5b6104c085610465565b93506104ce60208601610465565b925060408501359150606085013567ffffffffffffffff808211156104f1578283fd5b818701915087601f830112610504578283fd5b8135818111156105165761051661062f565b604051601f8201601f19908116603f0116810190838211818310171561053e5761053e61062f565b816040528281528a6020848701011115610556578586fd5b82602086016020830137918201602001949094529598949750929550505050565b6000806000806080858703121561058c578384fd5b61059585610465565b93506105a360208601610465565b93969395505050506040820135916060013590565b60006001600160a01b0380871683526020818716818501528560408501526080606085015284519150816080850152825b828110156106055785810182015185820160a0015281016105e9565b82811115610616578360a084870101525b5050601f01601f19169190910160a00195945050505050565b634e487b7160e01b600052604160045260246000fdfea164736f6c6343000802000a",
  "linkReferences": {},
  "deployedLinkReferences": {}
}