{
  "_format": "hh-sol-artifact-1",
  "contractName": "MoneyPoolRaw",
  "sourceName": "contracts/v2/for_testing/moneyPoolRaw.sol",
  "abi": [
    {
      "inputs": [],
      "stateMutability": "nonpayable",
      "type": "constructor"
    },
    {
      "anonymous": false,
      "inputs": [
        {
          "indexed": false,
          "internalType": "address",
          "name": "clientAddress",
          "type": "address"
        },
        {
          "indexed": false,
          "internalType": "address",
          "name": "tokenAddress",
          "type": "address"
        },
        {
          "indexed": false,
          "internalType": "uint256",
          "name": "transactionValue",
          "type": "uint256"
        },
        {
          "indexed": false,
          "internalType": "string",
          "name": "transactionData",
          "type": "string"
        }
      ],
      "name": "Lock",
      "type": "event"
    },
    {
      "anonymous": false,
      "inputs": [
        {
          "indexed": false,
          "internalType": "address",
          "name": "clientAddress",
          "type": "address"
        },
        {
          "indexed": false,
          "internalType": "address",
          "name": "tokenAddress",
          "type": "address"
        },
        {
          "indexed": false,
          "internalType": "uint256",
          "name": "transactionValue",
          "type": "uint256"
        }
      ],
      "name": "OwnerTakeLockedFund",
      "type": "event"
    },
    {
      "anonymous": false,
      "inputs": [
        {
          "indexed": false,
          "internalType": "address",
          "name": "clientAddress",
          "type": "address"
        },
        {
          "indexed": false,
          "internalType": "address",
          "name": "tokenAddress",
          "type": "address"
        },
        {
          "indexed": false,
          "internalType": "uint256",
          "name": "transactionValue",
          "type": "uint256"
        }
      ],
      "name": "TransferIn",
      "type": "event"
    },
    {
      "anonymous": false,
      "inputs": [
        {
          "indexed": false,
          "internalType": "address",
          "name": "clientAddress",
          "type": "address"
        },
        {
          "indexed": false,
          "internalType": "address",
          "name": "tokenAddress",
          "type": "address"
        },
        {
          "indexed": false,
          "internalType": "uint256",
          "name": "transactionValue",
          "type": "uint256"
        }
      ],
      "name": "TransferOut",
      "type": "event"
    },
    {
      "anonymous": false,
      "inputs": [
        {
          "indexed": false,
          "internalType": "address",
          "name": "clientAddress",
          "type": "address"
        },
        {
          "indexed": false,
          "internalType": "address",
          "name": "tokenAddress",
          "type": "address"
        },
        {
          "indexed": false,
          "internalType": "uint256",
          "name": "transactionValue",
          "type": "uint256"
        }
      ],
      "name": "Unlock",
      "type": "event"
    },
    {
      "inputs": [
        {
          "internalType": "address",
          "name": "_tokenAddress",
          "type": "address"
        },
        {
          "internalType": "uint256",
          "name": "_tokenValue",
          "type": "uint256"
        }
      ],
      "name": "addFund",
      "outputs": [
        {
          "internalType": "bool",
          "name": "_isDone",
          "type": "bool"
        }
      ],
      "stateMutability": "nonpayable",
      "type": "function"
    },
    {
      "inputs": [
        {
          "internalType": "address",
          "name": "_tokenAddress",
          "type": "address"
        },
        {
          "internalType": "uint256",
          "name": "_lockValue",
          "type": "uint256"
        },
        {
          "internalType": "uint256",
          "name": "_addValue",
          "type": "uint256"
        },
        {
          "internalType": "string",
          "name": "_data",
          "type": "string"
        }
      ],
      "name": "addFundWithAction",
      "outputs": [
        {
          "internalType": "bool",
          "name": "_isDone",
          "type": "bool"
        }
      ],
      "stateMutability": "nonpayable",
      "type": "function"
    },
    {
      "inputs": [
        {
          "internalType": "address",
          "name": "",
          "type": "address"
        },
        {
          "internalType": "address",
          "name": "",
          "type": "address"
        }
      ],
      "name": "clientBalance",
      "outputs": [
        {
          "internalType": "uint256",
          "name": "",
          "type": "uint256"
        }
      ],
      "stateMutability": "view",
      "type": "function"
    },
    {
      "inputs": [
        {
          "internalType": "address",
          "name": "",
          "type": "address"
        },
        {
          "internalType": "address",
          "name": "",
          "type": "address"
        }
      ],
      "name": "clientLockBalance",
      "outputs": [
        {
          "internalType": "uint256",
          "name": "",
          "type": "uint256"
        }
      ],
      "stateMutability": "view",
      "type": "function"
    },
    {
      "inputs": [
        {
          "internalType": "address",
          "name": "",
          "type": "address"
        }
      ],
      "name": "clientNonce",
      "outputs": [
        {
          "internalType": "uint256",
          "name": "",
          "type": "uint256"
        }
      ],
      "stateMutability": "view",
      "type": "function"
    },
    {
      "inputs": [
        {
          "internalType": "address",
          "name": "_clientAddress",
          "type": "address"
        },
        {
          "internalType": "address",
          "name": "_tokenAddress",
          "type": "address"
        }
      ],
      "name": "getClientBalance",
      "outputs": [
        {
          "internalType": "uint256",
          "name": "",
          "type": "uint256"
        }
      ],
      "stateMutability": "view",
      "type": "function"
    },
    {
      "inputs": [
        {
          "internalType": "address",
          "name": "_clientAddress",
          "type": "address"
        },
        {
          "internalType": "address",
          "name": "_tokenAddress",
          "type": "address"
        }
      ],
      "name": "getClientLockBalance",
      "outputs": [
        {
          "internalType": "uint256",
          "name": "",
          "type": "uint256"
        }
      ],
      "stateMutability": "view",
      "type": "function"
    },
    {
      "inputs": [
        {
          "internalType": "address",
          "name": "_clientAddress",
          "type": "address"
        }
      ],
      "name": "getClientNonce",
      "outputs": [
        {
          "internalType": "uint256",
          "name": "",
          "type": "uint256"
        }
      ],
      "stateMutability": "view",
      "type": "function"
    },
    {
      "inputs": [],
      "name": "getPoolOwner",
      "outputs": [
        {
          "internalType": "address",
          "name": "_admin",
          "type": "address"
        }
      ],
      "stateMutability": "view",
      "type": "function"
    },
    {
      "inputs": [
        {
          "internalType": "address",
          "name": "_tokenAddress",
          "type": "address"
        },
        {
          "internalType": "uint256",
          "name": "_tokenValue",
          "type": "uint256"
        },
        {
          "internalType": "string",
          "name": "_data",
          "type": "string"
        }
      ],
      "name": "lockFundWithAction",
      "outputs": [
        {
          "internalType": "bool",
          "name": "_isDone",
          "type": "bool"
        }
      ],
      "stateMutability": "nonpayable",
      "type": "function"
    },
    {
      "inputs": [],
      "name": "owner",
      "outputs": [
        {
          "internalType": "address",
          "name": "",
          "type": "address"
        }
      ],
      "stateMutability": "view",
      "type": "function"
    },
    {
      "inputs": [
        {
          "internalType": "address",
          "name": "_clientAddress",
          "type": "address"
        },
        {
          "internalType": "address",
          "name": "_tokenAddress",
          "type": "address"
        },
        {
          "internalType": "uint256",
          "name": "_tokenValue",
          "type": "uint256"
        }
      ],
      "name": "ownerTakeLockedFund",
      "outputs": [
        {
          "internalType": "bool",
          "name": "_isDone",
          "type": "bool"
        }
      ],
      "stateMutability": "nonpayable",
      "type": "function"
    },
    {
      "inputs": [
        {
          "internalType": "bytes32",
          "name": "_targetHash",
          "type": "bytes32"
        },
        {
          "internalType": "bytes",
          "name": "_targetSignature",
          "type": "bytes"
        }
      ],
      "name": "recoverSignature",
      "outputs": [
        {
          "internalType": "address",
          "name": "",
          "type": "address"
        }
      ],
      "stateMutability": "pure",
      "type": "function"
    },
    {
      "inputs": [
        {
          "internalType": "address",
          "name": "_tokenAddress",
          "type": "address"
        },
        {
          "internalType": "uint256",
          "name": "_tokenValue",
          "type": "uint256"
        }
      ],
      "name": "removeFund",
      "outputs": [
        {
          "internalType": "bool",
          "name": "_isDone",
          "type": "bool"
        }
      ],
      "stateMutability": "nonpayable",
      "type": "function"
    },
    {
      "inputs": [
        {
          "internalType": "address",
          "name": "_newOwner",
          "type": "address"
        }
      ],
      "name": "transferOwnership",
      "outputs": [],
      "stateMutability": "nonpayable",
      "type": "function"
    },
    {
      "inputs": [
        {
          "internalType": "address",
          "name": "_clientAddress",
          "type": "address"
        },
        {
          "internalType": "address",
          "name": "_tokenAddress",
          "type": "address"
        },
        {
          "internalType": "uint256",
          "name": "_tokenValue",
          "type": "uint256"
        }
      ],
      "name": "unlockFund",
      "outputs": [
        {
          "internalType": "bool",
          "name": "_isDone",
          "type": "bool"
        }
      ],
      "stateMutability": "nonpayable",
      "type": "function"
    },
    {
      "inputs": [
        {
          "internalType": "bytes",
          "name": "_targetSignature",
          "type": "bytes"
        },
        {
          "internalType": "address",
          "name": "_tokenAddress",
          "type": "address"
        },
        {
          "internalType": "uint256",
          "name": "_unlockValue",
          "type": "uint256"
        },
        {
          "internalType": "uint256",
          "name": "_withdrawValue",
          "type": "uint256"
        },
        {
          "internalType": "uint256",
          "name": "_nonce",
          "type": "uint256"
        },
        {
          "internalType": "uint256",
          "name": "_newLockValue",
          "type": "uint256"
        }
      ],
      "name": "verifyAndRemoveFund",
      "outputs": [
        {
          "internalType": "bool",
          "name": "_isDone",
          "type": "bool"
        }
      ],
      "stateMutability": "nonpayable",
      "type": "function"
    },
    {
      "inputs": [
        {
          "internalType": "bytes",
          "name": "_targetSignature",
          "type": "bytes"
        },
        {
          "internalType": "address",
          "name": "_tokenAddress",
          "type": "address"
        },
        {
          "internalType": "uint256",
          "name": "_unlockValue",
          "type": "uint256"
        },
        {
          "internalType": "uint256",
          "name": "_nonce",
          "type": "uint256"
        },
        {
          "internalType": "uint256",
          "name": "_newLockValue",
          "type": "uint256"
        }
      ],
      "name": "verifyAndUnlockFund",
      "outputs": [
        {
          "internalType": "bool",
          "name": "_isDone",
          "type": "bool"
        }
      ],
      "stateMutability": "nonpayable",
      "type": "function"
    },
    {
      "inputs": [
        {
          "internalType": "address",
          "name": "_tokenAddress",
          "type": "address"
        }
      ],
      "name": "viewFund",
      "outputs": [
        {
          "internalType": "uint256",
          "name": "_totalFund",
          "type": "uint256"
        },
        {
          "internalType": "uint256",
          "name": "_lockedFund",
          "type": "uint256"
        }
      ],
      "stateMutability": "view",
      "type": "function"
    }
  ],
  "bytecode": "0x608060405234801561001057600080fd5b50600380546001600160a01b03191633179055611e2a806100326000396000f3fe608060405234801561001057600080fd5b50600436106101515760003560e01c80638da5cb5b116100cd578063cc08f44011610081578063e5f4361111610066578063e5f436111461037a578063f2fde38b146103a5578063f49ca04b146103ba57610151565b8063cc08f44014610354578063d512c0611461036757610151565b80639d9ed3cc116100b25780639d9ed3cc14610306578063bd4f9b1f14610319578063ca18f5e01461032c57610151565b80638da5cb5b146102d35780639178274a146102e657610151565b80637621fd671161012457806379b44a7e1161010957806379b44a7e146102275780637cccbf6d1461025e578063894734241461027157610151565b80637621fd67146101eb57806378c535331461021657610151565b806304f6888814610156578063091734351461017e578063439aa31e146101915780636b9f7537146101a4575b600080fd5b610169610164366004611985565b6103cd565b60405190151581526020015b60405180910390f35b61016961018c366004611a3e565b610527565b61016961019f366004611b68565b61054b565b6101dd6101b2366004611953565b6001600160a01b03918216600090815260016020908152604080832093909416825291909152205490565b604051908152602001610175565b6101fe6101f9366004611abd565b610573565b6040516001600160a01b039091168152602001610175565b6003546001600160a01b03166101fe565b6101dd610235366004611953565b6001600160a01b0391821660009081526020818152604080832093909416825291909152205490565b61016961026c366004611985565b6107c0565b6102be61027f366004611939565b336000818152602081815260408083206001600160a01b0395909516808452948252808320549383526001825280832094835293905291909120549091565b60408051928352602083019190915201610175565b6003546101fe906001600160a01b031681565b6101dd6102f4366004611939565b60026020526000908152604090205481565b6101696103143660046119c0565b6108b3565b6101696103273660046119e9565b6109fb565b6101dd61033a366004611953565b600060208181529281526040808220909352908152205481565b6101dd610362366004611939565b610b1b565b6101696103753660046119c0565b610b3a565b6101dd610388366004611953565b600160209081526000928352604080842090915290825290205481565b6103b86103b3366004611939565b610bde565b005b6101696103c8366004611b02565b610c61565b6003546000906001600160a01b0316331461041e5760405162461bcd60e51b815260206004820152600c60248201526b2737ba1030b71030b236b4b760a11b60448201526064015b60405180910390fd5b6001600160a01b03808516600090815260016020908152604080832093871683529290522054839061045090846110bd565b6001600160a01b038087166000818152600160209081526040808320948a1680845294825280832095909555918152808252838120928152919052205461049790846110bd565b6001600160a01b0380871660009081526020818152604080832089851684529091529020919091556003546104d191838116911685611120565b604080516001600160a01b038088168252861660208201529081018490527fd665aa3c7929919bc8a361c9337e496adeb1afe0071f9e5d5a97ef8251cb38989060600160405180910390a1506001949350505050565b60006105338584610b3a565b5061053f8585846109fb565b50600195945050505050565b600061055a8787878686610c61565b5061056586856108b3565b506001979650505050505050565b60008180516041146105c75760405162461bcd60e51b815260206004820152601a60248201527f496e636f7272656374207369676e6174757265206c656e6774680000000000006044820152606401610415565b6000806000855160411461061d5760405162461bcd60e51b815260206004820152601e60248201527f4c656e677468206f66207369676e6174757265206d75737420626520363500006044820152606401610415565b50505060208301516040840151604185015160ff1680158061064257508060ff166001145b8061065057508060ff16601b145b8061065e57508060ff16601c145b6106d05760405162461bcd60e51b815260206004820152602660248201527f5265636f76657220762076616c75652069732066756e64616d656e74616c6c7960448201527f2077726f6e6700000000000000000000000000000000000000000000000000006064820152608401610415565b601b8160ff1610156106ea576106e7601b82611d2f565b90505b8060ff16601b14806106ff57508060ff16601c145b6107575760405162461bcd60e51b815260206004820152602360248201527f5265636f76657220762076616c7565206572726f723a204e6f74203237206f7260448201526204064760eb1b6064820152608401610415565b60408051600081526020810180835289905260ff831691810191909152606081018490526080810183905260019060a0016020604051602081039080840390855afa1580156107aa573d6000803e3d6000fd5b5050604051601f19015198975050505050505050565b6003546000906001600160a01b0316331461080c5760405162461bcd60e51b815260206004820152600c60248201526b2737ba1030b71030b236b4b760a11b6044820152606401610415565b6001600160a01b0380851660009081526001602090815260408083209387168352929052205461083c90836110bd565b6001600160a01b03858116600081815260016020908152604080832094891680845294825291829020949094558051918252928101919091529081018390527fc1c90b8e0705b212262c0dbd7580efe1862c2f185bf96899226f7596beb2db09906060015b60405180910390a15060019392505050565b3360008181526001602090815260408083206001600160a01b038716808552908352818420549484528383528184209084529091528120549091849184916108fb91906110bd565b81111561094a5760405162461bcd60e51b815260206004820152601860248201527f4e6f7420656e6f756768206d6f62696c652061737365747300000000000000006044820152606401610415565b8461095f6001600160a01b0382163387611120565b336000908152602081815260408083206001600160a01b038a16845290915290205461098b90866110bd565b336000818152602081815260408083206001600160a01b038c16808552908352928190209490945583519283528201529081018690527f5d2c285d7e86ec84b7a404ba6d7627ca0a71709acce9c1cc05fada583e3ded81906060015b60405180910390a150600195945050505050565b3360008181526001602090815260408083206001600160a01b03881680855290835281842054948452838352818420908452909152812054909185918591610a4391906110bd565b811115610a925760405162461bcd60e51b815260206004820152601860248201527f4e6f7420656e6f756768206d6f62696c652061737365747300000000000000006044820152606401610415565b3360009081526001602090815260408083206001600160a01b038a168452909152902054610ac090866111b5565b3360008181526001602090815260408083206001600160a01b038c168452909152908190209290925590517ecd77abc69e7bbb6de9df8cbfcca8720df3a30decf9eefd187e72ab2ea2f513916109e791899089908990611cc8565b6001600160a01b0381166000908152600260205260409020545b919050565b600082610b526001600160a01b038216333086611214565b336000908152602081815260408083206001600160a01b0388168452909152902054610b7e90846111b5565b336000818152602081815260408083206001600160a01b038a16808552908352928190209490945583519283528201529081018490527f8ab008cb8444c6d8f2fa3dc0b159b5a86c62b00092219a6c69757805cbf7bde7906060016108a1565b6003546001600160a01b03163314610c275760405162461bcd60e51b815260206004820152600c60248201526b2737ba1030b71030b236b4b760a11b6044820152606401610415565b600380547fffffffffffffffffffffffff0000000000000000000000000000000000000000166001600160a01b0392909216919091179055565b336000908152600260205260408120548314610cbf5760405162461bcd60e51b815260206004820152600d60248201527f496e76616c6964206e6f6e6365000000000000000000000000000000000000006044820152606401610415565b6000806000610cf66040518060a0016040528060608152602001606081526020016060815260200160608152602001606081525090565b610cff33611252565b8152610d0a89611252565b6020820152610d18886114ea565b6040820152610d26876114ea565b6060820152610d34866114ea565b60808201819052606082015182516020808501516040808701519051610d5d9695949301611c1e565b60408051601f1981840301815282825280516020918201207f19457468657265756d205369676e6564204d6573736167653a0a33320000000084830152603c80850182905283518086039091018152605c90940190925282519201919091209094509250610dcb838b610573565b6003549092506001600160a01b03808416911614610e2b5760405162461bcd60e51b815260206004820152601360248201527f496e636f7272656374207369676e6174757265000000000000000000000000006044820152606401610415565b610e368760016111b5565b33600090815260026020908152604080832093909355600181528282206001600160a01b038d16835290529081205490818810610f2357610e7788836110bd565b9050610ed381600080336001600160a01b03166001600160a01b0316815260200190815260200160002060008e6001600160a01b03166001600160a01b03168152602001908152602001600020546111b590919063ffffffff16565b600080336001600160a01b03166001600160a01b0316815260200190815260200160002060008d6001600160a01b03166001600160a01b0316815260200190815260200160002081905550610fd5565b610f2d82896110bd565b9050610f8981600080336001600160a01b03166001600160a01b0316815260200190815260200160002060008e6001600160a01b03166001600160a01b03168152602001908152602001600020546110bd90919063ffffffff16565b600080336001600160a01b03166001600160a01b0316815260200190815260200160002060008d6001600160a01b03166001600160a01b03168152602001908152602001600020819055505b3360009081526001602090815260408083206001600160a01b038f1684529091529020889055611005888b6110bd565b60016000336001600160a01b03166001600160a01b0316815260200190815260200160002060008d6001600160a01b03166001600160a01b03168152602001908152602001600020819055507fc1c90b8e0705b212262c0dbd7580efe1862c2f185bf96899226f7596beb2db09338c8c6040516110a3939291906001600160a01b039384168152919092166020820152604081019190915260600190565b60405180910390a15060019b9a5050505050505050505050565b60008282111561110f5760405162461bcd60e51b815260206004820152601e60248201527f536166654d6174683a207375627472616374696f6e206f766572666c6f7700006044820152606401610415565b6111198284611d93565b9392505050565b6040516001600160a01b0383166024820152604481018290526111b090849063a9059cbb60e01b906064015b60408051601f198184030181529190526020810180517bffffffffffffffffffffffffffffffffffffffffffffffffffffffff167fffffffff0000000000000000000000000000000000000000000000000000000090931692909217909152611627565b505050565b6000806111c28385611d17565b9050838110156111195760405162461bcd60e51b815260206004820152601b60248201527f536166654d6174683a206164646974696f6e206f766572666c6f7700000000006044820152606401610415565b6040516001600160a01b038085166024830152831660448201526064810182905261124c9085906323b872dd60e01b9060840161114c565b50505050565b604080518082018252601081527f303132333435363738396162636465660000000000000000000000000000000060208201528151602a80825260608281019094526001600160a01b0385169291600091602082018180368337019050509050600360fc1b816000815181106112d857634e487b7160e01b600052603260045260246000fd5b60200101906001600160f81b031916908160001a905350600f60fb1b8160018151811061131557634e487b7160e01b600052603260045260246000fd5b60200101906001600160f81b031916908160001a90535060005b60148110156114e1578260048561134784600c611d17565b6020811061136557634e487b7160e01b600052603260045260246000fd5b1a60f81b6001600160f81b031916901c60f81c60ff168151811061139957634e487b7160e01b600052603260045260246000fd5b01602001517fff0000000000000000000000000000000000000000000000000000000000000016826113cc836002611d74565b6113d7906002611d17565b815181106113f557634e487b7160e01b600052603260045260246000fd5b60200101906001600160f81b031916908160001a905350828461141983600c611d17565b6020811061143757634e487b7160e01b600052603260045260246000fd5b825191901a600f1690811061145c57634e487b7160e01b600052603260045260246000fd5b01602001517fff00000000000000000000000000000000000000000000000000000000000000168261148f836002611d74565b61149a906003611d17565b815181106114b857634e487b7160e01b600052603260045260246000fd5b60200101906001600160f81b031916908160001a905350806114d981611dd6565b91505061132f565b50949350505050565b60608161150f57506040805180820190915260018152600360fc1b6020820152610b35565b8160005b8115611539578061152381611dd6565b91506115329050600a83611d54565b9150611513565b60008167ffffffffffffffff81111561156257634e487b7160e01b600052604160045260246000fd5b6040519080825280601f01601f19166020018201604052801561158c576020820181803683370190505b509050815b85156114e1576115a2600182611d93565b905060006115b1600a88611d54565b6115bc90600a611d74565b6115c69088611d93565b6115d1906030611d2f565b905060008160f81b9050808484815181106115fc57634e487b7160e01b600052603260045260246000fd5b60200101906001600160f81b031916908160001a90535061161e600a89611d54565b97505050611591565b600061167c826040518060400160405280602081526020017f5361666545524332303a206c6f772d6c6576656c2063616c6c206661696c6564815250856001600160a01b031661170c9092919063ffffffff16565b8051909150156111b0578080602001905181019061169a9190611a9d565b6111b05760405162461bcd60e51b815260206004820152602a60248201527f5361666545524332303a204552433230206f7065726174696f6e20646964206e60448201527f6f742073756363656564000000000000000000000000000000000000000000006064820152608401610415565b606061171b8484600085611723565b949350505050565b60608247101561179b5760405162461bcd60e51b815260206004820152602660248201527f416464726573733a20696e73756666696369656e742062616c616e636520666f60448201527f722063616c6c00000000000000000000000000000000000000000000000000006064820152608401610415565b843b6117e95760405162461bcd60e51b815260206004820152601d60248201527f416464726573733a2063616c6c20746f206e6f6e2d636f6e74726163740000006044820152606401610415565b600080866001600160a01b031685876040516118059190611c02565b60006040518083038185875af1925050503d8060008114611842576040519150601f19603f3d011682016040523d82523d6000602084013e611847565b606091505b5091509150611857828286611862565b979650505050505050565b60608315611871575081611119565b8251156118815782518084602001fd5b8160405162461bcd60e51b81526004016104159190611d04565b80356001600160a01b0381168114610b3557600080fd5b600082601f8301126118c2578081fd5b813567ffffffffffffffff808211156118dd576118dd611e07565b604051601f8301601f19908116603f0116810190828211818310171561190557611905611e07565b8160405283815286602085880101111561191d578485fd5b8360208701602083013792830160200193909352509392505050565b60006020828403121561194a578081fd5b6111198261189b565b60008060408385031215611965578081fd5b61196e8361189b565b915061197c6020840161189b565b90509250929050565b600080600060608486031215611999578081fd5b6119a28461189b565b92506119b06020850161189b565b9150604084013590509250925092565b600080604083850312156119d2578182fd5b6119db8361189b565b946020939093013593505050565b6000806000606084860312156119fd578283fd5b611a068461189b565b925060208401359150604084013567ffffffffffffffff811115611a28578182fd5b611a34868287016118b2565b9150509250925092565b60008060008060808587031215611a53578081fd5b611a5c8561189b565b93506020850135925060408501359150606085013567ffffffffffffffff811115611a85578182fd5b611a91878288016118b2565b91505092959194509250565b600060208284031215611aae578081fd5b81518015158114611119578182fd5b60008060408385031215611acf578182fd5b82359150602083013567ffffffffffffffff811115611aec578182fd5b611af8858286016118b2565b9150509250929050565b600080600080600060a08688031215611b19578081fd5b853567ffffffffffffffff811115611b2f578182fd5b611b3b888289016118b2565b955050611b4a6020870161189b565b94979496505050506040830135926060810135926080909101359150565b60008060008060008060c08789031215611b80578081fd5b863567ffffffffffffffff811115611b96578182fd5b611ba289828a016118b2565b965050611bb16020880161189b565b95989597505050506040840135936060810135936080820135935060a0909101359150565b60008151808452611bee816020860160208601611daa565b601f01601f19169290920160200192915050565b60008251611c14818460208701611daa565b9190910192915050565b60007f6e65776c6f636b3a00000000000000000000000000000000000000000000000082528651611c56816008850160208b01611daa565b603b60f81b6008918401918201528651611c77816009840160208b01611daa565b8651910190611c8d816009840160208a01611daa565b8551910190611ca3816009840160208901611daa565b8451910190611cb9816009840160208801611daa565b01600901979650505050505050565b60006001600160a01b03808716835280861660208401525083604083015260806060830152611cfa6080830184611bd6565b9695505050505050565b6000602082526111196020830184611bd6565b60008219821115611d2a57611d2a611df1565b500190565b600060ff821660ff84168060ff03821115611d4c57611d4c611df1565b019392505050565b600082611d6f57634e487b7160e01b81526012600452602481fd5b500490565b6000816000190483118215151615611d8e57611d8e611df1565b500290565b600082821015611da557611da5611df1565b500390565b60005b83811015611dc5578181015183820152602001611dad565b8381111561124c5750506000910152565b6000600019821415611dea57611dea611df1565b5060010190565b634e487b7160e01b600052601160045260246000fd5b634e487b7160e01b600052604160045260246000fdfea164736f6c6343000802000a",
  "linkReferences": {},
  "deployedLinkReferences": {}
}