{
  "_format": "hh-sol-artifact-1",
  "contractName": "MoneyPoolV2",
  "sourceName": "contracts/v2/satis_core/MoneyPoolProxy.sol",
  "abi": [
    {
      "inputs": [
        {
          "internalType": "string[]",
          "name": "_poolNameList",
          "type": "string[]"
        },
        {
          "internalType": "address[]",
          "name": "_poolAddressList",
          "type": "address[]"
        },
        {
          "internalType": "address",
          "name": "_actionContractAddress",
          "type": "address"
        }
      ],
      "stateMutability": "nonpayable",
      "type": "constructor"
    },
    {
      "anonymous": false,
      "inputs": [
        {
          "indexed": false,
          "internalType": "address[]",
          "name": "addWorkerList",
          "type": "address[]"
        }
      ],
      "name": "AddWorkers",
      "type": "event"
    },
    {
      "anonymous": false,
      "inputs": [
        {
          "indexed": false,
          "internalType": "address",
          "name": "newAdminAddress",
          "type": "address"
        }
      ],
      "name": "ChangeOwnership",
      "type": "event"
    },
    {
      "anonymous": false,
      "inputs": [
        {
          "indexed": false,
          "internalType": "address[]",
          "name": "newlyAddedPoolAddressList",
          "type": "address[]"
        }
      ],
      "name": "ChangePoolAddress",
      "type": "event"
    },
    {
      "anonymous": false,
      "inputs": [
        {
          "indexed": false,
          "internalType": "address[]",
          "name": "removeWorkerList",
          "type": "address[]"
        }
      ],
      "name": "RemoveWorkers",
      "type": "event"
    },
    {
      "inputs": [],
      "name": "actionContractAddress",
      "outputs": [
        {
          "internalType": "address",
          "name": "",
          "type": "address"
        }
      ],
      "stateMutability": "view",
      "type": "function"
    },
    {
      "inputs": [
        {
          "internalType": "address",
          "name": "_tokenAddress",
          "type": "address"
        },
        {
          "internalType": "uint256",
          "name": "_tokenValue",
          "type": "uint256"
        },
        {
          "internalType": "string",
          "name": "_data",
          "type": "string"
        },
        {
          "internalType": "string",
          "name": "_poolName",
          "type": "string"
        }
      ],
      "name": "addFundWithAction",
      "outputs": [
        {
          "internalType": "bool",
          "name": "_isDone",
          "type": "bool"
        }
      ],
      "stateMutability": "nonpayable",
      "type": "function"
    },
    {
      "inputs": [
        {
          "internalType": "address[]",
          "name": "_addWorkerList",
          "type": "address[]"
        }
      ],
      "name": "addWorkers",
      "outputs": [],
      "stateMutability": "nonpayable",
      "type": "function"
    },
    {
      "inputs": [
        {
          "internalType": "address",
          "name": "_newActionContractAddress",
          "type": "address"
        }
      ],
      "name": "changeActionContract",
      "outputs": [],
      "stateMutability": "nonpayable",
      "type": "function"
    },
    {
      "inputs": [
        {
          "internalType": "string[]",
          "name": "_newPoolNameList",
          "type": "string[]"
        },
        {
          "internalType": "address[]",
          "name": "_newPoolAddressList",
          "type": "address[]"
        }
      ],
      "name": "changePool",
      "outputs": [],
      "stateMutability": "nonpayable",
      "type": "function"
    },
    {
      "inputs": [
        {
          "internalType": "address",
          "name": "_clientAddress",
          "type": "address"
        },
        {
          "internalType": "string",
          "name": "_poolName",
          "type": "string"
        }
      ],
      "name": "getClientNonce",
      "outputs": [
        {
          "internalType": "uint256",
          "name": "clientNonce",
          "type": "uint256"
        }
      ],
      "stateMutability": "view",
      "type": "function"
    },
    {
      "inputs": [
        {
          "internalType": "address",
          "name": "_tokenAddress",
          "type": "address"
        },
        {
          "internalType": "string",
          "name": "_poolName",
          "type": "string"
        }
      ],
      "name": "getLiquidityAmountInPool",
      "outputs": [
        {
          "internalType": "uint256",
          "name": "liquidityInPool",
          "type": "uint256"
        }
      ],
      "stateMutability": "view",
      "type": "function"
    },
    {
      "inputs": [
        {
          "internalType": "string",
          "name": "_poolName",
          "type": "string"
        }
      ],
      "name": "getPoolAddress",
      "outputs": [
        {
          "internalType": "address",
          "name": "_poolAddress",
          "type": "address"
        }
      ],
      "stateMutability": "view",
      "type": "function"
    },
    {
      "inputs": [
        {
          "internalType": "string",
          "name": "_poolName",
          "type": "string"
        }
      ],
      "name": "getPoolOwner",
      "outputs": [
        {
          "internalType": "address",
          "name": "poolOwner",
          "type": "address"
        }
      ],
      "stateMutability": "view",
      "type": "function"
    },
    {
      "inputs": [],
      "name": "owner",
      "outputs": [
        {
          "internalType": "address",
          "name": "",
          "type": "address"
        }
      ],
      "stateMutability": "view",
      "type": "function"
    },
    {
      "inputs": [
        {
          "internalType": "string",
          "name": "",
          "type": "string"
        }
      ],
      "name": "poolAddressList",
      "outputs": [
        {
          "internalType": "address",
          "name": "",
          "type": "address"
        }
      ],
      "stateMutability": "view",
      "type": "function"
    },
    {
      "inputs": [
        {
          "internalType": "address[]",
          "name": "_removeWorkerList",
          "type": "address[]"
        }
      ],
      "name": "removeWorkers",
      "outputs": [],
      "stateMutability": "nonpayable",
      "type": "function"
    },
    {
      "inputs": [
        {
          "internalType": "address",
          "name": "_newOwner",
          "type": "address"
        }
      ],
      "name": "transferOwnershipMoneyPoolProxy",
      "outputs": [],
      "stateMutability": "nonpayable",
      "type": "function"
    },
    {
      "inputs": [
        {
          "internalType": "bytes",
          "name": "_targetSignature",
          "type": "bytes"
        },
        {
          "internalType": "address",
          "name": "_tokenAddress",
          "type": "address"
        },
        {
          "internalType": "uint256",
          "name": "_partialWithdrawValue",
          "type": "uint256"
        },
        {
          "internalType": "uint256",
          "name": "_tier",
          "type": "uint256"
        },
        {
          "internalType": "uint256",
          "name": "_expBlockNo",
          "type": "uint256"
        },
        {
          "internalType": "string",
          "name": "_ticketId",
          "type": "string"
        },
        {
          "internalType": "uint256",
          "name": "_nonce",
          "type": "uint256"
        },
        {
          "internalType": "string",
          "name": "_poolName",
          "type": "string"
        }
      ],
      "name": "verifyAndPartialWithdrawFund",
      "outputs": [
        {
          "internalType": "bool",
          "name": "_isDone",
          "type": "bool"
        }
      ],
      "stateMutability": "nonpayable",
      "type": "function"
    },
    {
      "inputs": [
        {
          "internalType": "bytes",
          "name": "_targetSignature",
          "type": "bytes"
        },
        {
          "internalType": "address",
          "name": "_tokenAddress",
          "type": "address"
        },
        {
          "internalType": "uint256",
          "name": "_queueValue",
          "type": "uint256"
        },
        {
          "internalType": "uint256",
          "name": "_tier",
          "type": "uint256"
        },
        {
          "internalType": "uint256",
          "name": "_expBlockNo",
          "type": "uint256"
        },
        {
          "internalType": "string",
          "name": "_ticketId",
          "type": "string"
        },
        {
          "internalType": "uint256",
          "name": "_nonce",
          "type": "uint256"
        },
        {
          "internalType": "string",
          "name": "_poolName",
          "type": "string"
        }
      ],
      "name": "verifyAndQueue",
      "outputs": [
        {
          "internalType": "bool",
          "name": "_isDone",
          "type": "bool"
        }
      ],
      "stateMutability": "nonpayable",
      "type": "function"
    },
    {
      "inputs": [
        {
          "internalType": "bytes",
          "name": "_targetSignature",
          "type": "bytes"
        },
        {
          "internalType": "address",
          "name": "_tokenAddress",
          "type": "address"
        },
        {
          "internalType": "uint256",
          "name": "_withdrawValue",
          "type": "uint256"
        },
        {
          "internalType": "uint256",
          "name": "_tier",
          "type": "uint256"
        },
        {
          "internalType": "uint256",
          "name": "_expBlockNo",
          "type": "uint256"
        },
        {
          "internalType": "string",
          "name": "_ticketId",
          "type": "string"
        },
        {
          "internalType": "uint256",
          "name": "_nonce",
          "type": "uint256"
        },
        {
          "internalType": "string",
          "name": "_poolName",
          "type": "string"
        }
      ],
      "name": "verifyAndWithdrawFund",
      "outputs": [
        {
          "internalType": "bool",
          "name": "_isDone",
          "type": "bool"
        }
      ],
      "stateMutability": "nonpayable",
      "type": "function"
    },
    {
      "inputs": [
        {
          "internalType": "address",
          "name": "_workerAddress",
          "type": "address"
        }
      ],
      "name": "verifyWorker",
      "outputs": [
        {
          "internalType": "bool",
          "name": "_isWorker",
          "type": "bool"
        }
      ],
      "stateMutability": "view",
      "type": "function"
    },
    {
      "inputs": [
        {
          "internalType": "address",
          "name": "",
          "type": "address"
        }
      ],
      "name": "workerList",
      "outputs": [
        {
          "internalType": "bool",
          "name": "",
          "type": "bool"
        }
      ],
      "stateMutability": "view",
      "type": "function"
    }
  ],
  "bytecode": "0x60806040523480156200001157600080fd5b5060405162001d7738038062001d7783398101604081905262000034916200030c565b6001600160a01b038116620000905760405162461bcd60e51b815260206004820181905260248201527f5a65726f206164647265737320666f7220616374696f6e20636f6e747261637460448201526064015b60405180910390fd5b8151835114620000e35760405162461bcd60e51b815260206004820152601a60248201527f4c6973747327206c656e67746820697320646966666572656e74000000000000604482015260640162000087565b600080546001600160a01b0319163390811782558152600360205260408120805460ff191660011790555b8251811015620001a7578281815181106200012d576200012d6200045c565b602002602001015160028583815181106200014c576200014c6200045c565b602002602001015160405162000163919062000472565b90815260405190819003602001902080546001600160a01b03929092166001600160a01b0319909216919091179055806200019e8162000490565b9150506200010e565b50600180546001600160a01b0319166001600160a01b039290921691909117905550620004ba9050565b634e487b7160e01b600052604160045260246000fd5b604051601f8201601f191681016001600160401b0381118282101715620002125762000212620001d1565b604052919050565b60006001600160401b03821115620002365762000236620001d1565b5060051b60200190565b60005b838110156200025d57818101518382015260200162000243565b838111156200026d576000848401525b50505050565b80516001600160a01b03811681146200028b57600080fd5b919050565b600082601f830112620002a257600080fd5b81516020620002bb620002b5836200021a565b620001e7565b82815260059290921b84018101918181019086841115620002db57600080fd5b8286015b848110156200030157620002f38162000273565b8352918301918301620002df565b509695505050505050565b6000806000606084860312156200032257600080fd5b83516001600160401b03808211156200033a57600080fd5b818601915086601f8301126200034f57600080fd5b8151602062000362620002b5836200021a565b82815260059290921b8401810191818101908a8411156200038257600080fd5b8286015b848110156200041857805186811115620003a05760008081fd5b8701603f81018d13620003b35760008081fd5b84810151604088821115620003cc57620003cc620001d1565b620003e0601f8301601f19168801620001e7565b8281528f82848601011115620003f65760008081fd5b620004078389830184870162000240565b865250505091830191830162000386565b50918901519197509093505050808211156200043357600080fd5b50620004428682870162000290565b925050620004536040850162000273565b90509250925092565b634e487b7160e01b600052603260045260246000fd5b600082516200048681846020870162000240565b9190910192915050565b6000600019821415620004b357634e487b7160e01b600052601160045260246000fd5b5060010190565b6118ad80620004ca6000396000f3fe608060405234801561001057600080fd5b50600436106101365760003560e01c8063609677a1116100b2578063a39c235511610081578063d7e0c66611610066578063d7e0c666146102ae578063daa74181146102d1578063ea5ada46146102e457600080fd5b8063a39c235514610288578063a4255fdd1461029b57600080fd5b8063609677a11461023c5780636180bace1461024f57806380e11b25146102625780638da5cb5b1461027557600080fd5b80632b30368c1161010957806337fc4c52116100ee57806337fc4c52146102035780634a45501d146102165780634ce1054d1461022957600080fd5b80632b30368c146101c457806332fa4a9e146101f057600080fd5b80630111efb71461013b578063093988e5146101505780630d62d7c81461017657806323dcad4914610199575b600080fd5b61014e610149366004611306565b610318565b005b61016361015e3660046113ab565b610409565b6040519081526020015b60405180910390f35b6101896101843660046113fb565b61050f565b604051901515815260200161016d565b6101ac6101a73660046114bb565b61077c565b6040516001600160a01b03909116815260200161016d565b6101896101d23660046114f0565b6001600160a01b031660009081526003602052604090205460ff1690565b61014e6101fe3660046114f0565b61087d565b61018961021136600461150d565b6109a6565b61014e61022436600461158d565b610b5c565b61014e610237366004611306565b610cd9565b61016361024a3660046113ab565b610dba565b61018961025d3660046113fb565b610e7b565b6001546101ac906001600160a01b031681565b6000546101ac906001600160a01b031681565b61014e6102963660046114f0565b610edd565b6101896102a93660046113fb565b610fc1565b6101896102bc3660046114f0565b60036020526000908152604090205460ff1681565b6101ac6102df3660046114bb565b6111ce565b6101ac6102f23660046114bb565b80516020818301810180516002825292820191909301209152546001600160a01b031681565b6000546001600160a01b031633146103665760405162461bcd60e51b815260206004820152600c60248201526b2737ba1030b71030b236b4b760a11b60448201526064015b60405180910390fd5b60005b81518110156103ce5760016003600084848151811061038a5761038a611657565b6020908102919091018101516001600160a01b03168252810191909152604001600020805460ff1916911515919091179055806103c68161166d565b915050610369565b507f9e36e65aa003add44ff529b38d35a7fed088dd29f3ab43ee9ee17e449621ff98816040516103fe9190611696565b60405180910390a150565b6000806001600160a01b03166002836040516104259190611713565b908152604051908190036020019020546001600160a01b0316141561047b5760405162461bcd60e51b815260206004820152600c60248201526b139bc81cdd58da081c1bdbdb60a21b604482015260640161035d565b600060028360405161048d9190611713565b90815260405190819003602001812054634738198f60e11b82526001600160a01b0386811660048401521691508190638e70331e906024015b602060405180830381865afa1580156104e3573d6000803e3d6000fd5b505050506040513d601f19601f82011682018060405250810190610507919061172f565b949350505050565b6000856001146105715760405162461bcd60e51b815260206004820152602760248201527f57726f6e672066756e6374696f6e2063616c6c656420666f722077697468647260448201526630bb903a34b2b960c91b606482015260840161035d565b60006001600160a01b031660028360405161058c9190611713565b908152604051908190036020019020546001600160a01b031614156105e25760405162461bcd60e51b815260206004820152600c60248201526b139bc81cdd58da081c1bdbdb60a21b604482015260640161035d565b60006002836040516105f49190611713565b908152602001604051809103902060009054906101000a90046001600160a01b031690506000816001600160a01b03166327a34e9d8c338d8d8d4660028c60405161063f9190611713565b908152602001604051809103902060009054906101000a90046001600160a01b03168f8f8f6040518b63ffffffff1660e01b81526004016106899a99989796959493929190611774565b6020604051808303816000875af11580156106a8573d6000803e3d6000fd5b505050506040513d601f19601f820116820180604052508101906106cc91906117ef565b90506000600160009054906101000a90046001600160a01b031690506000816001600160a01b03166384c839a989338f8f6040518563ffffffff1660e01b815260040161071c9493929190611811565b6020604051808303816000875af115801561073b573d6000803e3d6000fd5b505050506040513d601f19601f8201168201806040525081019061075f91906117ef565b905082801561076b5750805b9d9c50505050505050505050505050565b6000806001600160a01b03166002836040516107989190611713565b908152604051908190036020019020546001600160a01b031614156107ee5760405162461bcd60e51b815260206004820152600c60248201526b139bc81cdd58da081c1bdbdb60a21b604482015260640161035d565b60006002836040516108009190611713565b908152604080516020928190038301812054638da5cb5b60e01b825291516001600160a01b0390921693508392638da5cb5b926004808401938290030181865afa158015610852573d6000803e3d6000fd5b505050506040513d601f19601f820116820180604052508101906108769190611847565b9392505050565b6000546001600160a01b031633146108c65760405162461bcd60e51b815260206004820152600c60248201526b2737ba1030b71030b236b4b760a11b604482015260640161035d565b6001600160a01b03811661091c5760405162461bcd60e51b815260206004820152601a60248201527f5a65726f206164647265737320666f72206e6577206f776e6572000000000000604482015260640161035d565b600080546001600160a01b039081168252600360209081526040808420805460ff19908116909155845473ffffffffffffffffffffffffffffffffffffffff19168685169081178655855281852080549091166001179055925492519290911682527f244ded7a3b73e60f03281fc183df050e6134d393c50788e980dc090f06e7280991016103fe565b6000806001600160a01b03166002836040516109c29190611713565b908152604051908190036020019020546001600160a01b03161415610a185760405162461bcd60e51b815260206004820152600c60248201526b139bc81cdd58da081c1bdbdb60a21b604482015260640161035d565b60008415610ac2576000600284604051610a329190611713565b90815260405190819003602001812054635dd72c0f60e01b82523360048301526001600160a01b038981166024840152604483018990521691508190635dd72c0f906064016020604051808303816000875af1158015610a96573d6000803e3d6000fd5b505050506040513d601f19601f82011682018060405250810190610aba91906117ef565b915050610ac6565b5060015b600154604051634dd9469560e01b81526001600160a01b03909116906000908290634dd9469590610b019033908c908c908c90600401611864565b6020604051808303816000875af1158015610b20573d6000803e3d6000fd5b505050506040513d601f19601f82011682018060405250810190610b4491906117ef565b9050828015610b505750805b98975050505050505050565b3360009081526003602052604090205460ff161515600114610baf5760405162461bcd60e51b815260206004820152600c60248201526b2737ba1030903bb7b935b2b960a11b604482015260640161035d565b8051825114610c005760405162461bcd60e51b815260206004820152601a60248201527f4c6973747327206c656e67746820697320646966666572656e74000000000000604482015260640161035d565b60005b8151811015610c9d57818181518110610c1e57610c1e611657565b60200260200101516002848381518110610c3a57610c3a611657565b6020026020010151604051610c4f9190611713565b90815260405190819003602001902080546001600160a01b039290921673ffffffffffffffffffffffffffffffffffffffff1990921691909117905580610c958161166d565b915050610c03565b507f041572ba5a007337eb900b91bde4bf7a58838c66fe504a88a09c15d551891c8381604051610ccd9190611696565b60405180910390a15050565b6000546001600160a01b03163314610d225760405162461bcd60e51b815260206004820152600c60248201526b2737ba1030b71030b236b4b760a11b604482015260640161035d565b60005b8151811015610d8a57600060036000848481518110610d4657610d46611657565b6020908102919091018101516001600160a01b03168252810191909152604001600020805460ff191691151591909117905580610d828161166d565b915050610d25565b507f76fe8505b7c4b7ba022031c51ac725c7177670399af7d2ebca7026b7e25bf893816040516103fe9190611696565b6000806001600160a01b0316600283604051610dd69190611713565b908152604051908190036020019020546001600160a01b03161415610e2c5760405162461bcd60e51b815260206004820152600c60248201526b139bc81cdd58da081c1bdbdb60a21b604482015260640161035d565b6000600283604051610e3e9190611713565b908152604051908190036020018120546348bc13a560e11b82526001600160a01b0386811660048401521691508190639178274a906024016104c6565b6000856003146105715760405162461bcd60e51b815260206004820152602760248201527f57726f6e672066756e6374696f6e2063616c6c656420666f722077697468647260448201526630bb903a34b2b960c91b606482015260840161035d565b3360009081526003602052604090205460ff161515600114610f305760405162461bcd60e51b815260206004820152600c60248201526b2737ba1030903bb7b935b2b960a11b604482015260640161035d565b6001600160a01b038116610f925760405162461bcd60e51b8152602060048201526024808201527f5a65726f206164647265737320666f72206e657720616374696f6e20636f6e746044820152631c9858dd60e21b606482015260840161035d565b6001805473ffffffffffffffffffffffffffffffffffffffff19166001600160a01b0392909216919091179055565b6000856002146110235760405162461bcd60e51b815260206004820152602760248201527f57726f6e672066756e6374696f6e2063616c6c656420666f722077697468647260448201526630bb903a34b2b960c91b606482015260840161035d565b60006001600160a01b031660028360405161103e9190611713565b908152604051908190036020019020546001600160a01b031614156110945760405162461bcd60e51b815260206004820152600c60248201526b139bc81cdd58da081c1bdbdb60a21b604482015260640161035d565b60006002836040516110a69190611713565b908152602001604051809103902060009054906101000a90046001600160a01b031690506000816001600160a01b031663a86a939b8c338d8d8d4660028c6040516110f19190611713565b908152602001604051809103902060009054906101000a90046001600160a01b03168f8f8f6040518b63ffffffff1660e01b815260040161113b9a99989796959493929190611774565b6020604051808303816000875af115801561115a573d6000803e3d6000fd5b505050506040513d601f19601f8201168201806040525081019061117e91906117ef565b90506000600160009054906101000a90046001600160a01b031690506000816001600160a01b031663d4041e5989338f8f6040518563ffffffff1660e01b815260040161071c9493929190611811565b60006002826040516111e09190611713565b908152604051908190036020019020546001600160a01b031692915050565b634e487b7160e01b600052604160045260246000fd5b604051601f8201601f1916810167ffffffffffffffff8111828210171561123e5761123e6111ff565b604052919050565b600067ffffffffffffffff821115611260576112606111ff565b5060051b60200190565b6001600160a01b038116811461127f57600080fd5b50565b803561128d8161126a565b919050565b600082601f8301126112a357600080fd5b813560206112b86112b383611246565b611215565b82815260059290921b840181019181810190868411156112d757600080fd5b8286015b848110156112fb5780356112ee8161126a565b83529183019183016112db565b509695505050505050565b60006020828403121561131857600080fd5b813567ffffffffffffffff81111561132f57600080fd5b61050784828501611292565b600082601f83011261134c57600080fd5b813567ffffffffffffffff811115611366576113666111ff565b611379601f8201601f1916602001611215565b81815284602083860101111561138e57600080fd5b816020850160208301376000918101602001919091529392505050565b600080604083850312156113be57600080fd5b82356113c98161126a565b9150602083013567ffffffffffffffff8111156113e557600080fd5b6113f18582860161133b565b9150509250929050565b600080600080600080600080610100898b03121561141857600080fd5b883567ffffffffffffffff8082111561143057600080fd5b61143c8c838d0161133b565b995061144a60208c01611282565b985060408b0135975060608b0135965060808b0135955060a08b013591508082111561147557600080fd5b6114818c838d0161133b565b945060c08b0135935060e08b013591508082111561149e57600080fd5b506114ab8b828c0161133b565b9150509295985092959890939650565b6000602082840312156114cd57600080fd5b813567ffffffffffffffff8111156114e457600080fd5b6105078482850161133b565b60006020828403121561150257600080fd5b81356108768161126a565b6000806000806080858703121561152357600080fd5b843561152e8161126a565b935060208501359250604085013567ffffffffffffffff8082111561155257600080fd5b61155e8883890161133b565b9350606087013591508082111561157457600080fd5b506115818782880161133b565b91505092959194509250565b600080604083850312156115a057600080fd5b823567ffffffffffffffff808211156115b857600080fd5b818501915085601f8301126115cc57600080fd5b813560206115dc6112b383611246565b82815260059290921b840181019181810190898411156115fb57600080fd5b8286015b84811015611633578035868111156116175760008081fd5b6116258c86838b010161133b565b8452509183019183016115ff565b509650508601359250508082111561164a57600080fd5b506113f185828601611292565b634e487b7160e01b600052603260045260246000fd5b600060001982141561168f57634e487b7160e01b600052601160045260246000fd5b5060010190565b6020808252825182820181905260009190848201906040850190845b818110156116d75783516001600160a01b0316835292840192918401916001016116b2565b50909695505050505050565b60005b838110156116fe5781810151838201526020016116e6565b8381111561170d576000848401525b50505050565b600082516117258184602087016116e3565b9190910192915050565b60006020828403121561174157600080fd5b5051919050565b600081518084526117608160208601602086016116e3565b601f01601f19169290920160200192915050565b60006101408083526117888184018e611748565b90506001600160a01b03808d166020850152808c1660408501528a60608501528960808501528860a085015280881660c0850152508560e08401528281036101008401526117d68186611748565b915050826101208301529b9a5050505050505050505050565b60006020828403121561180157600080fd5b8151801515811461087657600080fd5b6080815260006118246080830187611748565b6001600160a01b0395861660208401529390941660408201526060015292915050565b60006020828403121561185957600080fd5b81516108768161126a565b60006001600160a01b038087168352808616602084015250836040830152608060608301526118966080830184611748565b969550505050505056fea164736f6c634300080c000a",
  "linkReferences": {},
  "deployedLinkReferences": {}
}