{
  "_format": "hh-sol-artifact-1",
  "contractName": "MoneyPoolV2",
  "sourceName": "contracts/v2/satis_core/MoneyPoolProxy.sol",
  "abi": [
    {
      "inputs": [
        {
          "internalType": "string[]",
          "name": "_poolNameList",
          "type": "string[]"
        },
        {
          "internalType": "address[]",
          "name": "_poolAddressList",
          "type": "address[]"
        },
        {
          "internalType": "address",
          "name": "_actionContractAddress",
          "type": "address"
        }
      ],
      "stateMutability": "nonpayable",
      "type": "constructor"
    },
    {
      "anonymous": false,
      "inputs": [
        {
          "indexed": false,
          "internalType": "address[]",
          "name": "addWorkerList",
          "type": "address[]"
        }
      ],
      "name": "AddWorkers",
      "type": "event"
    },
    {
      "anonymous": false,
      "inputs": [
        {
          "indexed": false,
          "internalType": "address",
          "name": "newAdminAddress",
          "type": "address"
        }
      ],
      "name": "ChangeOwnership",
      "type": "event"
    },
    {
      "anonymous": false,
      "inputs": [
        {
          "indexed": false,
          "internalType": "address[]",
          "name": "newlyAddedPoolAddressList",
          "type": "address[]"
        }
      ],
      "name": "ChangePoolAddress",
      "type": "event"
    },
    {
      "anonymous": false,
      "inputs": [
        {
          "indexed": false,
          "internalType": "address[]",
          "name": "removeWorkerList",
          "type": "address[]"
        }
      ],
      "name": "RemoveWorkers",
      "type": "event"
    },
    {
      "inputs": [],
      "name": "actionContractAddress",
      "outputs": [
        {
          "internalType": "address",
          "name": "",
          "type": "address"
        }
      ],
      "stateMutability": "view",
      "type": "function"
    },
    {
      "inputs": [
        {
          "internalType": "address",
          "name": "_tokenAddress",
          "type": "address"
        },
        {
          "internalType": "uint256",
          "name": "_tokenValue",
          "type": "uint256"
        },
        {
          "internalType": "string",
          "name": "_data",
          "type": "string"
        },
        {
          "internalType": "string",
          "name": "_poolName",
          "type": "string"
        }
      ],
      "name": "addFundWithAction",
      "outputs": [
        {
          "internalType": "bool",
          "name": "_isDone",
          "type": "bool"
        }
      ],
      "stateMutability": "nonpayable",
      "type": "function"
    },
    {
      "inputs": [
        {
          "internalType": "address[]",
          "name": "_addWorkerList",
          "type": "address[]"
        }
      ],
      "name": "addWorkers",
      "outputs": [],
      "stateMutability": "nonpayable",
      "type": "function"
    },
    {
      "inputs": [
        {
          "internalType": "address",
          "name": "_newActionContractAddress",
          "type": "address"
        }
      ],
      "name": "changeActionContract",
      "outputs": [],
      "stateMutability": "nonpayable",
      "type": "function"
    },
    {
      "inputs": [
        {
          "internalType": "string[]",
          "name": "_newPoolNameList",
          "type": "string[]"
        },
        {
          "internalType": "address[]",
          "name": "_newPoolAddressList",
          "type": "address[]"
        }
      ],
      "name": "changePool",
      "outputs": [],
      "stateMutability": "nonpayable",
      "type": "function"
    },
    {
      "inputs": [
        {
          "internalType": "address",
          "name": "_clientAddress",
          "type": "address"
        },
        {
          "internalType": "string",
          "name": "_poolName",
          "type": "string"
        }
      ],
      "name": "getClientNonce",
      "outputs": [
        {
          "internalType": "uint256",
          "name": "clientNonce",
          "type": "uint256"
        }
      ],
      "stateMutability": "view",
      "type": "function"
    },
    {
      "inputs": [
        {
          "internalType": "address",
          "name": "_tokenAddress",
          "type": "address"
        },
        {
          "internalType": "string",
          "name": "_poolName",
          "type": "string"
        }
      ],
      "name": "getLiquidityAmountInPool",
      "outputs": [
        {
          "internalType": "uint256",
          "name": "liquidityInPool",
          "type": "uint256"
        }
      ],
      "stateMutability": "view",
      "type": "function"
    },
    {
      "inputs": [
        {
          "internalType": "string",
          "name": "_poolName",
          "type": "string"
        }
      ],
      "name": "getPoolAddress",
      "outputs": [
        {
          "internalType": "address",
          "name": "_poolAddress",
          "type": "address"
        }
      ],
      "stateMutability": "view",
      "type": "function"
    },
    {
      "inputs": [
        {
          "internalType": "string",
          "name": "_poolName",
          "type": "string"
        }
      ],
      "name": "getPoolOwner",
      "outputs": [
        {
          "internalType": "address",
          "name": "poolOwner",
          "type": "address"
        }
      ],
      "stateMutability": "view",
      "type": "function"
    },
    {
      "inputs": [],
      "name": "owner",
      "outputs": [
        {
          "internalType": "address",
          "name": "",
          "type": "address"
        }
      ],
      "stateMutability": "view",
      "type": "function"
    },
    {
      "inputs": [
        {
          "internalType": "string",
          "name": "",
          "type": "string"
        }
      ],
      "name": "poolAddressList",
      "outputs": [
        {
          "internalType": "address",
          "name": "",
          "type": "address"
        }
      ],
      "stateMutability": "view",
      "type": "function"
    },
    {
      "inputs": [
        {
          "internalType": "address[]",
          "name": "_removeWorkerList",
          "type": "address[]"
        }
      ],
      "name": "removeWorkers",
      "outputs": [],
      "stateMutability": "nonpayable",
      "type": "function"
    },
    {
      "inputs": [
        {
          "internalType": "address",
          "name": "_newOwner",
          "type": "address"
        }
      ],
      "name": "transferOwnershipMoneyPoolProxy",
      "outputs": [],
      "stateMutability": "nonpayable",
      "type": "function"
    },
    {
      "inputs": [
        {
          "internalType": "bytes",
          "name": "_targetSignature",
          "type": "bytes"
        },
        {
          "internalType": "address",
          "name": "_tokenAddress",
          "type": "address"
        },
        {
          "internalType": "uint256",
          "name": "_partialWithdrawValue",
          "type": "uint256"
        },
        {
          "internalType": "uint256",
          "name": "_tier",
          "type": "uint256"
        },
        {
          "internalType": "uint256",
          "name": "_expBlockNo",
          "type": "uint256"
        },
        {
          "internalType": "uint256",
          "name": "_nonce",
          "type": "uint256"
        },
        {
          "internalType": "string",
          "name": "_poolName",
          "type": "string"
        }
      ],
      "name": "verifyAndPartialWithdrawFund",
      "outputs": [
        {
          "internalType": "bool",
          "name": "_isDone",
          "type": "bool"
        }
      ],
      "stateMutability": "nonpayable",
      "type": "function"
    },
    {
      "inputs": [
        {
          "internalType": "bytes",
          "name": "_targetSignature",
          "type": "bytes"
        },
        {
          "internalType": "address",
          "name": "_tokenAddress",
          "type": "address"
        },
        {
          "internalType": "uint256",
          "name": "_queueValue",
          "type": "uint256"
        },
        {
          "internalType": "uint256",
          "name": "_tier",
          "type": "uint256"
        },
        {
          "internalType": "uint256",
          "name": "_expBlockNo",
          "type": "uint256"
        },
        {
          "internalType": "uint256",
          "name": "_nonce",
          "type": "uint256"
        },
        {
          "internalType": "string",
          "name": "_poolName",
          "type": "string"
        }
      ],
      "name": "verifyAndQueue",
      "outputs": [
        {
          "internalType": "bool",
          "name": "_isDone",
          "type": "bool"
        }
      ],
      "stateMutability": "nonpayable",
      "type": "function"
    },
    {
      "inputs": [
        {
          "internalType": "bytes",
          "name": "_targetSignature",
          "type": "bytes"
        },
        {
          "internalType": "address",
          "name": "_tokenAddress",
          "type": "address"
        },
        {
          "internalType": "uint256",
          "name": "_withdrawValue",
          "type": "uint256"
        },
        {
          "internalType": "uint256",
          "name": "_tier",
          "type": "uint256"
        },
        {
          "internalType": "uint256",
          "name": "_expBlockNo",
          "type": "uint256"
        },
        {
          "internalType": "uint256",
          "name": "_nonce",
          "type": "uint256"
        },
        {
          "internalType": "string",
          "name": "_poolName",
          "type": "string"
        }
      ],
      "name": "verifyAndWithdrawFund",
      "outputs": [
        {
          "internalType": "bool",
          "name": "_isDone",
          "type": "bool"
        }
      ],
      "stateMutability": "nonpayable",
      "type": "function"
    },
    {
      "inputs": [
        {
          "internalType": "address",
          "name": "_workerAddress",
          "type": "address"
        }
      ],
      "name": "verifyWorker",
      "outputs": [
        {
          "internalType": "bool",
          "name": "_isWorker",
          "type": "bool"
        }
      ],
      "stateMutability": "view",
      "type": "function"
    },
    {
      "inputs": [
        {
          "internalType": "address",
          "name": "",
          "type": "address"
        }
      ],
      "name": "workerList",
      "outputs": [
        {
          "internalType": "bool",
          "name": "",
          "type": "bool"
        }
      ],
      "stateMutability": "view",
      "type": "function"
    }
  ],
  "bytecode": "0x60806040523480156200001157600080fd5b5060405162001c3b38038062001c3b83398101604081905262000034916200030c565b6001600160a01b038116620000905760405162461bcd60e51b815260206004820181905260248201527f5a65726f206164647265737320666f7220616374696f6e20636f6e747261637460448201526064015b60405180910390fd5b8151835114620000e35760405162461bcd60e51b815260206004820152601a60248201527f4c6973747327206c656e67746820697320646966666572656e74000000000000604482015260640162000087565b600080546001600160a01b0319163390811782558152600360205260408120805460ff191660011790555b8251811015620001a7578281815181106200012d576200012d6200045c565b602002602001015160028583815181106200014c576200014c6200045c565b602002602001015160405162000163919062000472565b90815260405190819003602001902080546001600160a01b03929092166001600160a01b0319909216919091179055806200019e8162000490565b9150506200010e565b50600180546001600160a01b0319166001600160a01b039290921691909117905550620004ba9050565b634e487b7160e01b600052604160045260246000fd5b604051601f8201601f191681016001600160401b0381118282101715620002125762000212620001d1565b604052919050565b60006001600160401b03821115620002365762000236620001d1565b5060051b60200190565b60005b838110156200025d57818101518382015260200162000243565b838111156200026d576000848401525b50505050565b80516001600160a01b03811681146200028b57600080fd5b919050565b600082601f830112620002a257600080fd5b81516020620002bb620002b5836200021a565b620001e7565b82815260059290921b84018101918181019086841115620002db57600080fd5b8286015b848110156200030157620002f38162000273565b8352918301918301620002df565b509695505050505050565b6000806000606084860312156200032257600080fd5b83516001600160401b03808211156200033a57600080fd5b818601915086601f8301126200034f57600080fd5b8151602062000362620002b5836200021a565b82815260059290921b8401810191818101908a8411156200038257600080fd5b8286015b848110156200041857805186811115620003a05760008081fd5b8701603f81018d13620003b35760008081fd5b84810151604088821115620003cc57620003cc620001d1565b620003e0601f8301601f19168801620001e7565b8281528f82848601011115620003f65760008081fd5b620004078389830184870162000240565b865250505091830191830162000386565b50918901519197509093505050808211156200043357600080fd5b50620004428682870162000290565b925050620004536040850162000273565b90509250925092565b634e487b7160e01b600052603260045260246000fd5b600082516200048681846020870162000240565b9190910192915050565b6000600019821415620004b357634e487b7160e01b600052601160045260246000fd5b5060010190565b61177180620004ca6000396000f3fe608060405234801561001057600080fd5b50600436106101365760003560e01c806362cb05f2116100b2578063a39c235511610081578063d7e0c66611610066578063d7e0c666146102ae578063daa74181146102d1578063ea5ada46146102e457600080fd5b8063a39c235514610288578063b02b900e1461029b57600080fd5b806362cb05f21461023c5780637ddb31291461024f57806380e11b25146102625780638da5cb5b1461027557600080fd5b806332fa4a9e116101095780634a45501d116100ee5780634a45501d146102035780634ce1054d14610216578063609677a11461022957600080fd5b806332fa4a9e146101dd57806337fc4c52146101f057600080fd5b80630111efb71461013b578063093988e51461015057806323dcad49146101765780632b30368c146101a1575b600080fd5b61014e61014936600461121e565b610318565b005b61016361015e3660046112cb565b610409565b6040519081526020015b60405180910390f35b61018961018436600461131b565b61050f565b6040516001600160a01b03909116815260200161016d565b6101cd6101af366004611350565b6001600160a01b031660009081526003602052604090205460ff1690565b604051901515815260200161016d565b61014e6101eb366004611350565b610610565b6101cd6101fe36600461136d565b610739565b61014e6102113660046113ed565b6108ef565b61014e61022436600461121e565b610a6c565b6101636102373660046112cb565b610b4d565b6101cd61024a3660046114b7565b610c0e565b6101cd61025d3660046114b7565b610e70565b600154610189906001600160a01b031681565b600054610189906001600160a01b031681565b61014e610296366004611350565b610fa0565b6101cd6102a93660046114b7565b611084565b6101cd6102bc366004611350565b60036020526000908152604090205460ff1681565b6101896102df36600461131b565b6110e6565b6101896102f236600461131b565b80516020818301810180516002825292820191909301209152546001600160a01b031681565b6000546001600160a01b031633146103665760405162461bcd60e51b815260206004820152600c60248201526b2737ba1030b71030b236b4b760a11b60448201526064015b60405180910390fd5b60005b81518110156103ce5760016003600084848151811061038a5761038a611569565b6020908102919091018101516001600160a01b03168252810191909152604001600020805460ff1916911515919091179055806103c68161157f565b915050610369565b507f9e36e65aa003add44ff529b38d35a7fed088dd29f3ab43ee9ee17e449621ff98816040516103fe91906115a8565b60405180910390a150565b6000806001600160a01b03166002836040516104259190611625565b908152604051908190036020019020546001600160a01b0316141561047b5760405162461bcd60e51b815260206004820152600c60248201526b139bc81cdd58da081c1bdbdb60a21b604482015260640161035d565b600060028360405161048d9190611625565b90815260405190819003602001812054634738198f60e11b82526001600160a01b0386811660048401521691508190638e70331e906024015b602060405180830381865afa1580156104e3573d6000803e3d6000fd5b505050506040513d601f19601f820116820180604052508101906105079190611641565b949350505050565b6000806001600160a01b031660028360405161052b9190611625565b908152604051908190036020019020546001600160a01b031614156105815760405162461bcd60e51b815260206004820152600c60248201526b139bc81cdd58da081c1bdbdb60a21b604482015260640161035d565b60006002836040516105939190611625565b908152604080516020928190038301812054638da5cb5b60e01b825291516001600160a01b0390921693508392638da5cb5b926004808401938290030181865afa1580156105e5573d6000803e3d6000fd5b505050506040513d601f19601f82011682018060405250810190610609919061165a565b9392505050565b6000546001600160a01b031633146106595760405162461bcd60e51b815260206004820152600c60248201526b2737ba1030b71030b236b4b760a11b604482015260640161035d565b6001600160a01b0381166106af5760405162461bcd60e51b815260206004820152601a60248201527f5a65726f206164647265737320666f72206e6577206f776e6572000000000000604482015260640161035d565b600080546001600160a01b039081168252600360209081526040808420805460ff19908116909155845473ffffffffffffffffffffffffffffffffffffffff19168685169081178655855281852080549091166001179055925492519290911682527f244ded7a3b73e60f03281fc183df050e6134d393c50788e980dc090f06e7280991016103fe565b6000806001600160a01b03166002836040516107559190611625565b908152604051908190036020019020546001600160a01b031614156107ab5760405162461bcd60e51b815260206004820152600c60248201526b139bc81cdd58da081c1bdbdb60a21b604482015260640161035d565b600084156108555760006002846040516107c59190611625565b90815260405190819003602001812054635dd72c0f60e01b82523360048301526001600160a01b038981166024840152604483018990521691508190635dd72c0f906064016020604051808303816000875af1158015610829573d6000803e3d6000fd5b505050506040513d601f19601f8201168201806040525081019061084d9190611677565b915050610859565b5060015b600154604051634dd9469560e01b81526001600160a01b03909116906000908290634dd94695906108949033908c908c908c906004016116c5565b6020604051808303816000875af11580156108b3573d6000803e3d6000fd5b505050506040513d601f19601f820116820180604052508101906108d79190611677565b90508280156108e35750805b98975050505050505050565b3360009081526003602052604090205460ff1615156001146109425760405162461bcd60e51b815260206004820152600c60248201526b2737ba1030903bb7b935b2b960a11b604482015260640161035d565b80518251146109935760405162461bcd60e51b815260206004820152601a60248201527f4c6973747327206c656e67746820697320646966666572656e74000000000000604482015260640161035d565b60005b8151811015610a30578181815181106109b1576109b1611569565b602002602001015160028483815181106109cd576109cd611569565b60200260200101516040516109e29190611625565b90815260405190819003602001902080546001600160a01b039290921673ffffffffffffffffffffffffffffffffffffffff1990921691909117905580610a288161157f565b915050610996565b507f041572ba5a007337eb900b91bde4bf7a58838c66fe504a88a09c15d551891c8381604051610a6091906115a8565b60405180910390a15050565b6000546001600160a01b03163314610ab55760405162461bcd60e51b815260206004820152600c60248201526b2737ba1030b71030b236b4b760a11b604482015260640161035d565b60005b8151811015610b1d57600060036000848481518110610ad957610ad9611569565b6020908102919091018101516001600160a01b03168252810191909152604001600020805460ff191691151591909117905580610b158161157f565b915050610ab8565b507f76fe8505b7c4b7ba022031c51ac725c7177670399af7d2ebca7026b7e25bf893816040516103fe91906115a8565b6000806001600160a01b0316600283604051610b699190611625565b908152604051908190036020019020546001600160a01b03161415610bbf5760405162461bcd60e51b815260206004820152600c60248201526b139bc81cdd58da081c1bdbdb60a21b604482015260640161035d565b6000600283604051610bd19190611625565b908152604051908190036020018120546348bc13a560e11b82526001600160a01b0386811660048401521691508190639178274a906024016104c6565b600084600214610c705760405162461bcd60e51b815260206004820152602760248201527f57726f6e672066756e6374696f6e2063616c6c656420666f722077697468647260448201526630bb903a34b2b960c91b606482015260840161035d565b60006001600160a01b0316600283604051610c8b9190611625565b908152604051908190036020019020546001600160a01b03161415610ce15760405162461bcd60e51b815260206004820152600c60248201526b139bc81cdd58da081c1bdbdb60a21b604482015260640161035d565b6000600283604051610cf39190611625565b908152602001604051809103902060009054906101000a90046001600160a01b031690506000816001600160a01b031663bfeebfd28b338c8c8c4660028c604051610d3e9190611625565b908152602001604051809103902060009054906101000a90046001600160a01b03168e8e6040518a63ffffffff1660e01b8152600401610d8699989796959493929190611701565b6020604051808303816000875af1158015610da5573d6000803e3d6000fd5b505050506040513d601f19601f82011682018060405250810190610dc99190611677565b600154604051634a553ebf60e01b81523360048201526001600160a01b038c81166024830152604482018c9052606482018b90529293509116906000908290634a553ebf906084016020604051808303816000875af1158015610e30573d6000803e3d6000fd5b505050506040513d601f19601f82011682018060405250810190610e549190611677565b9050828015610e605750805b9c9b505050505050505050505050565b600084600314610ed25760405162461bcd60e51b815260206004820152602760248201527f57726f6e672066756e6374696f6e2063616c6c656420666f722077697468647260448201526630bb903a34b2b960c91b606482015260840161035d565b60006001600160a01b0316600283604051610eed9190611625565b908152604051908190036020019020546001600160a01b03161415610f435760405162461bcd60e51b815260206004820152600c60248201526b139bc81cdd58da081c1bdbdb60a21b604482015260640161035d565b6000600283604051610f559190611625565b908152602001604051809103902060009054906101000a90046001600160a01b031690506000816001600160a01b03166394b466608b338c8c8c4660028c604051610d3e9190611625565b3360009081526003602052604090205460ff161515600114610ff35760405162461bcd60e51b815260206004820152600c60248201526b2737ba1030903bb7b935b2b960a11b604482015260640161035d565b6001600160a01b0381166110555760405162461bcd60e51b8152602060048201526024808201527f5a65726f206164647265737320666f72206e657720616374696f6e20636f6e746044820152631c9858dd60e21b606482015260840161035d565b6001805473ffffffffffffffffffffffffffffffffffffffff19166001600160a01b0392909216919091179055565b600084600114610ed25760405162461bcd60e51b815260206004820152602760248201527f57726f6e672066756e6374696f6e2063616c6c656420666f722077697468647260448201526630bb903a34b2b960c91b606482015260840161035d565b60006002826040516110f89190611625565b908152604051908190036020019020546001600160a01b031692915050565b634e487b7160e01b600052604160045260246000fd5b604051601f8201601f1916810167ffffffffffffffff8111828210171561115657611156611117565b604052919050565b600067ffffffffffffffff82111561117857611178611117565b5060051b60200190565b6001600160a01b038116811461119757600080fd5b50565b80356111a581611182565b919050565b600082601f8301126111bb57600080fd5b813560206111d06111cb8361115e565b61112d565b82815260059290921b840181019181810190868411156111ef57600080fd5b8286015b8481101561121357803561120681611182565b83529183019183016111f3565b509695505050505050565b60006020828403121561123057600080fd5b813567ffffffffffffffff81111561124757600080fd5b610507848285016111aa565b600067ffffffffffffffff83111561126d5761126d611117565b611280601f8401601f191660200161112d565b905082815283838301111561129457600080fd5b828260208301376000602084830101529392505050565b600082601f8301126112bc57600080fd5b61060983833560208501611253565b600080604083850312156112de57600080fd5b82356112e981611182565b9150602083013567ffffffffffffffff81111561130557600080fd5b611311858286016112ab565b9150509250929050565b60006020828403121561132d57600080fd5b813567ffffffffffffffff81111561134457600080fd5b610507848285016112ab565b60006020828403121561136257600080fd5b813561060981611182565b6000806000806080858703121561138357600080fd5b843561138e81611182565b935060208501359250604085013567ffffffffffffffff808211156113b257600080fd5b6113be888389016112ab565b935060608701359150808211156113d457600080fd5b506113e1878288016112ab565b91505092959194509250565b6000806040838503121561140057600080fd5b823567ffffffffffffffff8082111561141857600080fd5b818501915085601f83011261142c57600080fd5b8135602061143c6111cb8361115e565b82815260059290921b8401810191818101908984111561145b57600080fd5b8286015b84811015611493578035868111156114775760008081fd5b6114858c86838b01016112ab565b84525091830191830161145f565b50965050860135925050808211156114aa57600080fd5b50611311858286016111aa565b600080600080600080600060e0888a0312156114d257600080fd5b873567ffffffffffffffff808211156114ea57600080fd5b818a0191508a601f8301126114fe57600080fd5b61150d8b833560208501611253565b985061151b60208b0161119a565b975060408a0135965060608a0135955060808a0135945060a08a0135935060c08a013591508082111561154d57600080fd5b5061155a8a828b016112ab565b91505092959891949750929550565b634e487b7160e01b600052603260045260246000fd5b60006000198214156115a157634e487b7160e01b600052601160045260246000fd5b5060010190565b6020808252825182820181905260009190848201906040850190845b818110156115e95783516001600160a01b0316835292840192918401916001016115c4565b50909695505050505050565b60005b838110156116105781810151838201526020016115f8565b8381111561161f576000848401525b50505050565b600082516116378184602087016115f5565b9190910192915050565b60006020828403121561165357600080fd5b5051919050565b60006020828403121561166c57600080fd5b815161060981611182565b60006020828403121561168957600080fd5b8151801515811461060957600080fd5b600081518084526116b18160208601602086016115f5565b601f01601f19169290920160200192915050565b60006001600160a01b038087168352808616602084015250836040830152608060608301526116f76080830184611699565b9695505050505050565b60006101208083526117158184018d611699565b6001600160a01b039b8c166020850152998b16604084015250506060810196909652608086019490945260a085019290925290941660c083015260e0820193909352610100019190915291905056fea164736f6c634300080c000a",
  "linkReferences": {},
  "deployedLinkReferences": {}
}