{
  "_format": "hh-sol-artifact-1",
  "contractName": "MoneyPoolV2",
  "sourceName": "contracts/v2/satis_core/MoneyPoolProxy.sol",
  "abi": [
    {
      "inputs": [
        {
          "internalType": "string[]",
          "name": "_poolNameList",
          "type": "string[]"
        },
        {
          "internalType": "address[]",
          "name": "_poolAddressList",
          "type": "address[]"
        },
        {
          "internalType": "address",
          "name": "_actionContractAddress",
          "type": "address"
        }
      ],
      "stateMutability": "nonpayable",
      "type": "constructor"
    },
    {
      "anonymous": false,
      "inputs": [
        {
          "indexed": false,
          "internalType": "address[]",
          "name": "addWorkerList",
          "type": "address[]"
        }
      ],
      "name": "AddWorkers",
      "type": "event"
    },
    {
      "anonymous": false,
      "inputs": [
        {
          "indexed": false,
          "internalType": "address",
          "name": "newAdminAddress",
          "type": "address"
        }
      ],
      "name": "ChangeOwnership",
      "type": "event"
    },
    {
      "anonymous": false,
      "inputs": [
        {
          "indexed": false,
          "internalType": "address[]",
          "name": "newlyAddedPoolAddressList",
          "type": "address[]"
        }
      ],
      "name": "ChangePoolAddress",
      "type": "event"
    },
    {
      "anonymous": false,
      "inputs": [
        {
          "indexed": false,
          "internalType": "address[]",
          "name": "removeWorkerList",
          "type": "address[]"
        }
      ],
      "name": "RemoveWorkers",
      "type": "event"
    },
    {
      "inputs": [],
      "name": "actionContractAddress",
      "outputs": [
        {
          "internalType": "address",
          "name": "",
          "type": "address"
        }
      ],
      "stateMutability": "view",
      "type": "function"
    },
    {
      "inputs": [
        {
          "internalType": "address",
          "name": "_tokenAddress",
          "type": "address"
        },
        {
          "internalType": "uint256",
          "name": "_tokenValue",
          "type": "uint256"
        },
        {
          "internalType": "string",
          "name": "_data",
          "type": "string"
        },
        {
          "internalType": "string",
          "name": "_poolName",
          "type": "string"
        }
      ],
      "name": "addFundWithAction",
      "outputs": [
        {
          "internalType": "bool",
          "name": "_isDone",
          "type": "bool"
        }
      ],
      "stateMutability": "nonpayable",
      "type": "function"
    },
    {
      "inputs": [
        {
          "internalType": "address[]",
          "name": "_addWorkerList",
          "type": "address[]"
        }
      ],
      "name": "addWorkers",
      "outputs": [],
      "stateMutability": "nonpayable",
      "type": "function"
    },
    {
      "inputs": [
        {
          "internalType": "address",
          "name": "_newActionContractAddress",
          "type": "address"
        }
      ],
      "name": "changeActionContract",
      "outputs": [],
      "stateMutability": "nonpayable",
      "type": "function"
    },
    {
      "inputs": [
        {
          "internalType": "string[]",
          "name": "_newPoolNameList",
          "type": "string[]"
        },
        {
          "internalType": "address[]",
          "name": "_newPoolAddressList",
          "type": "address[]"
        }
      ],
      "name": "changePool",
      "outputs": [],
      "stateMutability": "nonpayable",
      "type": "function"
    },
    {
      "inputs": [
        {
          "internalType": "address",
          "name": "_clientAddress",
          "type": "address"
        },
        {
          "internalType": "string",
          "name": "_poolName",
          "type": "string"
        }
      ],
      "name": "getClientNonce",
      "outputs": [
        {
          "internalType": "uint256",
          "name": "clientNonce",
          "type": "uint256"
        }
      ],
      "stateMutability": "view",
      "type": "function"
    },
    {
      "inputs": [
        {
          "internalType": "address",
          "name": "_tokenAddress",
          "type": "address"
        },
        {
          "internalType": "string",
          "name": "_poolName",
          "type": "string"
        }
      ],
      "name": "getLiquidityAmountInPool",
      "outputs": [
        {
          "internalType": "uint256",
          "name": "liquidityInPool",
          "type": "uint256"
        }
      ],
      "stateMutability": "view",
      "type": "function"
    },
    {
      "inputs": [
        {
          "internalType": "string",
          "name": "_poolName",
          "type": "string"
        }
      ],
      "name": "getPoolAddress",
      "outputs": [
        {
          "internalType": "address",
          "name": "_poolAddress",
          "type": "address"
        }
      ],
      "stateMutability": "view",
      "type": "function"
    },
    {
      "inputs": [
        {
          "internalType": "string",
          "name": "_poolName",
          "type": "string"
        }
      ],
      "name": "getPoolOwner",
      "outputs": [
        {
          "internalType": "address",
          "name": "poolOwner",
          "type": "address"
        }
      ],
      "stateMutability": "view",
      "type": "function"
    },
    {
      "inputs": [],
      "name": "owner",
      "outputs": [
        {
          "internalType": "address",
          "name": "",
          "type": "address"
        }
      ],
      "stateMutability": "view",
      "type": "function"
    },
    {
      "inputs": [
        {
          "internalType": "string",
          "name": "",
          "type": "string"
        }
      ],
      "name": "poolAddressList",
      "outputs": [
        {
          "internalType": "address",
          "name": "",
          "type": "address"
        }
      ],
      "stateMutability": "view",
      "type": "function"
    },
    {
      "inputs": [
        {
          "internalType": "address[]",
          "name": "_removeWorkerList",
          "type": "address[]"
        }
      ],
      "name": "removeWorkers",
      "outputs": [],
      "stateMutability": "nonpayable",
      "type": "function"
    },
    {
      "inputs": [
        {
          "internalType": "address",
          "name": "_newOwner",
          "type": "address"
        }
      ],
      "name": "transferOwnershipMoneyPoolProxy",
      "outputs": [],
      "stateMutability": "nonpayable",
      "type": "function"
    },
    {
      "inputs": [
        {
          "internalType": "bytes",
          "name": "_targetSignature",
          "type": "bytes"
        },
        {
          "internalType": "address",
          "name": "_tokenAddress",
          "type": "address"
        },
        {
          "internalType": "uint256",
          "name": "_partialWithdrawValue",
          "type": "uint256"
        },
        {
          "internalType": "uint256",
          "name": "_inDebtValue",
          "type": "uint256"
        },
        {
          "internalType": "uint256",
          "name": "_tier",
          "type": "uint256"
        },
        {
          "internalType": "uint256",
          "name": "_expBlockNo",
          "type": "uint256"
        },
        {
          "internalType": "string",
          "name": "_ticketId",
          "type": "string"
        },
        {
          "internalType": "uint256",
          "name": "_nonce",
          "type": "uint256"
        },
        {
          "internalType": "string",
          "name": "_poolName",
          "type": "string"
        }
      ],
      "name": "verifyAndPartialWithdrawFund",
      "outputs": [
        {
          "internalType": "bool",
          "name": "_isDone",
          "type": "bool"
        }
      ],
      "stateMutability": "nonpayable",
      "type": "function"
    },
    {
      "inputs": [
        {
          "internalType": "bytes",
          "name": "_targetSignature",
          "type": "bytes"
        },
        {
          "internalType": "address",
          "name": "_tokenAddress",
          "type": "address"
        },
        {
          "internalType": "uint256",
          "name": "_queueValue",
          "type": "uint256"
        },
        {
          "internalType": "uint256",
          "name": "_inDebtValue",
          "type": "uint256"
        },
        {
          "internalType": "uint256",
          "name": "_tier",
          "type": "uint256"
        },
        {
          "internalType": "uint256",
          "name": "_expBlockNo",
          "type": "uint256"
        },
        {
          "internalType": "string",
          "name": "_ticketId",
          "type": "string"
        },
        {
          "internalType": "uint256",
          "name": "_nonce",
          "type": "uint256"
        },
        {
          "internalType": "string",
          "name": "_poolName",
          "type": "string"
        }
      ],
      "name": "verifyAndQueue",
      "outputs": [
        {
          "internalType": "bool",
          "name": "_isDone",
          "type": "bool"
        }
      ],
      "stateMutability": "nonpayable",
      "type": "function"
    },
    {
      "inputs": [
        {
          "internalType": "bytes",
          "name": "_targetSignature",
          "type": "bytes"
        },
        {
          "internalType": "address",
          "name": "_tokenAddress",
          "type": "address"
        },
        {
          "internalType": "uint256",
          "name": "_withdrawValue",
          "type": "uint256"
        },
        {
          "internalType": "uint256",
          "name": "_inDebtValue",
          "type": "uint256"
        },
        {
          "internalType": "uint256",
          "name": "_tier",
          "type": "uint256"
        },
        {
          "internalType": "uint256",
          "name": "_expBlockNo",
          "type": "uint256"
        },
        {
          "internalType": "string",
          "name": "_ticketId",
          "type": "string"
        },
        {
          "internalType": "uint256",
          "name": "_nonce",
          "type": "uint256"
        },
        {
          "internalType": "string",
          "name": "_poolName",
          "type": "string"
        }
      ],
      "name": "verifyAndWithdrawFund",
      "outputs": [
        {
          "internalType": "bool",
          "name": "_isDone",
          "type": "bool"
        }
      ],
      "stateMutability": "nonpayable",
      "type": "function"
    },
    {
      "inputs": [
        {
          "internalType": "address",
          "name": "_workerAddress",
          "type": "address"
        }
      ],
      "name": "verifyWorker",
      "outputs": [
        {
          "internalType": "bool",
          "name": "_isWorker",
          "type": "bool"
        }
      ],
      "stateMutability": "view",
      "type": "function"
    },
    {
      "inputs": [
        {
          "internalType": "address",
          "name": "",
          "type": "address"
        }
      ],
      "name": "workerList",
      "outputs": [
        {
          "internalType": "bool",
          "name": "",
          "type": "bool"
        }
      ],
      "stateMutability": "view",
      "type": "function"
    }
  ],
  "bytecode": "0x60806040523480156200001157600080fd5b5060405162001dbb38038062001dbb83398101604081905262000034916200030c565b6001600160a01b038116620000905760405162461bcd60e51b815260206004820181905260248201527f5a65726f206164647265737320666f7220616374696f6e20636f6e747261637460448201526064015b60405180910390fd5b8151835114620000e35760405162461bcd60e51b815260206004820152601a60248201527f4c6973747327206c656e67746820697320646966666572656e74000000000000604482015260640162000087565b600080546001600160a01b0319163390811782558152600360205260408120805460ff191660011790555b8251811015620001a7578281815181106200012d576200012d6200045c565b602002602001015160028583815181106200014c576200014c6200045c565b602002602001015160405162000163919062000472565b90815260405190819003602001902080546001600160a01b03929092166001600160a01b0319909216919091179055806200019e8162000490565b9150506200010e565b50600180546001600160a01b0319166001600160a01b039290921691909117905550620004ba9050565b634e487b7160e01b600052604160045260246000fd5b604051601f8201601f191681016001600160401b0381118282101715620002125762000212620001d1565b604052919050565b60006001600160401b03821115620002365762000236620001d1565b5060051b60200190565b60005b838110156200025d57818101518382015260200162000243565b838111156200026d576000848401525b50505050565b80516001600160a01b03811681146200028b57600080fd5b919050565b600082601f830112620002a257600080fd5b81516020620002bb620002b5836200021a565b620001e7565b82815260059290921b84018101918181019086841115620002db57600080fd5b8286015b848110156200030157620002f38162000273565b8352918301918301620002df565b509695505050505050565b6000806000606084860312156200032257600080fd5b83516001600160401b03808211156200033a57600080fd5b818601915086601f8301126200034f57600080fd5b8151602062000362620002b5836200021a565b82815260059290921b8401810191818101908a8411156200038257600080fd5b8286015b848110156200041857805186811115620003a05760008081fd5b8701603f81018d13620003b35760008081fd5b84810151604088821115620003cc57620003cc620001d1565b620003e0601f8301601f19168801620001e7565b8281528f82848601011115620003f65760008081fd5b620004078389830184870162000240565b865250505091830191830162000386565b50918901519197509093505050808211156200043357600080fd5b50620004428682870162000290565b925050620004536040850162000273565b90509250925092565b634e487b7160e01b600052603260045260246000fd5b600082516200048681846020870162000240565b9190910192915050565b6000600019821415620004b357634e487b7160e01b600052601160045260246000fd5b5060010190565b6118f180620004ca6000396000f3fe608060405234801561001057600080fd5b50600436106101365760003560e01c8063609677a1116100b2578063a39c235511610081578063d7e0c66611610066578063d7e0c666146102ae578063daa74181146102d1578063ea5ada46146102e457600080fd5b8063a39c235514610288578063b2e1b93e1461029b57600080fd5b8063609677a11461023c57806380e11b251461024f5780638da5cb5b146102625780639f9854811461027557600080fd5b806332fa4a9e116101095780634a45501d116100ee5780634a45501d146102035780634ce1054d1461021657806353e5bb2c1461022957600080fd5b806332fa4a9e146101dd57806337fc4c52146101f057600080fd5b80630111efb71461013b578063093988e51461015057806323dcad49146101765780632b30368c146101a1575b600080fd5b61014e6101493660046112f8565b610318565b005b61016361015e36600461139d565b610409565b6040519081526020015b60405180910390f35b6101896101843660046113ed565b61050f565b6040516001600160a01b03909116815260200161016d565b6101cd6101af366004611422565b6001600160a01b031660009081526003602052604090205460ff1690565b604051901515815260200161016d565b61014e6101eb366004611422565b610610565b6101cd6101fe36600461143f565b610739565b61014e6102113660046114bf565b6108ef565b61014e6102243660046112f8565b610a6c565b6101cd610237366004611589565b610b4d565b61016361024a36600461139d565b610daf565b600154610189906001600160a01b031681565b600054610189906001600160a01b031681565b6101cd610283366004611589565b610e70565b61014e610296366004611422565b61107a565b6101cd6102a9366004611589565b61115e565b6101cd6102bc366004611422565b60036020526000908152604090205460ff1681565b6101896102df3660046113ed565b6111c0565b6101896102f23660046113ed565b80516020818301810180516002825292820191909301209152546001600160a01b031681565b6000546001600160a01b031633146103665760405162461bcd60e51b815260206004820152600c60248201526b2737ba1030b71030b236b4b760a11b60448201526064015b60405180910390fd5b60005b81518110156103ce5760016003600084848151811061038a5761038a611653565b6020908102919091018101516001600160a01b03168252810191909152604001600020805460ff1916911515919091179055806103c681611669565b915050610369565b507f9e36e65aa003add44ff529b38d35a7fed088dd29f3ab43ee9ee17e449621ff98816040516103fe9190611692565b60405180910390a150565b6000806001600160a01b0316600283604051610425919061170f565b908152604051908190036020019020546001600160a01b0316141561047b5760405162461bcd60e51b815260206004820152600c60248201526b139bc81cdd58da081c1bdbdb60a21b604482015260640161035d565b600060028360405161048d919061170f565b90815260405190819003602001812054634738198f60e11b82526001600160a01b0386811660048401521691508190638e70331e906024015b602060405180830381865afa1580156104e3573d6000803e3d6000fd5b505050506040513d601f19601f82011682018060405250810190610507919061172b565b949350505050565b6000806001600160a01b031660028360405161052b919061170f565b908152604051908190036020019020546001600160a01b031614156105815760405162461bcd60e51b815260206004820152600c60248201526b139bc81cdd58da081c1bdbdb60a21b604482015260640161035d565b6000600283604051610593919061170f565b908152604080516020928190038301812054638da5cb5b60e01b825291516001600160a01b0390921693508392638da5cb5b926004808401938290030181865afa1580156105e5573d6000803e3d6000fd5b505050506040513d601f19601f820116820180604052508101906106099190611744565b9392505050565b6000546001600160a01b031633146106595760405162461bcd60e51b815260206004820152600c60248201526b2737ba1030b71030b236b4b760a11b604482015260640161035d565b6001600160a01b0381166106af5760405162461bcd60e51b815260206004820152601a60248201527f5a65726f206164647265737320666f72206e6577206f776e6572000000000000604482015260640161035d565b600080546001600160a01b039081168252600360209081526040808420805460ff19908116909155845473ffffffffffffffffffffffffffffffffffffffff19168685169081178655855281852080549091166001179055925492519290911682527f244ded7a3b73e60f03281fc183df050e6134d393c50788e980dc090f06e7280991016103fe565b6000806001600160a01b0316600283604051610755919061170f565b908152604051908190036020019020546001600160a01b031614156107ab5760405162461bcd60e51b815260206004820152600c60248201526b139bc81cdd58da081c1bdbdb60a21b604482015260640161035d565b600084156108555760006002846040516107c5919061170f565b90815260405190819003602001812054635dd72c0f60e01b82523360048301526001600160a01b038981166024840152604483018990521691508190635dd72c0f906064016020604051808303816000875af1158015610829573d6000803e3d6000fd5b505050506040513d601f19601f8201168201806040525081019061084d9190611761565b915050610859565b5060015b600154604051634dd9469560e01b81526001600160a01b03909116906000908290634dd94695906108949033908c908c908c906004016117af565b6020604051808303816000875af11580156108b3573d6000803e3d6000fd5b505050506040513d601f19601f820116820180604052508101906108d79190611761565b90508280156108e35750805b98975050505050505050565b3360009081526003602052604090205460ff1615156001146109425760405162461bcd60e51b815260206004820152600c60248201526b2737ba1030903bb7b935b2b960a11b604482015260640161035d565b80518251146109935760405162461bcd60e51b815260206004820152601a60248201527f4c6973747327206c656e67746820697320646966666572656e74000000000000604482015260640161035d565b60005b8151811015610a30578181815181106109b1576109b1611653565b602002602001015160028483815181106109cd576109cd611653565b60200260200101516040516109e2919061170f565b90815260405190819003602001902080546001600160a01b039290921673ffffffffffffffffffffffffffffffffffffffff1990921691909117905580610a2881611669565b915050610996565b507f041572ba5a007337eb900b91bde4bf7a58838c66fe504a88a09c15d551891c8381604051610a609190611692565b60405180910390a15050565b6000546001600160a01b03163314610ab55760405162461bcd60e51b815260206004820152600c60248201526b2737ba1030b71030b236b4b760a11b604482015260640161035d565b60005b8151811015610b1d57600060036000848481518110610ad957610ad9611653565b6020908102919091018101516001600160a01b03168252810191909152604001600020805460ff191691151591909117905580610b1581611669565b915050610ab8565b507f76fe8505b7c4b7ba022031c51ac725c7177670399af7d2ebca7026b7e25bf893816040516103fe9190611692565b600085600114610baf5760405162461bcd60e51b815260206004820152602760248201527f57726f6e672066756e6374696f6e2063616c6c656420666f722077697468647260448201526630bb903a34b2b960c91b606482015260840161035d565b60006001600160a01b0316600283604051610bca919061170f565b908152604051908190036020019020546001600160a01b03161415610c205760405162461bcd60e51b815260206004820152600c60248201526b139bc81cdd58da081c1bdbdb60a21b604482015260640161035d565b6000600283604051610c32919061170f565b908152602001604051809103902060009054906101000a90046001600160a01b03169050806001600160a01b0316634be5c4ea8c338d8d8d8d4660028c604051610c7c919061170f565b908152602001604051809103902060009054906101000a90046001600160a01b03168f8f8f6040518c63ffffffff1660e01b8152600401610cc79b9a999897969594939291906117eb565b6020604051808303816000875af1158015610ce6573d6000803e3d6000fd5b505050506040513d601f19601f82011682018060405250810190610d0a9190611761565b506000600160009054906101000a90046001600160a01b03169050806001600160a01b031663e8475dfa87338e8e8e6040518663ffffffff1660e01b8152600401610d5995949392919061186e565b6020604051808303816000875af1158015610d78573d6000803e3d6000fd5b505050506040513d601f19601f82011682018060405250810190610d9c9190611761565b5060019c9b505050505050505050505050565b6000806001600160a01b0316600283604051610dcb919061170f565b908152604051908190036020019020546001600160a01b03161415610e215760405162461bcd60e51b815260206004820152600c60248201526b139bc81cdd58da081c1bdbdb60a21b604482015260640161035d565b6000600283604051610e33919061170f565b908152604051908190036020018120546348bc13a560e11b82526001600160a01b0386811660048401521691508190639178274a906024016104c6565b600085600214610ed25760405162461bcd60e51b815260206004820152602760248201527f57726f6e672066756e6374696f6e2063616c6c656420666f722077697468647260448201526630bb903a34b2b960c91b606482015260840161035d565b60006001600160a01b0316600283604051610eed919061170f565b908152604051908190036020019020546001600160a01b03161415610f435760405162461bcd60e51b815260206004820152600c60248201526b139bc81cdd58da081c1bdbdb60a21b604482015260640161035d565b6000600283604051610f55919061170f565b908152602001604051809103902060009054906101000a90046001600160a01b03169050806001600160a01b031663a224a4578c338d8d8d8d4660028c604051610f9f919061170f565b908152602001604051809103902060009054906101000a90046001600160a01b03168f8f8f6040518c63ffffffff1660e01b8152600401610fea9b9a999897969594939291906117eb565b6020604051808303816000875af1158015611009573d6000803e3d6000fd5b505050506040513d601f19601f8201168201806040525081019061102d9190611761565b506000600160009054906101000a90046001600160a01b03169050806001600160a01b031663d4041e5987338e8e6040518563ffffffff1660e01b8152600401610d5994939291906118ae565b3360009081526003602052604090205460ff1615156001146110cd5760405162461bcd60e51b815260206004820152600c60248201526b2737ba1030903bb7b935b2b960a11b604482015260640161035d565b6001600160a01b03811661112f5760405162461bcd60e51b8152602060048201526024808201527f5a65726f206164647265737320666f72206e657720616374696f6e20636f6e746044820152631c9858dd60e21b606482015260840161035d565b6001805473ffffffffffffffffffffffffffffffffffffffff19166001600160a01b0392909216919091179055565b600085600314610baf5760405162461bcd60e51b815260206004820152602760248201527f57726f6e672066756e6374696f6e2063616c6c656420666f722077697468647260448201526630bb903a34b2b960c91b606482015260840161035d565b60006002826040516111d2919061170f565b908152604051908190036020019020546001600160a01b031692915050565b634e487b7160e01b600052604160045260246000fd5b604051601f8201601f1916810167ffffffffffffffff81118282101715611230576112306111f1565b604052919050565b600067ffffffffffffffff821115611252576112526111f1565b5060051b60200190565b6001600160a01b038116811461127157600080fd5b50565b803561127f8161125c565b919050565b600082601f83011261129557600080fd5b813560206112aa6112a583611238565b611207565b82815260059290921b840181019181810190868411156112c957600080fd5b8286015b848110156112ed5780356112e08161125c565b83529183019183016112cd565b509695505050505050565b60006020828403121561130a57600080fd5b813567ffffffffffffffff81111561132157600080fd5b61050784828501611284565b600082601f83011261133e57600080fd5b813567ffffffffffffffff811115611358576113586111f1565b61136b601f8201601f1916602001611207565b81815284602083860101111561138057600080fd5b816020850160208301376000918101602001919091529392505050565b600080604083850312156113b057600080fd5b82356113bb8161125c565b9150602083013567ffffffffffffffff8111156113d757600080fd5b6113e38582860161132d565b9150509250929050565b6000602082840312156113ff57600080fd5b813567ffffffffffffffff81111561141657600080fd5b6105078482850161132d565b60006020828403121561143457600080fd5b81356106098161125c565b6000806000806080858703121561145557600080fd5b84356114608161125c565b935060208501359250604085013567ffffffffffffffff8082111561148457600080fd5b6114908883890161132d565b935060608701359150808211156114a657600080fd5b506114b38782880161132d565b91505092959194509250565b600080604083850312156114d257600080fd5b823567ffffffffffffffff808211156114ea57600080fd5b818501915085601f8301126114fe57600080fd5b8135602061150e6112a583611238565b82815260059290921b8401810191818101908984111561152d57600080fd5b8286015b84811015611565578035868111156115495760008081fd5b6115578c86838b010161132d565b845250918301918301611531565b509650508601359250508082111561157c57600080fd5b506113e385828601611284565b60008060008060008060008060006101208a8c0312156115a857600080fd5b893567ffffffffffffffff808211156115c057600080fd5b6115cc8d838e0161132d565b9a506115da60208d01611274565b995060408c0135985060608c0135975060808c0135965060a08c0135955060c08c013591508082111561160c57600080fd5b6116188d838e0161132d565b945060e08c013593506101008c013591508082111561163657600080fd5b506116438c828d0161132d565b9150509295985092959850929598565b634e487b7160e01b600052603260045260246000fd5b600060001982141561168b57634e487b7160e01b600052601160045260246000fd5b5060010190565b6020808252825182820181905260009190848201906040850190845b818110156116d35783516001600160a01b0316835292840192918401916001016116ae565b50909695505050505050565b60005b838110156116fa5781810151838201526020016116e2565b83811115611709576000848401525b50505050565b600082516117218184602087016116df565b9190910192915050565b60006020828403121561173d57600080fd5b5051919050565b60006020828403121561175657600080fd5b81516106098161125c565b60006020828403121561177357600080fd5b8151801515811461060957600080fd5b6000815180845261179b8160208601602086016116df565b601f01601f19169290920160200192915050565b60006001600160a01b038087168352808616602084015250836040830152608060608301526117e16080830184611783565b9695505050505050565b60006101608083526117ff8184018f611783565b90506001600160a01b03808e166020850152808d1660408501528b60608501528a60808501528960a08501528860c085015280881660e085015250856101008401528281036101208401526118548186611783565b915050826101408301529c9b505050505050505050505050565b60a08152600061188160a0830188611783565b6001600160a01b039687166020840152949095166040820152606081019290925260809091015292915050565b6080815260006118c16080830187611783565b6001600160a01b039586166020840152939094166040820152606001529291505056fea164736f6c634300080c000a",
  "linkReferences": {},
  "deployedLinkReferences": {}
}