{
  "_format": "hh-sol-artifact-1",
  "contractName": "SigmaPoolV2",
  "sourceName": "contracts/v2/sigma_mining/SigmaPoolProxy.sol",
  "abi": [
    {
      "inputs": [
        {
          "internalType": "string[]",
          "name": "_sigmaPoolNameList",
          "type": "string[]"
        },
        {
          "internalType": "address[]",
          "name": "_sigmaPoolAddressList",
          "type": "address[]"
        },
        {
          "internalType": "address",
          "name": "_sigmaActionContractAddress",
          "type": "address"
        }
      ],
      "stateMutability": "nonpayable",
      "type": "constructor"
    },
    {
      "anonymous": false,
      "inputs": [
        {
          "indexed": false,
          "internalType": "address[]",
          "name": "addWorkerList",
          "type": "address[]"
        }
      ],
      "name": "AddWorkers",
      "type": "event"
    },
    {
      "anonymous": false,
      "inputs": [
        {
          "indexed": false,
          "internalType": "address",
          "name": "newAdminAddress",
          "type": "address"
        }
      ],
      "name": "ChangeOwnership",
      "type": "event"
    },
    {
      "anonymous": false,
      "inputs": [
        {
          "indexed": false,
          "internalType": "address[]",
          "name": "newlyAddedPoolAddressList",
          "type": "address[]"
        }
      ],
      "name": "ChangePoolAddress",
      "type": "event"
    },
    {
      "anonymous": false,
      "inputs": [
        {
          "indexed": false,
          "internalType": "address[]",
          "name": "removeWorkerList",
          "type": "address[]"
        }
      ],
      "name": "RemoveWorkers",
      "type": "event"
    },
    {
      "inputs": [
        {
          "internalType": "address[]",
          "name": "_addWorkerList",
          "type": "address[]"
        }
      ],
      "name": "addWorkers",
      "outputs": [],
      "stateMutability": "nonpayable",
      "type": "function"
    },
    {
      "inputs": [
        {
          "internalType": "address",
          "name": "_newActionContractAddress",
          "type": "address"
        }
      ],
      "name": "changeSigmaActionContract",
      "outputs": [],
      "stateMutability": "nonpayable",
      "type": "function"
    },
    {
      "inputs": [
        {
          "internalType": "string[]",
          "name": "_newPoolNameList",
          "type": "string[]"
        },
        {
          "internalType": "address[]",
          "name": "_newPoolAddressList",
          "type": "address[]"
        }
      ],
      "name": "changeSigmaPool",
      "outputs": [],
      "stateMutability": "nonpayable",
      "type": "function"
    },
    {
      "inputs": [
        {
          "internalType": "address",
          "name": "_clientAddress",
          "type": "address"
        },
        {
          "internalType": "string",
          "name": "_poolName",
          "type": "string"
        }
      ],
      "name": "getClientSigmaNonce",
      "outputs": [
        {
          "internalType": "uint256",
          "name": "clientSigmaNonce",
          "type": "uint256"
        }
      ],
      "stateMutability": "view",
      "type": "function"
    },
    {
      "inputs": [
        {
          "internalType": "address",
          "name": "_tokenAddress",
          "type": "address"
        },
        {
          "internalType": "string",
          "name": "_poolName",
          "type": "string"
        }
      ],
      "name": "getLiquidityAmountInPool",
      "outputs": [
        {
          "internalType": "uint256",
          "name": "liquidityInPool",
          "type": "uint256"
        }
      ],
      "stateMutability": "view",
      "type": "function"
    },
    {
      "inputs": [
        {
          "internalType": "address",
          "name": "_tokenAddress",
          "type": "address"
        },
        {
          "internalType": "string",
          "name": "_poolName",
          "type": "string"
        }
      ],
      "name": "getSatisTokenAmountInContract",
      "outputs": [
        {
          "internalType": "uint256",
          "name": "satisTokenInPool",
          "type": "uint256"
        }
      ],
      "stateMutability": "view",
      "type": "function"
    },
    {
      "inputs": [
        {
          "internalType": "string",
          "name": "_poolName",
          "type": "string"
        }
      ],
      "name": "getSigmaPoolAddress",
      "outputs": [
        {
          "internalType": "address",
          "name": "_sigmaPoolAddress",
          "type": "address"
        }
      ],
      "stateMutability": "view",
      "type": "function"
    },
    {
      "inputs": [
        {
          "internalType": "string",
          "name": "_poolName",
          "type": "string"
        }
      ],
      "name": "getSigmaPoolOwner",
      "outputs": [
        {
          "internalType": "address",
          "name": "sigmaPoolOwner",
          "type": "address"
        }
      ],
      "stateMutability": "view",
      "type": "function"
    },
    {
      "inputs": [
        {
          "internalType": "address[]",
          "name": "_removeWorkerList",
          "type": "address[]"
        }
      ],
      "name": "removeWorkers",
      "outputs": [],
      "stateMutability": "nonpayable",
      "type": "function"
    },
    {
      "inputs": [],
      "name": "sigmaActionContractAddress",
      "outputs": [
        {
          "internalType": "address",
          "name": "",
          "type": "address"
        }
      ],
      "stateMutability": "view",
      "type": "function"
    },
    {
      "inputs": [
        {
          "internalType": "address",
          "name": "_tokenAddress",
          "type": "address"
        },
        {
          "internalType": "uint256",
          "name": "_tokenValue",
          "type": "uint256"
        },
        {
          "internalType": "string",
          "name": "_data",
          "type": "string"
        },
        {
          "internalType": "string",
          "name": "_poolName",
          "type": "string"
        }
      ],
      "name": "sigmaAddFundWithAction",
      "outputs": [
        {
          "internalType": "bool",
          "name": "_isDone",
          "type": "bool"
        }
      ],
      "stateMutability": "nonpayable",
      "type": "function"
    },
    {
      "inputs": [],
      "name": "sigmaOwner",
      "outputs": [
        {
          "internalType": "address",
          "name": "",
          "type": "address"
        }
      ],
      "stateMutability": "view",
      "type": "function"
    },
    {
      "inputs": [
        {
          "internalType": "string",
          "name": "",
          "type": "string"
        }
      ],
      "name": "sigmaPoolAddressList",
      "outputs": [
        {
          "internalType": "address",
          "name": "",
          "type": "address"
        }
      ],
      "stateMutability": "view",
      "type": "function"
    },
    {
      "inputs": [
        {
          "internalType": "address",
          "name": "",
          "type": "address"
        }
      ],
      "name": "sigmaProxyWorkerList",
      "outputs": [
        {
          "internalType": "bool",
          "name": "",
          "type": "bool"
        }
      ],
      "stateMutability": "view",
      "type": "function"
    },
    {
      "inputs": [
        {
          "internalType": "bytes",
          "name": "_targetSignature",
          "type": "bytes"
        },
        {
          "internalType": "address",
          "name": "_tokenAddress",
          "type": "address"
        },
        {
          "internalType": "uint256",
          "name": "_partialWithdrawValue",
          "type": "uint256"
        },
        {
          "internalType": "uint256",
          "name": "_inDebtValue",
          "type": "uint256"
        },
        {
          "internalType": "uint256",
          "name": "_tier",
          "type": "uint256"
        },
        {
          "internalType": "uint256",
          "name": "_expBlockNo",
          "type": "uint256"
        },
        {
          "internalType": "string",
          "name": "_ticketId",
          "type": "string"
        },
        {
          "internalType": "uint256",
          "name": "_nonce",
          "type": "uint256"
        },
        {
          "internalType": "string",
          "name": "_poolName",
          "type": "string"
        }
      ],
      "name": "sigmaVerifyAndPartialWithdrawFund",
      "outputs": [
        {
          "internalType": "bool",
          "name": "_isDone",
          "type": "bool"
        }
      ],
      "stateMutability": "nonpayable",
      "type": "function"
    },
    {
      "inputs": [
        {
          "internalType": "bytes",
          "name": "_targetSignature",
          "type": "bytes"
        },
        {
          "internalType": "address",
          "name": "_tokenAddress",
          "type": "address"
        },
        {
          "internalType": "uint256",
          "name": "_queueValue",
          "type": "uint256"
        },
        {
          "internalType": "uint256",
          "name": "_inDebtValue",
          "type": "uint256"
        },
        {
          "internalType": "uint256",
          "name": "_tier",
          "type": "uint256"
        },
        {
          "internalType": "uint256",
          "name": "_expBlockNo",
          "type": "uint256"
        },
        {
          "internalType": "string",
          "name": "_ticketId",
          "type": "string"
        },
        {
          "internalType": "uint256",
          "name": "_nonce",
          "type": "uint256"
        },
        {
          "internalType": "string",
          "name": "_poolName",
          "type": "string"
        }
      ],
      "name": "sigmaVerifyAndQueue",
      "outputs": [
        {
          "internalType": "bool",
          "name": "_isDone",
          "type": "bool"
        }
      ],
      "stateMutability": "nonpayable",
      "type": "function"
    },
    {
      "inputs": [
        {
          "internalType": "bytes",
          "name": "_targetSignature",
          "type": "bytes"
        },
        {
          "internalType": "address",
          "name": "_tokenAddress",
          "type": "address"
        },
        {
          "internalType": "uint256",
          "name": "_redeemValue",
          "type": "uint256"
        },
        {
          "internalType": "uint256",
          "name": "_inDebtValue",
          "type": "uint256"
        },
        {
          "internalType": "uint256",
          "name": "_tier",
          "type": "uint256"
        },
        {
          "internalType": "uint256",
          "name": "_expBlockNo",
          "type": "uint256"
        },
        {
          "internalType": "string",
          "name": "_ticketId",
          "type": "string"
        },
        {
          "internalType": "uint256",
          "name": "_nonce",
          "type": "uint256"
        },
        {
          "internalType": "string",
          "name": "_poolName",
          "type": "string"
        }
      ],
      "name": "sigmaVerifyAndRedeemToken",
      "outputs": [
        {
          "internalType": "bool",
          "name": "_isDone",
          "type": "bool"
        }
      ],
      "stateMutability": "nonpayable",
      "type": "function"
    },
    {
      "inputs": [
        {
          "internalType": "bytes",
          "name": "_targetSignature",
          "type": "bytes"
        },
        {
          "internalType": "address",
          "name": "_tokenAddress",
          "type": "address"
        },
        {
          "internalType": "uint256",
          "name": "_withdrawValue",
          "type": "uint256"
        },
        {
          "internalType": "uint256",
          "name": "_inDebtValue",
          "type": "uint256"
        },
        {
          "internalType": "uint256",
          "name": "_tier",
          "type": "uint256"
        },
        {
          "internalType": "uint256",
          "name": "_expBlockNo",
          "type": "uint256"
        },
        {
          "internalType": "string",
          "name": "_ticketId",
          "type": "string"
        },
        {
          "internalType": "uint256",
          "name": "_nonce",
          "type": "uint256"
        },
        {
          "internalType": "string",
          "name": "_poolName",
          "type": "string"
        }
      ],
      "name": "sigmaVerifyAndWithdrawFund",
      "outputs": [
        {
          "internalType": "bool",
          "name": "_isDone",
          "type": "bool"
        }
      ],
      "stateMutability": "nonpayable",
      "type": "function"
    },
    {
      "inputs": [
        {
          "internalType": "address",
          "name": "_newOwner",
          "type": "address"
        }
      ],
      "name": "transferOwnershipSigmaPoolProxy",
      "outputs": [],
      "stateMutability": "nonpayable",
      "type": "function"
    },
    {
      "inputs": [
        {
          "internalType": "address",
          "name": "_workerAddress",
          "type": "address"
        }
      ],
      "name": "verifySigmaProxyWorker",
      "outputs": [
        {
          "internalType": "bool",
          "name": "_isWorker",
          "type": "bool"
        }
      ],
      "stateMutability": "view",
      "type": "function"
    }
  ],
  "bytecode": "0x60806040523480156200001157600080fd5b506040516200204a3803806200204a83398101604081905262000034916200031b565b6001600160a01b0381166200009f5760405162461bcd60e51b815260206004820152602660248201527f5a65726f206164647265737320666f72207369676d6120616374696f6e20636f6044820152651b9d1c9858dd60d21b60648201526084015b60405180910390fd5b8151835114620000f25760405162461bcd60e51b815260206004820152601a60248201527f4c6973747327206c656e67746820697320646966666572656e74000000000000604482015260640162000096565b600080546001600160a01b0319163390811782558152600360205260408120805460ff191660011790555b8251811015620001b6578281815181106200013c576200013c6200046b565b602002602001015160028583815181106200015b576200015b6200046b565b602002602001015160405162000172919062000481565b90815260405190819003602001902080546001600160a01b03929092166001600160a01b031990921691909117905580620001ad816200049f565b9150506200011d565b50600180546001600160a01b0319166001600160a01b039290921691909117905550620004c99050565b634e487b7160e01b600052604160045260246000fd5b604051601f8201601f191681016001600160401b0381118282101715620002215762000221620001e0565b604052919050565b60006001600160401b03821115620002455762000245620001e0565b5060051b60200190565b60005b838110156200026c57818101518382015260200162000252565b838111156200027c576000848401525b50505050565b80516001600160a01b03811681146200029a57600080fd5b919050565b600082601f830112620002b157600080fd5b81516020620002ca620002c48362000229565b620001f6565b82815260059290921b84018101918181019086841115620002ea57600080fd5b8286015b848110156200031057620003028162000282565b8352918301918301620002ee565b509695505050505050565b6000806000606084860312156200033157600080fd5b83516001600160401b03808211156200034957600080fd5b818601915086601f8301126200035e57600080fd5b8151602062000371620002c48362000229565b82815260059290921b8401810191818101908a8411156200039157600080fd5b8286015b848110156200042757805186811115620003af5760008081fd5b8701603f81018d13620003c25760008081fd5b84810151604088821115620003db57620003db620001e0565b620003ef601f8301601f19168801620001f6565b8281528f82848601011115620004055760008081fd5b62000416838983018487016200024f565b865250505091830191830162000395565b50918901519197509093505050808211156200044257600080fd5b5062000451868287016200029f565b925050620004626040850162000282565b90509250925092565b634e487b7160e01b600052603260045260246000fd5b60008251620004958184602087016200024f565b9190910192915050565b6000600019821415620004c257634e487b7160e01b600052601160045260246000fd5b5060010190565b611b7180620004d96000396000f3fe608060405234801561001057600080fd5b506004361061016c5760003560e01c80636def5c34116100cd578063e4ff150c11610081578063f63d2ab011610066578063f63d2ab01461033b578063f6778a251461034e578063fad1354e1461036157600080fd5b8063e4ff150c146102f4578063e51e06411461032857600080fd5b8063ab27ad03116100b2578063ab27ad03146102bb578063b55dc088146102ce578063e239bf28146102e157600080fd5b80636def5c341461029557806380c03da2146102a857600080fd5b80634ce1054d116101245780635a9de8ab116101095780635a9de8ab146102445780635f6d2bbc146102575780636777f00a1461028257600080fd5b80634ce1054d1461020557806359fca7a41461021857600080fd5b80632d161ebd116101555780632d161ebd146101ac578063310b4c73146101cf5780634a3bd1a1146101e257600080fd5b80630111efb714610171578063093988e514610186575b600080fd5b61018461017f3660046115b8565b610374565b005b61019961019436600461165d565b610465565b6040519081526020015b60405180910390f35b6101bf6101ba3660046116ad565b61056b565b60405190151581526020016101a3565b6101846101dd366004611777565b61075b565b6101bf6101f0366004611777565b60036020526000908152604090205460ff1681565b6101846102133660046115b8565b610859565b6101bf610226366004611777565b6001600160a01b031660009081526003602052604090205460ff1690565b6101bf6102523660046116ad565b61093a565b60015461026a906001600160a01b031681565b6040516001600160a01b0390911681526020016101a3565b6101bf610290366004611794565b610b44565b6101bf6102a33660046116ad565b610ceb565b6101846102b6366004611814565b610ef5565b61026a6102c93660046118de565b611072565b61026a6102dc3660046118de565b6110a3565b60005461026a906001600160a01b031681565b61026a6103023660046118de565b80516020818301810180516002825292820191909301209152546001600160a01b031681565b61019961033636600461165d565b6111a4565b6101bf6103493660046116ad565b611265565b61018461035c366004611777565b6112c7565b61019961036f36600461165d565b6113f0565b6000546001600160a01b031633146103c25760405162461bcd60e51b815260206004820152600c60248201526b2737ba1030b71030b236b4b760a11b60448201526064015b60405180910390fd5b60005b815181101561042a576001600360008484815181106103e6576103e6611913565b6020908102919091018101516001600160a01b03168252810191909152604001600020805460ff19169115159190911790558061042281611929565b9150506103c5565b507f9e36e65aa003add44ff529b38d35a7fed088dd29f3ab43ee9ee17e449621ff988160405161045a9190611952565b60405180910390a150565b6000806001600160a01b031660028360405161048191906119cf565b908152604051908190036020019020546001600160a01b031614156104d75760405162461bcd60e51b815260206004820152600c60248201526b139bc81cdd58da081c1bdbdb60a21b60448201526064016103b9565b60006002836040516104e991906119cf565b90815260405190819003602001812054634738198f60e11b82526001600160a01b0386811660048401521691508190638e70331e906024015b602060405180830381865afa15801561053f573d6000803e3d6000fd5b505050506040513d601f19601f8201168201806040525081019061056391906119eb565b949350505050565b6000806001600160a01b031660028360405161058791906119cf565b908152604051908190036020019020546001600160a01b031614156105dd5760405162461bcd60e51b815260206004820152600c60248201526b139bc81cdd58da081c1bdbdb60a21b60448201526064016103b9565b60006002836040516105ef91906119cf565b908152602001604051809103902060009054906101000a90046001600160a01b03169050806001600160a01b0316636579402b8c338d8d8d8d4660028c60405161063991906119cf565b908152602001604051809103902060009054906101000a90046001600160a01b03168f8f8f6040518c63ffffffff1660e01b81526004016106849b9a99989796959493929190611a30565b6020604051808303816000875af11580156106a3573d6000803e3d6000fd5b505050506040513d601f19601f820116820180604052508101906106c79190611ab3565b5060015460405163328447a560e01b81523360048201526001600160a01b038c81166024830152604482018c905290911690819063328447a5906064015b6020604051808303816000875af1158015610724573d6000803e3d6000fd5b505050506040513d601f19601f820116820180604052508101906107489190611ab3565b5060019c9b505050505050505050505050565b3360009081526003602052604090205460ff1615156001146107ae5760405162461bcd60e51b815260206004820152600c60248201526b2737ba1030903bb7b935b2b960a11b60448201526064016103b9565b6001600160a01b03811661082a5760405162461bcd60e51b815260206004820152602a60248201527f5a65726f206164647265737320666f72206e6577207369676d6120616374696f60448201527f6e20636f6e74726163740000000000000000000000000000000000000000000060648201526084016103b9565b6001805473ffffffffffffffffffffffffffffffffffffffff19166001600160a01b0392909216919091179055565b6000546001600160a01b031633146108a25760405162461bcd60e51b815260206004820152600c60248201526b2737ba1030b71030b236b4b760a11b60448201526064016103b9565b60005b815181101561090a576000600360008484815181106108c6576108c6611913565b6020908102919091018101516001600160a01b03168252810191909152604001600020805460ff19169115159190911790558061090281611929565b9150506108a5565b507f76fe8505b7c4b7ba022031c51ac725c7177670399af7d2ebca7026b7e25bf8938160405161045a9190611952565b60008560011461099c5760405162461bcd60e51b815260206004820152602760248201527f57726f6e672066756e6374696f6e2063616c6c656420666f722077697468647260448201526630bb903a34b2b960c91b60648201526084016103b9565b60006001600160a01b03166002836040516109b791906119cf565b908152604051908190036020019020546001600160a01b03161415610a0d5760405162461bcd60e51b815260206004820152600c60248201526b139bc81cdd58da081c1bdbdb60a21b60448201526064016103b9565b6000600283604051610a1f91906119cf565b908152602001604051809103902060009054906101000a90046001600160a01b03169050806001600160a01b0316634be5c4ea8c338d8d8d8d4660028c604051610a6991906119cf565b908152602001604051809103902060009054906101000a90046001600160a01b03168f8f8f6040518c63ffffffff1660e01b8152600401610ab49b9a99989796959493929190611a30565b6020604051808303816000875af1158015610ad3573d6000803e3d6000fd5b505050506040513d601f19601f82011682018060405250810190610af79190611ab3565b506000600160009054906101000a90046001600160a01b03169050806001600160a01b0316634bcf682387338e8e6040518563ffffffff1660e01b81526004016107059493929190611ad5565b6000806001600160a01b0316600283604051610b6091906119cf565b908152604051908190036020019020546001600160a01b03161415610bb65760405162461bcd60e51b815260206004820152600c60248201526b139bc81cdd58da081c1bdbdb60a21b60448201526064016103b9565b6000600283604051610bc891906119cf565b90815260405190819003602001812054635dd72c0f60e01b82523360048301526001600160a01b038881166024840152604483018890521691506000908290635dd72c0f906064016020604051808303816000875af1158015610c2f573d6000803e3d6000fd5b505050506040513d601f19601f82011682018060405250810190610c539190611ab3565b6001546040516366e391f160e01b81529192506001600160a01b03169060009082906366e391f190610c8f9033908d908d908d90600401611b0b565b6020604051808303816000875af1158015610cae573d6000803e3d6000fd5b505050506040513d601f19601f82011682018060405250810190610cd29190611ab3565b9050828015610cde5750805b9998505050505050505050565b600085600214610d4d5760405162461bcd60e51b815260206004820152602760248201527f57726f6e672066756e6374696f6e2063616c6c656420666f722077697468647260448201526630bb903a34b2b960c91b60648201526084016103b9565b60006001600160a01b0316600283604051610d6891906119cf565b908152604051908190036020019020546001600160a01b03161415610dbe5760405162461bcd60e51b815260206004820152600c60248201526b139bc81cdd58da081c1bdbdb60a21b60448201526064016103b9565b6000600283604051610dd091906119cf565b908152602001604051809103902060009054906101000a90046001600160a01b03169050806001600160a01b031663a224a4578c338d8d8d8d4660028c604051610e1a91906119cf565b908152602001604051809103902060009054906101000a90046001600160a01b03168f8f8f6040518c63ffffffff1660e01b8152600401610e659b9a99989796959493929190611a30565b6020604051808303816000875af1158015610e84573d6000803e3d6000fd5b505050506040513d601f19601f82011682018060405250810190610ea89190611ab3565b506000600160009054906101000a90046001600160a01b03169050806001600160a01b0316633b8f598487338e8e6040518563ffffffff1660e01b81526004016107059493929190611ad5565b3360009081526003602052604090205460ff161515600114610f485760405162461bcd60e51b815260206004820152600c60248201526b2737ba1030903bb7b935b2b960a11b60448201526064016103b9565b8051825114610f995760405162461bcd60e51b815260206004820152601a60248201527f4c6973747327206c656e67746820697320646966666572656e7400000000000060448201526064016103b9565b60005b815181101561103657818181518110610fb757610fb7611913565b60200260200101516002848381518110610fd357610fd3611913565b6020026020010151604051610fe891906119cf565b90815260405190819003602001902080546001600160a01b039290921673ffffffffffffffffffffffffffffffffffffffff199092169190911790558061102e81611929565b915050610f9c565b507f041572ba5a007337eb900b91bde4bf7a58838c66fe504a88a09c15d551891c83816040516110669190611952565b60405180910390a15050565b600060028260405161108491906119cf565b908152604051908190036020019020546001600160a01b031692915050565b6000806001600160a01b03166002836040516110bf91906119cf565b908152604051908190036020019020546001600160a01b031614156111155760405162461bcd60e51b815260206004820152600c60248201526b139bc81cdd58da081c1bdbdb60a21b60448201526064016103b9565b600060028360405161112791906119cf565b908152604080516020928190038301812054638da5cb5b60e01b825291516001600160a01b0390921693508392638da5cb5b926004808401938290030181865afa158015611179573d6000803e3d6000fd5b505050506040513d601f19601f8201168201806040525081019061119d9190611b47565b9392505050565b6000806001600160a01b03166002836040516111c091906119cf565b908152604051908190036020019020546001600160a01b031614156112165760405162461bcd60e51b815260206004820152600c60248201526b139bc81cdd58da081c1bdbdb60a21b60448201526064016103b9565b600060028360405161122891906119cf565b908152604051908190036020018120546371b9952d60e01b82526001600160a01b03868116600484015216915081906371b9952d90602401610522565b60008560031461099c5760405162461bcd60e51b815260206004820152602760248201527f57726f6e672066756e6374696f6e2063616c6c656420666f722077697468647260448201526630bb903a34b2b960c91b60648201526084016103b9565b6000546001600160a01b031633146113105760405162461bcd60e51b815260206004820152600c60248201526b2737ba1030b71030b236b4b760a11b60448201526064016103b9565b6001600160a01b0381166113665760405162461bcd60e51b815260206004820181905260248201527f5a65726f206164647265737320666f72206e6577207369676d61206f776e657260448201526064016103b9565b600080546001600160a01b039081168252600360209081526040808420805460ff19908116909155845473ffffffffffffffffffffffffffffffffffffffff19168685169081178655855281852080549091166001179055925492519290911682527f244ded7a3b73e60f03281fc183df050e6134d393c50788e980dc090f06e72809910161045a565b6000806001600160a01b031660028360405161140c91906119cf565b908152604051908190036020019020546001600160a01b031614156114625760405162461bcd60e51b815260206004820152600c60248201526b139bc81cdd58da081c1bdbdb60a21b60448201526064016103b9565b600060028360405161147491906119cf565b908152604051908190036020018120546348bc13a560e11b82526001600160a01b0386811660048401521691508190639178274a90602401610522565b634e487b7160e01b600052604160045260246000fd5b604051601f8201601f1916810167ffffffffffffffff811182821017156114f0576114f06114b1565b604052919050565b600067ffffffffffffffff821115611512576115126114b1565b5060051b60200190565b6001600160a01b038116811461153157600080fd5b50565b803561153f8161151c565b919050565b600082601f83011261155557600080fd5b8135602061156a611565836114f8565b6114c7565b82815260059290921b8401810191818101908684111561158957600080fd5b8286015b848110156115ad5780356115a08161151c565b835291830191830161158d565b509695505050505050565b6000602082840312156115ca57600080fd5b813567ffffffffffffffff8111156115e157600080fd5b61056384828501611544565b600082601f8301126115fe57600080fd5b813567ffffffffffffffff811115611618576116186114b1565b61162b601f8201601f19166020016114c7565b81815284602083860101111561164057600080fd5b816020850160208301376000918101602001919091529392505050565b6000806040838503121561167057600080fd5b823561167b8161151c565b9150602083013567ffffffffffffffff81111561169757600080fd5b6116a3858286016115ed565b9150509250929050565b60008060008060008060008060006101208a8c0312156116cc57600080fd5b893567ffffffffffffffff808211156116e457600080fd5b6116f08d838e016115ed565b9a506116fe60208d01611534565b995060408c0135985060608c0135975060808c0135965060a08c0135955060c08c013591508082111561173057600080fd5b61173c8d838e016115ed565b945060e08c013593506101008c013591508082111561175a57600080fd5b506117678c828d016115ed565b9150509295985092959850929598565b60006020828403121561178957600080fd5b813561119d8161151c565b600080600080608085870312156117aa57600080fd5b84356117b58161151c565b935060208501359250604085013567ffffffffffffffff808211156117d957600080fd5b6117e5888389016115ed565b935060608701359150808211156117fb57600080fd5b50611808878288016115ed565b91505092959194509250565b6000806040838503121561182757600080fd5b823567ffffffffffffffff8082111561183f57600080fd5b818501915085601f83011261185357600080fd5b81356020611863611565836114f8565b82815260059290921b8401810191818101908984111561188257600080fd5b8286015b848110156118ba5780358681111561189e5760008081fd5b6118ac8c86838b01016115ed565b845250918301918301611886565b50965050860135925050808211156118d157600080fd5b506116a385828601611544565b6000602082840312156118f057600080fd5b813567ffffffffffffffff81111561190757600080fd5b610563848285016115ed565b634e487b7160e01b600052603260045260246000fd5b600060001982141561194b57634e487b7160e01b600052601160045260246000fd5b5060010190565b6020808252825182820181905260009190848201906040850190845b818110156119935783516001600160a01b03168352928401929184019160010161196e565b50909695505050505050565b60005b838110156119ba5781810151838201526020016119a2565b838111156119c9576000848401525b50505050565b600082516119e181846020870161199f565b9190910192915050565b6000602082840312156119fd57600080fd5b5051919050565b60008151808452611a1c81602086016020860161199f565b601f01601f19169290920160200192915050565b6000610160808352611a448184018f611a04565b90506001600160a01b03808e166020850152808d1660408501528b60608501528a60808501528960a08501528860c085015280881660e08501525085610100840152828103610120840152611a998186611a04565b915050826101408301529c9b505050505050505050505050565b600060208284031215611ac557600080fd5b8151801515811461119d57600080fd5b608081526000611ae86080830187611a04565b6001600160a01b0395861660208401529390941660408201526060015292915050565b60006001600160a01b03808716835280861660208401525083604083015260806060830152611b3d6080830184611a04565b9695505050505050565b600060208284031215611b5957600080fd5b815161119d8161151c56fea164736f6c634300080c000a",
  "linkReferences": {},
  "deployedLinkReferences": {}
}