{
  "_format": "hh-sol-artifact-1",
  "contractName": "SigmaPoolV2",
  "sourceName": "contracts/v2/sigma_mining/SigmaPoolProxy.sol",
  "abi": [
    {
      "inputs": [
        {
          "internalType": "string[]",
          "name": "_sigmaPoolNameList",
          "type": "string[]"
        },
        {
          "internalType": "address[]",
          "name": "_sigmaPoolAddressList",
          "type": "address[]"
        },
        {
          "internalType": "address",
          "name": "_sigmaActionContractAddress",
          "type": "address"
        }
      ],
      "stateMutability": "nonpayable",
      "type": "constructor"
    },
    {
      "anonymous": false,
      "inputs": [
        {
          "indexed": false,
          "internalType": "address[]",
          "name": "addWorkerList",
          "type": "address[]"
        }
      ],
      "name": "AddWorkers",
      "type": "event"
    },
    {
      "anonymous": false,
      "inputs": [
        {
          "indexed": false,
          "internalType": "address",
          "name": "newAdminAddress",
          "type": "address"
        }
      ],
      "name": "ChangeOwnership",
      "type": "event"
    },
    {
      "anonymous": false,
      "inputs": [
        {
          "indexed": false,
          "internalType": "address[]",
          "name": "newlyAddedPoolAddressList",
          "type": "address[]"
        }
      ],
      "name": "ChangePoolAddress",
      "type": "event"
    },
    {
      "anonymous": false,
      "inputs": [
        {
          "indexed": false,
          "internalType": "address[]",
          "name": "removeWorkerList",
          "type": "address[]"
        }
      ],
      "name": "RemoveWorkers",
      "type": "event"
    },
    {
      "inputs": [
        {
          "internalType": "address[]",
          "name": "_addWorkerList",
          "type": "address[]"
        }
      ],
      "name": "addWorkers",
      "outputs": [],
      "stateMutability": "nonpayable",
      "type": "function"
    },
    {
      "inputs": [
        {
          "internalType": "address",
          "name": "_newActionContractAddress",
          "type": "address"
        }
      ],
      "name": "changeSigmaActionContract",
      "outputs": [],
      "stateMutability": "nonpayable",
      "type": "function"
    },
    {
      "inputs": [
        {
          "internalType": "string[]",
          "name": "_newPoolNameList",
          "type": "string[]"
        },
        {
          "internalType": "address[]",
          "name": "_newPoolAddressList",
          "type": "address[]"
        }
      ],
      "name": "changeSigmaPool",
      "outputs": [],
      "stateMutability": "nonpayable",
      "type": "function"
    },
    {
      "inputs": [
        {
          "internalType": "address",
          "name": "_clientAddress",
          "type": "address"
        },
        {
          "internalType": "string",
          "name": "_poolName",
          "type": "string"
        }
      ],
      "name": "getClientSigmaNonce",
      "outputs": [
        {
          "internalType": "uint256",
          "name": "clientSigmaNonce",
          "type": "uint256"
        }
      ],
      "stateMutability": "view",
      "type": "function"
    },
    {
      "inputs": [
        {
          "internalType": "address",
          "name": "_tokenAddress",
          "type": "address"
        },
        {
          "internalType": "string",
          "name": "_poolName",
          "type": "string"
        }
      ],
      "name": "getLiquidityAmountInPool",
      "outputs": [
        {
          "internalType": "uint256",
          "name": "liquidityInPool",
          "type": "uint256"
        }
      ],
      "stateMutability": "view",
      "type": "function"
    },
    {
      "inputs": [
        {
          "internalType": "address",
          "name": "_tokenAddress",
          "type": "address"
        },
        {
          "internalType": "string",
          "name": "_poolName",
          "type": "string"
        }
      ],
      "name": "getSatisTokenAmountInContract",
      "outputs": [
        {
          "internalType": "uint256",
          "name": "satisTokenInPool",
          "type": "uint256"
        }
      ],
      "stateMutability": "view",
      "type": "function"
    },
    {
      "inputs": [
        {
          "internalType": "string",
          "name": "_poolName",
          "type": "string"
        }
      ],
      "name": "getSigmaPoolAddress",
      "outputs": [
        {
          "internalType": "address",
          "name": "_sigmaPoolAddress",
          "type": "address"
        }
      ],
      "stateMutability": "view",
      "type": "function"
    },
    {
      "inputs": [
        {
          "internalType": "string",
          "name": "_poolName",
          "type": "string"
        }
      ],
      "name": "getSigmaPoolOwner",
      "outputs": [
        {
          "internalType": "address",
          "name": "sigmaPoolOwner",
          "type": "address"
        }
      ],
      "stateMutability": "view",
      "type": "function"
    },
    {
      "inputs": [
        {
          "internalType": "address[]",
          "name": "_removeWorkerList",
          "type": "address[]"
        }
      ],
      "name": "removeWorkers",
      "outputs": [],
      "stateMutability": "nonpayable",
      "type": "function"
    },
    {
      "inputs": [],
      "name": "sigmaActionContractAddress",
      "outputs": [
        {
          "internalType": "address",
          "name": "",
          "type": "address"
        }
      ],
      "stateMutability": "view",
      "type": "function"
    },
    {
      "inputs": [
        {
          "internalType": "address",
          "name": "_tokenAddress",
          "type": "address"
        },
        {
          "internalType": "uint256",
          "name": "_tokenValue",
          "type": "uint256"
        },
        {
          "internalType": "string",
          "name": "_data",
          "type": "string"
        },
        {
          "internalType": "string",
          "name": "_poolName",
          "type": "string"
        }
      ],
      "name": "sigmaAddFundWithAction",
      "outputs": [
        {
          "internalType": "bool",
          "name": "_isDone",
          "type": "bool"
        }
      ],
      "stateMutability": "nonpayable",
      "type": "function"
    },
    {
      "inputs": [],
      "name": "sigmaOwner",
      "outputs": [
        {
          "internalType": "address",
          "name": "",
          "type": "address"
        }
      ],
      "stateMutability": "view",
      "type": "function"
    },
    {
      "inputs": [
        {
          "internalType": "string",
          "name": "",
          "type": "string"
        }
      ],
      "name": "sigmaPoolAddressList",
      "outputs": [
        {
          "internalType": "address",
          "name": "",
          "type": "address"
        }
      ],
      "stateMutability": "view",
      "type": "function"
    },
    {
      "inputs": [
        {
          "internalType": "address",
          "name": "",
          "type": "address"
        }
      ],
      "name": "sigmaProxyWorkerList",
      "outputs": [
        {
          "internalType": "bool",
          "name": "",
          "type": "bool"
        }
      ],
      "stateMutability": "view",
      "type": "function"
    },
    {
      "inputs": [
        {
          "internalType": "bytes",
          "name": "_targetSignature",
          "type": "bytes"
        },
        {
          "internalType": "address",
          "name": "_tokenAddress",
          "type": "address"
        },
        {
          "internalType": "uint256",
          "name": "_partialWithdrawValue",
          "type": "uint256"
        },
        {
          "internalType": "uint256",
          "name": "_tier",
          "type": "uint256"
        },
        {
          "internalType": "uint256",
          "name": "_expBlockNo",
          "type": "uint256"
        },
        {
          "internalType": "string",
          "name": "_ticketId",
          "type": "string"
        },
        {
          "internalType": "uint256",
          "name": "_nonce",
          "type": "uint256"
        },
        {
          "internalType": "string",
          "name": "_poolName",
          "type": "string"
        }
      ],
      "name": "sigmaVerifyAndPartialWithdrawFund",
      "outputs": [
        {
          "internalType": "bool",
          "name": "_isDone",
          "type": "bool"
        }
      ],
      "stateMutability": "nonpayable",
      "type": "function"
    },
    {
      "inputs": [
        {
          "internalType": "bytes",
          "name": "_targetSignature",
          "type": "bytes"
        },
        {
          "internalType": "address",
          "name": "_tokenAddress",
          "type": "address"
        },
        {
          "internalType": "uint256",
          "name": "_queueValue",
          "type": "uint256"
        },
        {
          "internalType": "uint256",
          "name": "_tier",
          "type": "uint256"
        },
        {
          "internalType": "uint256",
          "name": "_expBlockNo",
          "type": "uint256"
        },
        {
          "internalType": "string",
          "name": "_ticketId",
          "type": "string"
        },
        {
          "internalType": "uint256",
          "name": "_nonce",
          "type": "uint256"
        },
        {
          "internalType": "string",
          "name": "_poolName",
          "type": "string"
        }
      ],
      "name": "sigmaVerifyAndQueue",
      "outputs": [
        {
          "internalType": "bool",
          "name": "_isDone",
          "type": "bool"
        }
      ],
      "stateMutability": "nonpayable",
      "type": "function"
    },
    {
      "inputs": [
        {
          "internalType": "bytes",
          "name": "_targetSignature",
          "type": "bytes"
        },
        {
          "internalType": "address",
          "name": "_tokenAddress",
          "type": "address"
        },
        {
          "internalType": "uint256",
          "name": "_redeemValue",
          "type": "uint256"
        },
        {
          "internalType": "uint256",
          "name": "_tier",
          "type": "uint256"
        },
        {
          "internalType": "uint256",
          "name": "_expBlockNo",
          "type": "uint256"
        },
        {
          "internalType": "string",
          "name": "_ticketId",
          "type": "string"
        },
        {
          "internalType": "uint256",
          "name": "_nonce",
          "type": "uint256"
        },
        {
          "internalType": "string",
          "name": "_poolName",
          "type": "string"
        }
      ],
      "name": "sigmaVerifyAndRedeemToken",
      "outputs": [
        {
          "internalType": "bool",
          "name": "_isDone",
          "type": "bool"
        }
      ],
      "stateMutability": "nonpayable",
      "type": "function"
    },
    {
      "inputs": [
        {
          "internalType": "bytes",
          "name": "_targetSignature",
          "type": "bytes"
        },
        {
          "internalType": "address",
          "name": "_tokenAddress",
          "type": "address"
        },
        {
          "internalType": "uint256",
          "name": "_withdrawValue",
          "type": "uint256"
        },
        {
          "internalType": "uint256",
          "name": "_tier",
          "type": "uint256"
        },
        {
          "internalType": "uint256",
          "name": "_expBlockNo",
          "type": "uint256"
        },
        {
          "internalType": "string",
          "name": "_ticketId",
          "type": "string"
        },
        {
          "internalType": "uint256",
          "name": "_nonce",
          "type": "uint256"
        },
        {
          "internalType": "string",
          "name": "_poolName",
          "type": "string"
        }
      ],
      "name": "sigmaVerifyAndWithdrawFund",
      "outputs": [
        {
          "internalType": "bool",
          "name": "_isDone",
          "type": "bool"
        }
      ],
      "stateMutability": "nonpayable",
      "type": "function"
    },
    {
      "inputs": [
        {
          "internalType": "address",
          "name": "_newOwner",
          "type": "address"
        }
      ],
      "name": "transferOwnershipSigmaPoolProxy",
      "outputs": [],
      "stateMutability": "nonpayable",
      "type": "function"
    },
    {
      "inputs": [
        {
          "internalType": "address",
          "name": "_workerAddress",
          "type": "address"
        }
      ],
      "name": "verifySigmaProxyWorker",
      "outputs": [
        {
          "internalType": "bool",
          "name": "_isWorker",
          "type": "bool"
        }
      ],
      "stateMutability": "view",
      "type": "function"
    }
  ],
  "bytecode": "0x60806040523480156200001157600080fd5b506040516200204c3803806200204c83398101604081905262000034916200031b565b6001600160a01b0381166200009f5760405162461bcd60e51b815260206004820152602660248201527f5a65726f206164647265737320666f72207369676d6120616374696f6e20636f6044820152651b9d1c9858dd60d21b60648201526084015b60405180910390fd5b8151835114620000f25760405162461bcd60e51b815260206004820152601a60248201527f4c6973747327206c656e67746820697320646966666572656e74000000000000604482015260640162000096565b600080546001600160a01b0319163390811782558152600360205260408120805460ff191660011790555b8251811015620001b6578281815181106200013c576200013c6200046b565b602002602001015160028583815181106200015b576200015b6200046b565b602002602001015160405162000172919062000481565b90815260405190819003602001902080546001600160a01b03929092166001600160a01b031990921691909117905580620001ad816200049f565b9150506200011d565b50600180546001600160a01b0319166001600160a01b039290921691909117905550620004c99050565b634e487b7160e01b600052604160045260246000fd5b604051601f8201601f191681016001600160401b0381118282101715620002215762000221620001e0565b604052919050565b60006001600160401b03821115620002455762000245620001e0565b5060051b60200190565b60005b838110156200026c57818101518382015260200162000252565b838111156200027c576000848401525b50505050565b80516001600160a01b03811681146200029a57600080fd5b919050565b600082601f830112620002b157600080fd5b81516020620002ca620002c48362000229565b620001f6565b82815260059290921b84018101918181019086841115620002ea57600080fd5b8286015b848110156200031057620003028162000282565b8352918301918301620002ee565b509695505050505050565b6000806000606084860312156200033157600080fd5b83516001600160401b03808211156200034957600080fd5b818601915086601f8301126200035e57600080fd5b8151602062000371620002c48362000229565b82815260059290921b8401810191818101908a8411156200039157600080fd5b8286015b848110156200042757805186811115620003af5760008081fd5b8701603f81018d13620003c25760008081fd5b84810151604088821115620003db57620003db620001e0565b620003ef601f8301601f19168801620001f6565b8281528f82848601011115620004055760008081fd5b62000416838983018487016200024f565b865250505091830191830162000395565b50918901519197509093505050808211156200044257600080fd5b5062000451868287016200029f565b925050620004626040850162000282565b90509250925092565b634e487b7160e01b600052603260045260246000fd5b60008251620004958184602087016200024f565b9190910192915050565b6000600019821415620004c257634e487b7160e01b600052601160045260246000fd5b5060010190565b611b7380620004d96000396000f3fe608060405234801561001057600080fd5b506004361061016c5760003560e01c806380c03da2116100cd578063e239bf2811610081578063e51e064111610066578063e51e06411461033b578063f6778a251461034e578063fad1354e1461036157600080fd5b8063e239bf28146102f4578063e4ff150c1461030757600080fd5b8063b55dc088116100b2578063b55dc088146102bb578063cceb0685146102ce578063d32a0849146102e157600080fd5b806380c03da214610295578063ab27ad03146102a857600080fd5b80634ce1054d116101245780635f6d2bbc116101095780635f6d2bbc146102445780636777f00a1461026f5780636bb0fd0f1461028257600080fd5b80634ce1054d1461020557806359fca7a41461021857600080fd5b8063193656461161015557806319365646146101ac578063310b4c73146101cf5780634a3bd1a1146101e257600080fd5b80630111efb714610171578063093988e514610186575b600080fd5b61018461017f3660046115cc565b610374565b005b610199610194366004611671565b610465565b6040519081526020015b60405180910390f35b6101bf6101ba3660046116c1565b61056b565b60405190151581526020016101a3565b6101846101dd366004611781565b610769565b6101bf6101f0366004611781565b60036020526000908152604090205460ff1681565b6101846102133660046115cc565b610867565b6101bf610226366004611781565b6001600160a01b031660009081526003602052604090205460ff1690565b600154610257906001600160a01b031681565b6040516001600160a01b0390911681526020016101a3565b6101bf61027d36600461179e565b610948565b6101bf6102903660046116c1565b610aef565b6101846102a336600461181e565b610cfc565b6102576102b63660046118e8565b610e79565b6102576102c93660046118e8565b610eaa565b6101bf6102dc3660046116c1565b610fab565b6101bf6102ef3660046116c1565b6111b8565b600054610257906001600160a01b031681565b6102576103153660046118e8565b80516020818301810180516002825292820191909301209152546001600160a01b031681565b610199610349366004611671565b61121a565b61018461035c366004611781565b6112db565b61019961036f366004611671565b611404565b6000546001600160a01b031633146103c25760405162461bcd60e51b815260206004820152600c60248201526b2737ba1030b71030b236b4b760a11b60448201526064015b60405180910390fd5b60005b815181101561042a576001600360008484815181106103e6576103e661191d565b6020908102919091018101516001600160a01b03168252810191909152604001600020805460ff19169115159190911790558061042281611933565b9150506103c5565b507f9e36e65aa003add44ff529b38d35a7fed088dd29f3ab43ee9ee17e449621ff988160405161045a919061195c565b60405180910390a150565b6000806001600160a01b031660028360405161048191906119d9565b908152604051908190036020019020546001600160a01b031614156104d75760405162461bcd60e51b815260206004820152600c60248201526b139bc81cdd58da081c1bdbdb60a21b60448201526064016103b9565b60006002836040516104e991906119d9565b90815260405190819003602001812054634738198f60e11b82526001600160a01b0386811660048401521691508190638e70331e906024015b602060405180830381865afa15801561053f573d6000803e3d6000fd5b505050506040513d601f19601f8201168201806040525081019061056391906119f5565b949350505050565b6000806001600160a01b031660028360405161058791906119d9565b908152604051908190036020019020546001600160a01b031614156105dd5760405162461bcd60e51b815260206004820152600c60248201526b139bc81cdd58da081c1bdbdb60a21b60448201526064016103b9565b60006002836040516105ef91906119d9565b908152602001604051809103902060009054906101000a90046001600160a01b031690506000816001600160a01b03166350ade57e8c338d8d8d4660028c60405161063a91906119d9565b908152602001604051809103902060009054906101000a90046001600160a01b03168f8f8f6040518b63ffffffff1660e01b81526004016106849a99989796959493929190611a3a565b6020604051808303816000875af11580156106a3573d6000803e3d6000fd5b505050506040513d601f19601f820116820180604052508101906106c79190611ab5565b60015460405163328447a560e01b81523360048201526001600160a01b038d81166024830152604482018d9052929350911690600090829063328447a5906064015b6020604051808303816000875af1158015610728573d6000803e3d6000fd5b505050506040513d601f19601f8201168201806040525081019061074c9190611ab5565b90508280156107585750805b9d9c50505050505050505050505050565b3360009081526003602052604090205460ff1615156001146107bc5760405162461bcd60e51b815260206004820152600c60248201526b2737ba1030903bb7b935b2b960a11b60448201526064016103b9565b6001600160a01b0381166108385760405162461bcd60e51b815260206004820152602a60248201527f5a65726f206164647265737320666f72206e6577207369676d6120616374696f60448201527f6e20636f6e74726163740000000000000000000000000000000000000000000060648201526084016103b9565b6001805473ffffffffffffffffffffffffffffffffffffffff19166001600160a01b0392909216919091179055565b6000546001600160a01b031633146108b05760405162461bcd60e51b815260206004820152600c60248201526b2737ba1030b71030b236b4b760a11b60448201526064016103b9565b60005b8151811015610918576000600360008484815181106108d4576108d461191d565b6020908102919091018101516001600160a01b03168252810191909152604001600020805460ff19169115159190911790558061091081611933565b9150506108b3565b507f76fe8505b7c4b7ba022031c51ac725c7177670399af7d2ebca7026b7e25bf8938160405161045a919061195c565b6000806001600160a01b031660028360405161096491906119d9565b908152604051908190036020019020546001600160a01b031614156109ba5760405162461bcd60e51b815260206004820152600c60248201526b139bc81cdd58da081c1bdbdb60a21b60448201526064016103b9565b60006002836040516109cc91906119d9565b90815260405190819003602001812054635dd72c0f60e01b82523360048301526001600160a01b038881166024840152604483018890521691506000908290635dd72c0f906064016020604051808303816000875af1158015610a33573d6000803e3d6000fd5b505050506040513d601f19601f82011682018060405250810190610a579190611ab5565b6001546040516366e391f160e01b81529192506001600160a01b03169060009082906366e391f190610a939033908d908d908d90600401611ad7565b6020604051808303816000875af1158015610ab2573d6000803e3d6000fd5b505050506040513d601f19601f82011682018060405250810190610ad69190611ab5565b9050828015610ae25750805b9998505050505050505050565b600085600314610b515760405162461bcd60e51b815260206004820152602760248201527f57726f6e672066756e6374696f6e2063616c6c656420666f722077697468647260448201526630bb903a34b2b960c91b60648201526084016103b9565b60006001600160a01b0316600283604051610b6c91906119d9565b908152604051908190036020019020546001600160a01b03161415610bc25760405162461bcd60e51b815260206004820152600c60248201526b139bc81cdd58da081c1bdbdb60a21b60448201526064016103b9565b6000600283604051610bd491906119d9565b908152602001604051809103902060009054906101000a90046001600160a01b031690506000816001600160a01b03166327a34e9d8c338d8d8d4660028c604051610c1f91906119d9565b908152602001604051809103902060009054906101000a90046001600160a01b03168f8f8f6040518b63ffffffff1660e01b8152600401610c699a99989796959493929190611a3a565b6020604051808303816000875af1158015610c88573d6000803e3d6000fd5b505050506040513d601f19601f82011682018060405250810190610cac9190611ab5565b90506000600160009054906101000a90046001600160a01b031690506000816001600160a01b0316634bcf682389338f8f6040518563ffffffff1660e01b81526004016107099493929190611b13565b3360009081526003602052604090205460ff161515600114610d4f5760405162461bcd60e51b815260206004820152600c60248201526b2737ba1030903bb7b935b2b960a11b60448201526064016103b9565b8051825114610da05760405162461bcd60e51b815260206004820152601a60248201527f4c6973747327206c656e67746820697320646966666572656e7400000000000060448201526064016103b9565b60005b8151811015610e3d57818181518110610dbe57610dbe61191d565b60200260200101516002848381518110610dda57610dda61191d565b6020026020010151604051610def91906119d9565b90815260405190819003602001902080546001600160a01b039290921673ffffffffffffffffffffffffffffffffffffffff1990921691909117905580610e3581611933565b915050610da3565b507f041572ba5a007337eb900b91bde4bf7a58838c66fe504a88a09c15d551891c8381604051610e6d919061195c565b60405180910390a15050565b6000600282604051610e8b91906119d9565b908152604051908190036020019020546001600160a01b031692915050565b6000806001600160a01b0316600283604051610ec691906119d9565b908152604051908190036020019020546001600160a01b03161415610f1c5760405162461bcd60e51b815260206004820152600c60248201526b139bc81cdd58da081c1bdbdb60a21b60448201526064016103b9565b6000600283604051610f2e91906119d9565b908152604080516020928190038301812054638da5cb5b60e01b825291516001600160a01b0390921693508392638da5cb5b926004808401938290030181865afa158015610f80573d6000803e3d6000fd5b505050506040513d601f19601f82011682018060405250810190610fa49190611b49565b9392505050565b60008560021461100d5760405162461bcd60e51b815260206004820152602760248201527f57726f6e672066756e6374696f6e2063616c6c656420666f722077697468647260448201526630bb903a34b2b960c91b60648201526084016103b9565b60006001600160a01b031660028360405161102891906119d9565b908152604051908190036020019020546001600160a01b0316141561107e5760405162461bcd60e51b815260206004820152600c60248201526b139bc81cdd58da081c1bdbdb60a21b60448201526064016103b9565b600060028360405161109091906119d9565b908152602001604051809103902060009054906101000a90046001600160a01b031690506000816001600160a01b031663a86a939b8c338d8d8d4660028c6040516110db91906119d9565b908152602001604051809103902060009054906101000a90046001600160a01b03168f8f8f6040518b63ffffffff1660e01b81526004016111259a99989796959493929190611a3a565b6020604051808303816000875af1158015611144573d6000803e3d6000fd5b505050506040513d601f19601f820116820180604052508101906111689190611ab5565b90506000600160009054906101000a90046001600160a01b031690506000816001600160a01b0316633b8f598489338f8f6040518563ffffffff1660e01b81526004016107099493929190611b13565b600085600114610b515760405162461bcd60e51b815260206004820152602760248201527f57726f6e672066756e6374696f6e2063616c6c656420666f722077697468647260448201526630bb903a34b2b960c91b60648201526084016103b9565b6000806001600160a01b031660028360405161123691906119d9565b908152604051908190036020019020546001600160a01b0316141561128c5760405162461bcd60e51b815260206004820152600c60248201526b139bc81cdd58da081c1bdbdb60a21b60448201526064016103b9565b600060028360405161129e91906119d9565b908152604051908190036020018120546371b9952d60e01b82526001600160a01b03868116600484015216915081906371b9952d90602401610522565b6000546001600160a01b031633146113245760405162461bcd60e51b815260206004820152600c60248201526b2737ba1030b71030b236b4b760a11b60448201526064016103b9565b6001600160a01b03811661137a5760405162461bcd60e51b815260206004820181905260248201527f5a65726f206164647265737320666f72206e6577207369676d61206f776e657260448201526064016103b9565b600080546001600160a01b039081168252600360209081526040808420805460ff19908116909155845473ffffffffffffffffffffffffffffffffffffffff19168685169081178655855281852080549091166001179055925492519290911682527f244ded7a3b73e60f03281fc183df050e6134d393c50788e980dc090f06e72809910161045a565b6000806001600160a01b031660028360405161142091906119d9565b908152604051908190036020019020546001600160a01b031614156114765760405162461bcd60e51b815260206004820152600c60248201526b139bc81cdd58da081c1bdbdb60a21b60448201526064016103b9565b600060028360405161148891906119d9565b908152604051908190036020018120546348bc13a560e11b82526001600160a01b0386811660048401521691508190639178274a90602401610522565b634e487b7160e01b600052604160045260246000fd5b604051601f8201601f1916810167ffffffffffffffff81118282101715611504576115046114c5565b604052919050565b600067ffffffffffffffff821115611526576115266114c5565b5060051b60200190565b6001600160a01b038116811461154557600080fd5b50565b803561155381611530565b919050565b600082601f83011261156957600080fd5b8135602061157e6115798361150c565b6114db565b82815260059290921b8401810191818101908684111561159d57600080fd5b8286015b848110156115c15780356115b481611530565b83529183019183016115a1565b509695505050505050565b6000602082840312156115de57600080fd5b813567ffffffffffffffff8111156115f557600080fd5b61056384828501611558565b600082601f83011261161257600080fd5b813567ffffffffffffffff81111561162c5761162c6114c5565b61163f601f8201601f19166020016114db565b81815284602083860101111561165457600080fd5b816020850160208301376000918101602001919091529392505050565b6000806040838503121561168457600080fd5b823561168f81611530565b9150602083013567ffffffffffffffff8111156116ab57600080fd5b6116b785828601611601565b9150509250929050565b600080600080600080600080610100898b0312156116de57600080fd5b883567ffffffffffffffff808211156116f657600080fd5b6117028c838d01611601565b995061171060208c01611548565b985060408b0135975060608b0135965060808b0135955060a08b013591508082111561173b57600080fd5b6117478c838d01611601565b945060c08b0135935060e08b013591508082111561176457600080fd5b506117718b828c01611601565b9150509295985092959890939650565b60006020828403121561179357600080fd5b8135610fa481611530565b600080600080608085870312156117b457600080fd5b84356117bf81611530565b935060208501359250604085013567ffffffffffffffff808211156117e357600080fd5b6117ef88838901611601565b9350606087013591508082111561180557600080fd5b5061181287828801611601565b91505092959194509250565b6000806040838503121561183157600080fd5b823567ffffffffffffffff8082111561184957600080fd5b818501915085601f83011261185d57600080fd5b8135602061186d6115798361150c565b82815260059290921b8401810191818101908984111561188c57600080fd5b8286015b848110156118c4578035868111156118a85760008081fd5b6118b68c86838b0101611601565b845250918301918301611890565b50965050860135925050808211156118db57600080fd5b506116b785828601611558565b6000602082840312156118fa57600080fd5b813567ffffffffffffffff81111561191157600080fd5b61056384828501611601565b634e487b7160e01b600052603260045260246000fd5b600060001982141561195557634e487b7160e01b600052601160045260246000fd5b5060010190565b6020808252825182820181905260009190848201906040850190845b8181101561199d5783516001600160a01b031683529284019291840191600101611978565b50909695505050505050565b60005b838110156119c45781810151838201526020016119ac565b838111156119d3576000848401525b50505050565b600082516119eb8184602087016119a9565b9190910192915050565b600060208284031215611a0757600080fd5b5051919050565b60008151808452611a268160208601602086016119a9565b601f01601f19169290920160200192915050565b6000610140808352611a4e8184018e611a0e565b90506001600160a01b03808d166020850152808c1660408501528a60608501528960808501528860a085015280881660c0850152508560e0840152828103610100840152611a9c8186611a0e565b915050826101208301529b9a5050505050505050505050565b600060208284031215611ac757600080fd5b81518015158114610fa457600080fd5b60006001600160a01b03808716835280861660208401525083604083015260806060830152611b096080830184611a0e565b9695505050505050565b608081526000611b266080830187611a0e565b6001600160a01b0395861660208401529390941660408201526060015292915050565b600060208284031215611b5b57600080fd5b8151610fa48161153056fea164736f6c634300080c000a",
  "linkReferences": {},
  "deployedLinkReferences": {}
}