{
  "_format": "hh-sol-artifact-1",
  "contractName": "SigmaPoolV2",
  "sourceName": "contracts/v2/sigma_mining/SigmaPoolProxy.sol",
  "abi": [
    {
      "inputs": [
        {
          "internalType": "string[]",
          "name": "_sigmaPoolNameList",
          "type": "string[]"
        },
        {
          "internalType": "address[]",
          "name": "_sigmaPoolAddressList",
          "type": "address[]"
        },
        {
          "internalType": "address",
          "name": "_sigmaActionContractAddress",
          "type": "address"
        }
      ],
      "stateMutability": "nonpayable",
      "type": "constructor"
    },
    {
      "anonymous": false,
      "inputs": [
        {
          "indexed": false,
          "internalType": "address[]",
          "name": "addWorkerList",
          "type": "address[]"
        }
      ],
      "name": "AddWorkers",
      "type": "event"
    },
    {
      "anonymous": false,
      "inputs": [
        {
          "indexed": false,
          "internalType": "address",
          "name": "newAdminAddress",
          "type": "address"
        }
      ],
      "name": "ChangeOwnership",
      "type": "event"
    },
    {
      "anonymous": false,
      "inputs": [
        {
          "indexed": false,
          "internalType": "address[]",
          "name": "newlyAddedPoolAddressList",
          "type": "address[]"
        }
      ],
      "name": "ChangePoolAddress",
      "type": "event"
    },
    {
      "anonymous": false,
      "inputs": [
        {
          "indexed": false,
          "internalType": "address[]",
          "name": "removeWorkerList",
          "type": "address[]"
        }
      ],
      "name": "RemoveWorkers",
      "type": "event"
    },
    {
      "inputs": [
        {
          "internalType": "address[]",
          "name": "_addWorkerList",
          "type": "address[]"
        }
      ],
      "name": "addWorkers",
      "outputs": [],
      "stateMutability": "nonpayable",
      "type": "function"
    },
    {
      "inputs": [
        {
          "internalType": "address",
          "name": "_newActionContractAddress",
          "type": "address"
        }
      ],
      "name": "changeSigmaActionContract",
      "outputs": [],
      "stateMutability": "nonpayable",
      "type": "function"
    },
    {
      "inputs": [
        {
          "internalType": "string[]",
          "name": "_newPoolNameList",
          "type": "string[]"
        },
        {
          "internalType": "address[]",
          "name": "_newPoolAddressList",
          "type": "address[]"
        }
      ],
      "name": "changeSigmaPool",
      "outputs": [],
      "stateMutability": "nonpayable",
      "type": "function"
    },
    {
      "inputs": [
        {
          "internalType": "address",
          "name": "_clientAddress",
          "type": "address"
        },
        {
          "internalType": "string",
          "name": "_poolName",
          "type": "string"
        }
      ],
      "name": "getClientSigmaNonce",
      "outputs": [
        {
          "internalType": "uint256",
          "name": "clientSigmaNonce",
          "type": "uint256"
        }
      ],
      "stateMutability": "view",
      "type": "function"
    },
    {
      "inputs": [
        {
          "internalType": "address",
          "name": "_tokenAddress",
          "type": "address"
        },
        {
          "internalType": "string",
          "name": "_poolName",
          "type": "string"
        }
      ],
      "name": "getLiquidityAmountInPool",
      "outputs": [
        {
          "internalType": "uint256",
          "name": "liquidityInPool",
          "type": "uint256"
        }
      ],
      "stateMutability": "view",
      "type": "function"
    },
    {
      "inputs": [
        {
          "internalType": "address",
          "name": "_tokenAddress",
          "type": "address"
        },
        {
          "internalType": "string",
          "name": "_poolName",
          "type": "string"
        }
      ],
      "name": "getSatisTokenAmountInContract",
      "outputs": [
        {
          "internalType": "uint256",
          "name": "satisTokenInPool",
          "type": "uint256"
        }
      ],
      "stateMutability": "view",
      "type": "function"
    },
    {
      "inputs": [
        {
          "internalType": "string",
          "name": "_poolName",
          "type": "string"
        }
      ],
      "name": "getSigmaPoolAddress",
      "outputs": [
        {
          "internalType": "address",
          "name": "_sigmaPoolAddress",
          "type": "address"
        }
      ],
      "stateMutability": "view",
      "type": "function"
    },
    {
      "inputs": [
        {
          "internalType": "string",
          "name": "_poolName",
          "type": "string"
        }
      ],
      "name": "getSigmaPoolOwner",
      "outputs": [
        {
          "internalType": "address",
          "name": "sigmaPoolOwner",
          "type": "address"
        }
      ],
      "stateMutability": "view",
      "type": "function"
    },
    {
      "inputs": [
        {
          "internalType": "address[]",
          "name": "_removeWorkerList",
          "type": "address[]"
        }
      ],
      "name": "removeWorkers",
      "outputs": [],
      "stateMutability": "nonpayable",
      "type": "function"
    },
    {
      "inputs": [],
      "name": "sigmaActionContractAddress",
      "outputs": [
        {
          "internalType": "address",
          "name": "",
          "type": "address"
        }
      ],
      "stateMutability": "view",
      "type": "function"
    },
    {
      "inputs": [
        {
          "internalType": "address",
          "name": "_tokenAddress",
          "type": "address"
        },
        {
          "internalType": "uint256",
          "name": "_tokenValue",
          "type": "uint256"
        },
        {
          "internalType": "string",
          "name": "_data",
          "type": "string"
        },
        {
          "internalType": "string",
          "name": "_poolName",
          "type": "string"
        }
      ],
      "name": "sigmaAddFundWithAction",
      "outputs": [
        {
          "internalType": "bool",
          "name": "_isDone",
          "type": "bool"
        }
      ],
      "stateMutability": "nonpayable",
      "type": "function"
    },
    {
      "inputs": [],
      "name": "sigmaOwner",
      "outputs": [
        {
          "internalType": "address",
          "name": "",
          "type": "address"
        }
      ],
      "stateMutability": "view",
      "type": "function"
    },
    {
      "inputs": [
        {
          "internalType": "string",
          "name": "",
          "type": "string"
        }
      ],
      "name": "sigmaPoolAddressList",
      "outputs": [
        {
          "internalType": "address",
          "name": "",
          "type": "address"
        }
      ],
      "stateMutability": "view",
      "type": "function"
    },
    {
      "inputs": [
        {
          "internalType": "address",
          "name": "",
          "type": "address"
        }
      ],
      "name": "sigmaProxyWorkerList",
      "outputs": [
        {
          "internalType": "bool",
          "name": "",
          "type": "bool"
        }
      ],
      "stateMutability": "view",
      "type": "function"
    },
    {
      "inputs": [
        {
          "internalType": "bytes",
          "name": "_targetSignature",
          "type": "bytes"
        },
        {
          "internalType": "address",
          "name": "_tokenAddress",
          "type": "address"
        },
        {
          "internalType": "uint256",
          "name": "_partialWithdrawValue",
          "type": "uint256"
        },
        {
          "internalType": "uint256",
          "name": "_inDebtValue",
          "type": "uint256"
        },
        {
          "internalType": "uint256",
          "name": "_tier",
          "type": "uint256"
        },
        {
          "internalType": "uint256",
          "name": "_expBlockNo",
          "type": "uint256"
        },
        {
          "internalType": "string",
          "name": "_ticketId",
          "type": "string"
        },
        {
          "internalType": "uint256",
          "name": "_nonce",
          "type": "uint256"
        },
        {
          "internalType": "string",
          "name": "_poolName",
          "type": "string"
        }
      ],
      "name": "sigmaVerifyAndPartialWithdrawFund",
      "outputs": [
        {
          "internalType": "bool",
          "name": "_isDone",
          "type": "bool"
        }
      ],
      "stateMutability": "nonpayable",
      "type": "function"
    },
    {
      "inputs": [
        {
          "internalType": "bytes",
          "name": "_targetSignature",
          "type": "bytes"
        },
        {
          "internalType": "address",
          "name": "_tokenAddress",
          "type": "address"
        },
        {
          "internalType": "uint256",
          "name": "_queueValue",
          "type": "uint256"
        },
        {
          "internalType": "uint256",
          "name": "_inDebtValue",
          "type": "uint256"
        },
        {
          "internalType": "uint256",
          "name": "_tier",
          "type": "uint256"
        },
        {
          "internalType": "uint256",
          "name": "_expBlockNo",
          "type": "uint256"
        },
        {
          "internalType": "string",
          "name": "_ticketId",
          "type": "string"
        },
        {
          "internalType": "uint256",
          "name": "_nonce",
          "type": "uint256"
        },
        {
          "internalType": "string",
          "name": "_poolName",
          "type": "string"
        }
      ],
      "name": "sigmaVerifyAndQueue",
      "outputs": [
        {
          "internalType": "bool",
          "name": "_isDone",
          "type": "bool"
        }
      ],
      "stateMutability": "nonpayable",
      "type": "function"
    },
    {
      "inputs": [
        {
          "internalType": "bytes",
          "name": "_targetSignature",
          "type": "bytes"
        },
        {
          "internalType": "address",
          "name": "_tokenAddress",
          "type": "address"
        },
        {
          "internalType": "uint256",
          "name": "_redeemValue",
          "type": "uint256"
        },
        {
          "internalType": "uint256",
          "name": "_inDebtValue",
          "type": "uint256"
        },
        {
          "internalType": "uint256",
          "name": "_tier",
          "type": "uint256"
        },
        {
          "internalType": "uint256",
          "name": "_expBlockNo",
          "type": "uint256"
        },
        {
          "internalType": "string",
          "name": "_ticketId",
          "type": "string"
        },
        {
          "internalType": "uint256",
          "name": "_nonce",
          "type": "uint256"
        },
        {
          "internalType": "string",
          "name": "_poolName",
          "type": "string"
        }
      ],
      "name": "sigmaVerifyAndRedeemToken",
      "outputs": [
        {
          "internalType": "bool",
          "name": "_isDone",
          "type": "bool"
        }
      ],
      "stateMutability": "nonpayable",
      "type": "function"
    },
    {
      "inputs": [
        {
          "internalType": "bytes",
          "name": "_targetSignature",
          "type": "bytes"
        },
        {
          "internalType": "address",
          "name": "_tokenAddress",
          "type": "address"
        },
        {
          "internalType": "uint256",
          "name": "_withdrawValue",
          "type": "uint256"
        },
        {
          "internalType": "uint256",
          "name": "_inDebtValue",
          "type": "uint256"
        },
        {
          "internalType": "uint256",
          "name": "_tier",
          "type": "uint256"
        },
        {
          "internalType": "uint256",
          "name": "_expBlockNo",
          "type": "uint256"
        },
        {
          "internalType": "string",
          "name": "_ticketId",
          "type": "string"
        },
        {
          "internalType": "uint256",
          "name": "_nonce",
          "type": "uint256"
        },
        {
          "internalType": "string",
          "name": "_poolName",
          "type": "string"
        }
      ],
      "name": "sigmaVerifyAndWithdrawFund",
      "outputs": [
        {
          "internalType": "bool",
          "name": "_isDone",
          "type": "bool"
        }
      ],
      "stateMutability": "nonpayable",
      "type": "function"
    },
    {
      "inputs": [
        {
          "internalType": "address",
          "name": "_newOwner",
          "type": "address"
        }
      ],
      "name": "transferOwnershipSigmaPoolProxy",
      "outputs": [],
      "stateMutability": "nonpayable",
      "type": "function"
    },
    {
      "inputs": [
        {
          "internalType": "address",
          "name": "_workerAddress",
          "type": "address"
        }
      ],
      "name": "verifySigmaProxyWorker",
      "outputs": [
        {
          "internalType": "bool",
          "name": "_isWorker",
          "type": "bool"
        }
      ],
      "stateMutability": "view",
      "type": "function"
    }
  ],
  "bytecode": "0x60806040523480156200001157600080fd5b506040516200208c3803806200208c83398101604081905262000034916200031b565b6001600160a01b0381166200009f5760405162461bcd60e51b815260206004820152602660248201527f5a65726f206164647265737320666f72207369676d6120616374696f6e20636f6044820152651b9d1c9858dd60d21b60648201526084015b60405180910390fd5b8151835114620000f25760405162461bcd60e51b815260206004820152601a60248201527f4c6973747327206c656e67746820697320646966666572656e74000000000000604482015260640162000096565b600080546001600160a01b0319163390811782558152600360205260408120805460ff191660011790555b8251811015620001b6578281815181106200013c576200013c6200046b565b602002602001015160028583815181106200015b576200015b6200046b565b602002602001015160405162000172919062000481565b90815260405190819003602001902080546001600160a01b03929092166001600160a01b031990921691909117905580620001ad816200049f565b9150506200011d565b50600180546001600160a01b0319166001600160a01b039290921691909117905550620004c99050565b634e487b7160e01b600052604160045260246000fd5b604051601f8201601f191681016001600160401b0381118282101715620002215762000221620001e0565b604052919050565b60006001600160401b03821115620002455762000245620001e0565b5060051b60200190565b60005b838110156200026c57818101518382015260200162000252565b838111156200027c576000848401525b50505050565b80516001600160a01b03811681146200029a57600080fd5b919050565b600082601f830112620002b157600080fd5b81516020620002ca620002c48362000229565b620001f6565b82815260059290921b84018101918181019086841115620002ea57600080fd5b8286015b848110156200031057620003028162000282565b8352918301918301620002ee565b509695505050505050565b6000806000606084860312156200033157600080fd5b83516001600160401b03808211156200034957600080fd5b818601915086601f8301126200035e57600080fd5b8151602062000371620002c48362000229565b82815260059290921b8401810191818101908a8411156200039157600080fd5b8286015b848110156200042757805186811115620003af5760008081fd5b8701603f81018d13620003c25760008081fd5b84810151604088821115620003db57620003db620001e0565b620003ef601f8301601f19168801620001f6565b8281528f82848601011115620004055760008081fd5b62000416838983018487016200024f565b865250505091830191830162000395565b50918901519197509093505050808211156200044257600080fd5b5062000451868287016200029f565b925050620004626040850162000282565b90509250925092565b634e487b7160e01b600052603260045260246000fd5b60008251620004958184602087016200024f565b9190910192915050565b6000600019821415620004c257634e487b7160e01b600052601160045260246000fd5b5060010190565b611bb380620004d96000396000f3fe608060405234801561001057600080fd5b506004361061016c5760003560e01c80636def5c34116100cd578063e4ff150c11610081578063f63d2ab011610066578063f63d2ab01461033b578063f6778a251461034e578063fad1354e1461036157600080fd5b8063e4ff150c146102f4578063e51e06411461032857600080fd5b8063ab27ad03116100b2578063ab27ad03146102bb578063b55dc088146102ce578063e239bf28146102e157600080fd5b80636def5c341461029557806380c03da2146102a857600080fd5b80634ce1054d116101245780635a9de8ab116101095780635a9de8ab146102445780635f6d2bbc146102575780636777f00a1461028257600080fd5b80634ce1054d1461020557806359fca7a41461021857600080fd5b80632d161ebd116101555780632d161ebd146101ac578063310b4c73146101cf5780634a3bd1a1146101e257600080fd5b80630111efb714610171578063093988e514610186575b600080fd5b61018461017f3660046115ba565b610374565b005b61019961019436600461165f565b610465565b6040519081526020015b60405180910390f35b6101bf6101ba3660046116af565b61056b565b60405190151581526020016101a3565b6101846101dd366004611779565b61075b565b6101bf6101f0366004611779565b60036020526000908152604090205460ff1681565b6101846102133660046115ba565b610859565b6101bf610226366004611779565b6001600160a01b031660009081526003602052604090205460ff1690565b6101bf6102523660046116af565b61093a565b60015461026a906001600160a01b031681565b6040516001600160a01b0390911681526020016101a3565b6101bf610290366004611796565b610b46565b6101bf6102a33660046116af565b610ced565b6101846102b6366004611816565b610ef7565b61026a6102c93660046118e0565b611074565b61026a6102dc3660046118e0565b6110a5565b60005461026a906001600160a01b031681565b61026a6103023660046118e0565b80516020818301810180516002825292820191909301209152546001600160a01b031681565b61019961033636600461165f565b6111a6565b6101bf6103493660046116af565b611267565b61018461035c366004611779565b6112c9565b61019961036f36600461165f565b6113f2565b6000546001600160a01b031633146103c25760405162461bcd60e51b815260206004820152600c60248201526b2737ba1030b71030b236b4b760a11b60448201526064015b60405180910390fd5b60005b815181101561042a576001600360008484815181106103e6576103e6611915565b6020908102919091018101516001600160a01b03168252810191909152604001600020805460ff1916911515919091179055806104228161192b565b9150506103c5565b507f9e36e65aa003add44ff529b38d35a7fed088dd29f3ab43ee9ee17e449621ff988160405161045a9190611954565b60405180910390a150565b6000806001600160a01b031660028360405161048191906119d1565b908152604051908190036020019020546001600160a01b031614156104d75760405162461bcd60e51b815260206004820152600c60248201526b139bc81cdd58da081c1bdbdb60a21b60448201526064016103b9565b60006002836040516104e991906119d1565b90815260405190819003602001812054634738198f60e11b82526001600160a01b0386811660048401521691508190638e70331e906024015b602060405180830381865afa15801561053f573d6000803e3d6000fd5b505050506040513d601f19601f8201168201806040525081019061056391906119ed565b949350505050565b6000806001600160a01b031660028360405161058791906119d1565b908152604051908190036020019020546001600160a01b031614156105dd5760405162461bcd60e51b815260206004820152600c60248201526b139bc81cdd58da081c1bdbdb60a21b60448201526064016103b9565b60006002836040516105ef91906119d1565b908152602001604051809103902060009054906101000a90046001600160a01b03169050806001600160a01b0316636579402b8c338d8d8d8d4660028c60405161063991906119d1565b908152602001604051809103902060009054906101000a90046001600160a01b03168f8f8f6040518c63ffffffff1660e01b81526004016106849b9a99989796959493929190611a32565b6020604051808303816000875af11580156106a3573d6000803e3d6000fd5b505050506040513d601f19601f820116820180604052508101906106c79190611ab5565b5060015460405163328447a560e01b81523360048201526001600160a01b038c81166024830152604482018c905290911690819063328447a5906064015b6020604051808303816000875af1158015610724573d6000803e3d6000fd5b505050506040513d601f19601f820116820180604052508101906107489190611ab5565b5060019c9b505050505050505050505050565b3360009081526003602052604090205460ff1615156001146107ae5760405162461bcd60e51b815260206004820152600c60248201526b2737ba1030903bb7b935b2b960a11b60448201526064016103b9565b6001600160a01b03811661082a5760405162461bcd60e51b815260206004820152602a60248201527f5a65726f206164647265737320666f72206e6577207369676d6120616374696f60448201527f6e20636f6e74726163740000000000000000000000000000000000000000000060648201526084016103b9565b6001805473ffffffffffffffffffffffffffffffffffffffff19166001600160a01b0392909216919091179055565b6000546001600160a01b031633146108a25760405162461bcd60e51b815260206004820152600c60248201526b2737ba1030b71030b236b4b760a11b60448201526064016103b9565b60005b815181101561090a576000600360008484815181106108c6576108c6611915565b6020908102919091018101516001600160a01b03168252810191909152604001600020805460ff1916911515919091179055806109028161192b565b9150506108a5565b507f76fe8505b7c4b7ba022031c51ac725c7177670399af7d2ebca7026b7e25bf8938160405161045a9190611954565b60008560011461099c5760405162461bcd60e51b815260206004820152602760248201527f57726f6e672066756e6374696f6e2063616c6c656420666f722077697468647260448201526630bb903a34b2b960c91b60648201526084016103b9565b60006001600160a01b03166002836040516109b791906119d1565b908152604051908190036020019020546001600160a01b03161415610a0d5760405162461bcd60e51b815260206004820152600c60248201526b139bc81cdd58da081c1bdbdb60a21b60448201526064016103b9565b6000600283604051610a1f91906119d1565b908152602001604051809103902060009054906101000a90046001600160a01b03169050806001600160a01b0316634be5c4ea8c338d8d8d8d4660028c604051610a6991906119d1565b908152602001604051809103902060009054906101000a90046001600160a01b03168f8f8f6040518c63ffffffff1660e01b8152600401610ab49b9a99989796959493929190611a32565b6020604051808303816000875af1158015610ad3573d6000803e3d6000fd5b505050506040513d601f19601f82011682018060405250810190610af79190611ab5565b506000600160009054906101000a90046001600160a01b03169050806001600160a01b031663b35c263f87338e8e8e6040518663ffffffff1660e01b8152600401610705959493929190611ad7565b6000806001600160a01b0316600283604051610b6291906119d1565b908152604051908190036020019020546001600160a01b03161415610bb85760405162461bcd60e51b815260206004820152600c60248201526b139bc81cdd58da081c1bdbdb60a21b60448201526064016103b9565b6000600283604051610bca91906119d1565b90815260405190819003602001812054635dd72c0f60e01b82523360048301526001600160a01b038881166024840152604483018890521691506000908290635dd72c0f906064016020604051808303816000875af1158015610c31573d6000803e3d6000fd5b505050506040513d601f19601f82011682018060405250810190610c559190611ab5565b6001546040516366e391f160e01b81529192506001600160a01b03169060009082906366e391f190610c919033908d908d908d90600401611b17565b6020604051808303816000875af1158015610cb0573d6000803e3d6000fd5b505050506040513d601f19601f82011682018060405250810190610cd49190611ab5565b9050828015610ce05750805b9998505050505050505050565b600085600214610d4f5760405162461bcd60e51b815260206004820152602760248201527f57726f6e672066756e6374696f6e2063616c6c656420666f722077697468647260448201526630bb903a34b2b960c91b60648201526084016103b9565b60006001600160a01b0316600283604051610d6a91906119d1565b908152604051908190036020019020546001600160a01b03161415610dc05760405162461bcd60e51b815260206004820152600c60248201526b139bc81cdd58da081c1bdbdb60a21b60448201526064016103b9565b6000600283604051610dd291906119d1565b908152602001604051809103902060009054906101000a90046001600160a01b03169050806001600160a01b031663a224a4578c338d8d8d8d4660028c604051610e1c91906119d1565b908152602001604051809103902060009054906101000a90046001600160a01b03168f8f8f6040518c63ffffffff1660e01b8152600401610e679b9a99989796959493929190611a32565b6020604051808303816000875af1158015610e86573d6000803e3d6000fd5b505050506040513d601f19601f82011682018060405250810190610eaa9190611ab5565b506000600160009054906101000a90046001600160a01b03169050806001600160a01b0316633b8f598487338e8e6040518563ffffffff1660e01b81526004016107059493929190611b53565b3360009081526003602052604090205460ff161515600114610f4a5760405162461bcd60e51b815260206004820152600c60248201526b2737ba1030903bb7b935b2b960a11b60448201526064016103b9565b8051825114610f9b5760405162461bcd60e51b815260206004820152601a60248201527f4c6973747327206c656e67746820697320646966666572656e7400000000000060448201526064016103b9565b60005b815181101561103857818181518110610fb957610fb9611915565b60200260200101516002848381518110610fd557610fd5611915565b6020026020010151604051610fea91906119d1565b90815260405190819003602001902080546001600160a01b039290921673ffffffffffffffffffffffffffffffffffffffff19909216919091179055806110308161192b565b915050610f9e565b507f041572ba5a007337eb900b91bde4bf7a58838c66fe504a88a09c15d551891c83816040516110689190611954565b60405180910390a15050565b600060028260405161108691906119d1565b908152604051908190036020019020546001600160a01b031692915050565b6000806001600160a01b03166002836040516110c191906119d1565b908152604051908190036020019020546001600160a01b031614156111175760405162461bcd60e51b815260206004820152600c60248201526b139bc81cdd58da081c1bdbdb60a21b60448201526064016103b9565b600060028360405161112991906119d1565b908152604080516020928190038301812054638da5cb5b60e01b825291516001600160a01b0390921693508392638da5cb5b926004808401938290030181865afa15801561117b573d6000803e3d6000fd5b505050506040513d601f19601f8201168201806040525081019061119f9190611b89565b9392505050565b6000806001600160a01b03166002836040516111c291906119d1565b908152604051908190036020019020546001600160a01b031614156112185760405162461bcd60e51b815260206004820152600c60248201526b139bc81cdd58da081c1bdbdb60a21b60448201526064016103b9565b600060028360405161122a91906119d1565b908152604051908190036020018120546371b9952d60e01b82526001600160a01b03868116600484015216915081906371b9952d90602401610522565b60008560031461099c5760405162461bcd60e51b815260206004820152602760248201527f57726f6e672066756e6374696f6e2063616c6c656420666f722077697468647260448201526630bb903a34b2b960c91b60648201526084016103b9565b6000546001600160a01b031633146113125760405162461bcd60e51b815260206004820152600c60248201526b2737ba1030b71030b236b4b760a11b60448201526064016103b9565b6001600160a01b0381166113685760405162461bcd60e51b815260206004820181905260248201527f5a65726f206164647265737320666f72206e6577207369676d61206f776e657260448201526064016103b9565b600080546001600160a01b039081168252600360209081526040808420805460ff19908116909155845473ffffffffffffffffffffffffffffffffffffffff19168685169081178655855281852080549091166001179055925492519290911682527f244ded7a3b73e60f03281fc183df050e6134d393c50788e980dc090f06e72809910161045a565b6000806001600160a01b031660028360405161140e91906119d1565b908152604051908190036020019020546001600160a01b031614156114645760405162461bcd60e51b815260206004820152600c60248201526b139bc81cdd58da081c1bdbdb60a21b60448201526064016103b9565b600060028360405161147691906119d1565b908152604051908190036020018120546348bc13a560e11b82526001600160a01b0386811660048401521691508190639178274a90602401610522565b634e487b7160e01b600052604160045260246000fd5b604051601f8201601f1916810167ffffffffffffffff811182821017156114f2576114f26114b3565b604052919050565b600067ffffffffffffffff821115611514576115146114b3565b5060051b60200190565b6001600160a01b038116811461153357600080fd5b50565b80356115418161151e565b919050565b600082601f83011261155757600080fd5b8135602061156c611567836114fa565b6114c9565b82815260059290921b8401810191818101908684111561158b57600080fd5b8286015b848110156115af5780356115a28161151e565b835291830191830161158f565b509695505050505050565b6000602082840312156115cc57600080fd5b813567ffffffffffffffff8111156115e357600080fd5b61056384828501611546565b600082601f83011261160057600080fd5b813567ffffffffffffffff81111561161a5761161a6114b3565b61162d601f8201601f19166020016114c9565b81815284602083860101111561164257600080fd5b816020850160208301376000918101602001919091529392505050565b6000806040838503121561167257600080fd5b823561167d8161151e565b9150602083013567ffffffffffffffff81111561169957600080fd5b6116a5858286016115ef565b9150509250929050565b60008060008060008060008060006101208a8c0312156116ce57600080fd5b893567ffffffffffffffff808211156116e657600080fd5b6116f28d838e016115ef565b9a5061170060208d01611536565b995060408c0135985060608c0135975060808c0135965060a08c0135955060c08c013591508082111561173257600080fd5b61173e8d838e016115ef565b945060e08c013593506101008c013591508082111561175c57600080fd5b506117698c828d016115ef565b9150509295985092959850929598565b60006020828403121561178b57600080fd5b813561119f8161151e565b600080600080608085870312156117ac57600080fd5b84356117b78161151e565b935060208501359250604085013567ffffffffffffffff808211156117db57600080fd5b6117e7888389016115ef565b935060608701359150808211156117fd57600080fd5b5061180a878288016115ef565b91505092959194509250565b6000806040838503121561182957600080fd5b823567ffffffffffffffff8082111561184157600080fd5b818501915085601f83011261185557600080fd5b81356020611865611567836114fa565b82815260059290921b8401810191818101908984111561188457600080fd5b8286015b848110156118bc578035868111156118a05760008081fd5b6118ae8c86838b01016115ef565b845250918301918301611888565b50965050860135925050808211156118d357600080fd5b506116a585828601611546565b6000602082840312156118f257600080fd5b813567ffffffffffffffff81111561190957600080fd5b610563848285016115ef565b634e487b7160e01b600052603260045260246000fd5b600060001982141561194d57634e487b7160e01b600052601160045260246000fd5b5060010190565b6020808252825182820181905260009190848201906040850190845b818110156119955783516001600160a01b031683529284019291840191600101611970565b50909695505050505050565b60005b838110156119bc5781810151838201526020016119a4565b838111156119cb576000848401525b50505050565b600082516119e38184602087016119a1565b9190910192915050565b6000602082840312156119ff57600080fd5b5051919050565b60008151808452611a1e8160208601602086016119a1565b601f01601f19169290920160200192915050565b6000610160808352611a468184018f611a06565b90506001600160a01b03808e166020850152808d1660408501528b60608501528a60808501528960a08501528860c085015280881660e08501525085610100840152828103610120840152611a9b8186611a06565b915050826101408301529c9b505050505050505050505050565b600060208284031215611ac757600080fd5b8151801515811461119f57600080fd5b60a081526000611aea60a0830188611a06565b6001600160a01b039687166020840152949095166040820152606081019290925260809091015292915050565b60006001600160a01b03808716835280861660208401525083604083015260806060830152611b496080830184611a06565b9695505050505050565b608081526000611b666080830187611a06565b6001600160a01b0395861660208401529390941660408201526060015292915050565b600060208284031215611b9b57600080fd5b815161119f8161151e56fea164736f6c634300080c000a",
  "linkReferences": {},
  "deployedLinkReferences": {}
}