{
  "_format": "hh-sol-artifact-1",
  "contractName": "SigmaPoolV2",
  "sourceName": "contracts/v2/sigma_mining/SigmaPoolProxy.sol",
  "abi": [
    {
      "inputs": [
        {
          "internalType": "string[]",
          "name": "_sigmaPoolNameList",
          "type": "string[]"
        },
        {
          "internalType": "address[]",
          "name": "_sigmaPoolAddressList",
          "type": "address[]"
        },
        {
          "internalType": "address",
          "name": "_sigmaActionContractAddress",
          "type": "address"
        }
      ],
      "stateMutability": "nonpayable",
      "type": "constructor"
    },
    {
      "anonymous": false,
      "inputs": [
        {
          "indexed": false,
          "internalType": "address[]",
          "name": "addWorkerList",
          "type": "address[]"
        }
      ],
      "name": "AddWorkers",
      "type": "event"
    },
    {
      "anonymous": false,
      "inputs": [
        {
          "indexed": false,
          "internalType": "address",
          "name": "newAdminAddress",
          "type": "address"
        }
      ],
      "name": "ChangeOwnership",
      "type": "event"
    },
    {
      "anonymous": false,
      "inputs": [
        {
          "indexed": false,
          "internalType": "address[]",
          "name": "newlyAddedPoolAddressList",
          "type": "address[]"
        }
      ],
      "name": "ChangePoolAddress",
      "type": "event"
    },
    {
      "anonymous": false,
      "inputs": [
        {
          "indexed": false,
          "internalType": "address[]",
          "name": "removeWorkerList",
          "type": "address[]"
        }
      ],
      "name": "RemoveWorkers",
      "type": "event"
    },
    {
      "inputs": [
        {
          "internalType": "address[]",
          "name": "_addWorkerList",
          "type": "address[]"
        }
      ],
      "name": "addWorkers",
      "outputs": [],
      "stateMutability": "nonpayable",
      "type": "function"
    },
    {
      "inputs": [
        {
          "internalType": "address",
          "name": "_newActionContractAddress",
          "type": "address"
        }
      ],
      "name": "changeSigmaActionContract",
      "outputs": [],
      "stateMutability": "nonpayable",
      "type": "function"
    },
    {
      "inputs": [
        {
          "internalType": "string[]",
          "name": "_newPoolNameList",
          "type": "string[]"
        },
        {
          "internalType": "address[]",
          "name": "_newPoolAddressList",
          "type": "address[]"
        }
      ],
      "name": "changeSigmaPool",
      "outputs": [],
      "stateMutability": "nonpayable",
      "type": "function"
    },
    {
      "inputs": [
        {
          "internalType": "address",
          "name": "_clientAddress",
          "type": "address"
        },
        {
          "internalType": "string",
          "name": "_poolName",
          "type": "string"
        }
      ],
      "name": "getClientSigmaNonce",
      "outputs": [
        {
          "internalType": "uint256",
          "name": "clientSigmaNonce",
          "type": "uint256"
        }
      ],
      "stateMutability": "view",
      "type": "function"
    },
    {
      "inputs": [
        {
          "internalType": "address",
          "name": "_tokenAddress",
          "type": "address"
        },
        {
          "internalType": "string",
          "name": "_poolName",
          "type": "string"
        }
      ],
      "name": "getLiquidityAmountInPool",
      "outputs": [
        {
          "internalType": "uint256",
          "name": "liquidityInPool",
          "type": "uint256"
        }
      ],
      "stateMutability": "view",
      "type": "function"
    },
    {
      "inputs": [
        {
          "internalType": "address",
          "name": "_tokenAddress",
          "type": "address"
        },
        {
          "internalType": "string",
          "name": "_poolName",
          "type": "string"
        }
      ],
      "name": "getSatisTokenAmountInContract",
      "outputs": [
        {
          "internalType": "uint256",
          "name": "satisTokenInPool",
          "type": "uint256"
        }
      ],
      "stateMutability": "view",
      "type": "function"
    },
    {
      "inputs": [
        {
          "internalType": "string",
          "name": "_poolName",
          "type": "string"
        }
      ],
      "name": "getSigmaPoolAddress",
      "outputs": [
        {
          "internalType": "address",
          "name": "_sigmaPoolAddress",
          "type": "address"
        }
      ],
      "stateMutability": "view",
      "type": "function"
    },
    {
      "inputs": [
        {
          "internalType": "string",
          "name": "_poolName",
          "type": "string"
        }
      ],
      "name": "getSigmaPoolOwner",
      "outputs": [
        {
          "internalType": "address",
          "name": "sigmaPoolOwner",
          "type": "address"
        }
      ],
      "stateMutability": "view",
      "type": "function"
    },
    {
      "inputs": [
        {
          "internalType": "address[]",
          "name": "_removeWorkerList",
          "type": "address[]"
        }
      ],
      "name": "removeWorkers",
      "outputs": [],
      "stateMutability": "nonpayable",
      "type": "function"
    },
    {
      "inputs": [],
      "name": "sigmaActionContractAddress",
      "outputs": [
        {
          "internalType": "address",
          "name": "",
          "type": "address"
        }
      ],
      "stateMutability": "view",
      "type": "function"
    },
    {
      "inputs": [
        {
          "internalType": "address",
          "name": "_tokenAddress",
          "type": "address"
        },
        {
          "internalType": "uint256",
          "name": "_tokenValue",
          "type": "uint256"
        },
        {
          "internalType": "string",
          "name": "_data",
          "type": "string"
        },
        {
          "internalType": "string",
          "name": "_poolName",
          "type": "string"
        }
      ],
      "name": "sigmaAddFundWithAction",
      "outputs": [
        {
          "internalType": "bool",
          "name": "_isDone",
          "type": "bool"
        }
      ],
      "stateMutability": "nonpayable",
      "type": "function"
    },
    {
      "inputs": [],
      "name": "sigmaOwner",
      "outputs": [
        {
          "internalType": "address",
          "name": "",
          "type": "address"
        }
      ],
      "stateMutability": "view",
      "type": "function"
    },
    {
      "inputs": [
        {
          "internalType": "string",
          "name": "",
          "type": "string"
        }
      ],
      "name": "sigmaPoolAddressList",
      "outputs": [
        {
          "internalType": "address",
          "name": "",
          "type": "address"
        }
      ],
      "stateMutability": "view",
      "type": "function"
    },
    {
      "inputs": [
        {
          "internalType": "address",
          "name": "",
          "type": "address"
        }
      ],
      "name": "sigmaProxyWorkerList",
      "outputs": [
        {
          "internalType": "bool",
          "name": "",
          "type": "bool"
        }
      ],
      "stateMutability": "view",
      "type": "function"
    },
    {
      "inputs": [
        {
          "internalType": "bytes",
          "name": "_targetSignature",
          "type": "bytes"
        },
        {
          "internalType": "address",
          "name": "_tokenAddress",
          "type": "address"
        },
        {
          "internalType": "uint256",
          "name": "_partialWithdrawValue",
          "type": "uint256"
        },
        {
          "internalType": "uint256",
          "name": "_tier",
          "type": "uint256"
        },
        {
          "internalType": "uint256",
          "name": "_expBlockNo",
          "type": "uint256"
        },
        {
          "internalType": "uint256",
          "name": "_nonce",
          "type": "uint256"
        },
        {
          "internalType": "string",
          "name": "_poolName",
          "type": "string"
        }
      ],
      "name": "sigmaVerifyAndPartialWithdrawFund",
      "outputs": [
        {
          "internalType": "bool",
          "name": "_isDone",
          "type": "bool"
        }
      ],
      "stateMutability": "nonpayable",
      "type": "function"
    },
    {
      "inputs": [
        {
          "internalType": "bytes",
          "name": "_targetSignature",
          "type": "bytes"
        },
        {
          "internalType": "address",
          "name": "_tokenAddress",
          "type": "address"
        },
        {
          "internalType": "uint256",
          "name": "_queueValue",
          "type": "uint256"
        },
        {
          "internalType": "uint256",
          "name": "_tier",
          "type": "uint256"
        },
        {
          "internalType": "uint256",
          "name": "_expBlockNo",
          "type": "uint256"
        },
        {
          "internalType": "uint256",
          "name": "_nonce",
          "type": "uint256"
        },
        {
          "internalType": "string",
          "name": "_poolName",
          "type": "string"
        }
      ],
      "name": "sigmaVerifyAndQueue",
      "outputs": [
        {
          "internalType": "bool",
          "name": "_isDone",
          "type": "bool"
        }
      ],
      "stateMutability": "nonpayable",
      "type": "function"
    },
    {
      "inputs": [
        {
          "internalType": "bytes",
          "name": "_targetSignature",
          "type": "bytes"
        },
        {
          "internalType": "address",
          "name": "_tokenAddress",
          "type": "address"
        },
        {
          "internalType": "uint256",
          "name": "_redeemValue",
          "type": "uint256"
        },
        {
          "internalType": "uint256",
          "name": "_tier",
          "type": "uint256"
        },
        {
          "internalType": "uint256",
          "name": "_expBlockNo",
          "type": "uint256"
        },
        {
          "internalType": "uint256",
          "name": "_nonce",
          "type": "uint256"
        },
        {
          "internalType": "string",
          "name": "_poolName",
          "type": "string"
        }
      ],
      "name": "sigmaVerifyAndRedeemToken",
      "outputs": [
        {
          "internalType": "bool",
          "name": "_isDone",
          "type": "bool"
        }
      ],
      "stateMutability": "nonpayable",
      "type": "function"
    },
    {
      "inputs": [
        {
          "internalType": "bytes",
          "name": "_targetSignature",
          "type": "bytes"
        },
        {
          "internalType": "address",
          "name": "_tokenAddress",
          "type": "address"
        },
        {
          "internalType": "uint256",
          "name": "_withdrawValue",
          "type": "uint256"
        },
        {
          "internalType": "uint256",
          "name": "_tier",
          "type": "uint256"
        },
        {
          "internalType": "uint256",
          "name": "_expBlockNo",
          "type": "uint256"
        },
        {
          "internalType": "uint256",
          "name": "_nonce",
          "type": "uint256"
        },
        {
          "internalType": "string",
          "name": "_poolName",
          "type": "string"
        }
      ],
      "name": "sigmaVerifyAndWithdrawFund",
      "outputs": [
        {
          "internalType": "bool",
          "name": "_isDone",
          "type": "bool"
        }
      ],
      "stateMutability": "nonpayable",
      "type": "function"
    },
    {
      "inputs": [
        {
          "internalType": "address",
          "name": "_newOwner",
          "type": "address"
        }
      ],
      "name": "transferOwnershipSigmaPoolProxy",
      "outputs": [],
      "stateMutability": "nonpayable",
      "type": "function"
    },
    {
      "inputs": [
        {
          "internalType": "address",
          "name": "_workerAddress",
          "type": "address"
        }
      ],
      "name": "verifySigmaProxyWorker",
      "outputs": [
        {
          "internalType": "bool",
          "name": "_isWorker",
          "type": "bool"
        }
      ],
      "stateMutability": "view",
      "type": "function"
    }
  ],
  "bytecode": "0x60806040523480156200001157600080fd5b5060405162001f1338038062001f1383398101604081905262000034916200031b565b6001600160a01b0381166200009f5760405162461bcd60e51b815260206004820152602660248201527f5a65726f206164647265737320666f72207369676d6120616374696f6e20636f6044820152651b9d1c9858dd60d21b60648201526084015b60405180910390fd5b8151835114620000f25760405162461bcd60e51b815260206004820152601a60248201527f4c6973747327206c656e67746820697320646966666572656e74000000000000604482015260640162000096565b600080546001600160a01b0319163390811782558152600360205260408120805460ff191660011790555b8251811015620001b6578281815181106200013c576200013c6200046b565b602002602001015160028583815181106200015b576200015b6200046b565b602002602001015160405162000172919062000481565b90815260405190819003602001902080546001600160a01b03929092166001600160a01b031990921691909117905580620001ad816200049f565b9150506200011d565b50600180546001600160a01b0319166001600160a01b039290921691909117905550620004c99050565b634e487b7160e01b600052604160045260246000fd5b604051601f8201601f191681016001600160401b0381118282101715620002215762000221620001e0565b604052919050565b60006001600160401b03821115620002455762000245620001e0565b5060051b60200190565b60005b838110156200026c57818101518382015260200162000252565b838111156200027c576000848401525b50505050565b80516001600160a01b03811681146200029a57600080fd5b919050565b600082601f830112620002b157600080fd5b81516020620002ca620002c48362000229565b620001f6565b82815260059290921b84018101918181019086841115620002ea57600080fd5b8286015b848110156200031057620003028162000282565b8352918301918301620002ee565b509695505050505050565b6000806000606084860312156200033157600080fd5b83516001600160401b03808211156200034957600080fd5b818601915086601f8301126200035e57600080fd5b8151602062000371620002c48362000229565b82815260059290921b8401810191818101908a8411156200039157600080fd5b8286015b848110156200042757805186811115620003af5760008081fd5b8701603f81018d13620003c25760008081fd5b84810151604088821115620003db57620003db620001e0565b620003ef601f8301601f19168801620001f6565b8281528f82848601011115620004055760008081fd5b62000416838983018487016200024f565b865250505091830191830162000395565b50918901519197509093505050808211156200044257600080fd5b5062000451868287016200029f565b925050620004626040850162000282565b90509250925092565b634e487b7160e01b600052603260045260246000fd5b60008251620004958184602087016200024f565b9190910192915050565b6000600019821415620004c257634e487b7160e01b600052601160045260246000fd5b5060010190565b611a3a80620004d96000396000f3fe608060405234801561001057600080fd5b506004361061016c5760003560e01c8063a7fc5199116100cd578063e4ff150c11610081578063f6778a2511610066578063f6778a251461033b578063f93333b51461034e578063fad1354e1461036157600080fd5b8063e4ff150c146102f4578063e51e06411461032857600080fd5b8063b55dc088116100b2578063b55dc088146102bb578063bcdc3900146102ce578063e239bf28146102e157600080fd5b8063a7fc519914610295578063ab27ad03146102a857600080fd5b80634d3a2ebe116101245780635f6d2bbc116101095780635f6d2bbc146102445780636777f00a1461026f57806380c03da21461028257600080fd5b80634d3a2ebe1461020557806359fca7a41461021857600080fd5b8063310b4c7311610155578063310b4c73146101ac5780634a3bd1a1146101bf5780634ce1054d146101f257600080fd5b80630111efb714610171578063093988e514610186575b600080fd5b61018461017f3660046114e7565b610374565b005b610199610194366004611594565b610465565b6040519081526020015b60405180910390f35b6101846101ba3660046115e4565b61056b565b6101e26101cd3660046115e4565b60036020526000908152604090205460ff1681565b60405190151581526020016101a3565b6101846102003660046114e7565b610669565b6101e2610213366004611601565b61074a565b6101e26102263660046115e4565b6001600160a01b031660009081526003602052604090205460ff1690565b600154610257906001600160a01b031681565b6040516001600160a01b0390911681526020016101a3565b6101e261027d3660046116b3565b6109ad565b610184610290366004611733565b610b54565b6101e26102a3366004611601565b610cd1565b6102576102b63660046117fd565b610d33565b6102576102c93660046117fd565b610d64565b6101e26102dc366004611601565b610e65565b600054610257906001600160a01b031681565b6102576103023660046117fd565b80516020818301810180516002825292820191909301209152546001600160a01b031681565b610199610336366004611594565b610f95565b6101846103493660046115e4565b611056565b6101e261035c366004611601565b61117f565b61019961036f366004611594565b61131f565b6000546001600160a01b031633146103c25760405162461bcd60e51b815260206004820152600c60248201526b2737ba1030b71030b236b4b760a11b60448201526064015b60405180910390fd5b60005b815181101561042a576001600360008484815181106103e6576103e6611832565b6020908102919091018101516001600160a01b03168252810191909152604001600020805460ff19169115159190911790558061042281611848565b9150506103c5565b507f9e36e65aa003add44ff529b38d35a7fed088dd29f3ab43ee9ee17e449621ff988160405161045a9190611871565b60405180910390a150565b6000806001600160a01b031660028360405161048191906118ee565b908152604051908190036020019020546001600160a01b031614156104d75760405162461bcd60e51b815260206004820152600c60248201526b139bc81cdd58da081c1bdbdb60a21b60448201526064016103b9565b60006002836040516104e991906118ee565b90815260405190819003602001812054634738198f60e11b82526001600160a01b0386811660048401521691508190638e70331e906024015b602060405180830381865afa15801561053f573d6000803e3d6000fd5b505050506040513d601f19601f82011682018060405250810190610563919061190a565b949350505050565b3360009081526003602052604090205460ff1615156001146105be5760405162461bcd60e51b815260206004820152600c60248201526b2737ba1030903bb7b935b2b960a11b60448201526064016103b9565b6001600160a01b03811661063a5760405162461bcd60e51b815260206004820152602a60248201527f5a65726f206164647265737320666f72206e6577207369676d6120616374696f60448201527f6e20636f6e74726163740000000000000000000000000000000000000000000060648201526084016103b9565b6001805473ffffffffffffffffffffffffffffffffffffffff19166001600160a01b0392909216919091179055565b6000546001600160a01b031633146106b25760405162461bcd60e51b815260206004820152600c60248201526b2737ba1030b71030b236b4b760a11b60448201526064016103b9565b60005b815181101561071a576000600360008484815181106106d6576106d6611832565b6020908102919091018101516001600160a01b03168252810191909152604001600020805460ff19169115159190911790558061071281611848565b9150506106b5565b507f76fe8505b7c4b7ba022031c51ac725c7177670399af7d2ebca7026b7e25bf8938160405161045a9190611871565b6000846003146107ac5760405162461bcd60e51b815260206004820152602760248201527f57726f6e672066756e6374696f6e2063616c6c656420666f722077697468647260448201526630bb903a34b2b960c91b60648201526084016103b9565b60006001600160a01b03166002836040516107c791906118ee565b908152604051908190036020019020546001600160a01b0316141561081d5760405162461bcd60e51b815260206004820152600c60248201526b139bc81cdd58da081c1bdbdb60a21b60448201526064016103b9565b600060028360405161082f91906118ee565b908152602001604051809103902060009054906101000a90046001600160a01b031690506000816001600160a01b03166394b466608b338c8c8c4660028c60405161087a91906118ee565b908152602001604051809103902060009054906101000a90046001600160a01b03168e8e6040518a63ffffffff1660e01b81526004016108c29998979695949392919061194f565b6020604051808303816000875af11580156108e1573d6000803e3d6000fd5b505050506040513d601f19601f8201168201806040525081019061090591906119b2565b600154604051633d896edf60e21b81523360048201526001600160a01b038c81166024830152604482018c9052606482018b9052929350911690600090829063f625bb7c906084015b6020604051808303816000875af115801561096d573d6000803e3d6000fd5b505050506040513d601f19601f8201168201806040525081019061099191906119b2565b905082801561099d5750805b9c9b505050505050505050505050565b6000806001600160a01b03166002836040516109c991906118ee565b908152604051908190036020019020546001600160a01b03161415610a1f5760405162461bcd60e51b815260206004820152600c60248201526b139bc81cdd58da081c1bdbdb60a21b60448201526064016103b9565b6000600283604051610a3191906118ee565b90815260405190819003602001812054635dd72c0f60e01b82523360048301526001600160a01b038881166024840152604483018890521691506000908290635dd72c0f906064016020604051808303816000875af1158015610a98573d6000803e3d6000fd5b505050506040513d601f19601f82011682018060405250810190610abc91906119b2565b6001546040516366e391f160e01b81529192506001600160a01b03169060009082906366e391f190610af89033908d908d908d906004016119d4565b6020604051808303816000875af1158015610b17573d6000803e3d6000fd5b505050506040513d601f19601f82011682018060405250810190610b3b91906119b2565b9050828015610b475750805b9998505050505050505050565b3360009081526003602052604090205460ff161515600114610ba75760405162461bcd60e51b815260206004820152600c60248201526b2737ba1030903bb7b935b2b960a11b60448201526064016103b9565b8051825114610bf85760405162461bcd60e51b815260206004820152601a60248201527f4c6973747327206c656e67746820697320646966666572656e7400000000000060448201526064016103b9565b60005b8151811015610c9557818181518110610c1657610c16611832565b60200260200101516002848381518110610c3257610c32611832565b6020026020010151604051610c4791906118ee565b90815260405190819003602001902080546001600160a01b039290921673ffffffffffffffffffffffffffffffffffffffff1990921691909117905580610c8d81611848565b915050610bfb565b507f041572ba5a007337eb900b91bde4bf7a58838c66fe504a88a09c15d551891c8381604051610cc59190611871565b60405180910390a15050565b6000846001146107ac5760405162461bcd60e51b815260206004820152602760248201527f57726f6e672066756e6374696f6e2063616c6c656420666f722077697468647260448201526630bb903a34b2b960c91b60648201526084016103b9565b6000600282604051610d4591906118ee565b908152604051908190036020019020546001600160a01b031692915050565b6000806001600160a01b0316600283604051610d8091906118ee565b908152604051908190036020019020546001600160a01b03161415610dd65760405162461bcd60e51b815260206004820152600c60248201526b139bc81cdd58da081c1bdbdb60a21b60448201526064016103b9565b6000600283604051610de891906118ee565b908152604080516020928190038301812054638da5cb5b60e01b825291516001600160a01b0390921693508392638da5cb5b926004808401938290030181865afa158015610e3a573d6000803e3d6000fd5b505050506040513d601f19601f82011682018060405250810190610e5e9190611a10565b9392505050565b600084600214610ec75760405162461bcd60e51b815260206004820152602760248201527f57726f6e672066756e6374696f6e2063616c6c656420666f722077697468647260448201526630bb903a34b2b960c91b60648201526084016103b9565b60006001600160a01b0316600283604051610ee291906118ee565b908152604051908190036020019020546001600160a01b03161415610f385760405162461bcd60e51b815260206004820152600c60248201526b139bc81cdd58da081c1bdbdb60a21b60448201526064016103b9565b6000600283604051610f4a91906118ee565b908152602001604051809103902060009054906101000a90046001600160a01b031690506000816001600160a01b031663bfeebfd28b338c8c8c4660028c60405161087a91906118ee565b6000806001600160a01b0316600283604051610fb191906118ee565b908152604051908190036020019020546001600160a01b031614156110075760405162461bcd60e51b815260206004820152600c60248201526b139bc81cdd58da081c1bdbdb60a21b60448201526064016103b9565b600060028360405161101991906118ee565b908152604051908190036020018120546371b9952d60e01b82526001600160a01b03868116600484015216915081906371b9952d90602401610522565b6000546001600160a01b0316331461109f5760405162461bcd60e51b815260206004820152600c60248201526b2737ba1030b71030b236b4b760a11b60448201526064016103b9565b6001600160a01b0381166110f55760405162461bcd60e51b815260206004820181905260248201527f5a65726f206164647265737320666f72206e6577207369676d61206f776e657260448201526064016103b9565b600080546001600160a01b039081168252600360209081526040808420805460ff19908116909155845473ffffffffffffffffffffffffffffffffffffffff19168685169081178655855281852080549091166001179055925492519290911682527f244ded7a3b73e60f03281fc183df050e6134d393c50788e980dc090f06e72809910161045a565b6000806001600160a01b031660028360405161119b91906118ee565b908152604051908190036020019020546001600160a01b031614156111f15760405162461bcd60e51b815260206004820152600c60248201526b139bc81cdd58da081c1bdbdb60a21b60448201526064016103b9565b600060028360405161120391906118ee565b908152602001604051809103902060009054906101000a90046001600160a01b031690506000816001600160a01b0316639c7335b48b338c8c8c4660028c60405161124e91906118ee565b908152602001604051809103902060009054906101000a90046001600160a01b03168e8e6040518a63ffffffff1660e01b81526004016112969998979695949392919061194f565b6020604051808303816000875af11580156112b5573d6000803e3d6000fd5b505050506040513d601f19601f820116820180604052508101906112d991906119b2565b60015460405163328447a560e01b81523360048201526001600160a01b038c81166024830152604482018c9052929350911690600090829063328447a59060640161094e565b6000806001600160a01b031660028360405161133b91906118ee565b908152604051908190036020019020546001600160a01b031614156113915760405162461bcd60e51b815260206004820152600c60248201526b139bc81cdd58da081c1bdbdb60a21b60448201526064016103b9565b60006002836040516113a391906118ee565b908152604051908190036020018120546348bc13a560e11b82526001600160a01b0386811660048401521691508190639178274a90602401610522565b634e487b7160e01b600052604160045260246000fd5b604051601f8201601f1916810167ffffffffffffffff8111828210171561141f5761141f6113e0565b604052919050565b600067ffffffffffffffff821115611441576114416113e0565b5060051b60200190565b6001600160a01b038116811461146057600080fd5b50565b803561146e8161144b565b919050565b600082601f83011261148457600080fd5b8135602061149961149483611427565b6113f6565b82815260059290921b840181019181810190868411156114b857600080fd5b8286015b848110156114dc5780356114cf8161144b565b83529183019183016114bc565b509695505050505050565b6000602082840312156114f957600080fd5b813567ffffffffffffffff81111561151057600080fd5b61056384828501611473565b600067ffffffffffffffff831115611536576115366113e0565b611549601f8401601f19166020016113f6565b905082815283838301111561155d57600080fd5b828260208301376000602084830101529392505050565b600082601f83011261158557600080fd5b610e5e8383356020850161151c565b600080604083850312156115a757600080fd5b82356115b28161144b565b9150602083013567ffffffffffffffff8111156115ce57600080fd5b6115da85828601611574565b9150509250929050565b6000602082840312156115f657600080fd5b8135610e5e8161144b565b600080600080600080600060e0888a03121561161c57600080fd5b873567ffffffffffffffff8082111561163457600080fd5b818a0191508a601f83011261164857600080fd5b6116578b83356020850161151c565b985061166560208b01611463565b975060408a0135965060608a0135955060808a0135945060a08a0135935060c08a013591508082111561169757600080fd5b506116a48a828b01611574565b91505092959891949750929550565b600080600080608085870312156116c957600080fd5b84356116d48161144b565b935060208501359250604085013567ffffffffffffffff808211156116f857600080fd5b61170488838901611574565b9350606087013591508082111561171a57600080fd5b5061172787828801611574565b91505092959194509250565b6000806040838503121561174657600080fd5b823567ffffffffffffffff8082111561175e57600080fd5b818501915085601f83011261177257600080fd5b8135602061178261149483611427565b82815260059290921b840181019181810190898411156117a157600080fd5b8286015b848110156117d9578035868111156117bd5760008081fd5b6117cb8c86838b0101611574565b8452509183019183016117a5565b50965050860135925050808211156117f057600080fd5b506115da85828601611473565b60006020828403121561180f57600080fd5b813567ffffffffffffffff81111561182657600080fd5b61056384828501611574565b634e487b7160e01b600052603260045260246000fd5b600060001982141561186a57634e487b7160e01b600052601160045260246000fd5b5060010190565b6020808252825182820181905260009190848201906040850190845b818110156118b25783516001600160a01b03168352928401929184019160010161188d565b50909695505050505050565b60005b838110156118d95781810151838201526020016118c1565b838111156118e8576000848401525b50505050565b600082516119008184602087016118be565b9190910192915050565b60006020828403121561191c57600080fd5b5051919050565b6000815180845261193b8160208601602086016118be565b601f01601f19169290920160200192915050565b60006101208083526119638184018d611923565b6001600160a01b039b8c166020850152998b16604084015250506060810196909652608086019490945260a085019290925290941660c083015260e08201939093526101000191909152919050565b6000602082840312156119c457600080fd5b81518015158114610e5e57600080fd5b60006001600160a01b03808716835280861660208401525083604083015260806060830152611a066080830184611923565b9695505050505050565b600060208284031215611a2257600080fd5b8151610e5e8161144b56fea164736f6c634300080c000a",
  "linkReferences": {},
  "deployedLinkReferences": {}
}